{
  "abi": [
    {
      "anonymous": false,
      "inputs": [
        {
          "indexed": false,
          "internalType": "address",
          "name": "addr",
          "type": "address"
        },
        {
          "indexed": false,
          "internalType": "uint256",
          "name": "commitment",
          "type": "uint256"
        }
      ],
      "name": "AddedCommitment",
      "type": "event"
    },
    {
      "anonymous": false,
      "inputs": [
        {
          "indexed": true,
          "internalType": "address",
          "name": "beneficiary",
          "type": "address"
        },
        {
          "indexed": true,
          "internalType": "address",
          "name": "caller",
          "type": "address"
        }
      ],
      "name": "AdminRoleGranted",
      "type": "event"
    },
    {
      "anonymous": false,
      "inputs": [
        {
          "indexed": true,
          "internalType": "address",
          "name": "beneficiary",
          "type": "address"
        },
        {
          "indexed": true,
          "internalType": "address",
          "name": "caller",
          "type": "address"
        }
      ],
      "name": "AdminRoleRemoved",
      "type": "event"
    },
    {
      "anonymous": false,
      "inputs": [],
      "name": "AuctionCancelled",
      "type": "event"
    },
    {
      "anonymous": false,
      "inputs": [],
      "name": "AuctionFinalized",
      "type": "event"
    },
    {
      "anonymous": false,
      "inputs": [
        {
          "indexed": false,
          "internalType": "uint256",
          "name": "rate",
          "type": "uint256"
        },
        {
          "indexed": false,
          "internalType": "uint256",
          "name": "goal",
          "type": "uint256"
        }
      ],
      "name": "AuctionPriceUpdated",
      "type": "event"
    },
    {
      "anonymous": false,
      "inputs": [
        {
          "indexed": false,
          "internalType": "uint256",
          "name": "startTime",
          "type": "uint256"
        },
        {
          "indexed": false,
          "internalType": "uint256",
          "name": "endTime",
          "type": "uint256"
        }
      ],
      "name": "AuctionTimeUpdated",
      "type": "event"
    },
    {
      "anonymous": false,
      "inputs": [
        {
          "indexed": false,
          "internalType": "address",
          "name": "wallet",
          "type": "address"
        }
      ],
      "name": "AuctionWalletUpdated",
      "type": "event"
    },
    {
      "anonymous": false,
      "inputs": [
        {
          "indexed": true,
          "internalType": "string",
          "name": "_name",
          "type": "string"
        },
        {
          "indexed": false,
          "internalType": "string",
          "name": "_data",
          "type": "string"
        }
      ],
      "name": "DocumentRemoved",
      "type": "event"
    },
    {
      "anonymous": false,
      "inputs": [
        {
          "indexed": true,
          "internalType": "string",
          "name": "_name",
          "type": "string"
        },
        {
          "indexed": false,
          "internalType": "string",
          "name": "_data",
          "type": "string"
        }
      ],
      "name": "DocumentUpdated",
      "type": "event"
    },
    {
      "anonymous": false,
      "inputs": [
        {
          "indexed": true,
          "internalType": "address",
          "name": "beneficiary",
          "type": "address"
        },
        {
          "indexed": true,
          "internalType": "address",
          "name": "caller",
          "type": "address"
        }
      ],
      "name": "MinterRoleGranted",
      "type": "event"
    },
    {
      "anonymous": false,
      "inputs": [
        {
          "indexed": true,
          "internalType": "address",
          "name": "beneficiary",
          "type": "address"
        },
        {
          "indexed": true,
          "internalType": "address",
          "name": "caller",
          "type": "address"
        }
      ],
      "name": "MinterRoleRemoved",
      "type": "event"
    },
    {
      "anonymous": false,
      "inputs": [
        {
          "indexed": true,
          "internalType": "address",
          "name": "beneficiary",
          "type": "address"
        },
        {
          "indexed": true,
          "internalType": "address",
          "name": "caller",
          "type": "address"
        }
      ],
      "name": "OperatorRoleGranted",
      "type": "event"
    },
    {
      "anonymous": false,
      "inputs": [
        {
          "indexed": true,
          "internalType": "address",
          "name": "beneficiary",
          "type": "address"
        },
        {
          "indexed": true,
          "internalType": "address",
          "name": "caller",
          "type": "address"
        }
      ],
      "name": "OperatorRoleRemoved",
      "type": "event"
    },
    {
      "anonymous": false,
      "inputs": [
        {
          "indexed": true,
          "internalType": "bytes32",
          "name": "role",
          "type": "bytes32"
        },
        {
          "indexed": true,
          "internalType": "bytes32",
          "name": "previousAdminRole",
          "type": "bytes32"
        },
        {
          "indexed": true,
          "internalType": "bytes32",
          "name": "newAdminRole",
          "type": "bytes32"
        }
      ],
      "name": "RoleAdminChanged",
      "type": "event"
    },
    {
      "anonymous": false,
      "inputs": [
        {
          "indexed": true,
          "internalType": "bytes32",
          "name": "role",
          "type": "bytes32"
        },
        {
          "indexed": true,
          "internalType": "address",
          "name": "account",
          "type": "address"
        },
        {
          "indexed": true,
          "internalType": "address",
          "name": "sender",
          "type": "address"
        }
      ],
      "name": "RoleGranted",
      "type": "event"
    },
    {
      "anonymous": false,
      "inputs": [
        {
          "indexed": true,
          "internalType": "bytes32",
          "name": "role",
          "type": "bytes32"
        },
        {
          "indexed": true,
          "internalType": "address",
          "name": "account",
          "type": "address"
        },
        {
          "indexed": true,
          "internalType": "address",
          "name": "sender",
          "type": "address"
        }
      ],
      "name": "RoleRevoked",
      "type": "event"
    },
    {
      "anonymous": false,
      "inputs": [
        {
          "indexed": true,
          "internalType": "address",
          "name": "beneficiary",
          "type": "address"
        },
        {
          "indexed": true,
          "internalType": "address",
          "name": "caller",
          "type": "address"
        }
      ],
      "name": "SmartContractRoleGranted",
      "type": "event"
    },
    {
      "anonymous": false,
      "inputs": [
        {
          "indexed": true,
          "internalType": "address",
          "name": "beneficiary",
          "type": "address"
        },
        {
          "indexed": true,
          "internalType": "address",
          "name": "caller",
          "type": "address"
        }
      ],
      "name": "SmartContractRoleRemoved",
      "type": "event"
    },
    {
      "inputs": [],
      "name": "DEFAULT_ADMIN_ROLE",
      "outputs": [
        {
          "internalType": "bytes32",
          "name": "",
          "type": "bytes32"
        }
      ],
      "stateMutability": "view",
      "type": "function"
    },
    {
      "inputs": [],
      "name": "MINTER_ROLE",
      "outputs": [
        {
          "internalType": "bytes32",
          "name": "",
          "type": "bytes32"
        }
      ],
      "stateMutability": "view",
      "type": "function"
    },
    {
      "inputs": [],
      "name": "OPERATOR_ROLE",
      "outputs": [
        {
          "internalType": "bytes32",
          "name": "",
          "type": "bytes32"
        }
      ],
      "stateMutability": "view",
      "type": "function"
    },
    {
      "inputs": [],
      "name": "SMART_CONTRACT_ROLE",
      "outputs": [
        {
          "internalType": "bytes32",
          "name": "",
          "type": "bytes32"
        }
      ],
      "stateMutability": "view",
      "type": "function"
    },
    {
      "inputs": [
        {
          "internalType": "address",
          "name": "_address",
          "type": "address"
        }
      ],
      "name": "addAdminRole",
      "outputs": [],
      "stateMutability": "nonpayable",
      "type": "function"
    },
    {
      "inputs": [
        {
          "internalType": "address",
          "name": "_address",
          "type": "address"
        }
      ],
      "name": "addMinterRole",
      "outputs": [],
      "stateMutability": "nonpayable",
      "type": "function"
    },
    {
      "inputs": [
        {
          "internalType": "address",
          "name": "_address",
          "type": "address"
        }
      ],
      "name": "addOperatorRole",
      "outputs": [],
      "stateMutability": "nonpayable",
      "type": "function"
    },
    {
      "inputs": [
        {
          "internalType": "address",
          "name": "_address",
          "type": "address"
        }
      ],
      "name": "addSmartContractRole",
      "outputs": [],
      "stateMutability": "nonpayable",
      "type": "function"
    },
    {
      "inputs": [],
      "name": "auctionEnded",
      "outputs": [
        {
          "internalType": "bool",
          "name": "",
          "type": "bool"
        }
      ],
      "stateMutability": "view",
      "type": "function"
    },
    {
      "inputs": [],
      "name": "auctionSuccessful",
      "outputs": [
        {
          "internalType": "bool",
          "name": "",
          "type": "bool"
        }
      ],
      "stateMutability": "view",
      "type": "function"
    },
    {
      "inputs": [],
      "name": "auctionToken",
      "outputs": [
        {
          "internalType": "address",
          "name": "",
          "type": "address"
        }
      ],
      "stateMutability": "view",
      "type": "function"
    },
    {
      "inputs": [
        {
          "internalType": "bytes[]",
          "name": "calls",
          "type": "bytes[]"
        },
        {
          "internalType": "bool",
          "name": "revertOnFail",
          "type": "bool"
        }
      ],
      "name": "batch",
      "outputs": [
        {
          "internalType": "bool[]",
          "name": "successes",
          "type": "bool[]"
        },
        {
          "internalType": "bytes[]",
          "name": "results",
          "type": "bytes[]"
        }
      ],
      "stateMutability": "payable",
      "type": "function"
    },
    {
      "inputs": [
        {
          "internalType": "uint256",
          "name": "_commitment",
          "type": "uint256"
        }
      ],
      "name": "calculateCommitment",
      "outputs": [
        {
          "internalType": "uint256",
          "name": "committed",
          "type": "uint256"
        }
      ],
      "stateMutability": "view",
      "type": "function"
    },
    {
      "inputs": [],
      "name": "cancelAuction",
      "outputs": [],
      "stateMutability": "nonpayable",
      "type": "function"
    },
    {
      "inputs": [
        {
          "internalType": "address",
          "name": "",
          "type": "address"
        }
      ],
      "name": "claimed",
      "outputs": [
        {
          "internalType": "uint256",
          "name": "",
          "type": "uint256"
        }
      ],
      "stateMutability": "view",
      "type": "function"
    },
    {
      "inputs": [
        {
          "internalType": "address payable",
          "name": "_beneficiary",
          "type": "address"
        },
        {
          "internalType": "bool",
          "name": "readAndAgreedToMarketParticipationAgreement",
          "type": "bool"
        }
      ],
      "name": "commitEth",
      "outputs": [],
      "stateMutability": "payable",
      "type": "function"
    },
    {
      "inputs": [
        {
          "internalType": "uint256",
          "name": "_amount",
          "type": "uint256"
        },
        {
          "internalType": "bool",
          "name": "readAndAgreedToMarketParticipationAgreement",
          "type": "bool"
        }
      ],
      "name": "commitTokens",
      "outputs": [],
      "stateMutability": "nonpayable",
      "type": "function"
    },
    {
      "inputs": [
        {
          "internalType": "address",
          "name": "_from",
          "type": "address"
        },
        {
          "internalType": "uint256",
          "name": "_amount",
          "type": "uint256"
        },
        {
          "internalType": "bool",
          "name": "readAndAgreedToMarketParticipationAgreement",
          "type": "bool"
        }
      ],
      "name": "commitTokensFrom",
      "outputs": [],
      "stateMutability": "nonpayable",
      "type": "function"
    },
    {
      "inputs": [
        {
          "internalType": "address",
          "name": "",
          "type": "address"
        }
      ],
      "name": "commitments",
      "outputs": [
        {
          "internalType": "uint256",
          "name": "",
          "type": "uint256"
        }
      ],
      "stateMutability": "view",
      "type": "function"
    },
    {
      "inputs": [
        {
          "internalType": "bool",
          "name": "_status",
          "type": "bool"
        }
      ],
      "name": "enableList",
      "outputs": [],
      "stateMutability": "nonpayable",
      "type": "function"
    },
    {
      "inputs": [],
      "name": "finalize",
      "outputs": [],
      "stateMutability": "nonpayable",
      "type": "function"
    },
    {
      "inputs": [],
      "name": "finalizeTimeExpired",
      "outputs": [
        {
          "internalType": "bool",
          "name": "",
          "type": "bool"
        }
      ],
      "stateMutability": "view",
      "type": "function"
    },
    {
      "inputs": [],
      "name": "finalized",
      "outputs": [
        {
          "internalType": "bool",
          "name": "",
          "type": "bool"
        }
      ],
      "stateMutability": "view",
      "type": "function"
    },
    {
      "inputs": [],
      "name": "getAllDocuments",
      "outputs": [
        {
          "internalType": "string[]",
          "name": "",
          "type": "string[]"
        }
      ],
      "stateMutability": "view",
      "type": "function"
    },
    {
      "inputs": [],
      "name": "getBaseInformation",
      "outputs": [
        {
          "internalType": "address",
          "name": "",
          "type": "address"
        },
        {
          "internalType": "uint64",
          "name": "",
          "type": "uint64"
        },
        {
          "internalType": "uint64",
          "name": "",
          "type": "uint64"
        },
        {
          "internalType": "bool",
          "name": "",
          "type": "bool"
        }
      ],
      "stateMutability": "view",
      "type": "function"
    },
    {
      "inputs": [
        {
          "internalType": "address",
          "name": "_funder",
          "type": "address"
        },
        {
          "internalType": "address",
          "name": "_token",
          "type": "address"
        },
        {
          "internalType": "address",
          "name": "_paymentCurrency",
          "type": "address"
        },
        {
          "internalType": "uint256",
          "name": "_totalTokens",
          "type": "uint256"
        },
        {
          "internalType": "uint256",
          "name": "_startTime",
          "type": "uint256"
        },
        {
          "internalType": "uint256",
          "name": "_endTime",
          "type": "uint256"
        },
        {
          "internalType": "uint256",
          "name": "_rate",
          "type": "uint256"
        },
        {
          "internalType": "uint256",
          "name": "_goal",
          "type": "uint256"
        },
        {
          "internalType": "address",
          "name": "_admin",
          "type": "address"
        },
        {
          "internalType": "address",
          "name": "_pointList",
          "type": "address"
        },
        {
          "internalType": "address payable",
          "name": "_wallet",
          "type": "address"
        }
      ],
      "name": "getCrowdsaleInitData",
      "outputs": [
        {
          "internalType": "bytes",
          "name": "_data",
          "type": "bytes"
        }
      ],
      "stateMutability": "pure",
      "type": "function"
    },
    {
      "inputs": [
        {
          "internalType": "string",
          "name": "_name",
          "type": "string"
        }
      ],
      "name": "getDocument",
      "outputs": [
        {
          "internalType": "string",
          "name": "",
          "type": "string"
        },
        {
          "internalType": "uint256",
          "name": "",
          "type": "uint256"
        }
      ],
      "stateMutability": "view",
      "type": "function"
    },
    {
      "inputs": [],
      "name": "getDocumentCount",
      "outputs": [
        {
          "internalType": "uint256",
          "name": "",
          "type": "uint256"
        }
      ],
      "stateMutability": "view",
      "type": "function"
    },
    {
      "inputs": [
        {
          "internalType": "uint256",
          "name": "_index",
          "type": "uint256"
        }
      ],
      "name": "getDocumentName",
      "outputs": [
        {
          "internalType": "string",
          "name": "",
          "type": "string"
        }
      ],
      "stateMutability": "view",
      "type": "function"
    },
    {
      "inputs": [
        {
          "internalType": "bytes32",
          "name": "role",
          "type": "bytes32"
        }
      ],
      "name": "getRoleAdmin",
      "outputs": [
        {
          "internalType": "bytes32",
          "name": "",
          "type": "bytes32"
        }
      ],
      "stateMutability": "view",
      "type": "function"
    },
    {
      "inputs": [
        {
          "internalType": "bytes32",
          "name": "role",
          "type": "bytes32"
        },
        {
          "internalType": "uint256",
          "name": "index",
          "type": "uint256"
        }
      ],
      "name": "getRoleMember",
      "outputs": [
        {
          "internalType": "address",
          "name": "",
          "type": "address"
        }
      ],
      "stateMutability": "view",
      "type": "function"
    },
    {
      "inputs": [
        {
          "internalType": "bytes32",
          "name": "role",
          "type": "bytes32"
        }
      ],
      "name": "getRoleMemberCount",
      "outputs": [
        {
          "internalType": "uint256",
          "name": "",
          "type": "uint256"
        }
      ],
      "stateMutability": "view",
      "type": "function"
    },
    {
      "inputs": [
        {
          "internalType": "uint256",
          "name": "_amount",
          "type": "uint256"
        }
      ],
      "name": "getTokenAmount",
      "outputs": [
        {
          "internalType": "uint256",
          "name": "",
          "type": "uint256"
        }
      ],
      "stateMutability": "view",
      "type": "function"
    },
    {
      "inputs": [],
      "name": "getTotalTokens",
      "outputs": [
        {
          "internalType": "uint256",
          "name": "",
          "type": "uint256"
        }
      ],
      "stateMutability": "view",
      "type": "function"
    },
    {
      "inputs": [
        {
          "internalType": "bytes32",
          "name": "role",
          "type": "bytes32"
        },
        {
          "internalType": "address",
          "name": "account",
          "type": "address"
        }
      ],
      "name": "grantRole",
      "outputs": [],
      "stateMutability": "nonpayable",
      "type": "function"
    },
    {
      "inputs": [
        {
          "internalType": "address",
          "name": "_address",
          "type": "address"
        }
      ],
      "name": "hasAdminRole",
      "outputs": [
        {
          "internalType": "bool",
          "name": "",
          "type": "bool"
        }
      ],
      "stateMutability": "view",
      "type": "function"
    },
    {
      "inputs": [
        {
          "internalType": "address",
          "name": "_address",
          "type": "address"
        }
      ],
      "name": "hasMinterRole",
      "outputs": [
        {
          "internalType": "bool",
          "name": "",
          "type": "bool"
        }
      ],
      "stateMutability": "view",
      "type": "function"
    },
    {
      "inputs": [
        {
          "internalType": "address",
          "name": "_address",
          "type": "address"
        }
      ],
      "name": "hasOperatorRole",
      "outputs": [
        {
          "internalType": "bool",
          "name": "",
          "type": "bool"
        }
      ],
      "stateMutability": "view",
      "type": "function"
    },
    {
      "inputs": [
        {
          "internalType": "bytes32",
          "name": "role",
          "type": "bytes32"
        },
        {
          "internalType": "address",
          "name": "account",
          "type": "address"
        }
      ],
      "name": "hasRole",
      "outputs": [
        {
          "internalType": "bool",
          "name": "",
          "type": "bool"
        }
      ],
      "stateMutability": "view",
      "type": "function"
    },
    {
      "inputs": [
        {
          "internalType": "address",
          "name": "_address",
          "type": "address"
        }
      ],
      "name": "hasSmartContractRole",
      "outputs": [
        {
          "internalType": "bool",
          "name": "",
          "type": "bool"
        }
      ],
      "stateMutability": "view",
      "type": "function"
    },
    {
      "inputs": [
        {
          "internalType": "bytes",
          "name": "_data",
          "type": "bytes"
        }
      ],
      "name": "init",
      "outputs": [],
      "stateMutability": "payable",
      "type": "function"
    },
    {
      "inputs": [
        {
          "internalType": "address",
          "name": "_admin",
          "type": "address"
        }
      ],
      "name": "initAccessControls",
      "outputs": [],
      "stateMutability": "nonpayable",
      "type": "function"
    },
    {
      "inputs": [
        {
          "internalType": "address",
          "name": "_funder",
          "type": "address"
        },
        {
          "internalType": "address",
          "name": "_token",
          "type": "address"
        },
        {
          "internalType": "address",
          "name": "_paymentCurrency",
          "type": "address"
        },
        {
          "internalType": "uint256",
          "name": "_totalTokens",
          "type": "uint256"
        },
        {
          "internalType": "uint256",
          "name": "_startTime",
          "type": "uint256"
        },
        {
          "internalType": "uint256",
          "name": "_endTime",
          "type": "uint256"
        },
        {
          "internalType": "uint256",
          "name": "_rate",
          "type": "uint256"
        },
        {
          "internalType": "uint256",
          "name": "_goal",
          "type": "uint256"
        },
        {
          "internalType": "address",
          "name": "_admin",
          "type": "address"
        },
        {
          "internalType": "address",
          "name": "_pointList",
          "type": "address"
        },
        {
          "internalType": "address payable",
          "name": "_wallet",
          "type": "address"
        }
      ],
      "name": "initCrowdsale",
      "outputs": [],
      "stateMutability": "nonpayable",
      "type": "function"
    },
    {
      "inputs": [
        {
          "internalType": "bytes",
          "name": "_data",
          "type": "bytes"
        }
      ],
      "name": "initMarket",
      "outputs": [],
      "stateMutability": "nonpayable",
      "type": "function"
    },
    {
      "inputs": [],
      "name": "isOpen",
      "outputs": [
        {
          "internalType": "bool",
          "name": "",
          "type": "bool"
        }
      ],
      "stateMutability": "view",
      "type": "function"
    },
    {
      "inputs": [],
      "name": "marketInfo",
      "outputs": [
        {
          "internalType": "uint64",
          "name": "startTime",
          "type": "uint64"
        },
        {
          "internalType": "uint64",
          "name": "endTime",
          "type": "uint64"
        },
        {
          "internalType": "uint128",
          "name": "totalTokens",
          "type": "uint128"
        }
      ],
      "stateMutability": "view",
      "type": "function"
    },
    {
      "inputs": [],
      "name": "marketParticipationAgreement",
      "outputs": [
        {
          "internalType": "string",
          "name": "",
          "type": "string"
        }
      ],
      "stateMutability": "pure",
      "type": "function"
    },
    {
      "inputs": [],
      "name": "marketPrice",
      "outputs": [
        {
          "internalType": "uint128",
          "name": "rate",
          "type": "uint128"
        },
        {
          "internalType": "uint128",
          "name": "goal",
          "type": "uint128"
        }
      ],
      "stateMutability": "view",
      "type": "function"
    },
    {
      "inputs": [],
      "name": "marketStatus",
      "outputs": [
        {
          "internalType": "uint128",
          "name": "commitmentsTotal",
          "type": "uint128"
        },
        {
          "internalType": "bool",
          "name": "finalized",
          "type": "bool"
        },
        {
          "internalType": "bool",
          "name": "usePointList",
          "type": "bool"
        }
      ],
      "stateMutability": "view",
      "type": "function"
    },
    {
      "inputs": [],
      "name": "marketTemplate",
      "outputs": [
        {
          "internalType": "uint256",
          "name": "",
          "type": "uint256"
        }
      ],
      "stateMutability": "view",
      "type": "function"
    },
    {
      "inputs": [],
      "name": "paymentCurrency",
      "outputs": [
        {
          "internalType": "address",
          "name": "",
          "type": "address"
        }
      ],
      "stateMutability": "view",
      "type": "function"
    },
    {
      "inputs": [
        {
          "internalType": "contract IERC20",
          "name": "token",
          "type": "address"
        },
        {
          "internalType": "address",
          "name": "from",
          "type": "address"
        },
        {
          "internalType": "address",
          "name": "to",
          "type": "address"
        },
        {
          "internalType": "uint256",
          "name": "amount",
          "type": "uint256"
        },
        {
          "internalType": "uint256",
          "name": "deadline",
          "type": "uint256"
        },
        {
          "internalType": "uint8",
          "name": "v",
          "type": "uint8"
        },
        {
          "internalType": "bytes32",
          "name": "r",
          "type": "bytes32"
        },
        {
          "internalType": "bytes32",
          "name": "s",
          "type": "bytes32"
        }
      ],
      "name": "permitToken",
      "outputs": [],
      "stateMutability": "nonpayable",
      "type": "function"
    },
    {
      "inputs": [],
      "name": "pointList",
      "outputs": [
        {
          "internalType": "address",
          "name": "",
          "type": "address"
        }
      ],
      "stateMutability": "view",
      "type": "function"
    },
    {
      "inputs": [
        {
          "internalType": "address",
          "name": "_address",
          "type": "address"
        }
      ],
      "name": "removeAdminRole",
      "outputs": [],
      "stateMutability": "nonpayable",
      "type": "function"
    },
    {
      "inputs": [
        {
          "internalType": "string",
          "name": "_name",
          "type": "string"
        }
      ],
      "name": "removeDocument",
      "outputs": [],
      "stateMutability": "nonpayable",
      "type": "function"
    },
    {
      "inputs": [
        {
          "internalType": "address",
          "name": "_address",
          "type": "address"
        }
      ],
      "name": "removeMinterRole",
      "outputs": [],
      "stateMutability": "nonpayable",
      "type": "function"
    },
    {
      "inputs": [
        {
          "internalType": "address",
          "name": "_address",
          "type": "address"
        }
      ],
      "name": "removeOperatorRole",
      "outputs": [],
      "stateMutability": "nonpayable",
      "type": "function"
    },
    {
      "inputs": [
        {
          "internalType": "address",
          "name": "_address",
          "type": "address"
        }
      ],
      "name": "removeSmartContractRole",
      "outputs": [],
      "stateMutability": "nonpayable",
      "type": "function"
    },
    {
      "inputs": [
        {
          "internalType": "bytes32",
          "name": "role",
          "type": "bytes32"
        },
        {
          "internalType": "address",
          "name": "account",
          "type": "address"
        }
      ],
      "name": "renounceRole",
      "outputs": [],
      "stateMutability": "nonpayable",
      "type": "function"
    },
    {
      "inputs": [
        {
          "internalType": "bytes32",
          "name": "role",
          "type": "bytes32"
        },
        {
          "internalType": "address",
          "name": "account",
          "type": "address"
        }
      ],
      "name": "revokeRole",
      "outputs": [],
      "stateMutability": "nonpayable",
      "type": "function"
    },
    {
      "inputs": [
        {
          "internalType": "uint256",
          "name": "_rate",
          "type": "uint256"
        },
        {
          "internalType": "uint256",
          "name": "_goal",
          "type": "uint256"
        }
      ],
      "name": "setAuctionPrice",
      "outputs": [],
      "stateMutability": "nonpayable",
      "type": "function"
    },
    {
      "inputs": [
        {
          "internalType": "uint256",
          "name": "_startTime",
          "type": "uint256"
        },
        {
          "internalType": "uint256",
          "name": "_endTime",
          "type": "uint256"
        }
      ],
      "name": "setAuctionTime",
      "outputs": [],
      "stateMutability": "nonpayable",
      "type": "function"
    },
    {
      "inputs": [
        {
          "internalType": "address payable",
          "name": "_wallet",
          "type": "address"
        }
      ],
      "name": "setAuctionWallet",
      "outputs": [],
      "stateMutability": "nonpayable",
      "type": "function"
    },
    {
      "inputs": [
        {
          "internalType": "string",
          "name": "_name",
          "type": "string"
        },
        {
          "internalType": "string",
          "name": "_data",
          "type": "string"
        }
      ],
      "name": "setDocument",
      "outputs": [],
      "stateMutability": "nonpayable",
      "type": "function"
    },
    {
      "inputs": [
        {
          "internalType": "string[]",
          "name": "_name",
          "type": "string[]"
        },
        {
          "internalType": "string[]",
          "name": "_data",
          "type": "string[]"
        }
      ],
      "name": "setDocuments",
      "outputs": [],
      "stateMutability": "nonpayable",
      "type": "function"
    },
    {
      "inputs": [
        {
          "internalType": "address",
          "name": "_list",
          "type": "address"
        }
      ],
      "name": "setList",
      "outputs": [],
      "stateMutability": "nonpayable",
      "type": "function"
    },
    {
      "inputs": [],
      "name": "tokenPrice",
      "outputs": [
        {
          "internalType": "uint256",
          "name": "",
          "type": "uint256"
        }
      ],
      "stateMutability": "view",
      "type": "function"
    },
    {
      "inputs": [
        {
          "internalType": "address",
          "name": "_user",
          "type": "address"
        }
      ],
      "name": "tokensClaimable",
      "outputs": [
        {
          "internalType": "uint256",
          "name": "claimerCommitment",
          "type": "uint256"
        }
      ],
      "stateMutability": "view",
      "type": "function"
    },
    {
      "inputs": [],
      "name": "wallet",
      "outputs": [
        {
          "internalType": "address payable",
          "name": "",
          "type": "address"
        }
      ],
      "stateMutability": "view",
      "type": "function"
    },
    {
      "inputs": [
        {
          "internalType": "address payable",
          "name": "beneficiary",
          "type": "address"
        }
      ],
      "name": "withdrawTokens",
      "outputs": [],
      "stateMutability": "nonpayable",
      "type": "function"
    },
    {
      "inputs": [],
      "name": "withdrawTokens",
      "outputs": [],
      "stateMutability": "nonpayable",
      "type": "function"
    },
    {
      "stateMutability": "payable",
      "type": "receive"
    }
  ],
  "bytecode": "608060405234801561001057600080fd5b506001600555614ecd806100256000396000f3fe6080604052600436106104145760003560e01c8063864333741161021e578063c884ef8311610123578063dccfe310116100ab578063e8fcf7231161007a578063e8fcf72314610be6578063f04899d314610c06578063f08b82e614610c1b578063f5b541a614610c30578063fc4e3e0a14610c4557610423565b8063dccfe31014610b62578063dde51f6d14610b82578063e0e081d714610ba2578063e6594abd14610bc657610423565b8063d2423b51116100f2578063d2423b5114610acc578063d539139314610aed578063d547741f14610b02578063d69d3e6214610b22578063dc97e08214610b4257610423565b8063c884ef8314610a4c578063c92bce8714610a6c578063c9fab05914610a8c578063ca15c87314610aac57610423565b80639c64d0ae116101a6578063b3f05b9711610175578063b3f05b97146109b7578063b7928b1d146109cc578063c2507ac1146109ec578063c395fcb314610a0c578063c6b547e614610a2c57610423565b80639c64d0ae146109405780639fa5f50b14610960578063a217fddf14610982578063adbf37761461099757610423565b80639010d07c116101ed5780639010d07c146108ab57806391d14854146108cb5780639478941c146108eb57806399fdb3201461090b5780639a87222c1461092057610423565b8063864333741461084c5780638a845fc0146108615780638d8f2adb146108815780638fa8b7901461089657610423565b806345a15388116103245780636595171c116102ac5780637c516e941161027b5780637c516e94146107b45780637ccb6a64146107d45780637ff9b5961461080257806381353c8e14610817578063857d26081461083757610423565b80636595171c1461073f5780636ae260c11461075f57806373973fcb1461077f57806374cf9fc51461079f57610423565b80634bb278f3116102f35780634bb278f3146106c25780634dc80e15146106d75780634ddf47d4146106f7578063521eb2731461070a57806354f1e1261461071f57610423565b806345a153881461064a57806347535d7b1461066d57806349df728c146106825780634b3e6abb146106a257610423565b806324e4025b116103a757806336568abe1161037657806336568abe146105be57806336d0054b146105de5780633d15cc6d146105f35780633d1c2273146106155780633f16431a1461062a57610423565b806324e4025b1461054657806329762960146105665780632f2ff15d14610579578063314148e21461059957610423565b806317026455116103e357806317026455146104cf5780631b3e460e146104e4578063212f8a8114610506578063248a9ca31461052657610423565b8063031bee0014610428578063099db017146104555780630cc4c03314610482578063113b0ab2146104af57610423565b3661042357610421610c65565b005b600080fd5b34801561043457600080fd5b5061043d610c86565b60405161044c93929190614c0c565b60405180910390f35b34801561046157600080fd5b5061047561047036600461382b565b610cb3565b60405161044c9190613fd8565b34801561048e57600080fd5b506104a261049d36600461393c565b610cd5565b60405161044c9190613fec565b3480156104bb57600080fd5b506104756104ca36600461382b565b610d1c565b3480156104db57600080fd5b50610475610d36565b3480156104f057600080fd5b506104f9610d54565b60405161044c9190613fe3565b34801561051257600080fd5b5061042161052136600461395d565b610d59565b34801561053257600080fd5b506104f9610541366004613a87565b610e0c565b34801561055257600080fd5b50610421610561366004613ac3565b610e21565b610421610574366004613904565b610f63565b34801561058557600080fd5b50610421610594366004613a9f565b611049565b3480156105a557600080fd5b506105ae611091565b60405161044c9493929190613eac565b3480156105ca57600080fd5b506104216105d9366004613a9f565b6110c9565b3480156105ea57600080fd5b5061047561110b565b3480156105ff57600080fd5b5061060861112a565b60405161044c9190613dbb565b34801561062157600080fd5b506104f9611139565b34801561063657600080fd5b5061042161064536600461382b565b61113f565b34801561065657600080fd5b5061065f6111a1565b60405161044c929190614be4565b34801561067957600080fd5b506104756111bb565b34801561068e57600080fd5b5061042161069d36600461382b565b6111f0565b3480156106ae57600080fd5b506104216106bd366004613a4f565b61133a565b3480156106ce57600080fd5b5061042161136a565b3480156106e357600080fd5b506104f96106f236600461382b565b61156a565b610421610705366004613ae4565b61108d565b34801561071657600080fd5b5061060861164f565b34801561072b57600080fd5b5061042161073a36600461382b565b61165e565b34801561074b57600080fd5b5061042161075a36600461382b565b6116c0565b34801561076b57600080fd5b5061042161077a366004613ac3565b611715565b34801561078b57600080fd5b506104f961079a366004613a87565b611868565b3480156107ab57600080fd5b506104a26118ec565b3480156107c057600080fd5b506104216107cf366004613b23565b61190f565b3480156107e057600080fd5b506107f46107ef366004613ae4565b611983565b60405161044c92919061402e565b34801561080e57600080fd5b506104f9611a70565b34801561082357600080fd5b50610421610832366004613ae4565b611a7f565b34801561084357600080fd5b506104f9611acf565b34801561085857600080fd5b50610475611ae1565b34801561086d57600080fd5b5061042161087c36600461382b565b611b2c565b34801561088d57600080fd5b50610421611b8e565b3480156108a257600080fd5b50610421611b99565b3480156108b757600080fd5b506106086108c6366004613ac3565b611c98565b3480156108d757600080fd5b506104756108e6366004613a9f565b611cb9565b3480156108f757600080fd5b5061042161090636600461382b565b611cd1565b34801561091757600080fd5b50610608611d33565b34801561092c57600080fd5b5061042161093b36600461382b565b611d42565b34801561094c57600080fd5b5061042161095b366004613ba5565b611dd0565b34801561096c57600080fd5b50610975611df4565b60405161044c9190613f78565b34801561098e57600080fd5b506104f9611ecc565b3480156109a357600080fd5b506104216109b236600461382b565b611ed1565b3480156109c357600080fd5b50610475611f33565b3480156109d857600080fd5b506104216109e736600461382b565b611f43565b3480156109f857600080fd5b506104f9610a07366004613a87565b611fa5565b348015610a1857600080fd5b50610475610a2736600461382b565b611fb0565b348015610a3857600080fd5b506104a2610a47366004613a87565b611fbc565b348015610a5857600080fd5b506104f9610a6736600461382b565b612087565b348015610a7857600080fd5b50610421610a873660046139e7565b612099565b348015610a9857600080fd5b50610421610aa736600461393c565b61210b565b348015610ab857600080fd5b506104f9610ac7366004613a87565b6124eb565b610adf610ada36600461399e565b612502565b60405161044c929190613ede565b348015610af957600080fd5b506104f9612692565b348015610b0e57600080fd5b50610421610b1d366004613a9f565b6126a4565b348015610b2e57600080fd5b50610421610b3d36600461382b565b6126de565b348015610b4e57600080fd5b50610421610b5d366004613cb3565b6126fc565b348015610b6e57600080fd5b50610421610b7d36600461382b565b612707565b348015610b8e57600080fd5b50610421610b9d366004613ae4565b61275c565b348015610bae57600080fd5b50610bb7612778565b60405161044c93929190614bc1565b348015610bd257600080fd5b50610421610be136600461382b565b61279d565b348015610bf257600080fd5b506104f9610c0136600461382b565b6127da565b348015610c1257600080fd5b506106086127ec565b348015610c2757600080fd5b506104f96127fb565b348015610c3c57600080fd5b506104f9612811565b348015610c5157600080fd5b50610475610c6036600461382b565b612823565b60405162461bcd60e51b8152600401610c7d90614213565b60405180910390fd5b6007546001600160401b0380821691600160401b810490911690600160801b90046001600160801b031683565b6000610ccd600080516020614d2783398151915283611cb9565b90505b919050565b60608b8b8b8b8b8b8b8b8b8b8b604051602001610cfc9b9a99989796959493929190613dcf565b60405160208183030381529060405290509b9a5050505050505050505050565b6000610ccd600080516020614ce783398151915283611cb9565b60075442600160401b9091046001600160401b031662093a80011090565b600181565b60026005541415610d7c5760405162461bcd60e51b8152600401610c7d90614a1c565b6002600555600b546001600160a01b031673eeeeeeeeeeeeeeeeeeeeeeeeeeeeeeeeeeeeeeee1415610dc05760405162461bcd60e51b8152600401610c7d90614b49565b80610dcd57610dcd610c65565b6000610dd883611868565b90508015610e0157600b54610df7906001600160a01b0316338361283d565b610e01848261291a565b505060016005555050565b60009081526020819052604090206002015490565b610e2a33611fb0565b610e3357600080fd5b60008111610e535760405162461bcd60e51b8152600401610c7d90614acc565b60008211610e735760405162461bcd60e51b8152600401610c7d906144dd565b6008546001600160801b031615610e9c5760405162461bcd60e51b8152600401610c7d90614306565b600754600160801b90046001600160801b0316610eb882612ae5565b1115610ed65760405162461bcd60e51b8152600401610c7d9061485e565b610edf82612b8f565b600680546001600160801b0319166001600160801b0392909216919091179055610f0881612b8f565b600680546001600160801b03928316600160801b0292169190911790556040517f622a57040c34e45abc5fadeb22e4c3c687cf48a096c86694cd21a7be9e7851ee90610f579084908490614bfe565b60405180910390a15050565b60026005541415610f865760405162461bcd60e51b8152600401610c7d90614a1c565b6002600555600b546001600160a01b031673eeeeeeeeeeeeeeeeeeeeeeeeeeeeeeeeeeeeeeee14610fc95760405162461bcd60e51b8152600401610c7d906146eb565b80610fd657610fd6610c65565b6000610fe134611868565b90506000610fef3483612bbc565b9050811561100157611001848361291a565b8015610e01576040516001600160a01b0385169082156108fc029083906000818181858888f1935050505015801561103d573d6000803e3d6000fd5b50505060016005555050565b600082815260208190526040902060020154611067906108e6612bdf565b6110835760405162461bcd60e51b8152600401610c7d90614178565b61108d8282612be3565b5050565b6009546007546008546001600160a01b03909216926001600160401b0380831693600160401b9093041691600160801b900460ff1690565b6110d1612bdf565b6001600160a01b0316816001600160a01b0316146111015760405162461bcd60e51b8152600401610c7d90614afa565b61108d8282612c4c565b6006546008546001600160801b03600160801b90920482169116101590565b600b546001600160a01b031681565b60045490565b611157600080516020614ce783398151915282611049565b61115f612bdf565b6001600160a01b0316816001600160a01b03167f1d5f9ec24c6f91be922ea13ceaad919ad6554a41b5c26087f96289a9baf98ad260405160405180910390a350565b6006546001600160801b0380821691600160801b90041682565b6007546000906001600160401b031642108015906111eb5750600754600160401b90046001600160401b03164211155b905090565b600260055414156112135760405162461bcd60e51b8152600401610c7d90614a1c565b600260055561122061110b565b156112d057600854600160801b900460ff1661124e5760405162461bcd60e51b8152600401610c7d90614827565b60006112598261156a565b90506000811161127b5760405162461bcd60e51b8152600401610c7d906149e5565b6001600160a01b0382166000908152600e602052604090205461129e9082612cb5565b6001600160a01b038084166000908152600e60205260409020919091556009546112ca91168383612cd8565b50611332565b600754600160401b90046001600160401b031642116113015760405162461bcd60e51b8152600401610c7d906147e0565b6001600160a01b038082166000908152600d602052604081208054919055600b54909161133091168383612cd8565b505b506001600555565b61134333611fb0565b61134c57600080fd5b60088054911515600160881b0260ff60881b19909216919091179055565b6002600554141561138d5760405162461bcd60e51b8152600401610c7d90614a1c565b600260055561139b33611fb0565b806113b05750600a546001600160a01b031633145b806113bf57506113bf33610d1c565b806113cd57506113cd610d36565b6113e95760405162461bcd60e51b8152600401610c7d90614a8a565b60088054600160801b900460ff16156114145760405162461bcd60e51b8152600401610c7d90614354565b600761141e61110b565b156114d45761142b611ae1565b6114475760405162461bcd60e51b8152600401610c7d90614731565b600b54600a54835461146f926001600160a01b039081169216906001600160801b0316612cd8565b8154600090611486906001600160801b0316612ae5565b82549091506000906114a890600160801b90046001600160801b031683612bbc565b905080156114cd57600954600a546114cd916001600160a01b03908116911683612cd8565b5050611527565b6114dc611ae1565b6114f85760405162461bcd60e51b8152600401610c7d90614731565b600954600a548254611527926001600160a01b03908116921690600160801b90046001600160801b0316612cd8565b815460ff60801b1916600160801b1782556040517f32bebcfd2d04dbae321298091d96d2cb1d07279f59718cd83bd98245b8b82b5a90600090a150506001600555565b6009546040516370a0823160e01b815260009182916001600160a01b03909116906370a082319061159f903090600401613dbb565b60206040518083038186803b1580156115b757600080fd5b505afa1580156115cb573d6000803e3d6000fd5b505050506040513d601f19601f820116820180604052508101906115ef9190613c9b565b6001600160a01b0384166000908152600d602052604090205490915061161490612ae5565b6001600160a01b0384166000908152600e602052604090205490925061163b908390612bbc565b915080821115611649578091505b50919050565b600a546001600160a01b031681565b611676600080516020614d27833981519152826126a4565b61167e612bdf565b6001600160a01b0316816001600160a01b03167f56692a161ffec953ddf9def93b958ea8d1ec95e21b80870c66be91a4374dc4e360405160405180910390a350565b6116cb600082611049565b6116d3612bdf565b6001600160a01b0316816001600160a01b03167f2570ac42fd8b322dc453ada624dc2ed0e9bdd67f16f201a25bbd30468f2aa18760405160405180910390a350565b61171e33611fb0565b61172757600080fd5b6402540be400821061174b5760405162461bcd60e51b8152600401610c7d90614988565b6402540be400811061176f5760405162461bcd60e51b8152600401610c7d90614988565b4282101561178f5760405162461bcd60e51b8152600401610c7d906141c7565b8181116117ae5760405162461bcd60e51b8152600401610c7d90614553565b6008546001600160801b0316156117d75760405162461bcd60e51b8152600401610c7d90614306565b6117e082612d1c565b6007805467ffffffffffffffff19166001600160401b039290921691909117905561180a81612d1c565b600780546001600160401b0392909216600160401b0267ffffffffffffffff60401b199092169190911790556040517f5725d1e4352d6944889e54837ffaefde55cdc0b55796b831365d61cd4c87fdb890610f579084908490614bfe565b60008061187483612ae5565b60085490915060009061188f906001600160801b0316612ae5565b600754909150600160801b90046001600160801b03166118af8284612cb5565b11156118e4576007546118db906118d690600160801b90046001600160801b031683612bbc565b612d45565b92505050610cd0565b509192915050565b60606040518061018001604052806101518152602001614d476101519139905090565b60405163d505accf60e01b81526001600160a01b0389169063d505accf90611947908a908a908a908a908a908a908a90600401613e52565b600060405180830381600087803b15801561196157600080fd5b505af1158015611975573d6000803e3d6000fd5b505050505050505050505050565b6060600060028484604051611999929190613d1f565b9081526020016040518091039020600101600285856040516119bc929190613d1f565b908152604080516020928190038301812054845460026101006001831615026000190190911604601f810185900485028301850190935282825264010000000090046001600160401b03169290918491830182828015611a5d5780601f10611a3257610100808354040283529160200191611a5d565b820191906000526020600020905b815481529060010190602001808311611a4057829003601f168201915b50505050509150915091505b9250929050565b6006546001600160801b031690565b600080808080808080808080611a978c8e018e61384e565b9a509a509a509a509a509a509a509a509a509a509a50611ac08b8b8b8b8b8b8b8b8b8b8b61210b565b50505050505050505050505050565b600080516020614ce783398151915281565b600754600090600160401b90046001600160401b03164211806111eb57506007546008546001600160801b03600160801b909204821691611b259116600101612ae5565b1015905090565b611b44600080516020614ce7833981519152826126a4565b611b4c612bdf565b6001600160a01b0316816001600160a01b03167fe5f1aa9e528307345194b88b24a32401c13926e0823060f1049d9b26c0bb62b260405160405180910390a350565b611b97336111f0565b565b60026005541415611bbc5760405162461bcd60e51b8152600401610c7d90614a1c565b6002600555611bca33611fb0565b611bd357600080fd5b60088054600160801b900460ff1615611bfe5760405162461bcd60e51b8152600401610c7d90614354565b80546001600160801b031615611c265760405162461bcd60e51b8152600401610c7d906145ef565b600954600a54600754611c56926001600160a01b03908116921690600160801b90046001600160801b0316612cd8565b805460ff60801b1916600160801b1781556040517fa5fb31e47bd1eca58bf14a3312d5e6aeafdc4ee787c8ed348c15c2b092324d9390600090a1506001600555565b6000828152602081905260408120611cb09083612df1565b90505b92915050565b6000828152602081905260408120611cb09083612dfd565b611ce9600080516020614d07833981519152826126a4565b611cf1612bdf565b6001600160a01b0316816001600160a01b03167f70b25138b6fadeb9992d18b9653564271823e34b3e3257515d12a6d4b15fcddf60405160405180910390a350565b6009546001600160a01b031681565b611d4b33611fb0565b611d5457600080fd5b6001600160a01b038116611d7a5760405162461bcd60e51b8152600401610c7d9061490c565b600a80546001600160a01b0319166001600160a01b0383161790556040517f34ae2bad9265f0212d4cf341708b8250949164bb54f9d0e4f442024f83bb2f9090611dc5908390613dbb565b60405180910390a150565b611dd933611fb0565b611de257600080fd5b611dee84848484612e12565b50505050565b60606004805480602002602001604051908101604052809291908181526020016000905b82821015611ec35760008481526020908190208301805460408051601f6002600019610100600187161502019094169390930492830185900485028101850190915281815292830182828015611eaf5780601f10611e8457610100808354040283529160200191611eaf565b820191906000526020600020905b815481529060010190602001808311611e9257829003601f168201915b505050505081526020019060010190611e18565b50505050905090565b600081565b611ee9600080516020614d2783398151915282611049565b611ef1612bdf565b6001600160a01b0316816001600160a01b03167f0be6ab9784c7401fafb73f7bc47bc67cc4ef8c47a60ad3cb66d1de0353a0784c60405160405180910390a350565b600854600160801b900460ff1690565b611f5b600080516020614d0783398151915282611049565b611f63612bdf565b6001600160a01b0316816001600160a01b03167f2d45ee102874989882745a26688d0b4fffee125a18df26536b12582c7fde4e1760405160405180910390a350565b600061164982612ae5565b6000610ccd8183611cb9565b6004546060908210611fe05760405162461bcd60e51b8152600401610c7d906148a8565b60048281548110611fed57fe5b600091825260209182902001805460408051601f600260001961010060018716150201909416939093049283018590048502810185019091528181529283018282801561207b5780601f106120505761010080835404028352916020019161207b565b820191906000526020600020905b81548152906001019060200180831161205e57829003601f168201915b50505050509050919050565b600e6020526000908152604090205481565b6120a233611fb0565b6120ab57600080fd5b8260005b81811015612103576120fb8686838181106120c657fe5b90506020028101906120d89190614c38565b8686858181106120e457fe5b90506020028101906120f69190614c38565b612e12565b6001016120af565b505050505050565b6402540be400871061212f5760405162461bcd60e51b8152600401610c7d90614988565b6402540be40086106121535760405162461bcd60e51b8152600401610c7d90614988565b428710156121735760405162461bcd60e51b8152600401610c7d906141c7565b8686116121925760405162461bcd60e51b8152600401610c7d9061428b565b600085116121b25760405162461bcd60e51b8152600401610c7d906144dd565b6001600160a01b0381166121d85760405162461bcd60e51b8152600401610c7d9061490c565b6001600160a01b0383166121fe5760405162461bcd60e51b8152600401610c7d90614626565b6000881161221e5760405162461bcd60e51b8152600401610c7d906148d5565b6000841161223e5760405162461bcd60e51b8152600401610c7d90614acc565b896001600160a01b031663313ce5676040518163ffffffff1660e01b815260040160206040518083038186803b15801561227757600080fd5b505afa15801561228b573d6000803e3d6000fd5b505050506040513d601f19601f820116820180604052508101906122af9190613cd7565b60ff166012146122d15760405162461bcd60e51b8152600401610c7d906145a5565b6001600160a01b03891673eeeeeeeeeeeeeeeeeeeeeeeeeeeeeeeeeeeeeeee14612388576000896001600160a01b031663313ce5676040518163ffffffff1660e01b815260040160206040518083038186803b15801561233057600080fd5b505afa158015612344573d6000803e3d6000fd5b505050506040513d601f19601f820116820180604052508101906123689190613cd7565b60ff16116123885760405162461bcd60e51b8152600401610c7d9061450b565b61239185612b8f565b600680546001600160801b0319166001600160801b03929092169190911790556123ba84612b8f565b600680546001600160801b03928316600160801b0292169190911790556123e087612d1c565b6007805467ffffffffffffffff19166001600160401b039290921691909117905561240a86612d1c565b600780546001600160401b0392909216600160401b0267ffffffffffffffff60401b1990921691909117905561243f88612b8f565b600780546001600160801b03928316600160801b029216919091179055600980546001600160a01b03808d166001600160a01b031992831617909255600b80548c8416908316179055600a8054928416929091169190911790556124a28361279d565b6124ab82613064565b876124b585612ae5565b11156124d35760405162461bcd60e51b8152600401610c7d90614412565b6124de8a8c8a61283d565b5050505050505050505050565b6000818152602081905260408120610ccd906130a6565b606080836001600160401b038111801561251b57600080fd5b50604051908082528060200260200182016040528015612545578160200160208202803683370190505b509150836001600160401b038111801561255e57600080fd5b5060405190808252806020026020018201604052801561259257816020015b606081526020019060019003908161257d5790505b50905060005b848110156126895760006060308888858181106125b157fe5b90506020028101906125c39190614c38565b6040516125d1929190613d1f565b600060405180830381855af49150503d806000811461260c576040519150601f19603f3d011682016040523d82523d6000602084013e612611565b606091505b50915091508180612620575085155b612629826130b1565b906126475760405162461bcd60e51b8152600401610c7d9190613fec565b508185848151811061265557fe5b6020026020010190151590811515815250508084848151811061267457fe5b60209081029190910101525050600101612598565b50935093915050565b600080516020614d2783398151915281565b6000828152602081905260409020600201546126c2906108e6612bdf565b6111015760405162461bcd60e51b8152600401610c7d906143c2565b6126e733611fb0565b6126f057600080fd5b6126f981613064565b50565b61108d338383610d59565b6127126000826126a4565b61271a612bdf565b6001600160a01b0316816001600160a01b03167f21ba1239795d4e22874e3dc55f0a9d7b65bfb23069d32965d7c23be9524ccf9560405160405180910390a350565b61276533611fb0565b61276e57600080fd5b61108d8282613111565b6008546001600160801b0381169060ff600160801b8204811691600160881b90041683565b60015460ff16156127c05760405162461bcd60e51b8152600401610c7d90614109565b6127cb600082611083565b506001805460ff191681179055565b600d6020526000908152604090205481565b600c546001600160a01b031681565b600754600160801b90046001600160801b031690565b600080516020614d0783398151915281565b6000610ccd600080516020614d0783398151915283611cb9565b60006060846001600160a01b03166323b872dd85308660405160240161286593929190613e2e565b6040516020818303038152906040529060e01b6020820180516001600160e01b03838183161783525050505060405161289e9190613d2f565b6000604051808303816000865af19150503d80600081146128db576040519150601f19603f3d011682016040523d82523d6000602084013e6128e0565b606091505b509150915081801561290a57508051158061290a57508080602001905181019061290a9190613a6b565b61291357600080fd5b5050505050565b6007546001600160401b031642108015906129475750600754600160401b90046001600160401b03164211155b6129635760405162461bcd60e51b8152600401610c7d906147ab565b6001600160a01b0382166129895760405162461bcd60e51b8152600401610c7d906146a1565b6001600160a01b0382166000908152600d60205260408120546129ac9083612cb5565b600854909150600160881b900460ff1615612a4c57600c54604051631cd53d5560e01b81526001600160a01b0390911690631cd53d55906129f39086908590600401613e93565b60206040518083038186803b158015612a0b57600080fd5b505afa158015612a1f573d6000803e3d6000fd5b505050506040513d601f19601f82011682018060405250810190612a439190613a6b565b612a4c57600080fd5b6001600160a01b0383166000908152600d60205260409020819055600854612a8690612a81906001600160801b031684612cb5565b612b8f565b600880546001600160801b0319166001600160801b03929092169190911790556040517f077511a636ba1f10551cc7b89c13ff66a6ac9344e8a917527817a9690b15af7a90612ad89085908590613e93565b60405180910390a1505050565b6006546009546040805163313ce56760e01b81529051600093610ccd936001600160801b0390911692612b89926001600160a01b039092169163313ce56791600480820192602092909190829003018186803b158015612b4457600080fd5b505afa158015612b58573d6000803e3d6000fd5b505050506040513d601f19601f82011682018060405250810190612b7c9190613cd7565b859060ff16600a0a613342565b90613379565b60006001600160801b03821115612bb85760405162461bcd60e51b8152600401610c7d9061438b565b5090565b80820382811115611cb35760405162461bcd60e51b8152600401610c7d906140da565b3390565b6000828152602081905260409020612bfb90826133ab565b1561108d57612c08612bdf565b6001600160a01b0316816001600160a01b0316837f2f8788117e7eff1d82e926ec794901d17c78024a50270940304540a733656f0d60405160405180910390a45050565b6000828152602081905260409020612c6490826133c0565b1561108d57612c71612bdf565b6001600160a01b0316816001600160a01b0316837ff6391f5c32d9c69d2a47ea670b442974b53935d1edc7fd64eb21e047a839171b60405160405180910390a45050565b81810181811015611cb35760405162461bcd60e51b8152600401610c7d9061446f565b6001600160a01b03831673eeeeeeeeeeeeeeeeeeeeeeeeeeeeeeeeeeeeeeee1415612d0c57612d0782826133d5565b612d17565b612d17838383613462565b505050565b60006001600160401b03821115612bb85760405162461bcd60e51b8152600401610c7d9061466a565b6000610ccd600960009054906101000a90046001600160a01b03166001600160a01b031663313ce5676040518163ffffffff1660e01b815260040160206040518083038186803b158015612d9857600080fd5b505afa158015612dac573d6000803e3d6000fd5b505050506040513d601f19601f82011682018060405250810190612dd09190613cd7565b60065460ff91909116600a0a90612b899085906001600160801b0316613342565b6000611cb08383613488565b6000611cb0836001600160a01b0384166134cd565b82612e2f5760405162461bcd60e51b8152600401610c7d906144a6565b80612e4c5760405162461bcd60e51b8152600401610c7d90614951565b60006001600160401b031660028585604051612e69929190613d1f565b908152604051908190036020019020546001600160401b03640100000000909104161415612f0f5760048054600181018255600091909152612ece907f8a35acfbc15ff81a39ae7d344fd709f28e8600b4aa8c65c6b64bfe7fe36bd19b0185856135f9565b50600454604051600290612ee59087908790613d1f565b908152604051908190036020019020805463ffffffff9290921663ffffffff199092169190911790555b604051806060016040528060028686604051612f2c929190613d1f565b90815260408051602092819003830190205463ffffffff168352426001600160401b0316838301528051601f860183900483028101830182528581529201919085908590819084018382808284376000920191909152505050915250604051600290612f9b9087908790613d1f565b9081526040805191829003602090810190922083518154858501516001600160401b0316640100000000026bffffffffffffffff000000001963ffffffff90931663ffffffff199092169190911791909116178155908301518051919261300a92600185019290910190613673565b505060405161301d915085908590613d1f565b60405180910390207fbaa206e5ea800eb88bce099f453fee53295b793b9d5d1cfc4ce4b6db06a34f538383604051613056929190613fff565b60405180910390a250505050565b6001600160a01b038116156126f957600c80546001600160a01b0383166001600160a01b03199091161790556008805460ff60881b1916600160881b17905550565b6000610ccd826134e5565b60606044825110156130f7575060408051808201909152601d81527f5472616e73616374696f6e2072657665727465642073696c656e746c790000006020820152610cd0565b60048201915081806020019051810190610ccd9190613c01565b60006001600160401b03166002838360405161312e929190613d1f565b908152604051908190036020019020546001600160401b0364010000000090910416141561316e5760405162461bcd60e51b8152600401610c7d906142d7565b6000600160028484604051613184929190613d1f565b9081526040519081900360200190205460045463ffffffff918216929092039250821660001990910114613265576004805460001981019081106131c457fe5b9060005260206000200160048263ffffffff16815481106131e157fe5b90600052602060002001908054600181600116156101000203166002900461320a9291906136e1565b5080600101600260048363ffffffff168154811061322457fe5b9060005260206000200160405161323b9190613d4b565b908152604051908190036020019020805463ffffffff9290921663ffffffff199092169190911790555b600480548061327057fe5b60019003818190600052602060002001600061328c9190613756565b9055828260405161329e929190613d1f565b60405180910390207f4b5338540b4d1c0f6dd0308a25f633b7ff60472f894d711cff9dd64e35c613b2600285856040516132d9929190613d1f565b90815260200160405180910390206001016040516132f79190614050565b60405180910390a260028383604051613311929190613d1f565b90815260405190819003602001902080546bffffffffffffffffffffffff1916815560006129136001830182613756565b600081158061335d5750508082028282828161335a57fe5b04145b611cb35760405162461bcd60e51b8152600401610c7d90614a53565b600080821161339a5760405162461bcd60e51b8152600401610c7d90614b93565b8183816133a357fe5b049392505050565b6000611cb0836001600160a01b0384166134e9565b6000611cb0836001600160a01b038416613533565b604080516000808252602082019092526001600160a01b0384169083906040516133ff9190613d2f565b60006040518083038185875af1925050503d806000811461343c576040519150601f19603f3d011682016040523d82523d6000602084013e613441565b606091505b5050905080612d175760405162461bcd60e51b8152600401610c7d90614768565b60006060846001600160a01b031663a9059cbb8585604051602401612865929190613e93565b815460009082106134ab5760405162461bcd60e51b8152600401610c7d90614136565b8260000182815481106134ba57fe5b9060005260206000200154905092915050565b60009081526001919091016020526040902054151590565b5490565b60006134f583836134cd565b61352b57508154600181810184556000848152602080822090930184905584548482528286019093526040902091909155611cb3565b506000611cb3565b600081815260018301602052604081205480156135ef578354600019808301919081019060009087908390811061356657fe5b906000526020600020015490508087600001848154811061358357fe5b6000918252602080832090910192909255828152600189810190925260409020908401905586548790806135b357fe5b60019003818190600052602060002001600090559055866001016000878152602001908152602001600020600090556001945050505050611cb3565b6000915050611cb3565b828054600181600116156101000203166002900490600052602060002090601f016020900481019282601f1061363a5782800160ff19823516178555613667565b82800160010185558215613667579182015b8281111561366757823582559160200191906001019061364c565b50612bb8929150613796565b828054600181600116156101000203166002900490600052602060002090601f016020900481019282601f106136b457805160ff1916838001178555613667565b82800160010185558215613667579182015b828111156136675782518255916020019190600101906136c6565b828054600181600116156101000203166002900490600052602060002090601f016020900481019282601f1061371a5780548555613667565b8280016001018555821561366757600052602060002091601f016020900482015b8281111561366757825482559160010191906001019061373b565b50805460018160011615610100020316600290046000825580601f1061377c57506126f9565b601f0160209004906000526020600020908101906126f991905b5b80821115612bb85760008155600101613797565b60008083601f8401126137bc578182fd5b5081356001600160401b038111156137d2578182fd5b6020830191508360208083028501011115611a6957600080fd5b60008083601f8401126137fd578182fd5b5081356001600160401b03811115613813578182fd5b602083019150836020828501011115611a6957600080fd5b60006020828403121561383c578081fd5b813561384781614cb4565b9392505050565b60008060008060008060008060008060006101608c8e03121561386f578687fd5b8b3561387a81614cb4565b9a5060208c013561388a81614cb4565b995060408c013561389a81614cb4565b985060608c0135975060808c0135965060a08c0135955060c08c0135945060e08c013593506101008c01356138ce81614cb4565b92506101208c01356138df81614cb4565b91506101408c01356138f081614cb4565b809150509295989b509295989b9093969950565b60008060408385031215613916578182fd5b823561392181614cb4565b9150602083013561393181614cc9565b809150509250929050565b60008060008060008060008060008060006101608c8e03121561386f578081fd5b600080600060608486031215613971578283fd5b833561397c81614cb4565b925060208401359150604084013561399381614cc9565b809150509250925092565b6000806000604084860312156139b2578081fd5b83356001600160401b038111156139c7578182fd5b6139d3868287016137ab565b909450925050602084013561399381614cc9565b600080600080604085870312156139fc578182fd5b84356001600160401b0380821115613a12578384fd5b613a1e888389016137ab565b90965094506020870135915080821115613a36578384fd5b50613a43878288016137ab565b95989497509550505050565b600060208284031215613a60578081fd5b813561384781614cc9565b600060208284031215613a7c578081fd5b815161384781614cc9565b600060208284031215613a98578081fd5b5035919050565b60008060408385031215613ab1578182fd5b82359150602083013561393181614cb4565b60008060408385031215613ad5578182fd5b50508035926020909101359150565b60008060208385031215613af6578182fd5b82356001600160401b03811115613b0b578283fd5b613b17858286016137ec565b90969095509350505050565b600080600080600080600080610100898b031215613b3f578182fd5b8835613b4a81614cb4565b97506020890135613b5a81614cb4565b96506040890135613b6a81614cb4565b9550606089013594506080890135935060a0890135613b8881614cd7565b979a969950949793969295929450505060c08201359160e0013590565b60008060008060408587031215613bba578182fd5b84356001600160401b0380821115613bd0578384fd5b613bdc888389016137ec565b90965094506020870135915080821115613bf4578384fd5b50613a43878288016137ec565b600060208284031215613c12578081fd5b81516001600160401b0380821115613c28578283fd5b818401915084601f830112613c3b578283fd5b815181811115613c49578384fd5b604051601f8201601f191681016020018381118282101715613c69578586fd5b604052818152838201602001871015613c80578485fd5b613c91826020830160208701614c88565b9695505050505050565b600060208284031215613cac578081fd5b5051919050565b60008060408385031215613cc5578182fd5b82359150602083013561393181614cc9565b600060208284031215613ce8578081fd5b815161384781614cd7565b60008151808452613d0b816020860160208601614c88565b601f01601f19169290920160200192915050565b6000828483379101908152919050565b60008251613d41818460208701614c88565b9190910192915050565b6000808354600180821660008114613d6a5760018114613d8157613db0565b60ff198316865260028304607f1686019350613db0565b600283048786526020808720875b83811015613da85781548a820152908501908201613d8f565b505050860193505b509195945050505050565b6001600160a01b0391909116815260200190565b6001600160a01b039b8c168152998b1660208b0152978a1660408a01526060890196909652608088019490945260a087019290925260c086015260e0850152841661010084015283166101208301529091166101408201526101600190565b6001600160a01b039384168152919092166020820152604081019190915260600190565b6001600160a01b0397881681529590961660208601526040850193909352606084019190915260ff16608083015260a082015260c081019190915260e00190565b6001600160a01b03929092168252602082015260400190565b6001600160a01b039490941684526001600160401b039283166020850152911660408301521515606082015260800190565b604080825283519082018190526000906020906060840190828701845b82811015613f19578151151584529284019290840190600101613efb565b50505083810382850152808551613f308184613fe3565b91508192508381028201848801865b83811015613f69578583038552613f57838351613cf3565b94870194925090860190600101613f3f565b50909998505050505050505050565b6000602080830181845280855180835260408601915060408482028701019250838701855b82811015613fcb57603f19888603018452613fb9858351613cf3565b94509285019290850190600101613f9d565b5092979650505050505050565b901515815260200190565b90815260200190565b600060208252611cb06020830184613cf3565b60006020825282602083015282846040840137818301604090810191909152601f909201601f19160101919050565b6000604082526140416040830185613cf3565b90508260208301529392505050565b600060208083018184528285546001808216600081146140775760018114614095576140cd565b60028304607f16855260ff19831660408901526060880193506140cd565b600283048086526140a58a614c7c565b885b828110156140c35781548b8201604001529084019088016140a7565b8a01604001955050505b5091979650505050505050565b602080825260159082015274426f72696e674d6174683a20556e646572666c6f7760581b604082015260600190565b602080825260139082015272105b1c9958591e481a5b9a5d1a585b1a5cd959606a1b604082015260600190565b60208082526022908201527f456e756d657261626c655365743a20696e646578206f7574206f6620626f756e604082015261647360f01b606082015260800190565b6020808252602f908201527f416363657373436f6e74726f6c3a2073656e646572206d75737420626520616e60408201526e0818591b5a5b881d1bc819dc985b9d608a1b606082015260800190565b6020808252602c908201527f43726f776473616c653a2073746172742074696d65206973206265666f72652060408201526b63757272656e742074696d6560a01b606082015260800190565b60208082526052908201527f4e6f2061677265656d656e742070726f76696465642c20706c6561736520726560408201527f766965772074686520736d61727420636f6e7472616374206265666f726520696060820152711b9d195c9858dd1a5b99c81dda5d1a081a5d60721b608082015260a00190565b6020808252602c908201527f43726f776473616c653a2073746172742074696d65206973206e6f742062656660408201526b6f726520656e642074696d6560a01b606082015260800190565b602080825260159082015274111bd8dd5b595b9d081cda1bdd5b1908195e1a5cdd605a1b604082015260600190565b6020808252602e908201527f43726f776473616c653a2061756374696f6e2063616e6e6f742068617665206160408201526d1b1c9958591e481cdd185c9d195960921b606082015260800190565b6020808252601c908201527f43726f776473616c653a20616c72656164792066696e616c697a656400000000604082015260600190565b6020808252601c908201527f426f72696e674d6174683a2075696e74313238204f766572666c6f7700000000604082015260600190565b60208082526030908201527f416363657373436f6e74726f6c3a2073656e646572206d75737420626520616e60408201526f2061646d696e20746f207265766f6b6560801b606082015260800190565b6020808252603d908201527f43726f776473616c653a20676f616c2073686f756c6420626520657175616c2060408201527f746f206f72206c6f776572207468616e20746f74616c20746f6b656e73000000606082015260800190565b60208082526018908201527f426f72696e674d6174683a20416464204f766572666c6f770000000000000000604082015260600190565b60208082526018908201527f5a65726f206e616d65206973206e6f7420616c6c6f7765640000000000000000604082015260600190565b602080825260149082015273043726f776473616c653a207261746520697320360641b604082015260600190565b60208082526028908201527f43726f776473616c653a205061796d656e742063757272656e6379206973206e60408201526706f742045524332360c41b606082015260800190565b60208082526032908201527f43726f776473616c653a20656e642074696d65206d757374206265206f6c646560408201527172207468616e20737461727420707269636560701b606082015260800190565b6020808252602a908201527f43726f776473616c653a20546f6b656e20646f6573206e6f74206861766520316040820152693820646563696d616c7360b01b606082015260800190565b6020808252601f908201527f43726f776473616c653a2046756e647320616c72656164792072616973656400604082015260600190565b60208082526024908201527f43726f776473616c653a2061646d696e20697320746865207a65726f206164646040820152637265737360e01b606082015260800190565b6020808252601b908201527f426f72696e674d6174683a2075696e743634204f766572666c6f770000000000604082015260600190565b6020808252602a908201527f43726f776473616c653a2062656e656669636961727920697320746865207a65604082015269726f206164647265737360b01b606082015260800190565b60208082526026908201527f43726f776473616c653a205061796d656e742063757272656e6379206973206e6040820152650dee8408aa8960d31b606082015260800190565b6020808252601f908201527f43726f776473616c653a20486173206e6f742066696e69736865642079657400604082015260600190565b60208082526023908201527f5472616e7366657248656c7065723a204554485f5452414e534645525f46414960408201526213115160ea1b606082015260800190565b6020808252818101527f43726f776473616c653a206f7574736964652061756374696f6e20686f757273604082015260600190565b60208082526027908201527f43726f776473616c653a2061756374696f6e20686173206e6f742066696e69736040820152661a1959081e595d60ca1b606082015260800190565b60208082526018908201527f43726f776473616c653a206e6f742066696e616c697a65640000000000000000604082015260600190565b6020808252602a908201527f43726f776473616c653a206d696e696d756d20746172676574206578636565646040820152690732068617264206361760b41b606082015260800190565b602080825260139082015272496e646578206f7574206f6620626f756e647360681b604082015260600190565b6020808252601c908201527f43726f776473616c653a20746f74616c20746f6b656e73206973203000000000604082015260600190565b60208082526025908201527f43726f776473616c653a2077616c6c657420697320746865207a65726f206164604082015264647265737360d81b606082015260800190565b6020808252601a908201527f53686f756c64206e6f74206265206120656d7074792064617461000000000000604082015260600190565b6020808252603e908201527f43726f776473616c653a20656e74657220616e20756e69782074696d6573746160408201527f6d7020696e207365636f6e64732c206e6f74206d696c697365636f6e64730000606082015260800190565b6020808252601d908201527f43726f776473616c653a206e6f20746f6b656e7320746f20636c61696d000000604082015260600190565b6020808252601f908201527f5265656e7472616e637947756172643a207265656e7472616e742063616c6c00604082015260600190565b60208082526018908201527f426f72696e674d6174683a204d756c204f766572666c6f770000000000000000604082015260600190565b60208082526022908201527f43726f776473616c653a2073656e646572206d75737420626520616e2061646d60408201526134b760f11b606082015260800190565b602080825260149082015273043726f776473616c653a20676f616c20697320360641b604082015260600190565b6020808252602f908201527f416363657373436f6e74726f6c3a2063616e206f6e6c792072656e6f756e636560408201526e103937b632b9903337b91039b2b63360891b606082015260800190565b6020808252602a908201527f43726f776473616c653a205061796d656e742063757272656e6379206973206e60408201526937ba1030903a37b5b2b760b11b606082015260800190565b602080825260149082015273426f72696e674d6174683a20446976207a65726f60601b604082015260600190565b6001600160801b0393909316835290151560208301521515604082015260600190565b6001600160801b0392831681529116602082015260400190565b918252602082015260400190565b6001600160401b0393841681529190921660208201526001600160801b03909116604082015260600190565b6000808335601e19843603018112614c4e578283fd5b8301803591506001600160401b03821115614c67578283fd5b602001915036819003821315611a6957600080fd5b60009081526020902090565b60005b83811015614ca3578181015183820152602001614c8b565b83811115611dee5750506000910152565b6001600160a01b03811681146126f957600080fd5b80151581146126f957600080fd5b60ff811681146126f957600080fdfe9d49f397ae9ef1a834b569acb967799a367061e305932181a44f5773da873bfd97667070c54ef182b0f5858b034beac1b6f3089aa2d3188bb1e8929f4fa9b9299f2df0fed2c77648de5860a4cc508cd0818c85b8b8a1ab4ceeef8d981c8956a64920756e6465727374616e642074686174204920616d20696e746572616374696e672077697468206120736d61727420636f6e74726163742e204920756e6465727374616e64207468617420746f6b656e7320636f6d6d6974656420617265207375626a65637420746f2074686520746f6b656e2069737375657220616e64206c6f63616c206c617773207768657265206170706c696361626c652e204920726576696577656420636f6465206f662074686520736d61727420636f6e747261637420616e6420756e6465727374616e642069742066756c6c792e204920616772656520746f206e6f7420686f6c6420646576656c6f70657273206f72206f746865722070656f706c65206173736f6369617465642077697468207468652070726f6a656374206c6961626c6520666f7220616e79206c6f73736573206f72206d6973756e6465727374616e64696e6773a2646970667358221220ddf1cb3091df95cdb31295592923be55eac0b156ee84054d7f77a3fe50029cfd64736f6c634300060c0033",
  "bytecodeSha1": "c531394fc44fddd63e2b02370adf5b9ff5d0199a",
  "compiler": {
    "evm_version": "istanbul",
    "optimizer": {
      "enabled": true,
      "runs": 200
    },
    "version": "0.6.12+commit.27d51765"
  },
  "contractName": "Crowdsale",
  "language": "Solidity",
  "natspec": {
    "kind": "dev",
    "methods": {
      "MINTER_ROLE()": {
        "notice": "Role definitions"
      },
      "addAdminRole(address)": {
        "details": "The sender must have the admin role.",
        "notice": "Grants the admin role to an address.",
        "params": {
          "_address": "EOA or contract receiving the new role."
        }
      },
      "addMinterRole(address)": {
        "details": "The sender must have the admin role",
        "notice": "Grants the minter role to an address",
        "params": {
          "_address": "EOA or contract receiving the new role"
        }
      },
      "addOperatorRole(address)": {
        "details": "The sender must have the admin role",
        "notice": "Grants the operator role to an address",
        "params": {
          "_address": "EOA or contract receiving the new role"
        }
      },
      "addSmartContractRole(address)": {
        "details": "The sender must have the admin role",
        "notice": "Grants the smart contract role to an address",
        "params": {
          "_address": "EOA or contract receiving the new role"
        }
      },
      "auctionEnded()": {
        "notice": "Checks if the sale has ended.",
        "returns": {
          "_0": "auctionEnded True if sold out or time has ended."
        }
      },
      "auctionSuccessful()": {
        "notice": "Checks if the sale minimum amount was raised.",
        "returns": {
          "_0": "auctionSuccessful True if the commitmentsTotal is equal or higher than goal."
        }
      },
      "auctionToken()": {
        "notice": "The token being sold."
      },
      "batch(bytes[],bool)": {
        "notice": "Allows batched call to self (this contract).",
        "params": {
          "calls": "An array of inputs for each call.",
          "revertOnFail": "If True then reverts after a failed call and stops doing further calls."
        },
        "returns": {
          "results": "An array with the returned data of each function call, mapped one-to-one to `calls`.",
          "successes": "An array indicating the success of a call, mapped one-to-one to `calls`."
        }
      },
      "calculateCommitment(uint256)": {
        "notice": "Checks if the commitment does not exceed the goal of this sale.",
        "params": {
          "_commitment": "Number of tokens to be commited."
        },
        "returns": {
          "committed": "The amount able to be purchased during a sale."
        }
      },
      "cancelAuction()": {
        "details": "Admin can cancel the auction before it starts",
        "notice": "Cancel Auction"
      },
      "claimed(address)": {
        "notice": "Amount of tokens to claim per address."
      },
      "commitEth(address,bool)": {
        "details": "low level token purchase with ETH ***DO NOT OVERRIDE*** This function has a non-reentrancy guard, so it should not be called by another `nonReentrant` function.",
        "notice": "Checks the amount of ETH to commit and adds the commitment. Refunds the buyer if commit is too high.",
        "params": {
          "_beneficiary": "Recipient of the token purchase."
        }
      },
      "commitTokens(uint256,bool)": {
        "notice": "Buy Tokens by commiting approved ERC20 tokens to this contract address.",
        "params": {
          "_amount": "Amount of tokens to commit."
        }
      },
      "commitTokensFrom(address,uint256,bool)": {
        "details": "Users must approve contract prior to committing tokens to auction.",
        "notice": "Checks how much is user able to commit and processes that commitment.",
        "params": {
          "_amount": "Amount of approved ERC20 tokens.",
          "_from": "User ERC20 address."
        }
      },
      "commitments(address)": {
        "notice": "The commited amount of accounts."
      },
      "finalize()": {
        "details": "Must be called after crowdsale ends, to do some extra finalization work. Calls the contracts finalization function.",
        "notice": "Manually finalizes the Crowdsale."
      },
      "finalizeTimeExpired()": {
        "returns": {
          "_0": "True if 7 days have passed since the end of the auction"
        }
      },
      "finalized()": {
        "notice": "Checks if the sale has been finalised.",
        "returns": {
          "_0": "bool True if sale has been finalised."
        }
      },
      "getAllDocuments()": {
        "notice": "Used to retrieve a full list of documents attached to the smart contract.",
        "returns": {
          "_0": "string List of all documents names present in the contract."
        }
      },
      "getCrowdsaleInitData(address,address,address,uint256,uint256,uint256,uint256,uint256,address,address,address)": {
        "notice": "Collects data to initialize the crowd sale.",
        "params": {
          "_admin": "Address that can finalize crowdsale.",
          "_endTime": "Crowdsale end time.",
          "_funder": "The address that funds the token for crowdsale.",
          "_goal": "Minimum amount of funds to be raised in weis or tokens.",
          "_paymentCurrency": "The currency the crowdsale accepts for payment. Can be ETH or token address.",
          "_pointList": "Address that will manage auction approvals.",
          "_rate": "Number of token units a buyer gets per wei or token.",
          "_startTime": "Crowdsale start time.",
          "_token": "Address of the token being sold.",
          "_totalTokens": "The total number of tokens to sell in crowdsale.",
          "_wallet": "Address where collected funds will be forwarded to."
        },
        "returns": {
          "_data": "All the data in bytes format."
        }
      },
      "getDocument(string)": {
        "notice": "Used to return the details of a document with a known name (`string`).",
        "params": {
          "_name": "Name of the document"
        },
        "returns": {
          "_0": "string The data associated with the document.",
          "_1": "uint256 the timestamp at which the document was last modified."
        }
      },
      "getDocumentCount()": {
        "notice": "Used to retrieve the total documents in the smart contract.",
        "returns": {
          "_0": "uint256 Count of the document names present in the contract."
        }
      },
      "getDocumentName(uint256)": {
        "notice": "Used to retrieve the document name from index in the smart contract.",
        "returns": {
          "_0": "string Name of the document name."
        }
      },
      "getRoleAdmin(bytes32)": {
        "details": "Returns the admin role that controls `role`. See {grantRole} and {revokeRole}. To change a role's admin, use {_setRoleAdmin}."
      },
      "getRoleMember(bytes32,uint256)": {
        "details": "Returns one of the accounts that have `role`. `index` must be a value between 0 and {getRoleMemberCount}, non-inclusive. Role bearers are not sorted in any particular way, and their ordering may change at any point. WARNING: When using {getRoleMember} and {getRoleMemberCount}, make sure you perform all queries on the same block. See the following https://forum.openzeppelin.com/t/iterating-over-elements-on-enumerableset-in-openzeppelin-contracts/2296[forum post] for more information."
      },
      "getRoleMemberCount(bytes32)": {
        "details": "Returns the number of accounts that have `role`. Can be used together with {getRoleMember} to enumerate all bearers of a role."
      },
      "grantRole(bytes32,address)": {
        "details": "Grants `role` to `account`. If `account` had not been already granted `role`, emits a {RoleGranted} event. Requirements: - the caller must have ``role``'s admin role."
      },
      "hasAdminRole(address)": {
        "notice": "Used to check whether an address has the admin role.",
        "params": {
          "_address": "EOA or contract being checked."
        },
        "returns": {
          "_0": "bool True if the account has the role or false if it does not."
        }
      },
      "hasMinterRole(address)": {
        "notice": "Used to check whether an address has the minter role",
        "params": {
          "_address": "EOA or contract being checked"
        },
        "returns": {
          "_0": "bool True if the account has the role or false if it does not"
        }
      },
      "hasOperatorRole(address)": {
        "notice": "Used to check whether an address has the operator role",
        "params": {
          "_address": "EOA or contract being checked"
        },
        "returns": {
          "_0": "bool True if the account has the role or false if it does not"
        }
      },
      "hasRole(bytes32,address)": {
        "details": "Returns `true` if `account` has been granted `role`."
      },
      "hasSmartContractRole(address)": {
        "notice": "Used to check whether an address has the smart contract role",
        "params": {
          "_address": "EOA or contract being checked"
        },
        "returns": {
          "_0": "bool True if the account has the role or false if it does not"
        }
      },
      "initAccessControls(address)": {
        "notice": "Initializes access controls.",
        "params": {
          "_admin": "Admins address."
        }
      },
      "initCrowdsale(address,address,address,uint256,uint256,uint256,uint256,uint256,address,address,address)": {
        "details": "Init function.",
        "notice": "Initializes main contract variables and transfers funds for the sale.",
        "params": {
          "_admin": "Address that can finalize auction.",
          "_endTime": "Crowdsale end time.",
          "_funder": "The address that funds the token for crowdsale.",
          "_goal": "Minimum amount of funds to be raised in weis or tokens.",
          "_paymentCurrency": "The currency the crowdsale accepts for payment. Can be ETH or token address.",
          "_pointList": "Address that will manage auction approvals.",
          "_rate": "Number of token units a buyer gets per wei or token.",
          "_startTime": "Crowdsale start time.",
          "_token": "Address of the token being sold.",
          "_totalTokens": "The total number of tokens to sell in crowdsale.",
          "_wallet": "Address where collected funds will be forwarded to."
        }
      },
      "initMarket(bytes)": {
        "notice": "Decodes and hands Crowdsale data to the initCrowdsale function.",
        "params": {
          "_data": "Encoded data for initialization."
        }
      },
      "isOpen()": {
        "notice": "Checks if the sale is open.",
        "returns": {
          "_0": "isOpen True if the crowdsale is open, false otherwise."
        }
      },
      "marketParticipationAgreement()": {
        "details": "Attribution to the awesome delta.financial contracts"
      },
      "marketTemplate()": {
        "notice": "MISOMarket template id for the factory contract."
      },
      "paymentCurrency()": {
        "notice": "The currency the crowdsale accepts for payment. Can be ETH or token address."
      },
      "permitToken(address,address,address,uint256,uint256,uint8,bytes32,bytes32)": {
        "notice": "Call wrapper that performs `ERC20.permit` on `token`. Lookup `IERC20.permit`."
      },
      "pointList()": {
        "notice": "Address that manages auction approvals."
      },
      "removeAdminRole(address)": {
        "details": "The sender must have the admin role.",
        "notice": "Removes the admin role from an address.",
        "params": {
          "_address": "EOA or contract affected."
        }
      },
      "removeMinterRole(address)": {
        "details": "The sender must have the admin role",
        "notice": "Removes the minter role from an address",
        "params": {
          "_address": "EOA or contract affected"
        }
      },
      "removeOperatorRole(address)": {
        "details": "The sender must have the admin role",
        "notice": "Removes the operator role from an address",
        "params": {
          "_address": "EOA or contract affected"
        }
      },
      "removeSmartContractRole(address)": {
        "details": "The sender must have the admin role",
        "notice": "Removes the smart contract role from an address",
        "params": {
          "_address": "EOA or contract affected"
        }
      },
      "renounceRole(bytes32,address)": {
        "details": "Revokes `role` from the calling account. Roles are often managed via {grantRole} and {revokeRole}: this function's purpose is to provide a mechanism for accounts to lose their privileges if they are compromised (such as when a trusted device is misplaced). If the calling account had been granted `role`, emits a {RoleRevoked} event. Requirements: - the caller must be `account`."
      },
      "revokeRole(bytes32,address)": {
        "details": "Revokes `role` from `account`. If `account` had been granted `role`, emits a {RoleRevoked} event. Requirements: - the caller must have ``role``'s admin role."
      },
      "setAuctionPrice(uint256,uint256)": {
        "notice": "Admin can set auction price through this function.",
        "params": {
          "_goal": "Minimum amount raised and goal for the auction.",
          "_rate": "Price per token."
        }
      },
      "setAuctionTime(uint256,uint256)": {
        "notice": "Admin can set start and end time through this function.",
        "params": {
          "_endTime": "Auction end time.",
          "_startTime": "Auction start time."
        }
      },
      "setAuctionWallet(address)": {
        "notice": "Admin can set the auction wallet through this function.",
        "params": {
          "_wallet": "Auction wallet is where funds will be sent."
        }
      },
      "tokensClaimable(address)": {
        "notice": "Adjusts users commitment depending on amount already claimed and unclaimed tokens left.",
        "returns": {
          "claimerCommitment": "How many tokens the user is able to claim."
        }
      },
      "wallet()": {
        "notice": "Address where funds are collected."
      },
      "withdrawTokens(address)": {
        "details": "Withdraw tokens only after crowdsale ends.",
        "notice": "Withdraws bought tokens, or returns commitment if the sale is unsuccessful.",
        "params": {
          "beneficiary": "Whose tokens will be withdrawn."
        }
      }
    },
    "stateVariables": {
      "marketTemplate": {
        "details": "For different marketplace types, this must be incremented."
      }
    },
    "version": 1
  },
  "opcodes": "PUSH1 0x80 PUSH1 0x40 MSTORE PUSH1 0x4 CALLDATASIZE LT PUSH2 0x414 JUMPI PUSH1 0x0 CALLDATALOAD PUSH1 0xE0 SHR DUP1 PUSH4 0x86433374 GT PUSH2 0x21E JUMPI DUP1 PUSH4 0xC884EF83 GT PUSH2 0x123 JUMPI DUP1 PUSH4 0xDCCFE310 GT PUSH2 0xAB JUMPI DUP1 PUSH4 0xE8FCF723 GT PUSH2 0x7A JUMPI DUP1 PUSH4 0xE8FCF723 EQ PUSH2 0xBE6 JUMPI DUP1 PUSH4 0xF04899D3 EQ PUSH2 0xC06 JUMPI DUP1 PUSH4 0xF08B82E6 EQ PUSH2 0xC1B JUMPI DUP1 PUSH4 0xF5B541A6 EQ PUSH2 0xC30 JUMPI DUP1 PUSH4 0xFC4E3E0A EQ PUSH2 0xC45 JUMPI PUSH2 0x423 JUMP JUMPDEST DUP1 PUSH4 0xDCCFE310 EQ PUSH2 0xB62 JUMPI DUP1 PUSH4 0xDDE51F6D EQ PUSH2 0xB82 JUMPI DUP1 PUSH4 0xE0E081D7 EQ PUSH2 0xBA2 JUMPI DUP1 PUSH4 0xE6594ABD EQ PUSH2 0xBC6 JUMPI PUSH2 0x423 JUMP JUMPDEST DUP1 PUSH4 0xD2423B51 GT PUSH2 0xF2 JUMPI DUP1 PUSH4 0xD2423B51 EQ PUSH2 0xACC JUMPI DUP1 PUSH4 0xD5391393 EQ PUSH2 0xAED JUMPI DUP1 PUSH4 0xD547741F EQ PUSH2 0xB02 JUMPI DUP1 PUSH4 0xD69D3E62 EQ PUSH2 0xB22 JUMPI DUP1 PUSH4 0xDC97E082 EQ PUSH2 0xB42 JUMPI PUSH2 0x423 JUMP JUMPDEST DUP1 PUSH4 0xC884EF83 EQ PUSH2 0xA4C JUMPI DUP1 PUSH4 0xC92BCE87 EQ PUSH2 0xA6C JUMPI DUP1 PUSH4 0xC9FAB059 EQ PUSH2 0xA8C JUMPI DUP1 PUSH4 0xCA15C873 EQ PUSH2 0xAAC JUMPI PUSH2 0x423 JUMP JUMPDEST DUP1 PUSH4 0x9C64D0AE GT PUSH2 0x1A6 JUMPI DUP1 PUSH4 0xB3F05B97 GT PUSH2 0x175 JUMPI DUP1 PUSH4 0xB3F05B97 EQ PUSH2 0x9B7 JUMPI DUP1 PUSH4 0xB7928B1D EQ PUSH2 0x9CC JUMPI DUP1 PUSH4 0xC2507AC1 EQ PUSH2 0x9EC JUMPI DUP1 PUSH4 0xC395FCB3 EQ PUSH2 0xA0C JUMPI DUP1 PUSH4 0xC6B547E6 EQ PUSH2 0xA2C JUMPI PUSH2 0x423 JUMP JUMPDEST DUP1 PUSH4 0x9C64D0AE EQ PUSH2 0x940 JUMPI DUP1 PUSH4 0x9FA5F50B EQ PUSH2 0x960 JUMPI DUP1 PUSH4 0xA217FDDF EQ PUSH2 0x982 JUMPI DUP1 PUSH4 0xADBF3776 EQ PUSH2 0x997 JUMPI PUSH2 0x423 JUMP JUMPDEST DUP1 PUSH4 0x9010D07C GT PUSH2 0x1ED JUMPI DUP1 PUSH4 0x9010D07C EQ PUSH2 0x8AB JUMPI DUP1 PUSH4 0x91D14854 EQ PUSH2 0x8CB JUMPI DUP1 PUSH4 0x9478941C EQ PUSH2 0x8EB JUMPI DUP1 PUSH4 0x99FDB320 EQ PUSH2 0x90B JUMPI DUP1 PUSH4 0x9A87222C EQ PUSH2 0x920 JUMPI PUSH2 0x423 JUMP JUMPDEST DUP1 PUSH4 0x86433374 EQ PUSH2 0x84C JUMPI DUP1 PUSH4 0x8A845FC0 EQ PUSH2 0x861 JUMPI DUP1 PUSH4 0x8D8F2ADB EQ PUSH2 0x881 JUMPI DUP1 PUSH4 0x8FA8B790 EQ PUSH2 0x896 JUMPI PUSH2 0x423 JUMP JUMPDEST DUP1 PUSH4 0x45A15388 GT PUSH2 0x324 JUMPI DUP1 PUSH4 0x6595171C GT PUSH2 0x2AC JUMPI DUP1 PUSH4 0x7C516E94 GT PUSH2 0x27B JUMPI DUP1 PUSH4 0x7C516E94 EQ PUSH2 0x7B4 JUMPI DUP1 PUSH4 0x7CCB6A64 EQ PUSH2 0x7D4 JUMPI DUP1 PUSH4 0x7FF9B596 EQ PUSH2 0x802 JUMPI DUP1 PUSH4 0x81353C8E EQ PUSH2 0x817 JUMPI DUP1 PUSH4 0x857D2608 EQ PUSH2 0x837 JUMPI PUSH2 0x423 JUMP JUMPDEST DUP1 PUSH4 0x6595171C EQ PUSH2 0x73F JUMPI DUP1 PUSH4 0x6AE260C1 EQ PUSH2 0x75F JUMPI DUP1 PUSH4 0x73973FCB EQ PUSH2 0x77F JUMPI DUP1 PUSH4 0x74CF9FC5 EQ PUSH2 0x79F JUMPI PUSH2 0x423 JUMP JUMPDEST DUP1 PUSH4 0x4BB278F3 GT PUSH2 0x2F3 JUMPI DUP1 PUSH4 0x4BB278F3 EQ PUSH2 0x6C2 JUMPI DUP1 PUSH4 0x4DC80E15 EQ PUSH2 0x6D7 JUMPI DUP1 PUSH4 0x4DDF47D4 EQ PUSH2 0x6F7 JUMPI DUP1 PUSH4 0x521EB273 EQ PUSH2 0x70A JUMPI DUP1 PUSH4 0x54F1E126 EQ PUSH2 0x71F JUMPI PUSH2 0x423 JUMP JUMPDEST DUP1 PUSH4 0x45A15388 EQ PUSH2 0x64A JUMPI DUP1 PUSH4 0x47535D7B EQ PUSH2 0x66D JUMPI DUP1 PUSH4 0x49DF728C EQ PUSH2 0x682 JUMPI DUP1 PUSH4 0x4B3E6ABB EQ PUSH2 0x6A2 JUMPI PUSH2 0x423 JUMP JUMPDEST DUP1 PUSH4 0x24E4025B GT PUSH2 0x3A7 JUMPI DUP1 PUSH4 0x36568ABE GT PUSH2 0x376 JUMPI DUP1 PUSH4 0x36568ABE EQ PUSH2 0x5BE JUMPI DUP1 PUSH4 0x36D0054B EQ PUSH2 0x5DE JUMPI DUP1 PUSH4 0x3D15CC6D EQ PUSH2 0x5F3 JUMPI DUP1 PUSH4 0x3D1C2273 EQ PUSH2 0x615 JUMPI DUP1 PUSH4 0x3F16431A EQ PUSH2 0x62A JUMPI PUSH2 0x423 JUMP JUMPDEST DUP1 PUSH4 0x24E4025B EQ PUSH2 0x546 JUMPI DUP1 PUSH4 0x29762960 EQ PUSH2 0x566 JUMPI DUP1 PUSH4 0x2F2FF15D EQ PUSH2 0x579 JUMPI DUP1 PUSH4 0x314148E2 EQ PUSH2 0x599 JUMPI PUSH2 0x423 JUMP JUMPDEST DUP1 PUSH4 0x17026455 GT PUSH2 0x3E3 JUMPI DUP1 PUSH4 0x17026455 EQ PUSH2 0x4CF JUMPI DUP1 PUSH4 0x1B3E460E EQ PUSH2 0x4E4 JUMPI DUP1 PUSH4 0x212F8A81 EQ PUSH2 0x506 JUMPI DUP1 PUSH4 0x248A9CA3 EQ PUSH2 0x526 JUMPI PUSH2 0x423 JUMP JUMPDEST DUP1 PUSH4 0x31BEE00 EQ PUSH2 0x428 JUMPI DUP1 PUSH4 0x99DB017 EQ PUSH2 0x455 JUMPI DUP1 PUSH4 0xCC4C033 EQ PUSH2 0x482 JUMPI DUP1 PUSH4 0x113B0AB2 EQ PUSH2 0x4AF JUMPI PUSH2 0x423 JUMP JUMPDEST CALLDATASIZE PUSH2 0x423 JUMPI PUSH2 0x421 PUSH2 0xC65 JUMP JUMPDEST STOP JUMPDEST PUSH1 0x0 DUP1 REVERT JUMPDEST CALLVALUE DUP1 ISZERO PUSH2 0x434 JUMPI PUSH1 0x0 DUP1 REVERT JUMPDEST POP PUSH2 0x43D PUSH2 0xC86 JUMP JUMPDEST PUSH1 0x40 MLOAD PUSH2 0x44C SWAP4 SWAP3 SWAP2 SWAP1 PUSH2 0x4C0C JUMP JUMPDEST PUSH1 0x40 MLOAD DUP1 SWAP2 SUB SWAP1 RETURN JUMPDEST CALLVALUE DUP1 ISZERO PUSH2 0x461 JUMPI PUSH1 0x0 DUP1 REVERT JUMPDEST POP PUSH2 0x475 PUSH2 0x470 CALLDATASIZE PUSH1 0x4 PUSH2 0x382B JUMP JUMPDEST PUSH2 0xCB3 JUMP JUMPDEST PUSH1 0x40 MLOAD PUSH2 0x44C SWAP2 SWAP1 PUSH2 0x3FD8 JUMP JUMPDEST CALLVALUE DUP1 ISZERO PUSH2 0x48E JUMPI PUSH1 0x0 DUP1 REVERT JUMPDEST POP PUSH2 0x4A2 PUSH2 0x49D CALLDATASIZE PUSH1 0x4 PUSH2 0x393C JUMP JUMPDEST PUSH2 0xCD5 JUMP JUMPDEST PUSH1 0x40 MLOAD PUSH2 0x44C SWAP2 SWAP1 PUSH2 0x3FEC JUMP JUMPDEST CALLVALUE DUP1 ISZERO PUSH2 0x4BB JUMPI PUSH1 0x0 DUP1 REVERT JUMPDEST POP PUSH2 0x475 PUSH2 0x4CA CALLDATASIZE PUSH1 0x4 PUSH2 0x382B JUMP JUMPDEST PUSH2 0xD1C JUMP JUMPDEST CALLVALUE DUP1 ISZERO PUSH2 0x4DB JUMPI PUSH1 0x0 DUP1 REVERT JUMPDEST POP PUSH2 0x475 PUSH2 0xD36 JUMP JUMPDEST CALLVALUE DUP1 ISZERO PUSH2 0x4F0 JUMPI PUSH1 0x0 DUP1 REVERT JUMPDEST POP PUSH2 0x4F9 PUSH2 0xD54 JUMP JUMPDEST PUSH1 0x40 MLOAD PUSH2 0x44C SWAP2 SWAP1 PUSH2 0x3FE3 JUMP JUMPDEST CALLVALUE DUP1 ISZERO PUSH2 0x512 JUMPI PUSH1 0x0 DUP1 REVERT JUMPDEST POP PUSH2 0x421 PUSH2 0x521 CALLDATASIZE PUSH1 0x4 PUSH2 0x395D JUMP JUMPDEST PUSH2 0xD59 JUMP JUMPDEST CALLVALUE DUP1 ISZERO PUSH2 0x532 JUMPI PUSH1 0x0 DUP1 REVERT JUMPDEST POP PUSH2 0x4F9 PUSH2 0x541 CALLDATASIZE PUSH1 0x4 PUSH2 0x3A87 JUMP JUMPDEST PUSH2 0xE0C JUMP JUMPDEST CALLVALUE DUP1 ISZERO PUSH2 0x552 JUMPI PUSH1 0x0 DUP1 REVERT JUMPDEST POP PUSH2 0x421 PUSH2 0x561 CALLDATASIZE PUSH1 0x4 PUSH2 0x3AC3 JUMP JUMPDEST PUSH2 0xE21 JUMP JUMPDEST PUSH2 0x421 PUSH2 0x574 CALLDATASIZE PUSH1 0x4 PUSH2 0x3904 JUMP JUMPDEST PUSH2 0xF63 JUMP JUMPDEST CALLVALUE DUP1 ISZERO PUSH2 0x585 JUMPI PUSH1 0x0 DUP1 REVERT JUMPDEST POP PUSH2 0x421 PUSH2 0x594 CALLDATASIZE PUSH1 0x4 PUSH2 0x3A9F JUMP JUMPDEST PUSH2 0x1049 JUMP JUMPDEST CALLVALUE DUP1 ISZERO PUSH2 0x5A5 JUMPI PUSH1 0x0 DUP1 REVERT JUMPDEST POP PUSH2 0x5AE PUSH2 0x1091 JUMP JUMPDEST PUSH1 0x40 MLOAD PUSH2 0x44C SWAP5 SWAP4 SWAP3 SWAP2 SWAP1 PUSH2 0x3EAC JUMP JUMPDEST CALLVALUE DUP1 ISZERO PUSH2 0x5CA JUMPI PUSH1 0x0 DUP1 REVERT JUMPDEST POP PUSH2 0x421 PUSH2 0x5D9 CALLDATASIZE PUSH1 0x4 PUSH2 0x3A9F JUMP JUMPDEST PUSH2 0x10C9 JUMP JUMPDEST CALLVALUE DUP1 ISZERO PUSH2 0x5EA JUMPI PUSH1 0x0 DUP1 REVERT JUMPDEST POP PUSH2 0x475 PUSH2 0x110B JUMP JUMPDEST CALLVALUE DUP1 ISZERO PUSH2 0x5FF JUMPI PUSH1 0x0 DUP1 REVERT JUMPDEST POP PUSH2 0x608 PUSH2 0x112A JUMP JUMPDEST PUSH1 0x40 MLOAD PUSH2 0x44C SWAP2 SWAP1 PUSH2 0x3DBB JUMP JUMPDEST CALLVALUE DUP1 ISZERO PUSH2 0x621 JUMPI PUSH1 0x0 DUP1 REVERT JUMPDEST POP PUSH2 0x4F9 PUSH2 0x1139 JUMP JUMPDEST CALLVALUE DUP1 ISZERO PUSH2 0x636 JUMPI PUSH1 0x0 DUP1 REVERT JUMPDEST POP PUSH2 0x421 PUSH2 0x645 CALLDATASIZE PUSH1 0x4 PUSH2 0x382B JUMP JUMPDEST PUSH2 0x113F JUMP JUMPDEST CALLVALUE DUP1 ISZERO PUSH2 0x656 JUMPI PUSH1 0x0 DUP1 REVERT JUMPDEST POP PUSH2 0x65F PUSH2 0x11A1 JUMP JUMPDEST PUSH1 0x40 MLOAD PUSH2 0x44C SWAP3 SWAP2 SWAP1 PUSH2 0x4BE4 JUMP JUMPDEST CALLVALUE DUP1 ISZERO PUSH2 0x679 JUMPI PUSH1 0x0 DUP1 REVERT JUMPDEST POP PUSH2 0x475 PUSH2 0x11BB JUMP JUMPDEST CALLVALUE DUP1 ISZERO PUSH2 0x68E JUMPI PUSH1 0x0 DUP1 REVERT JUMPDEST POP PUSH2 0x421 PUSH2 0x69D CALLDATASIZE PUSH1 0x4 PUSH2 0x382B JUMP JUMPDEST PUSH2 0x11F0 JUMP JUMPDEST CALLVALUE DUP1 ISZERO PUSH2 0x6AE JUMPI PUSH1 0x0 DUP1 REVERT JUMPDEST POP PUSH2 0x421 PUSH2 0x6BD CALLDATASIZE PUSH1 0x4 PUSH2 0x3A4F JUMP JUMPDEST PUSH2 0x133A JUMP JUMPDEST CALLVALUE DUP1 ISZERO PUSH2 0x6CE JUMPI PUSH1 0x0 DUP1 REVERT JUMPDEST POP PUSH2 0x421 PUSH2 0x136A JUMP JUMPDEST CALLVALUE DUP1 ISZERO PUSH2 0x6E3 JUMPI PUSH1 0x0 DUP1 REVERT JUMPDEST POP PUSH2 0x4F9 PUSH2 0x6F2 CALLDATASIZE PUSH1 0x4 PUSH2 0x382B JUMP JUMPDEST PUSH2 0x156A JUMP JUMPDEST PUSH2 0x421 PUSH2 0x705 CALLDATASIZE PUSH1 0x4 PUSH2 0x3AE4 JUMP JUMPDEST PUSH2 0x108D JUMP JUMPDEST CALLVALUE DUP1 ISZERO PUSH2 0x716 JUMPI PUSH1 0x0 DUP1 REVERT JUMPDEST POP PUSH2 0x608 PUSH2 0x164F JUMP JUMPDEST CALLVALUE DUP1 ISZERO PUSH2 0x72B JUMPI PUSH1 0x0 DUP1 REVERT JUMPDEST POP PUSH2 0x421 PUSH2 0x73A CALLDATASIZE PUSH1 0x4 PUSH2 0x382B JUMP JUMPDEST PUSH2 0x165E JUMP JUMPDEST CALLVALUE DUP1 ISZERO PUSH2 0x74B JUMPI PUSH1 0x0 DUP1 REVERT JUMPDEST POP PUSH2 0x421 PUSH2 0x75A CALLDATASIZE PUSH1 0x4 PUSH2 0x382B JUMP JUMPDEST PUSH2 0x16C0 JUMP JUMPDEST CALLVALUE DUP1 ISZERO PUSH2 0x76B JUMPI PUSH1 0x0 DUP1 REVERT JUMPDEST POP PUSH2 0x421 PUSH2 0x77A CALLDATASIZE PUSH1 0x4 PUSH2 0x3AC3 JUMP JUMPDEST PUSH2 0x1715 JUMP JUMPDEST CALLVALUE DUP1 ISZERO PUSH2 0x78B JUMPI PUSH1 0x0 DUP1 REVERT JUMPDEST POP PUSH2 0x4F9 PUSH2 0x79A CALLDATASIZE PUSH1 0x4 PUSH2 0x3A87 JUMP JUMPDEST PUSH2 0x1868 JUMP JUMPDEST CALLVALUE DUP1 ISZERO PUSH2 0x7AB JUMPI PUSH1 0x0 DUP1 REVERT JUMPDEST POP PUSH2 0x4A2 PUSH2 0x18EC JUMP JUMPDEST CALLVALUE DUP1 ISZERO PUSH2 0x7C0 JUMPI PUSH1 0x0 DUP1 REVERT JUMPDEST POP PUSH2 0x421 PUSH2 0x7CF CALLDATASIZE PUSH1 0x4 PUSH2 0x3B23 JUMP JUMPDEST PUSH2 0x190F JUMP JUMPDEST CALLVALUE DUP1 ISZERO PUSH2 0x7E0 JUMPI PUSH1 0x0 DUP1 REVERT JUMPDEST POP PUSH2 0x7F4 PUSH2 0x7EF CALLDATASIZE PUSH1 0x4 PUSH2 0x3AE4 JUMP JUMPDEST PUSH2 0x1983 JUMP JUMPDEST PUSH1 0x40 MLOAD PUSH2 0x44C SWAP3 SWAP2 SWAP1 PUSH2 0x402E JUMP JUMPDEST CALLVALUE DUP1 ISZERO PUSH2 0x80E JUMPI PUSH1 0x0 DUP1 REVERT JUMPDEST POP PUSH2 0x4F9 PUSH2 0x1A70 JUMP JUMPDEST CALLVALUE DUP1 ISZERO PUSH2 0x823 JUMPI PUSH1 0x0 DUP1 REVERT JUMPDEST POP PUSH2 0x421 PUSH2 0x832 CALLDATASIZE PUSH1 0x4 PUSH2 0x3AE4 JUMP JUMPDEST PUSH2 0x1A7F JUMP JUMPDEST CALLVALUE DUP1 ISZERO PUSH2 0x843 JUMPI PUSH1 0x0 DUP1 REVERT JUMPDEST POP PUSH2 0x4F9 PUSH2 0x1ACF JUMP JUMPDEST CALLVALUE DUP1 ISZERO PUSH2 0x858 JUMPI PUSH1 0x0 DUP1 REVERT JUMPDEST POP PUSH2 0x475 PUSH2 0x1AE1 JUMP JUMPDEST CALLVALUE DUP1 ISZERO PUSH2 0x86D JUMPI PUSH1 0x0 DUP1 REVERT JUMPDEST POP PUSH2 0x421 PUSH2 0x87C CALLDATASIZE PUSH1 0x4 PUSH2 0x382B JUMP JUMPDEST PUSH2 0x1B2C JUMP JUMPDEST CALLVALUE DUP1 ISZERO PUSH2 0x88D JUMPI PUSH1 0x0 DUP1 REVERT JUMPDEST POP PUSH2 0x421 PUSH2 0x1B8E JUMP JUMPDEST CALLVALUE DUP1 ISZERO PUSH2 0x8A2 JUMPI PUSH1 0x0 DUP1 REVERT JUMPDEST POP PUSH2 0x421 PUSH2 0x1B99 JUMP JUMPDEST CALLVALUE DUP1 ISZERO PUSH2 0x8B7 JUMPI PUSH1 0x0 DUP1 REVERT JUMPDEST POP PUSH2 0x608 PUSH2 0x8C6 CALLDATASIZE PUSH1 0x4 PUSH2 0x3AC3 JUMP JUMPDEST PUSH2 0x1C98 JUMP JUMPDEST CALLVALUE DUP1 ISZERO PUSH2 0x8D7 JUMPI PUSH1 0x0 DUP1 REVERT JUMPDEST POP PUSH2 0x475 PUSH2 0x8E6 CALLDATASIZE PUSH1 0x4 PUSH2 0x3A9F JUMP JUMPDEST PUSH2 0x1CB9 JUMP JUMPDEST CALLVALUE DUP1 ISZERO PUSH2 0x8F7 JUMPI PUSH1 0x0 DUP1 REVERT JUMPDEST POP PUSH2 0x421 PUSH2 0x906 CALLDATASIZE PUSH1 0x4 PUSH2 0x382B JUMP JUMPDEST PUSH2 0x1CD1 JUMP JUMPDEST CALLVALUE DUP1 ISZERO PUSH2 0x917 JUMPI PUSH1 0x0 DUP1 REVERT JUMPDEST POP PUSH2 0x608 PUSH2 0x1D33 JUMP JUMPDEST CALLVALUE DUP1 ISZERO PUSH2 0x92C JUMPI PUSH1 0x0 DUP1 REVERT JUMPDEST POP PUSH2 0x421 PUSH2 0x93B CALLDATASIZE PUSH1 0x4 PUSH2 0x382B JUMP JUMPDEST PUSH2 0x1D42 JUMP JUMPDEST CALLVALUE DUP1 ISZERO PUSH2 0x94C JUMPI PUSH1 0x0 DUP1 REVERT JUMPDEST POP PUSH2 0x421 PUSH2 0x95B CALLDATASIZE PUSH1 0x4 PUSH2 0x3BA5 JUMP JUMPDEST PUSH2 0x1DD0 JUMP JUMPDEST CALLVALUE DUP1 ISZERO PUSH2 0x96C JUMPI PUSH1 0x0 DUP1 REVERT JUMPDEST POP PUSH2 0x975 PUSH2 0x1DF4 JUMP JUMPDEST PUSH1 0x40 MLOAD PUSH2 0x44C SWAP2 SWAP1 PUSH2 0x3F78 JUMP JUMPDEST CALLVALUE DUP1 ISZERO PUSH2 0x98E JUMPI PUSH1 0x0 DUP1 REVERT JUMPDEST POP PUSH2 0x4F9 PUSH2 0x1ECC JUMP JUMPDEST CALLVALUE DUP1 ISZERO PUSH2 0x9A3 JUMPI PUSH1 0x0 DUP1 REVERT JUMPDEST POP PUSH2 0x421 PUSH2 0x9B2 CALLDATASIZE PUSH1 0x4 PUSH2 0x382B JUMP JUMPDEST PUSH2 0x1ED1 JUMP JUMPDEST CALLVALUE DUP1 ISZERO PUSH2 0x9C3 JUMPI PUSH1 0x0 DUP1 REVERT JUMPDEST POP PUSH2 0x475 PUSH2 0x1F33 JUMP JUMPDEST CALLVALUE DUP1 ISZERO PUSH2 0x9D8 JUMPI PUSH1 0x0 DUP1 REVERT JUMPDEST POP PUSH2 0x421 PUSH2 0x9E7 CALLDATASIZE PUSH1 0x4 PUSH2 0x382B JUMP JUMPDEST PUSH2 0x1F43 JUMP JUMPDEST CALLVALUE DUP1 ISZERO PUSH2 0x9F8 JUMPI PUSH1 0x0 DUP1 REVERT JUMPDEST POP PUSH2 0x4F9 PUSH2 0xA07 CALLDATASIZE PUSH1 0x4 PUSH2 0x3A87 JUMP JUMPDEST PUSH2 0x1FA5 JUMP JUMPDEST CALLVALUE DUP1 ISZERO PUSH2 0xA18 JUMPI PUSH1 0x0 DUP1 REVERT JUMPDEST POP PUSH2 0x475 PUSH2 0xA27 CALLDATASIZE PUSH1 0x4 PUSH2 0x382B JUMP JUMPDEST PUSH2 0x1FB0 JUMP JUMPDEST CALLVALUE DUP1 ISZERO PUSH2 0xA38 JUMPI PUSH1 0x0 DUP1 REVERT JUMPDEST POP PUSH2 0x4A2 PUSH2 0xA47 CALLDATASIZE PUSH1 0x4 PUSH2 0x3A87 JUMP JUMPDEST PUSH2 0x1FBC JUMP JUMPDEST CALLVALUE DUP1 ISZERO PUSH2 0xA58 JUMPI PUSH1 0x0 DUP1 REVERT JUMPDEST POP PUSH2 0x4F9 PUSH2 0xA67 CALLDATASIZE PUSH1 0x4 PUSH2 0x382B JUMP JUMPDEST PUSH2 0x2087 JUMP JUMPDEST CALLVALUE DUP1 ISZERO PUSH2 0xA78 JUMPI PUSH1 0x0 DUP1 REVERT JUMPDEST POP PUSH2 0x421 PUSH2 0xA87 CALLDATASIZE PUSH1 0x4 PUSH2 0x39E7 JUMP JUMPDEST PUSH2 0x2099 JUMP JUMPDEST CALLVALUE DUP1 ISZERO PUSH2 0xA98 JUMPI PUSH1 0x0 DUP1 REVERT JUMPDEST POP PUSH2 0x421 PUSH2 0xAA7 CALLDATASIZE PUSH1 0x4 PUSH2 0x393C JUMP JUMPDEST PUSH2 0x210B JUMP JUMPDEST CALLVALUE DUP1 ISZERO PUSH2 0xAB8 JUMPI PUSH1 0x0 DUP1 REVERT JUMPDEST POP PUSH2 0x4F9 PUSH2 0xAC7 CALLDATASIZE PUSH1 0x4 PUSH2 0x3A87 JUMP JUMPDEST PUSH2 0x24EB JUMP JUMPDEST PUSH2 0xADF PUSH2 0xADA CALLDATASIZE PUSH1 0x4 PUSH2 0x399E JUMP JUMPDEST PUSH2 0x2502 JUMP JUMPDEST PUSH1 0x40 MLOAD PUSH2 0x44C SWAP3 SWAP2 SWAP1 PUSH2 0x3EDE JUMP JUMPDEST CALLVALUE DUP1 ISZERO PUSH2 0xAF9 JUMPI PUSH1 0x0 DUP1 REVERT JUMPDEST POP PUSH2 0x4F9 PUSH2 0x2692 JUMP JUMPDEST CALLVALUE DUP1 ISZERO PUSH2 0xB0E JUMPI PUSH1 0x0 DUP1 REVERT JUMPDEST POP PUSH2 0x421 PUSH2 0xB1D CALLDATASIZE PUSH1 0x4 PUSH2 0x3A9F JUMP JUMPDEST PUSH2 0x26A4 JUMP JUMPDEST CALLVALUE DUP1 ISZERO PUSH2 0xB2E JUMPI PUSH1 0x0 DUP1 REVERT JUMPDEST POP PUSH2 0x421 PUSH2 0xB3D CALLDATASIZE PUSH1 0x4 PUSH2 0x382B JUMP JUMPDEST PUSH2 0x26DE JUMP JUMPDEST CALLVALUE DUP1 ISZERO PUSH2 0xB4E JUMPI PUSH1 0x0 DUP1 REVERT JUMPDEST POP PUSH2 0x421 PUSH2 0xB5D CALLDATASIZE PUSH1 0x4 PUSH2 0x3CB3 JUMP JUMPDEST PUSH2 0x26FC JUMP JUMPDEST CALLVALUE DUP1 ISZERO PUSH2 0xB6E JUMPI PUSH1 0x0 DUP1 REVERT JUMPDEST POP PUSH2 0x421 PUSH2 0xB7D CALLDATASIZE PUSH1 0x4 PUSH2 0x382B JUMP JUMPDEST PUSH2 0x2707 JUMP JUMPDEST CALLVALUE DUP1 ISZERO PUSH2 0xB8E JUMPI PUSH1 0x0 DUP1 REVERT JUMPDEST POP PUSH2 0x421 PUSH2 0xB9D CALLDATASIZE PUSH1 0x4 PUSH2 0x3AE4 JUMP JUMPDEST PUSH2 0x275C JUMP JUMPDEST CALLVALUE DUP1 ISZERO PUSH2 0xBAE JUMPI PUSH1 0x0 DUP1 REVERT JUMPDEST POP PUSH2 0xBB7 PUSH2 0x2778 JUMP JUMPDEST PUSH1 0x40 MLOAD PUSH2 0x44C SWAP4 SWAP3 SWAP2 SWAP1 PUSH2 0x4BC1 JUMP JUMPDEST CALLVALUE DUP1 ISZERO PUSH2 0xBD2 JUMPI PUSH1 0x0 DUP1 REVERT JUMPDEST POP PUSH2 0x421 PUSH2 0xBE1 CALLDATASIZE PUSH1 0x4 PUSH2 0x382B JUMP JUMPDEST PUSH2 0x279D JUMP JUMPDEST CALLVALUE DUP1 ISZERO PUSH2 0xBF2 JUMPI PUSH1 0x0 DUP1 REVERT JUMPDEST POP PUSH2 0x4F9 PUSH2 0xC01 CALLDATASIZE PUSH1 0x4 PUSH2 0x382B JUMP JUMPDEST PUSH2 0x27DA JUMP JUMPDEST CALLVALUE DUP1 ISZERO PUSH2 0xC12 JUMPI PUSH1 0x0 DUP1 REVERT JUMPDEST POP PUSH2 0x608 PUSH2 0x27EC JUMP JUMPDEST CALLVALUE DUP1 ISZERO PUSH2 0xC27 JUMPI PUSH1 0x0 DUP1 REVERT JUMPDEST POP PUSH2 0x4F9 PUSH2 0x27FB JUMP JUMPDEST CALLVALUE DUP1 ISZERO PUSH2 0xC3C JUMPI PUSH1 0x0 DUP1 REVERT JUMPDEST POP PUSH2 0x4F9 PUSH2 0x2811 JUMP JUMPDEST CALLVALUE DUP1 ISZERO PUSH2 0xC51 JUMPI PUSH1 0x0 DUP1 REVERT JUMPDEST POP PUSH2 0x475 PUSH2 0xC60 CALLDATASIZE PUSH1 0x4 PUSH2 0x382B JUMP JUMPDEST PUSH2 0x2823 JUMP JUMPDEST PUSH1 0x40 MLOAD PUSH3 0x461BCD PUSH1 0xE5 SHL DUP2 MSTORE PUSH1 0x4 ADD PUSH2 0xC7D SWAP1 PUSH2 0x4213 JUMP JUMPDEST PUSH1 0x40 MLOAD DUP1 SWAP2 SUB SWAP1 REVERT JUMPDEST PUSH1 0x7 SLOAD PUSH1 0x1 PUSH1 0x1 PUSH1 0x40 SHL SUB DUP1 DUP3 AND SWAP2 PUSH1 0x1 PUSH1 0x40 SHL DUP2 DIV SWAP1 SWAP2 AND SWAP1 PUSH1 0x1 PUSH1 0x80 SHL SWAP1 DIV PUSH1 0x1 PUSH1 0x1 PUSH1 0x80 SHL SUB AND DUP4 JUMP JUMPDEST PUSH1 0x0 PUSH2 0xCCD PUSH1 0x0 DUP1 MLOAD PUSH1 0x20 PUSH2 0x4D27 DUP4 CODECOPY DUP2 MLOAD SWAP2 MSTORE DUP4 PUSH2 0x1CB9 JUMP JUMPDEST SWAP1 POP JUMPDEST SWAP2 SWAP1 POP JUMP JUMPDEST PUSH1 0x60 DUP12 DUP12 DUP12 DUP12 DUP12 DUP12 DUP12 DUP12 DUP12 DUP12 DUP12 PUSH1 0x40 MLOAD PUSH1 0x20 ADD PUSH2 0xCFC SWAP12 SWAP11 SWAP10 SWAP9 SWAP8 SWAP7 SWAP6 SWAP5 SWAP4 SWAP3 SWAP2 SWAP1 PUSH2 0x3DCF JUMP JUMPDEST PUSH1 0x40 MLOAD PUSH1 0x20 DUP2 DUP4 SUB SUB DUP2 MSTORE SWAP1 PUSH1 0x40 MSTORE SWAP1 POP SWAP12 SWAP11 POP POP POP POP POP POP POP POP POP POP POP JUMP JUMPDEST PUSH1 0x0 PUSH2 0xCCD PUSH1 0x0 DUP1 MLOAD PUSH1 0x20 PUSH2 0x4CE7 DUP4 CODECOPY DUP2 MLOAD SWAP2 MSTORE DUP4 PUSH2 0x1CB9 JUMP JUMPDEST PUSH1 0x7 SLOAD TIMESTAMP PUSH1 0x1 PUSH1 0x40 SHL SWAP1 SWAP2 DIV PUSH1 0x1 PUSH1 0x1 PUSH1 0x40 SHL SUB AND PUSH3 0x93A80 ADD LT SWAP1 JUMP JUMPDEST PUSH1 0x1 DUP2 JUMP JUMPDEST PUSH1 0x2 PUSH1 0x5 SLOAD EQ ISZERO PUSH2 0xD7C JUMPI PUSH1 0x40 MLOAD PUSH3 0x461BCD PUSH1 0xE5 SHL DUP2 MSTORE PUSH1 0x4 ADD PUSH2 0xC7D SWAP1 PUSH2 0x4A1C JUMP JUMPDEST PUSH1 0x2 PUSH1 0x5 SSTORE PUSH1 0xB SLOAD PUSH1 0x1 PUSH1 0x1 PUSH1 0xA0 SHL SUB AND PUSH20 0xEEEEEEEEEEEEEEEEEEEEEEEEEEEEEEEEEEEEEEEE EQ ISZERO PUSH2 0xDC0 JUMPI PUSH1 0x40 MLOAD PUSH3 0x461BCD PUSH1 0xE5 SHL DUP2 MSTORE PUSH1 0x4 ADD PUSH2 0xC7D SWAP1 PUSH2 0x4B49 JUMP JUMPDEST DUP1 PUSH2 0xDCD JUMPI PUSH2 0xDCD PUSH2 0xC65 JUMP JUMPDEST PUSH1 0x0 PUSH2 0xDD8 DUP4 PUSH2 0x1868 JUMP JUMPDEST SWAP1 POP DUP1 ISZERO PUSH2 0xE01 JUMPI PUSH1 0xB SLOAD PUSH2 0xDF7 SWAP1 PUSH1 0x1 PUSH1 0x1 PUSH1 0xA0 SHL SUB AND CALLER DUP4 PUSH2 0x283D JUMP JUMPDEST PUSH2 0xE01 DUP5 DUP3 PUSH2 0x291A JUMP JUMPDEST POP POP PUSH1 0x1 PUSH1 0x5 SSTORE POP POP JUMP JUMPDEST PUSH1 0x0 SWAP1 DUP2 MSTORE PUSH1 0x20 DUP2 SWAP1 MSTORE PUSH1 0x40 SWAP1 KECCAK256 PUSH1 0x2 ADD SLOAD SWAP1 JUMP JUMPDEST PUSH2 0xE2A CALLER PUSH2 0x1FB0 JUMP JUMPDEST PUSH2 0xE33 JUMPI PUSH1 0x0 DUP1 REVERT JUMPDEST PUSH1 0x0 DUP2 GT PUSH2 0xE53 JUMPI PUSH1 0x40 MLOAD PUSH3 0x461BCD PUSH1 0xE5 SHL DUP2 MSTORE PUSH1 0x4 ADD PUSH2 0xC7D SWAP1 PUSH2 0x4ACC JUMP JUMPDEST PUSH1 0x0 DUP3 GT PUSH2 0xE73 JUMPI PUSH1 0x40 MLOAD PUSH3 0x461BCD PUSH1 0xE5 SHL DUP2 MSTORE PUSH1 0x4 ADD PUSH2 0xC7D SWAP1 PUSH2 0x44DD JUMP JUMPDEST PUSH1 0x8 SLOAD PUSH1 0x1 PUSH1 0x1 PUSH1 0x80 SHL SUB AND ISZERO PUSH2 0xE9C JUMPI PUSH1 0x40 MLOAD PUSH3 0x461BCD PUSH1 0xE5 SHL DUP2 MSTORE PUSH1 0x4 ADD PUSH2 0xC7D SWAP1 PUSH2 0x4306 JUMP JUMPDEST PUSH1 0x7 SLOAD PUSH1 0x1 PUSH1 0x80 SHL SWAP1 DIV PUSH1 0x1 PUSH1 0x1 PUSH1 0x80 SHL SUB AND PUSH2 0xEB8 DUP3 PUSH2 0x2AE5 JUMP JUMPDEST GT ISZERO PUSH2 0xED6 JUMPI PUSH1 0x40 MLOAD PUSH3 0x461BCD PUSH1 0xE5 SHL DUP2 MSTORE PUSH1 0x4 ADD PUSH2 0xC7D SWAP1 PUSH2 0x485E JUMP JUMPDEST PUSH2 0xEDF DUP3 PUSH2 0x2B8F JUMP JUMPDEST PUSH1 0x6 DUP1 SLOAD PUSH1 0x1 PUSH1 0x1 PUSH1 0x80 SHL SUB NOT AND PUSH1 0x1 PUSH1 0x1 PUSH1 0x80 SHL SUB SWAP3 SWAP1 SWAP3 AND SWAP2 SWAP1 SWAP2 OR SWAP1 SSTORE PUSH2 0xF08 DUP2 PUSH2 0x2B8F JUMP JUMPDEST PUSH1 0x6 DUP1 SLOAD PUSH1 0x1 PUSH1 0x1 PUSH1 0x80 SHL SUB SWAP3 DUP4 AND PUSH1 0x1 PUSH1 0x80 SHL MUL SWAP3 AND SWAP2 SWAP1 SWAP2 OR SWAP1 SSTORE PUSH1 0x40 MLOAD PUSH32 0x622A57040C34E45ABC5FADEB22E4C3C687CF48A096C86694CD21A7BE9E7851EE SWAP1 PUSH2 0xF57 SWAP1 DUP5 SWAP1 DUP5 SWAP1 PUSH2 0x4BFE JUMP JUMPDEST PUSH1 0x40 MLOAD DUP1 SWAP2 SUB SWAP1 LOG1 POP POP JUMP JUMPDEST PUSH1 0x2 PUSH1 0x5 SLOAD EQ ISZERO PUSH2 0xF86 JUMPI PUSH1 0x40 MLOAD PUSH3 0x461BCD PUSH1 0xE5 SHL DUP2 MSTORE PUSH1 0x4 ADD PUSH2 0xC7D SWAP1 PUSH2 0x4A1C JUMP JUMPDEST PUSH1 0x2 PUSH1 0x5 SSTORE PUSH1 0xB SLOAD PUSH1 0x1 PUSH1 0x1 PUSH1 0xA0 SHL SUB AND PUSH20 0xEEEEEEEEEEEEEEEEEEEEEEEEEEEEEEEEEEEEEEEE EQ PUSH2 0xFC9 JUMPI PUSH1 0x40 MLOAD PUSH3 0x461BCD PUSH1 0xE5 SHL DUP2 MSTORE PUSH1 0x4 ADD PUSH2 0xC7D SWAP1 PUSH2 0x46EB JUMP JUMPDEST DUP1 PUSH2 0xFD6 JUMPI PUSH2 0xFD6 PUSH2 0xC65 JUMP JUMPDEST PUSH1 0x0 PUSH2 0xFE1 CALLVALUE PUSH2 0x1868 JUMP JUMPDEST SWAP1 POP PUSH1 0x0 PUSH2 0xFEF CALLVALUE DUP4 PUSH2 0x2BBC JUMP JUMPDEST SWAP1 POP DUP2 ISZERO PUSH2 0x1001 JUMPI PUSH2 0x1001 DUP5 DUP4 PUSH2 0x291A JUMP JUMPDEST DUP1 ISZERO PUSH2 0xE01 JUMPI PUSH1 0x40 MLOAD PUSH1 0x1 PUSH1 0x1 PUSH1 0xA0 SHL SUB DUP6 AND SWAP1 DUP3 ISZERO PUSH2 0x8FC MUL SWAP1 DUP4 SWAP1 PUSH1 0x0 DUP2 DUP2 DUP2 DUP6 DUP9 DUP9 CALL SWAP4 POP POP POP POP ISZERO DUP1 ISZERO PUSH2 0x103D JUMPI RETURNDATASIZE PUSH1 0x0 DUP1 RETURNDATACOPY RETURNDATASIZE PUSH1 0x0 REVERT JUMPDEST POP POP POP PUSH1 0x1 PUSH1 0x5 SSTORE POP POP JUMP JUMPDEST PUSH1 0x0 DUP3 DUP2 MSTORE PUSH1 0x20 DUP2 SWAP1 MSTORE PUSH1 0x40 SWAP1 KECCAK256 PUSH1 0x2 ADD SLOAD PUSH2 0x1067 SWAP1 PUSH2 0x8E6 PUSH2 0x2BDF JUMP JUMPDEST PUSH2 0x1083 JUMPI PUSH1 0x40 MLOAD PUSH3 0x461BCD PUSH1 0xE5 SHL DUP2 MSTORE PUSH1 0x4 ADD PUSH2 0xC7D SWAP1 PUSH2 0x4178 JUMP JUMPDEST PUSH2 0x108D DUP3 DUP3 PUSH2 0x2BE3 JUMP JUMPDEST POP POP JUMP JUMPDEST PUSH1 0x9 SLOAD PUSH1 0x7 SLOAD PUSH1 0x8 SLOAD PUSH1 0x1 PUSH1 0x1 PUSH1 0xA0 SHL SUB SWAP1 SWAP3 AND SWAP3 PUSH1 0x1 PUSH1 0x1 PUSH1 0x40 SHL SUB DUP1 DUP4 AND SWAP4 PUSH1 0x1 PUSH1 0x40 SHL SWAP1 SWAP4 DIV AND SWAP2 PUSH1 0x1 PUSH1 0x80 SHL SWAP1 DIV PUSH1 0xFF AND SWAP1 JUMP JUMPDEST PUSH2 0x10D1 PUSH2 0x2BDF JUMP JUMPDEST PUSH1 0x1 PUSH1 0x1 PUSH1 0xA0 SHL SUB AND DUP2 PUSH1 0x1 PUSH1 0x1 PUSH1 0xA0 SHL SUB AND EQ PUSH2 0x1101 JUMPI PUSH1 0x40 MLOAD PUSH3 0x461BCD PUSH1 0xE5 SHL DUP2 MSTORE PUSH1 0x4 ADD PUSH2 0xC7D SWAP1 PUSH2 0x4AFA JUMP JUMPDEST PUSH2 0x108D DUP3 DUP3 PUSH2 0x2C4C JUMP JUMPDEST PUSH1 0x6 SLOAD PUSH1 0x8 SLOAD PUSH1 0x1 PUSH1 0x1 PUSH1 0x80 SHL SUB PUSH1 0x1 PUSH1 0x80 SHL SWAP1 SWAP3 DIV DUP3 AND SWAP2 AND LT ISZERO SWAP1 JUMP JUMPDEST PUSH1 0xB SLOAD PUSH1 0x1 PUSH1 0x1 PUSH1 0xA0 SHL SUB AND DUP2 JUMP JUMPDEST PUSH1 0x4 SLOAD SWAP1 JUMP JUMPDEST PUSH2 0x1157 PUSH1 0x0 DUP1 MLOAD PUSH1 0x20 PUSH2 0x4CE7 DUP4 CODECOPY DUP2 MLOAD SWAP2 MSTORE DUP3 PUSH2 0x1049 JUMP JUMPDEST PUSH2 0x115F PUSH2 0x2BDF JUMP JUMPDEST PUSH1 0x1 PUSH1 0x1 PUSH1 0xA0 SHL SUB AND DUP2 PUSH1 0x1 PUSH1 0x1 PUSH1 0xA0 SHL SUB AND PUSH32 0x1D5F9EC24C6F91BE922EA13CEAAD919AD6554A41B5C26087F96289A9BAF98AD2 PUSH1 0x40 MLOAD PUSH1 0x40 MLOAD DUP1 SWAP2 SUB SWAP1 LOG3 POP JUMP JUMPDEST PUSH1 0x6 SLOAD PUSH1 0x1 PUSH1 0x1 PUSH1 0x80 SHL SUB DUP1 DUP3 AND SWAP2 PUSH1 0x1 PUSH1 0x80 SHL SWAP1 DIV AND DUP3 JUMP JUMPDEST PUSH1 0x7 SLOAD PUSH1 0x0 SWAP1 PUSH1 0x1 PUSH1 0x1 PUSH1 0x40 SHL SUB AND TIMESTAMP LT DUP1 ISZERO SWAP1 PUSH2 0x11EB JUMPI POP PUSH1 0x7 SLOAD PUSH1 0x1 PUSH1 0x40 SHL SWAP1 DIV PUSH1 0x1 PUSH1 0x1 PUSH1 0x40 SHL SUB AND TIMESTAMP GT ISZERO JUMPDEST SWAP1 POP SWAP1 JUMP JUMPDEST PUSH1 0x2 PUSH1 0x5 SLOAD EQ ISZERO PUSH2 0x1213 JUMPI PUSH1 0x40 MLOAD PUSH3 0x461BCD PUSH1 0xE5 SHL DUP2 MSTORE PUSH1 0x4 ADD PUSH2 0xC7D SWAP1 PUSH2 0x4A1C JUMP JUMPDEST PUSH1 0x2 PUSH1 0x5 SSTORE PUSH2 0x1220 PUSH2 0x110B JUMP JUMPDEST ISZERO PUSH2 0x12D0 JUMPI PUSH1 0x8 SLOAD PUSH1 0x1 PUSH1 0x80 SHL SWAP1 DIV PUSH1 0xFF AND PUSH2 0x124E JUMPI PUSH1 0x40 MLOAD PUSH3 0x461BCD PUSH1 0xE5 SHL DUP2 MSTORE PUSH1 0x4 ADD PUSH2 0xC7D SWAP1 PUSH2 0x4827 JUMP JUMPDEST PUSH1 0x0 PUSH2 0x1259 DUP3 PUSH2 0x156A JUMP JUMPDEST SWAP1 POP PUSH1 0x0 DUP2 GT PUSH2 0x127B JUMPI PUSH1 0x40 MLOAD PUSH3 0x461BCD PUSH1 0xE5 SHL DUP2 MSTORE PUSH1 0x4 ADD PUSH2 0xC7D SWAP1 PUSH2 0x49E5 JUMP JUMPDEST PUSH1 0x1 PUSH1 0x1 PUSH1 0xA0 SHL SUB DUP3 AND PUSH1 0x0 SWAP1 DUP2 MSTORE PUSH1 0xE PUSH1 0x20 MSTORE PUSH1 0x40 SWAP1 KECCAK256 SLOAD PUSH2 0x129E SWAP1 DUP3 PUSH2 0x2CB5 JUMP JUMPDEST PUSH1 0x1 PUSH1 0x1 PUSH1 0xA0 SHL SUB DUP1 DUP5 AND PUSH1 0x0 SWAP1 DUP2 MSTORE PUSH1 0xE PUSH1 0x20 MSTORE PUSH1 0x40 SWAP1 KECCAK256 SWAP2 SWAP1 SWAP2 SSTORE PUSH1 0x9 SLOAD PUSH2 0x12CA SWAP2 AND DUP4 DUP4 PUSH2 0x2CD8 JUMP JUMPDEST POP PUSH2 0x1332 JUMP JUMPDEST PUSH1 0x7 SLOAD PUSH1 0x1 PUSH1 0x40 SHL SWAP1 DIV PUSH1 0x1 PUSH1 0x1 PUSH1 0x40 SHL SUB AND TIMESTAMP GT PUSH2 0x1301 JUMPI PUSH1 0x40 MLOAD PUSH3 0x461BCD PUSH1 0xE5 SHL DUP2 MSTORE PUSH1 0x4 ADD PUSH2 0xC7D SWAP1 PUSH2 0x47E0 JUMP JUMPDEST PUSH1 0x1 PUSH1 0x1 PUSH1 0xA0 SHL SUB DUP1 DUP3 AND PUSH1 0x0 SWAP1 DUP2 MSTORE PUSH1 0xD PUSH1 0x20 MSTORE PUSH1 0x40 DUP2 KECCAK256 DUP1 SLOAD SWAP2 SWAP1 SSTORE PUSH1 0xB SLOAD SWAP1 SWAP2 PUSH2 0x1330 SWAP2 AND DUP4 DUP4 PUSH2 0x2CD8 JUMP JUMPDEST POP JUMPDEST POP PUSH1 0x1 PUSH1 0x5 SSTORE JUMP JUMPDEST PUSH2 0x1343 CALLER PUSH2 0x1FB0 JUMP JUMPDEST PUSH2 0x134C JUMPI PUSH1 0x0 DUP1 REVERT JUMPDEST PUSH1 0x8 DUP1 SLOAD SWAP2 ISZERO ISZERO PUSH1 0x1 PUSH1 0x88 SHL MUL PUSH1 0xFF PUSH1 0x88 SHL NOT SWAP1 SWAP3 AND SWAP2 SWAP1 SWAP2 OR SWAP1 SSTORE JUMP JUMPDEST PUSH1 0x2 PUSH1 0x5 SLOAD EQ ISZERO PUSH2 0x138D JUMPI PUSH1 0x40 MLOAD PUSH3 0x461BCD PUSH1 0xE5 SHL DUP2 MSTORE PUSH1 0x4 ADD PUSH2 0xC7D SWAP1 PUSH2 0x4A1C JUMP JUMPDEST PUSH1 0x2 PUSH1 0x5 SSTORE PUSH2 0x139B CALLER PUSH2 0x1FB0 JUMP JUMPDEST DUP1 PUSH2 0x13B0 JUMPI POP PUSH1 0xA SLOAD PUSH1 0x1 PUSH1 0x1 PUSH1 0xA0 SHL SUB AND CALLER EQ JUMPDEST DUP1 PUSH2 0x13BF JUMPI POP PUSH2 0x13BF CALLER PUSH2 0xD1C JUMP JUMPDEST DUP1 PUSH2 0x13CD JUMPI POP PUSH2 0x13CD PUSH2 0xD36 JUMP JUMPDEST PUSH2 0x13E9 JUMPI PUSH1 0x40 MLOAD PUSH3 0x461BCD PUSH1 0xE5 SHL DUP2 MSTORE PUSH1 0x4 ADD PUSH2 0xC7D SWAP1 PUSH2 0x4A8A JUMP JUMPDEST PUSH1 0x8 DUP1 SLOAD PUSH1 0x1 PUSH1 0x80 SHL SWAP1 DIV PUSH1 0xFF AND ISZERO PUSH2 0x1414 JUMPI PUSH1 0x40 MLOAD PUSH3 0x461BCD PUSH1 0xE5 SHL DUP2 MSTORE PUSH1 0x4 ADD PUSH2 0xC7D SWAP1 PUSH2 0x4354 JUMP JUMPDEST PUSH1 0x7 PUSH2 0x141E PUSH2 0x110B JUMP JUMPDEST ISZERO PUSH2 0x14D4 JUMPI PUSH2 0x142B PUSH2 0x1AE1 JUMP JUMPDEST PUSH2 0x1447 JUMPI PUSH1 0x40 MLOAD PUSH3 0x461BCD PUSH1 0xE5 SHL DUP2 MSTORE PUSH1 0x4 ADD PUSH2 0xC7D SWAP1 PUSH2 0x4731 JUMP JUMPDEST PUSH1 0xB SLOAD PUSH1 0xA SLOAD DUP4 SLOAD PUSH2 0x146F SWAP3 PUSH1 0x1 PUSH1 0x1 PUSH1 0xA0 SHL SUB SWAP1 DUP2 AND SWAP3 AND SWAP1 PUSH1 0x1 PUSH1 0x1 PUSH1 0x80 SHL SUB AND PUSH2 0x2CD8 JUMP JUMPDEST DUP2 SLOAD PUSH1 0x0 SWAP1 PUSH2 0x1486 SWAP1 PUSH1 0x1 PUSH1 0x1 PUSH1 0x80 SHL SUB AND PUSH2 0x2AE5 JUMP JUMPDEST DUP3 SLOAD SWAP1 SWAP2 POP PUSH1 0x0 SWAP1 PUSH2 0x14A8 SWAP1 PUSH1 0x1 PUSH1 0x80 SHL SWAP1 DIV PUSH1 0x1 PUSH1 0x1 PUSH1 0x80 SHL SUB AND DUP4 PUSH2 0x2BBC JUMP JUMPDEST SWAP1 POP DUP1 ISZERO PUSH2 0x14CD JUMPI PUSH1 0x9 SLOAD PUSH1 0xA SLOAD PUSH2 0x14CD SWAP2 PUSH1 0x1 PUSH1 0x1 PUSH1 0xA0 SHL SUB SWAP1 DUP2 AND SWAP2 AND DUP4 PUSH2 0x2CD8 JUMP JUMPDEST POP POP PUSH2 0x1527 JUMP JUMPDEST PUSH2 0x14DC PUSH2 0x1AE1 JUMP JUMPDEST PUSH2 0x14F8 JUMPI PUSH1 0x40 MLOAD PUSH3 0x461BCD PUSH1 0xE5 SHL DUP2 MSTORE PUSH1 0x4 ADD PUSH2 0xC7D SWAP1 PUSH2 0x4731 JUMP JUMPDEST PUSH1 0x9 SLOAD PUSH1 0xA SLOAD DUP3 SLOAD PUSH2 0x1527 SWAP3 PUSH1 0x1 PUSH1 0x1 PUSH1 0xA0 SHL SUB SWAP1 DUP2 AND SWAP3 AND SWAP1 PUSH1 0x1 PUSH1 0x80 SHL SWAP1 DIV PUSH1 0x1 PUSH1 0x1 PUSH1 0x80 SHL SUB AND PUSH2 0x2CD8 JUMP JUMPDEST DUP2 SLOAD PUSH1 0xFF PUSH1 0x80 SHL NOT AND PUSH1 0x1 PUSH1 0x80 SHL OR DUP3 SSTORE PUSH1 0x40 MLOAD PUSH32 0x32BEBCFD2D04DBAE321298091D96D2CB1D07279F59718CD83BD98245B8B82B5A SWAP1 PUSH1 0x0 SWAP1 LOG1 POP POP PUSH1 0x1 PUSH1 0x5 SSTORE JUMP JUMPDEST PUSH1 0x9 SLOAD PUSH1 0x40 MLOAD PUSH4 0x70A08231 PUSH1 0xE0 SHL DUP2 MSTORE PUSH1 0x0 SWAP2 DUP3 SWAP2 PUSH1 0x1 PUSH1 0x1 PUSH1 0xA0 SHL SUB SWAP1 SWAP2 AND SWAP1 PUSH4 0x70A08231 SWAP1 PUSH2 0x159F SWAP1 ADDRESS SWAP1 PUSH1 0x4 ADD PUSH2 0x3DBB JUMP JUMPDEST PUSH1 0x20 PUSH1 0x40 MLOAD DUP1 DUP4 SUB DUP2 DUP7 DUP1 EXTCODESIZE ISZERO DUP1 ISZERO PUSH2 0x15B7 JUMPI PUSH1 0x0 DUP1 REVERT JUMPDEST POP GAS STATICCALL ISZERO DUP1 ISZERO PUSH2 0x15CB JUMPI RETURNDATASIZE PUSH1 0x0 DUP1 RETURNDATACOPY RETURNDATASIZE PUSH1 0x0 REVERT JUMPDEST POP POP POP POP PUSH1 0x40 MLOAD RETURNDATASIZE PUSH1 0x1F NOT PUSH1 0x1F DUP3 ADD AND DUP3 ADD DUP1 PUSH1 0x40 MSTORE POP DUP2 ADD SWAP1 PUSH2 0x15EF SWAP2 SWAP1 PUSH2 0x3C9B JUMP JUMPDEST PUSH1 0x1 PUSH1 0x1 PUSH1 0xA0 SHL SUB DUP5 AND PUSH1 0x0 SWAP1 DUP2 MSTORE PUSH1 0xD PUSH1 0x20 MSTORE PUSH1 0x40 SWAP1 KECCAK256 SLOAD SWAP1 SWAP2 POP PUSH2 0x1614 SWAP1 PUSH2 0x2AE5 JUMP JUMPDEST PUSH1 0x1 PUSH1 0x1 PUSH1 0xA0 SHL SUB DUP5 AND PUSH1 0x0 SWAP1 DUP2 MSTORE PUSH1 0xE PUSH1 0x20 MSTORE PUSH1 0x40 SWAP1 KECCAK256 SLOAD SWAP1 SWAP3 POP PUSH2 0x163B SWAP1 DUP4 SWAP1 PUSH2 0x2BBC JUMP JUMPDEST SWAP2 POP DUP1 DUP3 GT ISZERO PUSH2 0x1649 JUMPI DUP1 SWAP2 POP JUMPDEST POP SWAP2 SWAP1 POP JUMP JUMPDEST PUSH1 0xA SLOAD PUSH1 0x1 PUSH1 0x1 PUSH1 0xA0 SHL SUB AND DUP2 JUMP JUMPDEST PUSH2 0x1676 PUSH1 0x0 DUP1 MLOAD PUSH1 0x20 PUSH2 0x4D27 DUP4 CODECOPY DUP2 MLOAD SWAP2 MSTORE DUP3 PUSH2 0x26A4 JUMP JUMPDEST PUSH2 0x167E PUSH2 0x2BDF JUMP JUMPDEST PUSH1 0x1 PUSH1 0x1 PUSH1 0xA0 SHL SUB AND DUP2 PUSH1 0x1 PUSH1 0x1 PUSH1 0xA0 SHL SUB AND PUSH32 0x56692A161FFEC953DDF9DEF93B958EA8D1EC95E21B80870C66BE91A4374DC4E3 PUSH1 0x40 MLOAD PUSH1 0x40 MLOAD DUP1 SWAP2 SUB SWAP1 LOG3 POP JUMP JUMPDEST PUSH2 0x16CB PUSH1 0x0 DUP3 PUSH2 0x1049 JUMP JUMPDEST PUSH2 0x16D3 PUSH2 0x2BDF JUMP JUMPDEST PUSH1 0x1 PUSH1 0x1 PUSH1 0xA0 SHL SUB AND DUP2 PUSH1 0x1 PUSH1 0x1 PUSH1 0xA0 SHL SUB AND PUSH32 0x2570AC42FD8B322DC453ADA624DC2ED0E9BDD67F16F201A25BBD30468F2AA187 PUSH1 0x40 MLOAD PUSH1 0x40 MLOAD DUP1 SWAP2 SUB SWAP1 LOG3 POP JUMP JUMPDEST PUSH2 0x171E CALLER PUSH2 0x1FB0 JUMP JUMPDEST PUSH2 0x1727 JUMPI PUSH1 0x0 DUP1 REVERT JUMPDEST PUSH5 0x2540BE400 DUP3 LT PUSH2 0x174B JUMPI PUSH1 0x40 MLOAD PUSH3 0x461BCD PUSH1 0xE5 SHL DUP2 MSTORE PUSH1 0x4 ADD PUSH2 0xC7D SWAP1 PUSH2 0x4988 JUMP JUMPDEST PUSH5 0x2540BE400 DUP2 LT PUSH2 0x176F JUMPI PUSH1 0x40 MLOAD PUSH3 0x461BCD PUSH1 0xE5 SHL DUP2 MSTORE PUSH1 0x4 ADD PUSH2 0xC7D SWAP1 PUSH2 0x4988 JUMP JUMPDEST TIMESTAMP DUP3 LT ISZERO PUSH2 0x178F JUMPI PUSH1 0x40 MLOAD PUSH3 0x461BCD PUSH1 0xE5 SHL DUP2 MSTORE PUSH1 0x4 ADD PUSH2 0xC7D SWAP1 PUSH2 0x41C7 JUMP JUMPDEST DUP2 DUP2 GT PUSH2 0x17AE JUMPI PUSH1 0x40 MLOAD PUSH3 0x461BCD PUSH1 0xE5 SHL DUP2 MSTORE PUSH1 0x4 ADD PUSH2 0xC7D SWAP1 PUSH2 0x4553 JUMP JUMPDEST PUSH1 0x8 SLOAD PUSH1 0x1 PUSH1 0x1 PUSH1 0x80 SHL SUB AND ISZERO PUSH2 0x17D7 JUMPI PUSH1 0x40 MLOAD PUSH3 0x461BCD PUSH1 0xE5 SHL DUP2 MSTORE PUSH1 0x4 ADD PUSH2 0xC7D SWAP1 PUSH2 0x4306 JUMP JUMPDEST PUSH2 0x17E0 DUP3 PUSH2 0x2D1C JUMP JUMPDEST PUSH1 0x7 DUP1 SLOAD PUSH8 0xFFFFFFFFFFFFFFFF NOT AND PUSH1 0x1 PUSH1 0x1 PUSH1 0x40 SHL SUB SWAP3 SWAP1 SWAP3 AND SWAP2 SWAP1 SWAP2 OR SWAP1 SSTORE PUSH2 0x180A DUP2 PUSH2 0x2D1C JUMP JUMPDEST PUSH1 0x7 DUP1 SLOAD PUSH1 0x1 PUSH1 0x1 PUSH1 0x40 SHL SUB SWAP3 SWAP1 SWAP3 AND PUSH1 0x1 PUSH1 0x40 SHL MUL PUSH8 0xFFFFFFFFFFFFFFFF PUSH1 0x40 SHL NOT SWAP1 SWAP3 AND SWAP2 SWAP1 SWAP2 OR SWAP1 SSTORE PUSH1 0x40 MLOAD PUSH32 0x5725D1E4352D6944889E54837FFAEFDE55CDC0B55796B831365D61CD4C87FDB8 SWAP1 PUSH2 0xF57 SWAP1 DUP5 SWAP1 DUP5 SWAP1 PUSH2 0x4BFE JUMP JUMPDEST PUSH1 0x0 DUP1 PUSH2 0x1874 DUP4 PUSH2 0x2AE5 JUMP JUMPDEST PUSH1 0x8 SLOAD SWAP1 SWAP2 POP PUSH1 0x0 SWAP1 PUSH2 0x188F SWAP1 PUSH1 0x1 PUSH1 0x1 PUSH1 0x80 SHL SUB AND PUSH2 0x2AE5 JUMP JUMPDEST PUSH1 0x7 SLOAD SWAP1 SWAP2 POP PUSH1 0x1 PUSH1 0x80 SHL SWAP1 DIV PUSH1 0x1 PUSH1 0x1 PUSH1 0x80 SHL SUB AND PUSH2 0x18AF DUP3 DUP5 PUSH2 0x2CB5 JUMP JUMPDEST GT ISZERO PUSH2 0x18E4 JUMPI PUSH1 0x7 SLOAD PUSH2 0x18DB SWAP1 PUSH2 0x18D6 SWAP1 PUSH1 0x1 PUSH1 0x80 SHL SWAP1 DIV PUSH1 0x1 PUSH1 0x1 PUSH1 0x80 SHL SUB AND DUP4 PUSH2 0x2BBC JUMP JUMPDEST PUSH2 0x2D45 JUMP JUMPDEST SWAP3 POP POP POP PUSH2 0xCD0 JUMP JUMPDEST POP SWAP2 SWAP3 SWAP2 POP POP JUMP JUMPDEST PUSH1 0x60 PUSH1 0x40 MLOAD DUP1 PUSH2 0x180 ADD PUSH1 0x40 MSTORE DUP1 PUSH2 0x151 DUP2 MSTORE PUSH1 0x20 ADD PUSH2 0x4D47 PUSH2 0x151 SWAP2 CODECOPY SWAP1 POP SWAP1 JUMP JUMPDEST PUSH1 0x40 MLOAD PUSH4 0xD505ACCF PUSH1 0xE0 SHL DUP2 MSTORE PUSH1 0x1 PUSH1 0x1 PUSH1 0xA0 SHL SUB DUP10 AND SWAP1 PUSH4 0xD505ACCF SWAP1 PUSH2 0x1947 SWAP1 DUP11 SWAP1 DUP11 SWAP1 DUP11 SWAP1 DUP11 SWAP1 DUP11 SWAP1 DUP11 SWAP1 DUP11 SWAP1 PUSH1 0x4 ADD PUSH2 0x3E52 JUMP JUMPDEST PUSH1 0x0 PUSH1 0x40 MLOAD DUP1 DUP4 SUB DUP2 PUSH1 0x0 DUP8 DUP1 EXTCODESIZE ISZERO DUP1 ISZERO PUSH2 0x1961 JUMPI PUSH1 0x0 DUP1 REVERT JUMPDEST POP GAS CALL ISZERO DUP1 ISZERO PUSH2 0x1975 JUMPI RETURNDATASIZE PUSH1 0x0 DUP1 RETURNDATACOPY RETURNDATASIZE PUSH1 0x0 REVERT JUMPDEST POP POP POP POP POP POP POP POP POP POP POP POP JUMP JUMPDEST PUSH1 0x60 PUSH1 0x0 PUSH1 0x2 DUP5 DUP5 PUSH1 0x40 MLOAD PUSH2 0x1999 SWAP3 SWAP2 SWAP1 PUSH2 0x3D1F JUMP JUMPDEST SWAP1 DUP2 MSTORE PUSH1 0x20 ADD PUSH1 0x40 MLOAD DUP1 SWAP2 SUB SWAP1 KECCAK256 PUSH1 0x1 ADD PUSH1 0x2 DUP6 DUP6 PUSH1 0x40 MLOAD PUSH2 0x19BC SWAP3 SWAP2 SWAP1 PUSH2 0x3D1F JUMP JUMPDEST SWAP1 DUP2 MSTORE PUSH1 0x40 DUP1 MLOAD PUSH1 0x20 SWAP3 DUP2 SWAP1 SUB DUP4 ADD DUP2 KECCAK256 SLOAD DUP5 SLOAD PUSH1 0x2 PUSH2 0x100 PUSH1 0x1 DUP4 AND ISZERO MUL PUSH1 0x0 NOT ADD SWAP1 SWAP2 AND DIV PUSH1 0x1F DUP2 ADD DUP6 SWAP1 DIV DUP6 MUL DUP4 ADD DUP6 ADD SWAP1 SWAP4 MSTORE DUP3 DUP3 MSTORE PUSH5 0x100000000 SWAP1 DIV PUSH1 0x1 PUSH1 0x1 PUSH1 0x40 SHL SUB AND SWAP3 SWAP1 SWAP2 DUP5 SWAP2 DUP4 ADD DUP3 DUP3 DUP1 ISZERO PUSH2 0x1A5D JUMPI DUP1 PUSH1 0x1F LT PUSH2 0x1A32 JUMPI PUSH2 0x100 DUP1 DUP4 SLOAD DIV MUL DUP4 MSTORE SWAP2 PUSH1 0x20 ADD SWAP2 PUSH2 0x1A5D JUMP JUMPDEST DUP3 ADD SWAP2 SWAP1 PUSH1 0x0 MSTORE PUSH1 0x20 PUSH1 0x0 KECCAK256 SWAP1 JUMPDEST DUP2 SLOAD DUP2 MSTORE SWAP1 PUSH1 0x1 ADD SWAP1 PUSH1 0x20 ADD DUP1 DUP4 GT PUSH2 0x1A40 JUMPI DUP3 SWAP1 SUB PUSH1 0x1F AND DUP3 ADD SWAP2 JUMPDEST POP POP POP POP POP SWAP2 POP SWAP2 POP SWAP2 POP JUMPDEST SWAP3 POP SWAP3 SWAP1 POP JUMP JUMPDEST PUSH1 0x6 SLOAD PUSH1 0x1 PUSH1 0x1 PUSH1 0x80 SHL SUB AND SWAP1 JUMP JUMPDEST PUSH1 0x0 DUP1 DUP1 DUP1 DUP1 DUP1 DUP1 DUP1 DUP1 DUP1 DUP1 PUSH2 0x1A97 DUP13 DUP15 ADD DUP15 PUSH2 0x384E JUMP JUMPDEST SWAP11 POP SWAP11 POP SWAP11 POP SWAP11 POP SWAP11 POP SWAP11 POP SWAP11 POP SWAP11 POP SWAP11 POP SWAP11 POP SWAP11 POP PUSH2 0x1AC0 DUP12 DUP12 DUP12 DUP12 DUP12 DUP12 DUP12 DUP12 DUP12 DUP12 DUP12 PUSH2 0x210B JUMP JUMPDEST POP POP POP POP POP POP POP POP POP POP POP POP POP JUMP JUMPDEST PUSH1 0x0 DUP1 MLOAD PUSH1 0x20 PUSH2 0x4CE7 DUP4 CODECOPY DUP2 MLOAD SWAP2 MSTORE DUP2 JUMP JUMPDEST PUSH1 0x7 SLOAD PUSH1 0x0 SWAP1 PUSH1 0x1 PUSH1 0x40 SHL SWAP1 DIV PUSH1 0x1 PUSH1 0x1 PUSH1 0x40 SHL SUB AND TIMESTAMP GT DUP1 PUSH2 0x11EB JUMPI POP PUSH1 0x7 SLOAD PUSH1 0x8 SLOAD PUSH1 0x1 PUSH1 0x1 PUSH1 0x80 SHL SUB PUSH1 0x1 PUSH1 0x80 SHL SWAP1 SWAP3 DIV DUP3 AND SWAP2 PUSH2 0x1B25 SWAP2 AND PUSH1 0x1 ADD PUSH2 0x2AE5 JUMP JUMPDEST LT ISZERO SWAP1 POP SWAP1 JUMP JUMPDEST PUSH2 0x1B44 PUSH1 0x0 DUP1 MLOAD PUSH1 0x20 PUSH2 0x4CE7 DUP4 CODECOPY DUP2 MLOAD SWAP2 MSTORE DUP3 PUSH2 0x26A4 JUMP JUMPDEST PUSH2 0x1B4C PUSH2 0x2BDF JUMP JUMPDEST PUSH1 0x1 PUSH1 0x1 PUSH1 0xA0 SHL SUB AND DUP2 PUSH1 0x1 PUSH1 0x1 PUSH1 0xA0 SHL SUB AND PUSH32 0xE5F1AA9E528307345194B88B24A32401C13926E0823060F1049D9B26C0BB62B2 PUSH1 0x40 MLOAD PUSH1 0x40 MLOAD DUP1 SWAP2 SUB SWAP1 LOG3 POP JUMP JUMPDEST PUSH2 0x1B97 CALLER PUSH2 0x11F0 JUMP JUMPDEST JUMP JUMPDEST PUSH1 0x2 PUSH1 0x5 SLOAD EQ ISZERO PUSH2 0x1BBC JUMPI PUSH1 0x40 MLOAD PUSH3 0x461BCD PUSH1 0xE5 SHL DUP2 MSTORE PUSH1 0x4 ADD PUSH2 0xC7D SWAP1 PUSH2 0x4A1C JUMP JUMPDEST PUSH1 0x2 PUSH1 0x5 SSTORE PUSH2 0x1BCA CALLER PUSH2 0x1FB0 JUMP JUMPDEST PUSH2 0x1BD3 JUMPI PUSH1 0x0 DUP1 REVERT JUMPDEST PUSH1 0x8 DUP1 SLOAD PUSH1 0x1 PUSH1 0x80 SHL SWAP1 DIV PUSH1 0xFF AND ISZERO PUSH2 0x1BFE JUMPI PUSH1 0x40 MLOAD PUSH3 0x461BCD PUSH1 0xE5 SHL DUP2 MSTORE PUSH1 0x4 ADD PUSH2 0xC7D SWAP1 PUSH2 0x4354 JUMP JUMPDEST DUP1 SLOAD PUSH1 0x1 PUSH1 0x1 PUSH1 0x80 SHL SUB AND ISZERO PUSH2 0x1C26 JUMPI PUSH1 0x40 MLOAD PUSH3 0x461BCD PUSH1 0xE5 SHL DUP2 MSTORE PUSH1 0x4 ADD PUSH2 0xC7D SWAP1 PUSH2 0x45EF JUMP JUMPDEST PUSH1 0x9 SLOAD PUSH1 0xA SLOAD PUSH1 0x7 SLOAD PUSH2 0x1C56 SWAP3 PUSH1 0x1 PUSH1 0x1 PUSH1 0xA0 SHL SUB SWAP1 DUP2 AND SWAP3 AND SWAP1 PUSH1 0x1 PUSH1 0x80 SHL SWAP1 DIV PUSH1 0x1 PUSH1 0x1 PUSH1 0x80 SHL SUB AND PUSH2 0x2CD8 JUMP JUMPDEST DUP1 SLOAD PUSH1 0xFF PUSH1 0x80 SHL NOT AND PUSH1 0x1 PUSH1 0x80 SHL OR DUP2 SSTORE PUSH1 0x40 MLOAD PUSH32 0xA5FB31E47BD1ECA58BF14A3312D5E6AEAFDC4EE787C8ED348C15C2B092324D93 SWAP1 PUSH1 0x0 SWAP1 LOG1 POP PUSH1 0x1 PUSH1 0x5 SSTORE JUMP JUMPDEST PUSH1 0x0 DUP3 DUP2 MSTORE PUSH1 0x20 DUP2 SWAP1 MSTORE PUSH1 0x40 DUP2 KECCAK256 PUSH2 0x1CB0 SWAP1 DUP4 PUSH2 0x2DF1 JUMP JUMPDEST SWAP1 POP JUMPDEST SWAP3 SWAP2 POP POP JUMP JUMPDEST PUSH1 0x0 DUP3 DUP2 MSTORE PUSH1 0x20 DUP2 SWAP1 MSTORE PUSH1 0x40 DUP2 KECCAK256 PUSH2 0x1CB0 SWAP1 DUP4 PUSH2 0x2DFD JUMP JUMPDEST PUSH2 0x1CE9 PUSH1 0x0 DUP1 MLOAD PUSH1 0x20 PUSH2 0x4D07 DUP4 CODECOPY DUP2 MLOAD SWAP2 MSTORE DUP3 PUSH2 0x26A4 JUMP JUMPDEST PUSH2 0x1CF1 PUSH2 0x2BDF JUMP JUMPDEST PUSH1 0x1 PUSH1 0x1 PUSH1 0xA0 SHL SUB AND DUP2 PUSH1 0x1 PUSH1 0x1 PUSH1 0xA0 SHL SUB AND PUSH32 0x70B25138B6FADEB9992D18B9653564271823E34B3E3257515D12A6D4B15FCDDF PUSH1 0x40 MLOAD PUSH1 0x40 MLOAD DUP1 SWAP2 SUB SWAP1 LOG3 POP JUMP JUMPDEST PUSH1 0x9 SLOAD PUSH1 0x1 PUSH1 0x1 PUSH1 0xA0 SHL SUB AND DUP2 JUMP JUMPDEST PUSH2 0x1D4B CALLER PUSH2 0x1FB0 JUMP JUMPDEST PUSH2 0x1D54 JUMPI PUSH1 0x0 DUP1 REVERT JUMPDEST PUSH1 0x1 PUSH1 0x1 PUSH1 0xA0 SHL SUB DUP2 AND PUSH2 0x1D7A JUMPI PUSH1 0x40 MLOAD PUSH3 0x461BCD PUSH1 0xE5 SHL DUP2 MSTORE PUSH1 0x4 ADD PUSH2 0xC7D SWAP1 PUSH2 0x490C JUMP JUMPDEST PUSH1 0xA DUP1 SLOAD PUSH1 0x1 PUSH1 0x1 PUSH1 0xA0 SHL SUB NOT AND PUSH1 0x1 PUSH1 0x1 PUSH1 0xA0 SHL SUB DUP4 AND OR SWAP1 SSTORE PUSH1 0x40 MLOAD PUSH32 0x34AE2BAD9265F0212D4CF341708B8250949164BB54F9D0E4F442024F83BB2F90 SWAP1 PUSH2 0x1DC5 SWAP1 DUP4 SWAP1 PUSH2 0x3DBB JUMP JUMPDEST PUSH1 0x40 MLOAD DUP1 SWAP2 SUB SWAP1 LOG1 POP JUMP JUMPDEST PUSH2 0x1DD9 CALLER PUSH2 0x1FB0 JUMP JUMPDEST PUSH2 0x1DE2 JUMPI PUSH1 0x0 DUP1 REVERT JUMPDEST PUSH2 0x1DEE DUP5 DUP5 DUP5 DUP5 PUSH2 0x2E12 JUMP JUMPDEST POP POP POP POP JUMP JUMPDEST PUSH1 0x60 PUSH1 0x4 DUP1 SLOAD DUP1 PUSH1 0x20 MUL PUSH1 0x20 ADD PUSH1 0x40 MLOAD SWAP1 DUP2 ADD PUSH1 0x40 MSTORE DUP1 SWAP3 SWAP2 SWAP1 DUP2 DUP2 MSTORE PUSH1 0x20 ADD PUSH1 0x0 SWAP1 JUMPDEST DUP3 DUP3 LT ISZERO PUSH2 0x1EC3 JUMPI PUSH1 0x0 DUP5 DUP2 MSTORE PUSH1 0x20 SWAP1 DUP2 SWAP1 KECCAK256 DUP4 ADD DUP1 SLOAD PUSH1 0x40 DUP1 MLOAD PUSH1 0x1F PUSH1 0x2 PUSH1 0x0 NOT PUSH2 0x100 PUSH1 0x1 DUP8 AND ISZERO MUL ADD SWAP1 SWAP5 AND SWAP4 SWAP1 SWAP4 DIV SWAP3 DUP4 ADD DUP6 SWAP1 DIV DUP6 MUL DUP2 ADD DUP6 ADD SWAP1 SWAP2 MSTORE DUP2 DUP2 MSTORE SWAP3 DUP4 ADD DUP3 DUP3 DUP1 ISZERO PUSH2 0x1EAF JUMPI DUP1 PUSH1 0x1F LT PUSH2 0x1E84 JUMPI PUSH2 0x100 DUP1 DUP4 SLOAD DIV MUL DUP4 MSTORE SWAP2 PUSH1 0x20 ADD SWAP2 PUSH2 0x1EAF JUMP JUMPDEST DUP3 ADD SWAP2 SWAP1 PUSH1 0x0 MSTORE PUSH1 0x20 PUSH1 0x0 KECCAK256 SWAP1 JUMPDEST DUP2 SLOAD DUP2 MSTORE SWAP1 PUSH1 0x1 ADD SWAP1 PUSH1 0x20 ADD DUP1 DUP4 GT PUSH2 0x1E92 JUMPI DUP3 SWAP1 SUB PUSH1 0x1F AND DUP3 ADD SWAP2 JUMPDEST POP POP POP POP POP DUP2 MSTORE PUSH1 0x20 ADD SWAP1 PUSH1 0x1 ADD SWAP1 PUSH2 0x1E18 JUMP JUMPDEST POP POP POP POP SWAP1 POP SWAP1 JUMP JUMPDEST PUSH1 0x0 DUP2 JUMP JUMPDEST PUSH2 0x1EE9 PUSH1 0x0 DUP1 MLOAD PUSH1 0x20 PUSH2 0x4D27 DUP4 CODECOPY DUP2 MLOAD SWAP2 MSTORE DUP3 PUSH2 0x1049 JUMP JUMPDEST PUSH2 0x1EF1 PUSH2 0x2BDF JUMP JUMPDEST PUSH1 0x1 PUSH1 0x1 PUSH1 0xA0 SHL SUB AND DUP2 PUSH1 0x1 PUSH1 0x1 PUSH1 0xA0 SHL SUB AND PUSH32 0xBE6AB9784C7401FAFB73F7BC47BC67CC4EF8C47A60AD3CB66D1DE0353A0784C PUSH1 0x40 MLOAD PUSH1 0x40 MLOAD DUP1 SWAP2 SUB SWAP1 LOG3 POP JUMP JUMPDEST PUSH1 0x8 SLOAD PUSH1 0x1 PUSH1 0x80 SHL SWAP1 DIV PUSH1 0xFF AND SWAP1 JUMP JUMPDEST PUSH2 0x1F5B PUSH1 0x0 DUP1 MLOAD PUSH1 0x20 PUSH2 0x4D07 DUP4 CODECOPY DUP2 MLOAD SWAP2 MSTORE DUP3 PUSH2 0x1049 JUMP JUMPDEST PUSH2 0x1F63 PUSH2 0x2BDF JUMP JUMPDEST PUSH1 0x1 PUSH1 0x1 PUSH1 0xA0 SHL SUB AND DUP2 PUSH1 0x1 PUSH1 0x1 PUSH1 0xA0 SHL SUB AND PUSH32 0x2D45EE102874989882745A26688D0B4FFFEE125A18DF26536B12582C7FDE4E17 PUSH1 0x40 MLOAD PUSH1 0x40 MLOAD DUP1 SWAP2 SUB SWAP1 LOG3 POP JUMP JUMPDEST PUSH1 0x0 PUSH2 0x1649 DUP3 PUSH2 0x2AE5 JUMP JUMPDEST PUSH1 0x0 PUSH2 0xCCD DUP2 DUP4 PUSH2 0x1CB9 JUMP JUMPDEST PUSH1 0x4 SLOAD PUSH1 0x60 SWAP1 DUP3 LT PUSH2 0x1FE0 JUMPI PUSH1 0x40 MLOAD PUSH3 0x461BCD PUSH1 0xE5 SHL DUP2 MSTORE PUSH1 0x4 ADD PUSH2 0xC7D SWAP1 PUSH2 0x48A8 JUMP JUMPDEST PUSH1 0x4 DUP3 DUP2 SLOAD DUP2 LT PUSH2 0x1FED JUMPI INVALID JUMPDEST PUSH1 0x0 SWAP2 DUP3 MSTORE PUSH1 0x20 SWAP2 DUP3 SWAP1 KECCAK256 ADD DUP1 SLOAD PUSH1 0x40 DUP1 MLOAD PUSH1 0x1F PUSH1 0x2 PUSH1 0x0 NOT PUSH2 0x100 PUSH1 0x1 DUP8 AND ISZERO MUL ADD SWAP1 SWAP5 AND SWAP4 SWAP1 SWAP4 DIV SWAP3 DUP4 ADD DUP6 SWAP1 DIV DUP6 MUL DUP2 ADD DUP6 ADD SWAP1 SWAP2 MSTORE DUP2 DUP2 MSTORE SWAP3 DUP4 ADD DUP3 DUP3 DUP1 ISZERO PUSH2 0x207B JUMPI DUP1 PUSH1 0x1F LT PUSH2 0x2050 JUMPI PUSH2 0x100 DUP1 DUP4 SLOAD DIV MUL DUP4 MSTORE SWAP2 PUSH1 0x20 ADD SWAP2 PUSH2 0x207B JUMP JUMPDEST DUP3 ADD SWAP2 SWAP1 PUSH1 0x0 MSTORE PUSH1 0x20 PUSH1 0x0 KECCAK256 SWAP1 JUMPDEST DUP2 SLOAD DUP2 MSTORE SWAP1 PUSH1 0x1 ADD SWAP1 PUSH1 0x20 ADD DUP1 DUP4 GT PUSH2 0x205E JUMPI DUP3 SWAP1 SUB PUSH1 0x1F AND DUP3 ADD SWAP2 JUMPDEST POP POP POP POP POP SWAP1 POP SWAP2 SWAP1 POP JUMP JUMPDEST PUSH1 0xE PUSH1 0x20 MSTORE PUSH1 0x0 SWAP1 DUP2 MSTORE PUSH1 0x40 SWAP1 KECCAK256 SLOAD DUP2 JUMP JUMPDEST PUSH2 0x20A2 CALLER PUSH2 0x1FB0 JUMP JUMPDEST PUSH2 0x20AB JUMPI PUSH1 0x0 DUP1 REVERT JUMPDEST DUP3 PUSH1 0x0 JUMPDEST DUP2 DUP2 LT ISZERO PUSH2 0x2103 JUMPI PUSH2 0x20FB DUP7 DUP7 DUP4 DUP2 DUP2 LT PUSH2 0x20C6 JUMPI INVALID JUMPDEST SWAP1 POP PUSH1 0x20 MUL DUP2 ADD SWAP1 PUSH2 0x20D8 SWAP2 SWAP1 PUSH2 0x4C38 JUMP JUMPDEST DUP7 DUP7 DUP6 DUP2 DUP2 LT PUSH2 0x20E4 JUMPI INVALID JUMPDEST SWAP1 POP PUSH1 0x20 MUL DUP2 ADD SWAP1 PUSH2 0x20F6 SWAP2 SWAP1 PUSH2 0x4C38 JUMP JUMPDEST PUSH2 0x2E12 JUMP JUMPDEST PUSH1 0x1 ADD PUSH2 0x20AF JUMP JUMPDEST POP POP POP POP POP POP JUMP JUMPDEST PUSH5 0x2540BE400 DUP8 LT PUSH2 0x212F JUMPI PUSH1 0x40 MLOAD PUSH3 0x461BCD PUSH1 0xE5 SHL DUP2 MSTORE PUSH1 0x4 ADD PUSH2 0xC7D SWAP1 PUSH2 0x4988 JUMP JUMPDEST PUSH5 0x2540BE400 DUP7 LT PUSH2 0x2153 JUMPI PUSH1 0x40 MLOAD PUSH3 0x461BCD PUSH1 0xE5 SHL DUP2 MSTORE PUSH1 0x4 ADD PUSH2 0xC7D SWAP1 PUSH2 0x4988 JUMP JUMPDEST TIMESTAMP DUP8 LT ISZERO PUSH2 0x2173 JUMPI PUSH1 0x40 MLOAD PUSH3 0x461BCD PUSH1 0xE5 SHL DUP2 MSTORE PUSH1 0x4 ADD PUSH2 0xC7D SWAP1 PUSH2 0x41C7 JUMP JUMPDEST DUP7 DUP7 GT PUSH2 0x2192 JUMPI PUSH1 0x40 MLOAD PUSH3 0x461BCD PUSH1 0xE5 SHL DUP2 MSTORE PUSH1 0x4 ADD PUSH2 0xC7D SWAP1 PUSH2 0x428B JUMP JUMPDEST PUSH1 0x0 DUP6 GT PUSH2 0x21B2 JUMPI PUSH1 0x40 MLOAD PUSH3 0x461BCD PUSH1 0xE5 SHL DUP2 MSTORE PUSH1 0x4 ADD PUSH2 0xC7D SWAP1 PUSH2 0x44DD JUMP JUMPDEST PUSH1 0x1 PUSH1 0x1 PUSH1 0xA0 SHL SUB DUP2 AND PUSH2 0x21D8 JUMPI PUSH1 0x40 MLOAD PUSH3 0x461BCD PUSH1 0xE5 SHL DUP2 MSTORE PUSH1 0x4 ADD PUSH2 0xC7D SWAP1 PUSH2 0x490C JUMP JUMPDEST PUSH1 0x1 PUSH1 0x1 PUSH1 0xA0 SHL SUB DUP4 AND PUSH2 0x21FE JUMPI PUSH1 0x40 MLOAD PUSH3 0x461BCD PUSH1 0xE5 SHL DUP2 MSTORE PUSH1 0x4 ADD PUSH2 0xC7D SWAP1 PUSH2 0x4626 JUMP JUMPDEST PUSH1 0x0 DUP9 GT PUSH2 0x221E JUMPI PUSH1 0x40 MLOAD PUSH3 0x461BCD PUSH1 0xE5 SHL DUP2 MSTORE PUSH1 0x4 ADD PUSH2 0xC7D SWAP1 PUSH2 0x48D5 JUMP JUMPDEST PUSH1 0x0 DUP5 GT PUSH2 0x223E JUMPI PUSH1 0x40 MLOAD PUSH3 0x461BCD PUSH1 0xE5 SHL DUP2 MSTORE PUSH1 0x4 ADD PUSH2 0xC7D SWAP1 PUSH2 0x4ACC JUMP JUMPDEST DUP10 PUSH1 0x1 PUSH1 0x1 PUSH1 0xA0 SHL SUB AND PUSH4 0x313CE567 PUSH1 0x40 MLOAD DUP2 PUSH4 0xFFFFFFFF AND PUSH1 0xE0 SHL DUP2 MSTORE PUSH1 0x4 ADD PUSH1 0x20 PUSH1 0x40 MLOAD DUP1 DUP4 SUB DUP2 DUP7 DUP1 EXTCODESIZE ISZERO DUP1 ISZERO PUSH2 0x2277 JUMPI PUSH1 0x0 DUP1 REVERT JUMPDEST POP GAS STATICCALL ISZERO DUP1 ISZERO PUSH2 0x228B JUMPI RETURNDATASIZE PUSH1 0x0 DUP1 RETURNDATACOPY RETURNDATASIZE PUSH1 0x0 REVERT JUMPDEST POP POP POP POP PUSH1 0x40 MLOAD RETURNDATASIZE PUSH1 0x1F NOT PUSH1 0x1F DUP3 ADD AND DUP3 ADD DUP1 PUSH1 0x40 MSTORE POP DUP2 ADD SWAP1 PUSH2 0x22AF SWAP2 SWAP1 PUSH2 0x3CD7 JUMP JUMPDEST PUSH1 0xFF AND PUSH1 0x12 EQ PUSH2 0x22D1 JUMPI PUSH1 0x40 MLOAD PUSH3 0x461BCD PUSH1 0xE5 SHL DUP2 MSTORE PUSH1 0x4 ADD PUSH2 0xC7D SWAP1 PUSH2 0x45A5 JUMP JUMPDEST PUSH1 0x1 PUSH1 0x1 PUSH1 0xA0 SHL SUB DUP10 AND PUSH20 0xEEEEEEEEEEEEEEEEEEEEEEEEEEEEEEEEEEEEEEEE EQ PUSH2 0x2388 JUMPI PUSH1 0x0 DUP10 PUSH1 0x1 PUSH1 0x1 PUSH1 0xA0 SHL SUB AND PUSH4 0x313CE567 PUSH1 0x40 MLOAD DUP2 PUSH4 0xFFFFFFFF AND PUSH1 0xE0 SHL DUP2 MSTORE PUSH1 0x4 ADD PUSH1 0x20 PUSH1 0x40 MLOAD DUP1 DUP4 SUB DUP2 DUP7 DUP1 EXTCODESIZE ISZERO DUP1 ISZERO PUSH2 0x2330 JUMPI PUSH1 0x0 DUP1 REVERT JUMPDEST POP GAS STATICCALL ISZERO DUP1 ISZERO PUSH2 0x2344 JUMPI RETURNDATASIZE PUSH1 0x0 DUP1 RETURNDATACOPY RETURNDATASIZE PUSH1 0x0 REVERT JUMPDEST POP POP POP POP PUSH1 0x40 MLOAD RETURNDATASIZE PUSH1 0x1F NOT PUSH1 0x1F DUP3 ADD AND DUP3 ADD DUP1 PUSH1 0x40 MSTORE POP DUP2 ADD SWAP1 PUSH2 0x2368 SWAP2 SWAP1 PUSH2 0x3CD7 JUMP JUMPDEST PUSH1 0xFF AND GT PUSH2 0x2388 JUMPI PUSH1 0x40 MLOAD PUSH3 0x461BCD PUSH1 0xE5 SHL DUP2 MSTORE PUSH1 0x4 ADD PUSH2 0xC7D SWAP1 PUSH2 0x450B JUMP JUMPDEST PUSH2 0x2391 DUP6 PUSH2 0x2B8F JUMP JUMPDEST PUSH1 0x6 DUP1 SLOAD PUSH1 0x1 PUSH1 0x1 PUSH1 0x80 SHL SUB NOT AND PUSH1 0x1 PUSH1 0x1 PUSH1 0x80 SHL SUB SWAP3 SWAP1 SWAP3 AND SWAP2 SWAP1 SWAP2 OR SWAP1 SSTORE PUSH2 0x23BA DUP5 PUSH2 0x2B8F JUMP JUMPDEST PUSH1 0x6 DUP1 SLOAD PUSH1 0x1 PUSH1 0x1 PUSH1 0x80 SHL SUB SWAP3 DUP4 AND PUSH1 0x1 PUSH1 0x80 SHL MUL SWAP3 AND SWAP2 SWAP1 SWAP2 OR SWAP1 SSTORE PUSH2 0x23E0 DUP8 PUSH2 0x2D1C JUMP JUMPDEST PUSH1 0x7 DUP1 SLOAD PUSH8 0xFFFFFFFFFFFFFFFF NOT AND PUSH1 0x1 PUSH1 0x1 PUSH1 0x40 SHL SUB SWAP3 SWAP1 SWAP3 AND SWAP2 SWAP1 SWAP2 OR SWAP1 SSTORE PUSH2 0x240A DUP7 PUSH2 0x2D1C JUMP JUMPDEST PUSH1 0x7 DUP1 SLOAD PUSH1 0x1 PUSH1 0x1 PUSH1 0x40 SHL SUB SWAP3 SWAP1 SWAP3 AND PUSH1 0x1 PUSH1 0x40 SHL MUL PUSH8 0xFFFFFFFFFFFFFFFF PUSH1 0x40 SHL NOT SWAP1 SWAP3 AND SWAP2 SWAP1 SWAP2 OR SWAP1 SSTORE PUSH2 0x243F DUP9 PUSH2 0x2B8F JUMP JUMPDEST PUSH1 0x7 DUP1 SLOAD PUSH1 0x1 PUSH1 0x1 PUSH1 0x80 SHL SUB SWAP3 DUP4 AND PUSH1 0x1 PUSH1 0x80 SHL MUL SWAP3 AND SWAP2 SWAP1 SWAP2 OR SWAP1 SSTORE PUSH1 0x9 DUP1 SLOAD PUSH1 0x1 PUSH1 0x1 PUSH1 0xA0 SHL SUB DUP1 DUP14 AND PUSH1 0x1 PUSH1 0x1 PUSH1 0xA0 SHL SUB NOT SWAP3 DUP4 AND OR SWAP1 SWAP3 SSTORE PUSH1 0xB DUP1 SLOAD DUP13 DUP5 AND SWAP1 DUP4 AND OR SWAP1 SSTORE PUSH1 0xA DUP1 SLOAD SWAP3 DUP5 AND SWAP3 SWAP1 SWAP2 AND SWAP2 SWAP1 SWAP2 OR SWAP1 SSTORE PUSH2 0x24A2 DUP4 PUSH2 0x279D JUMP JUMPDEST PUSH2 0x24AB DUP3 PUSH2 0x3064 JUMP JUMPDEST DUP8 PUSH2 0x24B5 DUP6 PUSH2 0x2AE5 JUMP JUMPDEST GT ISZERO PUSH2 0x24D3 JUMPI PUSH1 0x40 MLOAD PUSH3 0x461BCD PUSH1 0xE5 SHL DUP2 MSTORE PUSH1 0x4 ADD PUSH2 0xC7D SWAP1 PUSH2 0x4412 JUMP JUMPDEST PUSH2 0x24DE DUP11 DUP13 DUP11 PUSH2 0x283D JUMP JUMPDEST POP POP POP POP POP POP POP POP POP POP POP JUMP JUMPDEST PUSH1 0x0 DUP2 DUP2 MSTORE PUSH1 0x20 DUP2 SWAP1 MSTORE PUSH1 0x40 DUP2 KECCAK256 PUSH2 0xCCD SWAP1 PUSH2 0x30A6 JUMP JUMPDEST PUSH1 0x60 DUP1 DUP4 PUSH1 0x1 PUSH1 0x1 PUSH1 0x40 SHL SUB DUP2 GT DUP1 ISZERO PUSH2 0x251B JUMPI PUSH1 0x0 DUP1 REVERT JUMPDEST POP PUSH1 0x40 MLOAD SWAP1 DUP1 DUP3 MSTORE DUP1 PUSH1 0x20 MUL PUSH1 0x20 ADD DUP3 ADD PUSH1 0x40 MSTORE DUP1 ISZERO PUSH2 0x2545 JUMPI DUP2 PUSH1 0x20 ADD PUSH1 0x20 DUP3 MUL DUP1 CALLDATASIZE DUP4 CALLDATACOPY ADD SWAP1 POP JUMPDEST POP SWAP2 POP DUP4 PUSH1 0x1 PUSH1 0x1 PUSH1 0x40 SHL SUB DUP2 GT DUP1 ISZERO PUSH2 0x255E JUMPI PUSH1 0x0 DUP1 REVERT JUMPDEST POP PUSH1 0x40 MLOAD SWAP1 DUP1 DUP3 MSTORE DUP1 PUSH1 0x20 MUL PUSH1 0x20 ADD DUP3 ADD PUSH1 0x40 MSTORE DUP1 ISZERO PUSH2 0x2592 JUMPI DUP2 PUSH1 0x20 ADD JUMPDEST PUSH1 0x60 DUP2 MSTORE PUSH1 0x20 ADD SWAP1 PUSH1 0x1 SWAP1 SUB SWAP1 DUP2 PUSH2 0x257D JUMPI SWAP1 POP JUMPDEST POP SWAP1 POP PUSH1 0x0 JUMPDEST DUP5 DUP2 LT ISZERO PUSH2 0x2689 JUMPI PUSH1 0x0 PUSH1 0x60 ADDRESS DUP9 DUP9 DUP6 DUP2 DUP2 LT PUSH2 0x25B1 JUMPI INVALID JUMPDEST SWAP1 POP PUSH1 0x20 MUL DUP2 ADD SWAP1 PUSH2 0x25C3 SWAP2 SWAP1 PUSH2 0x4C38 JUMP JUMPDEST PUSH1 0x40 MLOAD PUSH2 0x25D1 SWAP3 SWAP2 SWAP1 PUSH2 0x3D1F JUMP JUMPDEST PUSH1 0x0 PUSH1 0x40 MLOAD DUP1 DUP4 SUB DUP2 DUP6 GAS DELEGATECALL SWAP2 POP POP RETURNDATASIZE DUP1 PUSH1 0x0 DUP2 EQ PUSH2 0x260C JUMPI PUSH1 0x40 MLOAD SWAP2 POP PUSH1 0x1F NOT PUSH1 0x3F RETURNDATASIZE ADD AND DUP3 ADD PUSH1 0x40 MSTORE RETURNDATASIZE DUP3 MSTORE RETURNDATASIZE PUSH1 0x0 PUSH1 0x20 DUP5 ADD RETURNDATACOPY PUSH2 0x2611 JUMP JUMPDEST PUSH1 0x60 SWAP2 POP JUMPDEST POP SWAP2 POP SWAP2 POP DUP2 DUP1 PUSH2 0x2620 JUMPI POP DUP6 ISZERO JUMPDEST PUSH2 0x2629 DUP3 PUSH2 0x30B1 JUMP JUMPDEST SWAP1 PUSH2 0x2647 JUMPI PUSH1 0x40 MLOAD PUSH3 0x461BCD PUSH1 0xE5 SHL DUP2 MSTORE PUSH1 0x4 ADD PUSH2 0xC7D SWAP2 SWAP1 PUSH2 0x3FEC JUMP JUMPDEST POP DUP2 DUP6 DUP5 DUP2 MLOAD DUP2 LT PUSH2 0x2655 JUMPI INVALID JUMPDEST PUSH1 0x20 MUL PUSH1 0x20 ADD ADD SWAP1 ISZERO ISZERO SWAP1 DUP2 ISZERO ISZERO DUP2 MSTORE POP POP DUP1 DUP5 DUP5 DUP2 MLOAD DUP2 LT PUSH2 0x2674 JUMPI INVALID JUMPDEST PUSH1 0x20 SWAP1 DUP2 MUL SWAP2 SWAP1 SWAP2 ADD ADD MSTORE POP POP PUSH1 0x1 ADD PUSH2 0x2598 JUMP JUMPDEST POP SWAP4 POP SWAP4 SWAP2 POP POP JUMP JUMPDEST PUSH1 0x0 DUP1 MLOAD PUSH1 0x20 PUSH2 0x4D27 DUP4 CODECOPY DUP2 MLOAD SWAP2 MSTORE DUP2 JUMP JUMPDEST PUSH1 0x0 DUP3 DUP2 MSTORE PUSH1 0x20 DUP2 SWAP1 MSTORE PUSH1 0x40 SWAP1 KECCAK256 PUSH1 0x2 ADD SLOAD PUSH2 0x26C2 SWAP1 PUSH2 0x8E6 PUSH2 0x2BDF JUMP JUMPDEST PUSH2 0x1101 JUMPI PUSH1 0x40 MLOAD PUSH3 0x461BCD PUSH1 0xE5 SHL DUP2 MSTORE PUSH1 0x4 ADD PUSH2 0xC7D SWAP1 PUSH2 0x43C2 JUMP JUMPDEST PUSH2 0x26E7 CALLER PUSH2 0x1FB0 JUMP JUMPDEST PUSH2 0x26F0 JUMPI PUSH1 0x0 DUP1 REVERT JUMPDEST PUSH2 0x26F9 DUP2 PUSH2 0x3064 JUMP JUMPDEST POP JUMP JUMPDEST PUSH2 0x108D CALLER DUP4 DUP4 PUSH2 0xD59 JUMP JUMPDEST PUSH2 0x2712 PUSH1 0x0 DUP3 PUSH2 0x26A4 JUMP JUMPDEST PUSH2 0x271A PUSH2 0x2BDF JUMP JUMPDEST PUSH1 0x1 PUSH1 0x1 PUSH1 0xA0 SHL SUB AND DUP2 PUSH1 0x1 PUSH1 0x1 PUSH1 0xA0 SHL SUB AND PUSH32 0x21BA1239795D4E22874E3DC55F0A9D7B65BFB23069D32965D7C23BE9524CCF95 PUSH1 0x40 MLOAD PUSH1 0x40 MLOAD DUP1 SWAP2 SUB SWAP1 LOG3 POP JUMP JUMPDEST PUSH2 0x2765 CALLER PUSH2 0x1FB0 JUMP JUMPDEST PUSH2 0x276E JUMPI PUSH1 0x0 DUP1 REVERT JUMPDEST PUSH2 0x108D DUP3 DUP3 PUSH2 0x3111 JUMP JUMPDEST PUSH1 0x8 SLOAD PUSH1 0x1 PUSH1 0x1 PUSH1 0x80 SHL SUB DUP2 AND SWAP1 PUSH1 0xFF PUSH1 0x1 PUSH1 0x80 SHL DUP3 DIV DUP2 AND SWAP2 PUSH1 0x1 PUSH1 0x88 SHL SWAP1 DIV AND DUP4 JUMP JUMPDEST PUSH1 0x1 SLOAD PUSH1 0xFF AND ISZERO PUSH2 0x27C0 JUMPI PUSH1 0x40 MLOAD PUSH3 0x461BCD PUSH1 0xE5 SHL DUP2 MSTORE PUSH1 0x4 ADD PUSH2 0xC7D SWAP1 PUSH2 0x4109 JUMP JUMPDEST PUSH2 0x27CB PUSH1 0x0 DUP3 PUSH2 0x1083 JUMP JUMPDEST POP PUSH1 0x1 DUP1 SLOAD PUSH1 0xFF NOT AND DUP2 OR SWAP1 SSTORE JUMP JUMPDEST PUSH1 0xD PUSH1 0x20 MSTORE PUSH1 0x0 SWAP1 DUP2 MSTORE PUSH1 0x40 SWAP1 KECCAK256 SLOAD DUP2 JUMP JUMPDEST PUSH1 0xC SLOAD PUSH1 0x1 PUSH1 0x1 PUSH1 0xA0 SHL SUB AND DUP2 JUMP JUMPDEST PUSH1 0x7 SLOAD PUSH1 0x1 PUSH1 0x80 SHL SWAP1 DIV PUSH1 0x1 PUSH1 0x1 PUSH1 0x80 SHL SUB AND SWAP1 JUMP JUMPDEST PUSH1 0x0 DUP1 MLOAD PUSH1 0x20 PUSH2 0x4D07 DUP4 CODECOPY DUP2 MLOAD SWAP2 MSTORE DUP2 JUMP JUMPDEST PUSH1 0x0 PUSH2 0xCCD PUSH1 0x0 DUP1 MLOAD PUSH1 0x20 PUSH2 0x4D07 DUP4 CODECOPY DUP2 MLOAD SWAP2 MSTORE DUP4 PUSH2 0x1CB9 JUMP JUMPDEST PUSH1 0x0 PUSH1 0x60 DUP5 PUSH1 0x1 PUSH1 0x1 PUSH1 0xA0 SHL SUB AND PUSH4 0x23B872DD DUP6 ADDRESS DUP7 PUSH1 0x40 MLOAD PUSH1 0x24 ADD PUSH2 0x2865 SWAP4 SWAP3 SWAP2 SWAP1 PUSH2 0x3E2E JUMP JUMPDEST PUSH1 0x40 MLOAD PUSH1 0x20 DUP2 DUP4 SUB SUB DUP2 MSTORE SWAP1 PUSH1 0x40 MSTORE SWAP1 PUSH1 0xE0 SHL PUSH1 0x20 DUP3 ADD DUP1 MLOAD PUSH1 0x1 PUSH1 0x1 PUSH1 0xE0 SHL SUB DUP4 DUP2 DUP4 AND OR DUP4 MSTORE POP POP POP POP PUSH1 0x40 MLOAD PUSH2 0x289E SWAP2 SWAP1 PUSH2 0x3D2F JUMP JUMPDEST PUSH1 0x0 PUSH1 0x40 MLOAD DUP1 DUP4 SUB DUP2 PUSH1 0x0 DUP7 GAS CALL SWAP2 POP POP RETURNDATASIZE DUP1 PUSH1 0x0 DUP2 EQ PUSH2 0x28DB JUMPI PUSH1 0x40 MLOAD SWAP2 POP PUSH1 0x1F NOT PUSH1 0x3F RETURNDATASIZE ADD AND DUP3 ADD PUSH1 0x40 MSTORE RETURNDATASIZE DUP3 MSTORE RETURNDATASIZE PUSH1 0x0 PUSH1 0x20 DUP5 ADD RETURNDATACOPY PUSH2 0x28E0 JUMP JUMPDEST PUSH1 0x60 SWAP2 POP JUMPDEST POP SWAP2 POP SWAP2 POP DUP2 DUP1 ISZERO PUSH2 0x290A JUMPI POP DUP1 MLOAD ISZERO DUP1 PUSH2 0x290A JUMPI POP DUP1 DUP1 PUSH1 0x20 ADD SWAP1 MLOAD DUP2 ADD SWAP1 PUSH2 0x290A SWAP2 SWAP1 PUSH2 0x3A6B JUMP JUMPDEST PUSH2 0x2913 JUMPI PUSH1 0x0 DUP1 REVERT JUMPDEST POP POP POP POP POP JUMP JUMPDEST PUSH1 0x7 SLOAD PUSH1 0x1 PUSH1 0x1 PUSH1 0x40 SHL SUB AND TIMESTAMP LT DUP1 ISZERO SWAP1 PUSH2 0x2947 JUMPI POP PUSH1 0x7 SLOAD PUSH1 0x1 PUSH1 0x40 SHL SWAP1 DIV PUSH1 0x1 PUSH1 0x1 PUSH1 0x40 SHL SUB AND TIMESTAMP GT ISZERO JUMPDEST PUSH2 0x2963 JUMPI PUSH1 0x40 MLOAD PUSH3 0x461BCD PUSH1 0xE5 SHL DUP2 MSTORE PUSH1 0x4 ADD PUSH2 0xC7D SWAP1 PUSH2 0x47AB JUMP JUMPDEST PUSH1 0x1 PUSH1 0x1 PUSH1 0xA0 SHL SUB DUP3 AND PUSH2 0x2989 JUMPI PUSH1 0x40 MLOAD PUSH3 0x461BCD PUSH1 0xE5 SHL DUP2 MSTORE PUSH1 0x4 ADD PUSH2 0xC7D SWAP1 PUSH2 0x46A1 JUMP JUMPDEST PUSH1 0x1 PUSH1 0x1 PUSH1 0xA0 SHL SUB DUP3 AND PUSH1 0x0 SWAP1 DUP2 MSTORE PUSH1 0xD PUSH1 0x20 MSTORE PUSH1 0x40 DUP2 KECCAK256 SLOAD PUSH2 0x29AC SWAP1 DUP4 PUSH2 0x2CB5 JUMP JUMPDEST PUSH1 0x8 SLOAD SWAP1 SWAP2 POP PUSH1 0x1 PUSH1 0x88 SHL SWAP1 DIV PUSH1 0xFF AND ISZERO PUSH2 0x2A4C JUMPI PUSH1 0xC SLOAD PUSH1 0x40 MLOAD PUSH4 0x1CD53D55 PUSH1 0xE0 SHL DUP2 MSTORE PUSH1 0x1 PUSH1 0x1 PUSH1 0xA0 SHL SUB SWAP1 SWAP2 AND SWAP1 PUSH4 0x1CD53D55 SWAP1 PUSH2 0x29F3 SWAP1 DUP7 SWAP1 DUP6 SWAP1 PUSH1 0x4 ADD PUSH2 0x3E93 JUMP JUMPDEST PUSH1 0x20 PUSH1 0x40 MLOAD DUP1 DUP4 SUB DUP2 DUP7 DUP1 EXTCODESIZE ISZERO DUP1 ISZERO PUSH2 0x2A0B JUMPI PUSH1 0x0 DUP1 REVERT JUMPDEST POP GAS STATICCALL ISZERO DUP1 ISZERO PUSH2 0x2A1F JUMPI RETURNDATASIZE PUSH1 0x0 DUP1 RETURNDATACOPY RETURNDATASIZE PUSH1 0x0 REVERT JUMPDEST POP POP POP POP PUSH1 0x40 MLOAD RETURNDATASIZE PUSH1 0x1F NOT PUSH1 0x1F DUP3 ADD AND DUP3 ADD DUP1 PUSH1 0x40 MSTORE POP DUP2 ADD SWAP1 PUSH2 0x2A43 SWAP2 SWAP1 PUSH2 0x3A6B JUMP JUMPDEST PUSH2 0x2A4C JUMPI PUSH1 0x0 DUP1 REVERT JUMPDEST PUSH1 0x1 PUSH1 0x1 PUSH1 0xA0 SHL SUB DUP4 AND PUSH1 0x0 SWAP1 DUP2 MSTORE PUSH1 0xD PUSH1 0x20 MSTORE PUSH1 0x40 SWAP1 KECCAK256 DUP2 SWAP1 SSTORE PUSH1 0x8 SLOAD PUSH2 0x2A86 SWAP1 PUSH2 0x2A81 SWAP1 PUSH1 0x1 PUSH1 0x1 PUSH1 0x80 SHL SUB AND DUP5 PUSH2 0x2CB5 JUMP JUMPDEST PUSH2 0x2B8F JUMP JUMPDEST PUSH1 0x8 DUP1 SLOAD PUSH1 0x1 PUSH1 0x1 PUSH1 0x80 SHL SUB NOT AND PUSH1 0x1 PUSH1 0x1 PUSH1 0x80 SHL SUB SWAP3 SWAP1 SWAP3 AND SWAP2 SWAP1 SWAP2 OR SWAP1 SSTORE PUSH1 0x40 MLOAD PUSH32 0x77511A636BA1F10551CC7B89C13FF66A6AC9344E8A917527817A9690B15AF7A SWAP1 PUSH2 0x2AD8 SWAP1 DUP6 SWAP1 DUP6 SWAP1 PUSH2 0x3E93 JUMP JUMPDEST PUSH1 0x40 MLOAD DUP1 SWAP2 SUB SWAP1 LOG1 POP POP POP JUMP JUMPDEST PUSH1 0x6 SLOAD PUSH1 0x9 SLOAD PUSH1 0x40 DUP1 MLOAD PUSH4 0x313CE567 PUSH1 0xE0 SHL DUP2 MSTORE SWAP1 MLOAD PUSH1 0x0 SWAP4 PUSH2 0xCCD SWAP4 PUSH1 0x1 PUSH1 0x1 PUSH1 0x80 SHL SUB SWAP1 SWAP2 AND SWAP3 PUSH2 0x2B89 SWAP3 PUSH1 0x1 PUSH1 0x1 PUSH1 0xA0 SHL SUB SWAP1 SWAP3 AND SWAP2 PUSH4 0x313CE567 SWAP2 PUSH1 0x4 DUP1 DUP3 ADD SWAP3 PUSH1 0x20 SWAP3 SWAP1 SWAP2 SWAP1 DUP3 SWAP1 SUB ADD DUP2 DUP7 DUP1 EXTCODESIZE ISZERO DUP1 ISZERO PUSH2 0x2B44 JUMPI PUSH1 0x0 DUP1 REVERT JUMPDEST POP GAS STATICCALL ISZERO DUP1 ISZERO PUSH2 0x2B58 JUMPI RETURNDATASIZE PUSH1 0x0 DUP1 RETURNDATACOPY RETURNDATASIZE PUSH1 0x0 REVERT JUMPDEST POP POP POP POP PUSH1 0x40 MLOAD RETURNDATASIZE PUSH1 0x1F NOT PUSH1 0x1F DUP3 ADD AND DUP3 ADD DUP1 PUSH1 0x40 MSTORE POP DUP2 ADD SWAP1 PUSH2 0x2B7C SWAP2 SWAP1 PUSH2 0x3CD7 JUMP JUMPDEST DUP6 SWAP1 PUSH1 0xFF AND PUSH1 0xA EXP PUSH2 0x3342 JUMP JUMPDEST SWAP1 PUSH2 0x3379 JUMP JUMPDEST PUSH1 0x0 PUSH1 0x1 PUSH1 0x1 PUSH1 0x80 SHL SUB DUP3 GT ISZERO PUSH2 0x2BB8 JUMPI PUSH1 0x40 MLOAD PUSH3 0x461BCD PUSH1 0xE5 SHL DUP2 MSTORE PUSH1 0x4 ADD PUSH2 0xC7D SWAP1 PUSH2 0x438B JUMP JUMPDEST POP SWAP1 JUMP JUMPDEST DUP1 DUP3 SUB DUP3 DUP2 GT ISZERO PUSH2 0x1CB3 JUMPI PUSH1 0x40 MLOAD PUSH3 0x461BCD PUSH1 0xE5 SHL DUP2 MSTORE PUSH1 0x4 ADD PUSH2 0xC7D SWAP1 PUSH2 0x40DA JUMP JUMPDEST CALLER SWAP1 JUMP JUMPDEST PUSH1 0x0 DUP3 DUP2 MSTORE PUSH1 0x20 DUP2 SWAP1 MSTORE PUSH1 0x40 SWAP1 KECCAK256 PUSH2 0x2BFB SWAP1 DUP3 PUSH2 0x33AB JUMP JUMPDEST ISZERO PUSH2 0x108D JUMPI PUSH2 0x2C08 PUSH2 0x2BDF JUMP JUMPDEST PUSH1 0x1 PUSH1 0x1 PUSH1 0xA0 SHL SUB AND DUP2 PUSH1 0x1 PUSH1 0x1 PUSH1 0xA0 SHL SUB AND DUP4 PUSH32 0x2F8788117E7EFF1D82E926EC794901D17C78024A50270940304540A733656F0D PUSH1 0x40 MLOAD PUSH1 0x40 MLOAD DUP1 SWAP2 SUB SWAP1 LOG4 POP POP JUMP JUMPDEST PUSH1 0x0 DUP3 DUP2 MSTORE PUSH1 0x20 DUP2 SWAP1 MSTORE PUSH1 0x40 SWAP1 KECCAK256 PUSH2 0x2C64 SWAP1 DUP3 PUSH2 0x33C0 JUMP JUMPDEST ISZERO PUSH2 0x108D JUMPI PUSH2 0x2C71 PUSH2 0x2BDF JUMP JUMPDEST PUSH1 0x1 PUSH1 0x1 PUSH1 0xA0 SHL SUB AND DUP2 PUSH1 0x1 PUSH1 0x1 PUSH1 0xA0 SHL SUB AND DUP4 PUSH32 0xF6391F5C32D9C69D2A47EA670B442974B53935D1EDC7FD64EB21E047A839171B PUSH1 0x40 MLOAD PUSH1 0x40 MLOAD DUP1 SWAP2 SUB SWAP1 LOG4 POP POP JUMP JUMPDEST DUP2 DUP2 ADD DUP2 DUP2 LT ISZERO PUSH2 0x1CB3 JUMPI PUSH1 0x40 MLOAD PUSH3 0x461BCD PUSH1 0xE5 SHL DUP2 MSTORE PUSH1 0x4 ADD PUSH2 0xC7D SWAP1 PUSH2 0x446F JUMP JUMPDEST PUSH1 0x1 PUSH1 0x1 PUSH1 0xA0 SHL SUB DUP4 AND PUSH20 0xEEEEEEEEEEEEEEEEEEEEEEEEEEEEEEEEEEEEEEEE EQ ISZERO PUSH2 0x2D0C JUMPI PUSH2 0x2D07 DUP3 DUP3 PUSH2 0x33D5 JUMP JUMPDEST PUSH2 0x2D17 JUMP JUMPDEST PUSH2 0x2D17 DUP4 DUP4 DUP4 PUSH2 0x3462 JUMP JUMPDEST POP POP POP JUMP JUMPDEST PUSH1 0x0 PUSH1 0x1 PUSH1 0x1 PUSH1 0x40 SHL SUB DUP3 GT ISZERO PUSH2 0x2BB8 JUMPI PUSH1 0x40 MLOAD PUSH3 0x461BCD PUSH1 0xE5 SHL DUP2 MSTORE PUSH1 0x4 ADD PUSH2 0xC7D SWAP1 PUSH2 0x466A JUMP JUMPDEST PUSH1 0x0 PUSH2 0xCCD PUSH1 0x9 PUSH1 0x0 SWAP1 SLOAD SWAP1 PUSH2 0x100 EXP SWAP1 DIV PUSH1 0x1 PUSH1 0x1 PUSH1 0xA0 SHL SUB AND PUSH1 0x1 PUSH1 0x1 PUSH1 0xA0 SHL SUB AND PUSH4 0x313CE567 PUSH1 0x40 MLOAD DUP2 PUSH4 0xFFFFFFFF AND PUSH1 0xE0 SHL DUP2 MSTORE PUSH1 0x4 ADD PUSH1 0x20 PUSH1 0x40 MLOAD DUP1 DUP4 SUB DUP2 DUP7 DUP1 EXTCODESIZE ISZERO DUP1 ISZERO PUSH2 0x2D98 JUMPI PUSH1 0x0 DUP1 REVERT JUMPDEST POP GAS STATICCALL ISZERO DUP1 ISZERO PUSH2 0x2DAC JUMPI RETURNDATASIZE PUSH1 0x0 DUP1 RETURNDATACOPY RETURNDATASIZE PUSH1 0x0 REVERT JUMPDEST POP POP POP POP PUSH1 0x40 MLOAD RETURNDATASIZE PUSH1 0x1F NOT PUSH1 0x1F DUP3 ADD AND DUP3 ADD DUP1 PUSH1 0x40 MSTORE POP DUP2 ADD SWAP1 PUSH2 0x2DD0 SWAP2 SWAP1 PUSH2 0x3CD7 JUMP JUMPDEST PUSH1 0x6 SLOAD PUSH1 0xFF SWAP2 SWAP1 SWAP2 AND PUSH1 0xA EXP SWAP1 PUSH2 0x2B89 SWAP1 DUP6 SWAP1 PUSH1 0x1 PUSH1 0x1 PUSH1 0x80 SHL SUB AND PUSH2 0x3342 JUMP JUMPDEST PUSH1 0x0 PUSH2 0x1CB0 DUP4 DUP4 PUSH2 0x3488 JUMP JUMPDEST PUSH1 0x0 PUSH2 0x1CB0 DUP4 PUSH1 0x1 PUSH1 0x1 PUSH1 0xA0 SHL SUB DUP5 AND PUSH2 0x34CD JUMP JUMPDEST DUP3 PUSH2 0x2E2F JUMPI PUSH1 0x40 MLOAD PUSH3 0x461BCD PUSH1 0xE5 SHL DUP2 MSTORE PUSH1 0x4 ADD PUSH2 0xC7D SWAP1 PUSH2 0x44A6 JUMP JUMPDEST DUP1 PUSH2 0x2E4C JUMPI PUSH1 0x40 MLOAD PUSH3 0x461BCD PUSH1 0xE5 SHL DUP2 MSTORE PUSH1 0x4 ADD PUSH2 0xC7D SWAP1 PUSH2 0x4951 JUMP JUMPDEST PUSH1 0x0 PUSH1 0x1 PUSH1 0x1 PUSH1 0x40 SHL SUB AND PUSH1 0x2 DUP6 DUP6 PUSH1 0x40 MLOAD PUSH2 0x2E69 SWAP3 SWAP2 SWAP1 PUSH2 0x3D1F JUMP JUMPDEST SWAP1 DUP2 MSTORE PUSH1 0x40 MLOAD SWAP1 DUP2 SWAP1 SUB PUSH1 0x20 ADD SWAP1 KECCAK256 SLOAD PUSH1 0x1 PUSH1 0x1 PUSH1 0x40 SHL SUB PUSH5 0x100000000 SWAP1 SWAP2 DIV AND EQ ISZERO PUSH2 0x2F0F JUMPI PUSH1 0x4 DUP1 SLOAD PUSH1 0x1 DUP2 ADD DUP3 SSTORE PUSH1 0x0 SWAP2 SWAP1 SWAP2 MSTORE PUSH2 0x2ECE SWAP1 PUSH32 0x8A35ACFBC15FF81A39AE7D344FD709F28E8600B4AA8C65C6B64BFE7FE36BD19B ADD DUP6 DUP6 PUSH2 0x35F9 JUMP JUMPDEST POP PUSH1 0x4 SLOAD PUSH1 0x40 MLOAD PUSH1 0x2 SWAP1 PUSH2 0x2EE5 SWAP1 DUP8 SWAP1 DUP8 SWAP1 PUSH2 0x3D1F JUMP JUMPDEST SWAP1 DUP2 MSTORE PUSH1 0x40 MLOAD SWAP1 DUP2 SWAP1 SUB PUSH1 0x20 ADD SWAP1 KECCAK256 DUP1 SLOAD PUSH4 0xFFFFFFFF SWAP3 SWAP1 SWAP3 AND PUSH4 0xFFFFFFFF NOT SWAP1 SWAP3 AND SWAP2 SWAP1 SWAP2 OR SWAP1 SSTORE JUMPDEST PUSH1 0x40 MLOAD DUP1 PUSH1 0x60 ADD PUSH1 0x40 MSTORE DUP1 PUSH1 0x2 DUP7 DUP7 PUSH1 0x40 MLOAD PUSH2 0x2F2C SWAP3 SWAP2 SWAP1 PUSH2 0x3D1F JUMP JUMPDEST SWAP1 DUP2 MSTORE PUSH1 0x40 DUP1 MLOAD PUSH1 0x20 SWAP3 DUP2 SWAP1 SUB DUP4 ADD SWAP1 KECCAK256 SLOAD PUSH4 0xFFFFFFFF AND DUP4 MSTORE TIMESTAMP PUSH1 0x1 PUSH1 0x1 PUSH1 0x40 SHL SUB AND DUP4 DUP4 ADD MSTORE DUP1 MLOAD PUSH1 0x1F DUP7 ADD DUP4 SWAP1 DIV DUP4 MUL DUP2 ADD DUP4 ADD DUP3 MSTORE DUP6 DUP2 MSTORE SWAP3 ADD SWAP2 SWAP1 DUP6 SWAP1 DUP6 SWAP1 DUP2 SWAP1 DUP5 ADD DUP4 DUP3 DUP1 DUP3 DUP5 CALLDATACOPY PUSH1 0x0 SWAP3 ADD SWAP2 SWAP1 SWAP2 MSTORE POP POP POP SWAP2 MSTORE POP PUSH1 0x40 MLOAD PUSH1 0x2 SWAP1 PUSH2 0x2F9B SWAP1 DUP8 SWAP1 DUP8 SWAP1 PUSH2 0x3D1F JUMP JUMPDEST SWAP1 DUP2 MSTORE PUSH1 0x40 DUP1 MLOAD SWAP2 DUP3 SWAP1 SUB PUSH1 0x20 SWAP1 DUP2 ADD SWAP1 SWAP3 KECCAK256 DUP4 MLOAD DUP2 SLOAD DUP6 DUP6 ADD MLOAD PUSH1 0x1 PUSH1 0x1 PUSH1 0x40 SHL SUB AND PUSH5 0x100000000 MUL PUSH12 0xFFFFFFFFFFFFFFFF00000000 NOT PUSH4 0xFFFFFFFF SWAP1 SWAP4 AND PUSH4 0xFFFFFFFF NOT SWAP1 SWAP3 AND SWAP2 SWAP1 SWAP2 OR SWAP2 SWAP1 SWAP2 AND OR DUP2 SSTORE SWAP1 DUP4 ADD MLOAD DUP1 MLOAD SWAP2 SWAP3 PUSH2 0x300A SWAP3 PUSH1 0x1 DUP6 ADD SWAP3 SWAP1 SWAP2 ADD SWAP1 PUSH2 0x3673 JUMP JUMPDEST POP POP PUSH1 0x40 MLOAD PUSH2 0x301D SWAP2 POP DUP6 SWAP1 DUP6 SWAP1 PUSH2 0x3D1F JUMP JUMPDEST PUSH1 0x40 MLOAD DUP1 SWAP2 SUB SWAP1 KECCAK256 PUSH32 0xBAA206E5EA800EB88BCE099F453FEE53295B793B9D5D1CFC4CE4B6DB06A34F53 DUP4 DUP4 PUSH1 0x40 MLOAD PUSH2 0x3056 SWAP3 SWAP2 SWAP1 PUSH2 0x3FFF JUMP JUMPDEST PUSH1 0x40 MLOAD DUP1 SWAP2 SUB SWAP1 LOG2 POP POP POP POP JUMP JUMPDEST PUSH1 0x1 PUSH1 0x1 PUSH1 0xA0 SHL SUB DUP2 AND ISZERO PUSH2 0x26F9 JUMPI PUSH1 0xC DUP1 SLOAD PUSH1 0x1 PUSH1 0x1 PUSH1 0xA0 SHL SUB DUP4 AND PUSH1 0x1 PUSH1 0x1 PUSH1 0xA0 SHL SUB NOT SWAP1 SWAP2 AND OR SWAP1 SSTORE PUSH1 0x8 DUP1 SLOAD PUSH1 0xFF PUSH1 0x88 SHL NOT AND PUSH1 0x1 PUSH1 0x88 SHL OR SWAP1 SSTORE POP JUMP JUMPDEST PUSH1 0x0 PUSH2 0xCCD DUP3 PUSH2 0x34E5 JUMP JUMPDEST PUSH1 0x60 PUSH1 0x44 DUP3 MLOAD LT ISZERO PUSH2 0x30F7 JUMPI POP PUSH1 0x40 DUP1 MLOAD DUP1 DUP3 ADD SWAP1 SWAP2 MSTORE PUSH1 0x1D DUP2 MSTORE PUSH32 0x5472616E73616374696F6E2072657665727465642073696C656E746C79000000 PUSH1 0x20 DUP3 ADD MSTORE PUSH2 0xCD0 JUMP JUMPDEST PUSH1 0x4 DUP3 ADD SWAP2 POP DUP2 DUP1 PUSH1 0x20 ADD SWAP1 MLOAD DUP2 ADD SWAP1 PUSH2 0xCCD SWAP2 SWAP1 PUSH2 0x3C01 JUMP JUMPDEST PUSH1 0x0 PUSH1 0x1 PUSH1 0x1 PUSH1 0x40 SHL SUB AND PUSH1 0x2 DUP4 DUP4 PUSH1 0x40 MLOAD PUSH2 0x312E SWAP3 SWAP2 SWAP1 PUSH2 0x3D1F JUMP JUMPDEST SWAP1 DUP2 MSTORE PUSH1 0x40 MLOAD SWAP1 DUP2 SWAP1 SUB PUSH1 0x20 ADD SWAP1 KECCAK256 SLOAD PUSH1 0x1 PUSH1 0x1 PUSH1 0x40 SHL SUB PUSH5 0x100000000 SWAP1 SWAP2 DIV AND EQ ISZERO PUSH2 0x316E JUMPI PUSH1 0x40 MLOAD PUSH3 0x461BCD PUSH1 0xE5 SHL DUP2 MSTORE PUSH1 0x4 ADD PUSH2 0xC7D SWAP1 PUSH2 0x42D7 JUMP JUMPDEST PUSH1 0x0 PUSH1 0x1 PUSH1 0x2 DUP5 DUP5 PUSH1 0x40 MLOAD PUSH2 0x3184 SWAP3 SWAP2 SWAP1 PUSH2 0x3D1F JUMP JUMPDEST SWAP1 DUP2 MSTORE PUSH1 0x40 MLOAD SWAP1 DUP2 SWAP1 SUB PUSH1 0x20 ADD SWAP1 KECCAK256 SLOAD PUSH1 0x4 SLOAD PUSH4 0xFFFFFFFF SWAP2 DUP3 AND SWAP3 SWAP1 SWAP3 SUB SWAP3 POP DUP3 AND PUSH1 0x0 NOT SWAP1 SWAP2 ADD EQ PUSH2 0x3265 JUMPI PUSH1 0x4 DUP1 SLOAD PUSH1 0x0 NOT DUP2 ADD SWAP1 DUP2 LT PUSH2 0x31C4 JUMPI INVALID JUMPDEST SWAP1 PUSH1 0x0 MSTORE PUSH1 0x20 PUSH1 0x0 KECCAK256 ADD PUSH1 0x4 DUP3 PUSH4 0xFFFFFFFF AND DUP2 SLOAD DUP2 LT PUSH2 0x31E1 JUMPI INVALID JUMPDEST SWAP1 PUSH1 0x0 MSTORE PUSH1 0x20 PUSH1 0x0 KECCAK256 ADD SWAP1 DUP1 SLOAD PUSH1 0x1 DUP2 PUSH1 0x1 AND ISZERO PUSH2 0x100 MUL SUB AND PUSH1 0x2 SWAP1 DIV PUSH2 0x320A SWAP3 SWAP2 SWAP1 PUSH2 0x36E1 JUMP JUMPDEST POP DUP1 PUSH1 0x1 ADD PUSH1 0x2 PUSH1 0x4 DUP4 PUSH4 0xFFFFFFFF AND DUP2 SLOAD DUP2 LT PUSH2 0x3224 JUMPI INVALID JUMPDEST SWAP1 PUSH1 0x0 MSTORE PUSH1 0x20 PUSH1 0x0 KECCAK256 ADD PUSH1 0x40 MLOAD PUSH2 0x323B SWAP2 SWAP1 PUSH2 0x3D4B JUMP JUMPDEST SWAP1 DUP2 MSTORE PUSH1 0x40 MLOAD SWAP1 DUP2 SWAP1 SUB PUSH1 0x20 ADD SWAP1 KECCAK256 DUP1 SLOAD PUSH4 0xFFFFFFFF SWAP3 SWAP1 SWAP3 AND PUSH4 0xFFFFFFFF NOT SWAP1 SWAP3 AND SWAP2 SWAP1 SWAP2 OR SWAP1 SSTORE JUMPDEST PUSH1 0x4 DUP1 SLOAD DUP1 PUSH2 0x3270 JUMPI INVALID JUMPDEST PUSH1 0x1 SWAP1 SUB DUP2 DUP2 SWAP1 PUSH1 0x0 MSTORE PUSH1 0x20 PUSH1 0x0 KECCAK256 ADD PUSH1 0x0 PUSH2 0x328C SWAP2 SWAP1 PUSH2 0x3756 JUMP JUMPDEST SWAP1 SSTORE DUP3 DUP3 PUSH1 0x40 MLOAD PUSH2 0x329E SWAP3 SWAP2 SWAP1 PUSH2 0x3D1F JUMP JUMPDEST PUSH1 0x40 MLOAD DUP1 SWAP2 SUB SWAP1 KECCAK256 PUSH32 0x4B5338540B4D1C0F6DD0308A25F633B7FF60472F894D711CFF9DD64E35C613B2 PUSH1 0x2 DUP6 DUP6 PUSH1 0x40 MLOAD PUSH2 0x32D9 SWAP3 SWAP2 SWAP1 PUSH2 0x3D1F JUMP JUMPDEST SWAP1 DUP2 MSTORE PUSH1 0x20 ADD PUSH1 0x40 MLOAD DUP1 SWAP2 SUB SWAP1 KECCAK256 PUSH1 0x1 ADD PUSH1 0x40 MLOAD PUSH2 0x32F7 SWAP2 SWAP1 PUSH2 0x4050 JUMP JUMPDEST PUSH1 0x40 MLOAD DUP1 SWAP2 SUB SWAP1 LOG2 PUSH1 0x2 DUP4 DUP4 PUSH1 0x40 MLOAD PUSH2 0x3311 SWAP3 SWAP2 SWAP1 PUSH2 0x3D1F JUMP JUMPDEST SWAP1 DUP2 MSTORE PUSH1 0x40 MLOAD SWAP1 DUP2 SWAP1 SUB PUSH1 0x20 ADD SWAP1 KECCAK256 DUP1 SLOAD PUSH12 0xFFFFFFFFFFFFFFFFFFFFFFFF NOT AND DUP2 SSTORE PUSH1 0x0 PUSH2 0x2913 PUSH1 0x1 DUP4 ADD DUP3 PUSH2 0x3756 JUMP JUMPDEST PUSH1 0x0 DUP2 ISZERO DUP1 PUSH2 0x335D JUMPI POP POP DUP1 DUP3 MUL DUP3 DUP3 DUP3 DUP2 PUSH2 0x335A JUMPI INVALID JUMPDEST DIV EQ JUMPDEST PUSH2 0x1CB3 JUMPI PUSH1 0x40 MLOAD PUSH3 0x461BCD PUSH1 0xE5 SHL DUP2 MSTORE PUSH1 0x4 ADD PUSH2 0xC7D SWAP1 PUSH2 0x4A53 JUMP JUMPDEST PUSH1 0x0 DUP1 DUP3 GT PUSH2 0x339A JUMPI PUSH1 0x40 MLOAD PUSH3 0x461BCD PUSH1 0xE5 SHL DUP2 MSTORE PUSH1 0x4 ADD PUSH2 0xC7D SWAP1 PUSH2 0x4B93 JUMP JUMPDEST DUP2 DUP4 DUP2 PUSH2 0x33A3 JUMPI INVALID JUMPDEST DIV SWAP4 SWAP3 POP POP POP JUMP JUMPDEST PUSH1 0x0 PUSH2 0x1CB0 DUP4 PUSH1 0x1 PUSH1 0x1 PUSH1 0xA0 SHL SUB DUP5 AND PUSH2 0x34E9 JUMP JUMPDEST PUSH1 0x0 PUSH2 0x1CB0 DUP4 PUSH1 0x1 PUSH1 0x1 PUSH1 0xA0 SHL SUB DUP5 AND PUSH2 0x3533 JUMP JUMPDEST PUSH1 0x40 DUP1 MLOAD PUSH1 0x0 DUP1 DUP3 MSTORE PUSH1 0x20 DUP3 ADD SWAP1 SWAP3 MSTORE PUSH1 0x1 PUSH1 0x1 PUSH1 0xA0 SHL SUB DUP5 AND SWAP1 DUP4 SWAP1 PUSH1 0x40 MLOAD PUSH2 0x33FF SWAP2 SWAP1 PUSH2 0x3D2F JUMP JUMPDEST PUSH1 0x0 PUSH1 0x40 MLOAD DUP1 DUP4 SUB DUP2 DUP6 DUP8 GAS CALL SWAP3 POP POP POP RETURNDATASIZE DUP1 PUSH1 0x0 DUP2 EQ PUSH2 0x343C JUMPI PUSH1 0x40 MLOAD SWAP2 POP PUSH1 0x1F NOT PUSH1 0x3F RETURNDATASIZE ADD AND DUP3 ADD PUSH1 0x40 MSTORE RETURNDATASIZE DUP3 MSTORE RETURNDATASIZE PUSH1 0x0 PUSH1 0x20 DUP5 ADD RETURNDATACOPY PUSH2 0x3441 JUMP JUMPDEST PUSH1 0x60 SWAP2 POP JUMPDEST POP POP SWAP1 POP DUP1 PUSH2 0x2D17 JUMPI PUSH1 0x40 MLOAD PUSH3 0x461BCD PUSH1 0xE5 SHL DUP2 MSTORE PUSH1 0x4 ADD PUSH2 0xC7D SWAP1 PUSH2 0x4768 JUMP JUMPDEST PUSH1 0x0 PUSH1 0x60 DUP5 PUSH1 0x1 PUSH1 0x1 PUSH1 0xA0 SHL SUB AND PUSH4 0xA9059CBB DUP6 DUP6 PUSH1 0x40 MLOAD PUSH1 0x24 ADD PUSH2 0x2865 SWAP3 SWAP2 SWAP1 PUSH2 0x3E93 JUMP JUMPDEST DUP2 SLOAD PUSH1 0x0 SWAP1 DUP3 LT PUSH2 0x34AB JUMPI PUSH1 0x40 MLOAD PUSH3 0x461BCD PUSH1 0xE5 SHL DUP2 MSTORE PUSH1 0x4 ADD PUSH2 0xC7D SWAP1 PUSH2 0x4136 JUMP JUMPDEST DUP3 PUSH1 0x0 ADD DUP3 DUP2 SLOAD DUP2 LT PUSH2 0x34BA JUMPI INVALID JUMPDEST SWAP1 PUSH1 0x0 MSTORE PUSH1 0x20 PUSH1 0x0 KECCAK256 ADD SLOAD SWAP1 POP SWAP3 SWAP2 POP POP JUMP JUMPDEST PUSH1 0x0 SWAP1 DUP2 MSTORE PUSH1 0x1 SWAP2 SWAP1 SWAP2 ADD PUSH1 0x20 MSTORE PUSH1 0x40 SWAP1 KECCAK256 SLOAD ISZERO ISZERO SWAP1 JUMP JUMPDEST SLOAD SWAP1 JUMP JUMPDEST PUSH1 0x0 PUSH2 0x34F5 DUP4 DUP4 PUSH2 0x34CD JUMP JUMPDEST PUSH2 0x352B JUMPI POP DUP2 SLOAD PUSH1 0x1 DUP2 DUP2 ADD DUP5 SSTORE PUSH1 0x0 DUP5 DUP2 MSTORE PUSH1 0x20 DUP1 DUP3 KECCAK256 SWAP1 SWAP4 ADD DUP5 SWAP1 SSTORE DUP5 SLOAD DUP5 DUP3 MSTORE DUP3 DUP7 ADD SWAP1 SWAP4 MSTORE PUSH1 0x40 SWAP1 KECCAK256 SWAP2 SWAP1 SWAP2 SSTORE PUSH2 0x1CB3 JUMP JUMPDEST POP PUSH1 0x0 PUSH2 0x1CB3 JUMP JUMPDEST PUSH1 0x0 DUP2 DUP2 MSTORE PUSH1 0x1 DUP4 ADD PUSH1 0x20 MSTORE PUSH1 0x40 DUP2 KECCAK256 SLOAD DUP1 ISZERO PUSH2 0x35EF JUMPI DUP4 SLOAD PUSH1 0x0 NOT DUP1 DUP4 ADD SWAP2 SWAP1 DUP2 ADD SWAP1 PUSH1 0x0 SWAP1 DUP8 SWAP1 DUP4 SWAP1 DUP2 LT PUSH2 0x3566 JUMPI INVALID JUMPDEST SWAP1 PUSH1 0x0 MSTORE PUSH1 0x20 PUSH1 0x0 KECCAK256 ADD SLOAD SWAP1 POP DUP1 DUP8 PUSH1 0x0 ADD DUP5 DUP2 SLOAD DUP2 LT PUSH2 0x3583 JUMPI INVALID JUMPDEST PUSH1 0x0 SWAP2 DUP3 MSTORE PUSH1 0x20 DUP1 DUP4 KECCAK256 SWAP1 SWAP2 ADD SWAP3 SWAP1 SWAP3 SSTORE DUP3 DUP2 MSTORE PUSH1 0x1 DUP10 DUP2 ADD SWAP1 SWAP3 MSTORE PUSH1 0x40 SWAP1 KECCAK256 SWAP1 DUP5 ADD SWAP1 SSTORE DUP7 SLOAD DUP8 SWAP1 DUP1 PUSH2 0x35B3 JUMPI INVALID JUMPDEST PUSH1 0x1 SWAP1 SUB DUP2 DUP2 SWAP1 PUSH1 0x0 MSTORE PUSH1 0x20 PUSH1 0x0 KECCAK256 ADD PUSH1 0x0 SWAP1 SSTORE SWAP1 SSTORE DUP7 PUSH1 0x1 ADD PUSH1 0x0 DUP8 DUP2 MSTORE PUSH1 0x20 ADD SWAP1 DUP2 MSTORE PUSH1 0x20 ADD PUSH1 0x0 KECCAK256 PUSH1 0x0 SWAP1 SSTORE PUSH1 0x1 SWAP5 POP POP POP POP POP PUSH2 0x1CB3 JUMP JUMPDEST PUSH1 0x0 SWAP2 POP POP PUSH2 0x1CB3 JUMP JUMPDEST DUP3 DUP1 SLOAD PUSH1 0x1 DUP2 PUSH1 0x1 AND ISZERO PUSH2 0x100 MUL SUB AND PUSH1 0x2 SWAP1 DIV SWAP1 PUSH1 0x0 MSTORE PUSH1 0x20 PUSH1 0x0 KECCAK256 SWAP1 PUSH1 0x1F ADD PUSH1 0x20 SWAP1 DIV DUP2 ADD SWAP3 DUP3 PUSH1 0x1F LT PUSH2 0x363A JUMPI DUP3 DUP1 ADD PUSH1 0xFF NOT DUP3 CALLDATALOAD AND OR DUP6 SSTORE PUSH2 0x3667 JUMP JUMPDEST DUP3 DUP1 ADD PUSH1 0x1 ADD DUP6 SSTORE DUP3 ISZERO PUSH2 0x3667 JUMPI SWAP2 DUP3 ADD JUMPDEST DUP3 DUP2 GT ISZERO PUSH2 0x3667 JUMPI DUP3 CALLDATALOAD DUP3 SSTORE SWAP2 PUSH1 0x20 ADD SWAP2 SWAP1 PUSH1 0x1 ADD SWAP1 PUSH2 0x364C JUMP JUMPDEST POP PUSH2 0x2BB8 SWAP3 SWAP2 POP PUSH2 0x3796 JUMP JUMPDEST DUP3 DUP1 SLOAD PUSH1 0x1 DUP2 PUSH1 0x1 AND ISZERO PUSH2 0x100 MUL SUB AND PUSH1 0x2 SWAP1 DIV SWAP1 PUSH1 0x0 MSTORE PUSH1 0x20 PUSH1 0x0 KECCAK256 SWAP1 PUSH1 0x1F ADD PUSH1 0x20 SWAP1 DIV DUP2 ADD SWAP3 DUP3 PUSH1 0x1F LT PUSH2 0x36B4 JUMPI DUP1 MLOAD PUSH1 0xFF NOT AND DUP4 DUP1 ADD OR DUP6 SSTORE PUSH2 0x3667 JUMP JUMPDEST DUP3 DUP1 ADD PUSH1 0x1 ADD DUP6 SSTORE DUP3 ISZERO PUSH2 0x3667 JUMPI SWAP2 DUP3 ADD JUMPDEST DUP3 DUP2 GT ISZERO PUSH2 0x3667 JUMPI DUP3 MLOAD DUP3 SSTORE SWAP2 PUSH1 0x20 ADD SWAP2 SWAP1 PUSH1 0x1 ADD SWAP1 PUSH2 0x36C6 JUMP JUMPDEST DUP3 DUP1 SLOAD PUSH1 0x1 DUP2 PUSH1 0x1 AND ISZERO PUSH2 0x100 MUL SUB AND PUSH1 0x2 SWAP1 DIV SWAP1 PUSH1 0x0 MSTORE PUSH1 0x20 PUSH1 0x0 KECCAK256 SWAP1 PUSH1 0x1F ADD PUSH1 0x20 SWAP1 DIV DUP2 ADD SWAP3 DUP3 PUSH1 0x1F LT PUSH2 0x371A JUMPI DUP1 SLOAD DUP6 SSTORE PUSH2 0x3667 JUMP JUMPDEST DUP3 DUP1 ADD PUSH1 0x1 ADD DUP6 SSTORE DUP3 ISZERO PUSH2 0x3667 JUMPI PUSH1 0x0 MSTORE PUSH1 0x20 PUSH1 0x0 KECCAK256 SWAP2 PUSH1 0x1F ADD PUSH1 0x20 SWAP1 DIV DUP3 ADD JUMPDEST DUP3 DUP2 GT ISZERO PUSH2 0x3667 JUMPI DUP3 SLOAD DUP3 SSTORE SWAP2 PUSH1 0x1 ADD SWAP2 SWAP1 PUSH1 0x1 ADD SWAP1 PUSH2 0x373B JUMP JUMPDEST POP DUP1 SLOAD PUSH1 0x1 DUP2 PUSH1 0x1 AND ISZERO PUSH2 0x100 MUL SUB AND PUSH1 0x2 SWAP1 DIV PUSH1 0x0 DUP3 SSTORE DUP1 PUSH1 0x1F LT PUSH2 0x377C JUMPI POP PUSH2 0x26F9 JUMP JUMPDEST PUSH1 0x1F ADD PUSH1 0x20 SWAP1 DIV SWAP1 PUSH1 0x0 MSTORE PUSH1 0x20 PUSH1 0x0 KECCAK256 SWAP1 DUP2 ADD SWAP1 PUSH2 0x26F9 SWAP2 SWAP1 JUMPDEST JUMPDEST DUP1 DUP3 GT ISZERO PUSH2 0x2BB8 JUMPI PUSH1 0x0 DUP2 SSTORE PUSH1 0x1 ADD PUSH2 0x3797 JUMP JUMPDEST PUSH1 0x0 DUP1 DUP4 PUSH1 0x1F DUP5 ADD SLT PUSH2 0x37BC JUMPI DUP2 DUP3 REVERT JUMPDEST POP DUP2 CALLDATALOAD PUSH1 0x1 PUSH1 0x1 PUSH1 0x40 SHL SUB DUP2 GT ISZERO PUSH2 0x37D2 JUMPI DUP2 DUP3 REVERT JUMPDEST PUSH1 0x20 DUP4 ADD SWAP2 POP DUP4 PUSH1 0x20 DUP1 DUP4 MUL DUP6 ADD ADD GT ISZERO PUSH2 0x1A69 JUMPI PUSH1 0x0 DUP1 REVERT JUMPDEST PUSH1 0x0 DUP1 DUP4 PUSH1 0x1F DUP5 ADD SLT PUSH2 0x37FD JUMPI DUP2 DUP3 REVERT JUMPDEST POP DUP2 CALLDATALOAD PUSH1 0x1 PUSH1 0x1 PUSH1 0x40 SHL SUB DUP2 GT ISZERO PUSH2 0x3813 JUMPI DUP2 DUP3 REVERT JUMPDEST PUSH1 0x20 DUP4 ADD SWAP2 POP DUP4 PUSH1 0x20 DUP3 DUP6 ADD ADD GT ISZERO PUSH2 0x1A69 JUMPI PUSH1 0x0 DUP1 REVERT JUMPDEST PUSH1 0x0 PUSH1 0x20 DUP3 DUP5 SUB SLT ISZERO PUSH2 0x383C JUMPI DUP1 DUP2 REVERT JUMPDEST DUP2 CALLDATALOAD PUSH2 0x3847 DUP2 PUSH2 0x4CB4 JUMP JUMPDEST SWAP4 SWAP3 POP POP POP JUMP JUMPDEST PUSH1 0x0 DUP1 PUSH1 0x0 DUP1 PUSH1 0x0 DUP1 PUSH1 0x0 DUP1 PUSH1 0x0 DUP1 PUSH1 0x0 PUSH2 0x160 DUP13 DUP15 SUB SLT ISZERO PUSH2 0x386F JUMPI DUP7 DUP8 REVERT JUMPDEST DUP12 CALLDATALOAD PUSH2 0x387A DUP2 PUSH2 0x4CB4 JUMP JUMPDEST SWAP11 POP PUSH1 0x20 DUP13 ADD CALLDATALOAD PUSH2 0x388A DUP2 PUSH2 0x4CB4 JUMP JUMPDEST SWAP10 POP PUSH1 0x40 DUP13 ADD CALLDATALOAD PUSH2 0x389A DUP2 PUSH2 0x4CB4 JUMP JUMPDEST SWAP9 POP PUSH1 0x60 DUP13 ADD CALLDATALOAD SWAP8 POP PUSH1 0x80 DUP13 ADD CALLDATALOAD SWAP7 POP PUSH1 0xA0 DUP13 ADD CALLDATALOAD SWAP6 POP PUSH1 0xC0 DUP13 ADD CALLDATALOAD SWAP5 POP PUSH1 0xE0 DUP13 ADD CALLDATALOAD SWAP4 POP PUSH2 0x100 DUP13 ADD CALLDATALOAD PUSH2 0x38CE DUP2 PUSH2 0x4CB4 JUMP JUMPDEST SWAP3 POP PUSH2 0x120 DUP13 ADD CALLDATALOAD PUSH2 0x38DF DUP2 PUSH2 0x4CB4 JUMP JUMPDEST SWAP2 POP PUSH2 0x140 DUP13 ADD CALLDATALOAD PUSH2 0x38F0 DUP2 PUSH2 0x4CB4 JUMP JUMPDEST DUP1 SWAP2 POP POP SWAP3 SWAP6 SWAP9 SWAP12 POP SWAP3 SWAP6 SWAP9 SWAP12 SWAP1 SWAP4 SWAP7 SWAP10 POP JUMP JUMPDEST PUSH1 0x0 DUP1 PUSH1 0x40 DUP4 DUP6 SUB SLT ISZERO PUSH2 0x3916 JUMPI DUP2 DUP3 REVERT JUMPDEST DUP3 CALLDATALOAD PUSH2 0x3921 DUP2 PUSH2 0x4CB4 JUMP JUMPDEST SWAP2 POP PUSH1 0x20 DUP4 ADD CALLDATALOAD PUSH2 0x3931 DUP2 PUSH2 0x4CC9 JUMP JUMPDEST DUP1 SWAP2 POP POP SWAP3 POP SWAP3 SWAP1 POP JUMP JUMPDEST PUSH1 0x0 DUP1 PUSH1 0x0 DUP1 PUSH1 0x0 DUP1 PUSH1 0x0 DUP1 PUSH1 0x0 DUP1 PUSH1 0x0 PUSH2 0x160 DUP13 DUP15 SUB SLT ISZERO PUSH2 0x386F JUMPI DUP1 DUP2 REVERT JUMPDEST PUSH1 0x0 DUP1 PUSH1 0x0 PUSH1 0x60 DUP5 DUP7 SUB SLT ISZERO PUSH2 0x3971 JUMPI DUP3 DUP4 REVERT JUMPDEST DUP4 CALLDATALOAD PUSH2 0x397C DUP2 PUSH2 0x4CB4 JUMP JUMPDEST SWAP3 POP PUSH1 0x20 DUP5 ADD CALLDATALOAD SWAP2 POP PUSH1 0x40 DUP5 ADD CALLDATALOAD PUSH2 0x3993 DUP2 PUSH2 0x4CC9 JUMP JUMPDEST DUP1 SWAP2 POP POP SWAP3 POP SWAP3 POP SWAP3 JUMP JUMPDEST PUSH1 0x0 DUP1 PUSH1 0x0 PUSH1 0x40 DUP5 DUP7 SUB SLT ISZERO PUSH2 0x39B2 JUMPI DUP1 DUP2 REVERT JUMPDEST DUP4 CALLDATALOAD PUSH1 0x1 PUSH1 0x1 PUSH1 0x40 SHL SUB DUP2 GT ISZERO PUSH2 0x39C7 JUMPI DUP2 DUP3 REVERT JUMPDEST PUSH2 0x39D3 DUP7 DUP3 DUP8 ADD PUSH2 0x37AB JUMP JUMPDEST SWAP1 SWAP5 POP SWAP3 POP POP PUSH1 0x20 DUP5 ADD CALLDATALOAD PUSH2 0x3993 DUP2 PUSH2 0x4CC9 JUMP JUMPDEST PUSH1 0x0 DUP1 PUSH1 0x0 DUP1 PUSH1 0x40 DUP6 DUP8 SUB SLT ISZERO PUSH2 0x39FC JUMPI DUP2 DUP3 REVERT JUMPDEST DUP5 CALLDATALOAD PUSH1 0x1 PUSH1 0x1 PUSH1 0x40 SHL SUB DUP1 DUP3 GT ISZERO PUSH2 0x3A12 JUMPI DUP4 DUP5 REVERT JUMPDEST PUSH2 0x3A1E DUP9 DUP4 DUP10 ADD PUSH2 0x37AB JUMP JUMPDEST SWAP1 SWAP7 POP SWAP5 POP PUSH1 0x20 DUP8 ADD CALLDATALOAD SWAP2 POP DUP1 DUP3 GT ISZERO PUSH2 0x3A36 JUMPI DUP4 DUP5 REVERT JUMPDEST POP PUSH2 0x3A43 DUP8 DUP3 DUP9 ADD PUSH2 0x37AB JUMP JUMPDEST SWAP6 SWAP9 SWAP5 SWAP8 POP SWAP6 POP POP POP POP JUMP JUMPDEST PUSH1 0x0 PUSH1 0x20 DUP3 DUP5 SUB SLT ISZERO PUSH2 0x3A60 JUMPI DUP1 DUP2 REVERT JUMPDEST DUP2 CALLDATALOAD PUSH2 0x3847 DUP2 PUSH2 0x4CC9 JUMP JUMPDEST PUSH1 0x0 PUSH1 0x20 DUP3 DUP5 SUB SLT ISZERO PUSH2 0x3A7C JUMPI DUP1 DUP2 REVERT JUMPDEST DUP2 MLOAD PUSH2 0x3847 DUP2 PUSH2 0x4CC9 JUMP JUMPDEST PUSH1 0x0 PUSH1 0x20 DUP3 DUP5 SUB SLT ISZERO PUSH2 0x3A98 JUMPI DUP1 DUP2 REVERT JUMPDEST POP CALLDATALOAD SWAP2 SWAP1 POP JUMP JUMPDEST PUSH1 0x0 DUP1 PUSH1 0x40 DUP4 DUP6 SUB SLT ISZERO PUSH2 0x3AB1 JUMPI DUP2 DUP3 REVERT JUMPDEST DUP3 CALLDATALOAD SWAP2 POP PUSH1 0x20 DUP4 ADD CALLDATALOAD PUSH2 0x3931 DUP2 PUSH2 0x4CB4 JUMP JUMPDEST PUSH1 0x0 DUP1 PUSH1 0x40 DUP4 DUP6 SUB SLT ISZERO PUSH2 0x3AD5 JUMPI DUP2 DUP3 REVERT JUMPDEST POP POP DUP1 CALLDATALOAD SWAP3 PUSH1 0x20 SWAP1 SWAP2 ADD CALLDATALOAD SWAP2 POP JUMP JUMPDEST PUSH1 0x0 DUP1 PUSH1 0x20 DUP4 DUP6 SUB SLT ISZERO PUSH2 0x3AF6 JUMPI DUP2 DUP3 REVERT JUMPDEST DUP3 CALLDATALOAD PUSH1 0x1 PUSH1 0x1 PUSH1 0x40 SHL SUB DUP2 GT ISZERO PUSH2 0x3B0B JUMPI DUP3 DUP4 REVERT JUMPDEST PUSH2 0x3B17 DUP6 DUP3 DUP7 ADD PUSH2 0x37EC JUMP JUMPDEST SWAP1 SWAP7 SWAP1 SWAP6 POP SWAP4 POP POP POP POP JUMP JUMPDEST PUSH1 0x0 DUP1 PUSH1 0x0 DUP1 PUSH1 0x0 DUP1 PUSH1 0x0 DUP1 PUSH2 0x100 DUP10 DUP12 SUB SLT ISZERO PUSH2 0x3B3F JUMPI DUP2 DUP3 REVERT JUMPDEST DUP9 CALLDATALOAD PUSH2 0x3B4A DUP2 PUSH2 0x4CB4 JUMP JUMPDEST SWAP8 POP PUSH1 0x20 DUP10 ADD CALLDATALOAD PUSH2 0x3B5A DUP2 PUSH2 0x4CB4 JUMP JUMPDEST SWAP7 POP PUSH1 0x40 DUP10 ADD CALLDATALOAD PUSH2 0x3B6A DUP2 PUSH2 0x4CB4 JUMP JUMPDEST SWAP6 POP PUSH1 0x60 DUP10 ADD CALLDATALOAD SWAP5 POP PUSH1 0x80 DUP10 ADD CALLDATALOAD SWAP4 POP PUSH1 0xA0 DUP10 ADD CALLDATALOAD PUSH2 0x3B88 DUP2 PUSH2 0x4CD7 JUMP JUMPDEST SWAP8 SWAP11 SWAP7 SWAP10 POP SWAP5 SWAP8 SWAP4 SWAP7 SWAP3 SWAP6 SWAP3 SWAP5 POP POP POP PUSH1 0xC0 DUP3 ADD CALLDATALOAD SWAP2 PUSH1 0xE0 ADD CALLDATALOAD SWAP1 JUMP JUMPDEST PUSH1 0x0 DUP1 PUSH1 0x0 DUP1 PUSH1 0x40 DUP6 DUP8 SUB SLT ISZERO PUSH2 0x3BBA JUMPI DUP2 DUP3 REVERT JUMPDEST DUP5 CALLDATALOAD PUSH1 0x1 PUSH1 0x1 PUSH1 0x40 SHL SUB DUP1 DUP3 GT ISZERO PUSH2 0x3BD0 JUMPI DUP4 DUP5 REVERT JUMPDEST PUSH2 0x3BDC DUP9 DUP4 DUP10 ADD PUSH2 0x37EC JUMP JUMPDEST SWAP1 SWAP7 POP SWAP5 POP PUSH1 0x20 DUP8 ADD CALLDATALOAD SWAP2 POP DUP1 DUP3 GT ISZERO PUSH2 0x3BF4 JUMPI DUP4 DUP5 REVERT JUMPDEST POP PUSH2 0x3A43 DUP8 DUP3 DUP9 ADD PUSH2 0x37EC JUMP JUMPDEST PUSH1 0x0 PUSH1 0x20 DUP3 DUP5 SUB SLT ISZERO PUSH2 0x3C12 JUMPI DUP1 DUP2 REVERT JUMPDEST DUP2 MLOAD PUSH1 0x1 PUSH1 0x1 PUSH1 0x40 SHL SUB DUP1 DUP3 GT ISZERO PUSH2 0x3C28 JUMPI DUP3 DUP4 REVERT JUMPDEST DUP2 DUP5 ADD SWAP2 POP DUP5 PUSH1 0x1F DUP4 ADD SLT PUSH2 0x3C3B JUMPI DUP3 DUP4 REVERT JUMPDEST DUP2 MLOAD DUP2 DUP2 GT ISZERO PUSH2 0x3C49 JUMPI DUP4 DUP5 REVERT JUMPDEST PUSH1 0x40 MLOAD PUSH1 0x1F DUP3 ADD PUSH1 0x1F NOT AND DUP2 ADD PUSH1 0x20 ADD DUP4 DUP2 GT DUP3 DUP3 LT OR ISZERO PUSH2 0x3C69 JUMPI DUP6 DUP7 REVERT JUMPDEST PUSH1 0x40 MSTORE DUP2 DUP2 MSTORE DUP4 DUP3 ADD PUSH1 0x20 ADD DUP8 LT ISZERO PUSH2 0x3C80 JUMPI DUP5 DUP6 REVERT JUMPDEST PUSH2 0x3C91 DUP3 PUSH1 0x20 DUP4 ADD PUSH1 0x20 DUP8 ADD PUSH2 0x4C88 JUMP JUMPDEST SWAP7 SWAP6 POP POP POP POP POP POP JUMP JUMPDEST PUSH1 0x0 PUSH1 0x20 DUP3 DUP5 SUB SLT ISZERO PUSH2 0x3CAC JUMPI DUP1 DUP2 REVERT JUMPDEST POP MLOAD SWAP2 SWAP1 POP JUMP JUMPDEST PUSH1 0x0 DUP1 PUSH1 0x40 DUP4 DUP6 SUB SLT ISZERO PUSH2 0x3CC5 JUMPI DUP2 DUP3 REVERT JUMPDEST DUP3 CALLDATALOAD SWAP2 POP PUSH1 0x20 DUP4 ADD CALLDATALOAD PUSH2 0x3931 DUP2 PUSH2 0x4CC9 JUMP JUMPDEST PUSH1 0x0 PUSH1 0x20 DUP3 DUP5 SUB SLT ISZERO PUSH2 0x3CE8 JUMPI DUP1 DUP2 REVERT JUMPDEST DUP2 MLOAD PUSH2 0x3847 DUP2 PUSH2 0x4CD7 JUMP JUMPDEST PUSH1 0x0 DUP2 MLOAD DUP1 DUP5 MSTORE PUSH2 0x3D0B DUP2 PUSH1 0x20 DUP7 ADD PUSH1 0x20 DUP7 ADD PUSH2 0x4C88 JUMP JUMPDEST PUSH1 0x1F ADD PUSH1 0x1F NOT AND SWAP3 SWAP1 SWAP3 ADD PUSH1 0x20 ADD SWAP3 SWAP2 POP POP JUMP JUMPDEST PUSH1 0x0 DUP3 DUP5 DUP4 CALLDATACOPY SWAP2 ADD SWAP1 DUP2 MSTORE SWAP2 SWAP1 POP JUMP JUMPDEST PUSH1 0x0 DUP3 MLOAD PUSH2 0x3D41 DUP2 DUP5 PUSH1 0x20 DUP8 ADD PUSH2 0x4C88 JUMP JUMPDEST SWAP2 SWAP1 SWAP2 ADD SWAP3 SWAP2 POP POP JUMP JUMPDEST PUSH1 0x0 DUP1 DUP4 SLOAD PUSH1 0x1 DUP1 DUP3 AND PUSH1 0x0 DUP2 EQ PUSH2 0x3D6A JUMPI PUSH1 0x1 DUP2 EQ PUSH2 0x3D81 JUMPI PUSH2 0x3DB0 JUMP JUMPDEST PUSH1 0xFF NOT DUP4 AND DUP7 MSTORE PUSH1 0x2 DUP4 DIV PUSH1 0x7F AND DUP7 ADD SWAP4 POP PUSH2 0x3DB0 JUMP JUMPDEST PUSH1 0x2 DUP4 DIV DUP8 DUP7 MSTORE PUSH1 0x20 DUP1 DUP8 KECCAK256 DUP8 JUMPDEST DUP4 DUP2 LT ISZERO PUSH2 0x3DA8 JUMPI DUP2 SLOAD DUP11 DUP3 ADD MSTORE SWAP1 DUP6 ADD SWAP1 DUP3 ADD PUSH2 0x3D8F JUMP JUMPDEST POP POP POP DUP7 ADD SWAP4 POP JUMPDEST POP SWAP2 SWAP6 SWAP5 POP POP POP POP POP JUMP JUMPDEST PUSH1 0x1 PUSH1 0x1 PUSH1 0xA0 SHL SUB SWAP2 SWAP1 SWAP2 AND DUP2 MSTORE PUSH1 0x20 ADD SWAP1 JUMP JUMPDEST PUSH1 0x1 PUSH1 0x1 PUSH1 0xA0 SHL SUB SWAP12 DUP13 AND DUP2 MSTORE SWAP10 DUP12 AND PUSH1 0x20 DUP12 ADD MSTORE SWAP8 DUP11 AND PUSH1 0x40 DUP11 ADD MSTORE PUSH1 0x60 DUP10 ADD SWAP7 SWAP1 SWAP7 MSTORE PUSH1 0x80 DUP9 ADD SWAP5 SWAP1 SWAP5 MSTORE PUSH1 0xA0 DUP8 ADD SWAP3 SWAP1 SWAP3 MSTORE PUSH1 0xC0 DUP7 ADD MSTORE PUSH1 0xE0 DUP6 ADD MSTORE DUP5 AND PUSH2 0x100 DUP5 ADD MSTORE DUP4 AND PUSH2 0x120 DUP4 ADD MSTORE SWAP1 SWAP2 AND PUSH2 0x140 DUP3 ADD MSTORE PUSH2 0x160 ADD SWAP1 JUMP JUMPDEST PUSH1 0x1 PUSH1 0x1 PUSH1 0xA0 SHL SUB SWAP4 DUP5 AND DUP2 MSTORE SWAP2 SWAP1 SWAP3 AND PUSH1 0x20 DUP3 ADD MSTORE PUSH1 0x40 DUP2 ADD SWAP2 SWAP1 SWAP2 MSTORE PUSH1 0x60 ADD SWAP1 JUMP JUMPDEST PUSH1 0x1 PUSH1 0x1 PUSH1 0xA0 SHL SUB SWAP8 DUP9 AND DUP2 MSTORE SWAP6 SWAP1 SWAP7 AND PUSH1 0x20 DUP7 ADD MSTORE PUSH1 0x40 DUP6 ADD SWAP4 SWAP1 SWAP4 MSTORE PUSH1 0x60 DUP5 ADD SWAP2 SWAP1 SWAP2 MSTORE PUSH1 0xFF AND PUSH1 0x80 DUP4 ADD MSTORE PUSH1 0xA0 DUP3 ADD MSTORE PUSH1 0xC0 DUP2 ADD SWAP2 SWAP1 SWAP2 MSTORE PUSH1 0xE0 ADD SWAP1 JUMP JUMPDEST PUSH1 0x1 PUSH1 0x1 PUSH1 0xA0 SHL SUB SWAP3 SWAP1 SWAP3 AND DUP3 MSTORE PUSH1 0x20 DUP3 ADD MSTORE PUSH1 0x40 ADD SWAP1 JUMP JUMPDEST PUSH1 0x1 PUSH1 0x1 PUSH1 0xA0 SHL SUB SWAP5 SWAP1 SWAP5 AND DUP5 MSTORE PUSH1 0x1 PUSH1 0x1 PUSH1 0x40 SHL SUB SWAP3 DUP4 AND PUSH1 0x20 DUP6 ADD MSTORE SWAP2 AND PUSH1 0x40 DUP4 ADD MSTORE ISZERO ISZERO PUSH1 0x60 DUP3 ADD MSTORE PUSH1 0x80 ADD SWAP1 JUMP JUMPDEST PUSH1 0x40 DUP1 DUP3 MSTORE DUP4 MLOAD SWAP1 DUP3 ADD DUP2 SWAP1 MSTORE PUSH1 0x0 SWAP1 PUSH1 0x20 SWAP1 PUSH1 0x60 DUP5 ADD SWAP1 DUP3 DUP8 ADD DUP5 JUMPDEST DUP3 DUP2 LT ISZERO PUSH2 0x3F19 JUMPI DUP2 MLOAD ISZERO ISZERO DUP5 MSTORE SWAP3 DUP5 ADD SWAP3 SWAP1 DUP5 ADD SWAP1 PUSH1 0x1 ADD PUSH2 0x3EFB JUMP JUMPDEST POP POP POP DUP4 DUP2 SUB DUP3 DUP6 ADD MSTORE DUP1 DUP6 MLOAD PUSH2 0x3F30 DUP2 DUP5 PUSH2 0x3FE3 JUMP JUMPDEST SWAP2 POP DUP2 SWAP3 POP DUP4 DUP2 MUL DUP3 ADD DUP5 DUP9 ADD DUP7 JUMPDEST DUP4 DUP2 LT ISZERO PUSH2 0x3F69 JUMPI DUP6 DUP4 SUB DUP6 MSTORE PUSH2 0x3F57 DUP4 DUP4 MLOAD PUSH2 0x3CF3 JUMP JUMPDEST SWAP5 DUP8 ADD SWAP5 SWAP3 POP SWAP1 DUP7 ADD SWAP1 PUSH1 0x1 ADD PUSH2 0x3F3F JUMP JUMPDEST POP SWAP1 SWAP10 SWAP9 POP POP POP POP POP POP POP POP POP JUMP JUMPDEST PUSH1 0x0 PUSH1 0x20 DUP1 DUP4 ADD DUP2 DUP5 MSTORE DUP1 DUP6 MLOAD DUP1 DUP4 MSTORE PUSH1 0x40 DUP7 ADD SWAP2 POP PUSH1 0x40 DUP5 DUP3 MUL DUP8 ADD ADD SWAP3 POP DUP4 DUP8 ADD DUP6 JUMPDEST DUP3 DUP2 LT ISZERO PUSH2 0x3FCB JUMPI PUSH1 0x3F NOT DUP9 DUP7 SUB ADD DUP5 MSTORE PUSH2 0x3FB9 DUP6 DUP4 MLOAD PUSH2 0x3CF3 JUMP JUMPDEST SWAP5 POP SWAP3 DUP6 ADD SWAP3 SWAP1 DUP6 ADD SWAP1 PUSH1 0x1 ADD PUSH2 0x3F9D JUMP JUMPDEST POP SWAP3 SWAP8 SWAP7 POP POP POP POP POP POP POP JUMP JUMPDEST SWAP1 ISZERO ISZERO DUP2 MSTORE PUSH1 0x20 ADD SWAP1 JUMP JUMPDEST SWAP1 DUP2 MSTORE PUSH1 0x20 ADD SWAP1 JUMP JUMPDEST PUSH1 0x0 PUSH1 0x20 DUP3 MSTORE PUSH2 0x1CB0 PUSH1 0x20 DUP4 ADD DUP5 PUSH2 0x3CF3 JUMP JUMPDEST PUSH1 0x0 PUSH1 0x20 DUP3 MSTORE DUP3 PUSH1 0x20 DUP4 ADD MSTORE DUP3 DUP5 PUSH1 0x40 DUP5 ADD CALLDATACOPY DUP2 DUP4 ADD PUSH1 0x40 SWAP1 DUP2 ADD SWAP2 SWAP1 SWAP2 MSTORE PUSH1 0x1F SWAP1 SWAP3 ADD PUSH1 0x1F NOT AND ADD ADD SWAP2 SWAP1 POP JUMP JUMPDEST PUSH1 0x0 PUSH1 0x40 DUP3 MSTORE PUSH2 0x4041 PUSH1 0x40 DUP4 ADD DUP6 PUSH2 0x3CF3 JUMP JUMPDEST SWAP1 POP DUP3 PUSH1 0x20 DUP4 ADD MSTORE SWAP4 SWAP3 POP POP POP JUMP JUMPDEST PUSH1 0x0 PUSH1 0x20 DUP1 DUP4 ADD DUP2 DUP5 MSTORE DUP3 DUP6 SLOAD PUSH1 0x1 DUP1 DUP3 AND PUSH1 0x0 DUP2 EQ PUSH2 0x4077 JUMPI PUSH1 0x1 DUP2 EQ PUSH2 0x4095 JUMPI PUSH2 0x40CD JUMP JUMPDEST PUSH1 0x2 DUP4 DIV PUSH1 0x7F AND DUP6 MSTORE PUSH1 0xFF NOT DUP4 AND PUSH1 0x40 DUP10 ADD MSTORE PUSH1 0x60 DUP9 ADD SWAP4 POP PUSH2 0x40CD JUMP JUMPDEST PUSH1 0x2 DUP4 DIV DUP1 DUP7 MSTORE PUSH2 0x40A5 DUP11 PUSH2 0x4C7C JUMP JUMPDEST DUP9 JUMPDEST DUP3 DUP2 LT ISZERO PUSH2 0x40C3 JUMPI DUP2 SLOAD DUP12 DUP3 ADD PUSH1 0x40 ADD MSTORE SWAP1 DUP5 ADD SWAP1 DUP9 ADD PUSH2 0x40A7 JUMP JUMPDEST DUP11 ADD PUSH1 0x40 ADD SWAP6 POP POP POP JUMPDEST POP SWAP2 SWAP8 SWAP7 POP POP POP POP POP POP POP JUMP JUMPDEST PUSH1 0x20 DUP1 DUP3 MSTORE PUSH1 0x15 SWAP1 DUP3 ADD MSTORE PUSH21 0x426F72696E674D6174683A20556E646572666C6F77 PUSH1 0x58 SHL PUSH1 0x40 DUP3 ADD MSTORE PUSH1 0x60 ADD SWAP1 JUMP JUMPDEST PUSH1 0x20 DUP1 DUP3 MSTORE PUSH1 0x13 SWAP1 DUP3 ADD MSTORE PUSH19 0x105B1C9958591E481A5B9A5D1A585B1A5CD959 PUSH1 0x6A SHL PUSH1 0x40 DUP3 ADD MSTORE PUSH1 0x60 ADD SWAP1 JUMP JUMPDEST PUSH1 0x20 DUP1 DUP3 MSTORE PUSH1 0x22 SWAP1 DUP3 ADD MSTORE PUSH32 0x456E756D657261626C655365743A20696E646578206F7574206F6620626F756E PUSH1 0x40 DUP3 ADD MSTORE PUSH2 0x6473 PUSH1 0xF0 SHL PUSH1 0x60 DUP3 ADD MSTORE PUSH1 0x80 ADD SWAP1 JUMP JUMPDEST PUSH1 0x20 DUP1 DUP3 MSTORE PUSH1 0x2F SWAP1 DUP3 ADD MSTORE PUSH32 0x416363657373436F6E74726F6C3A2073656E646572206D75737420626520616E PUSH1 0x40 DUP3 ADD MSTORE PUSH15 0x818591B5A5B881D1BC819DC985B9D PUSH1 0x8A SHL PUSH1 0x60 DUP3 ADD MSTORE PUSH1 0x80 ADD SWAP1 JUMP JUMPDEST PUSH1 0x20 DUP1 DUP3 MSTORE PUSH1 0x2C SWAP1 DUP3 ADD MSTORE PUSH32 0x43726F776473616C653A2073746172742074696D65206973206265666F726520 PUSH1 0x40 DUP3 ADD MSTORE PUSH12 0x63757272656E742074696D65 PUSH1 0xA0 SHL PUSH1 0x60 DUP3 ADD MSTORE PUSH1 0x80 ADD SWAP1 JUMP JUMPDEST PUSH1 0x20 DUP1 DUP3 MSTORE PUSH1 0x52 SWAP1 DUP3 ADD MSTORE PUSH32 0x4E6F2061677265656D656E742070726F76696465642C20706C65617365207265 PUSH1 0x40 DUP3 ADD MSTORE PUSH32 0x766965772074686520736D61727420636F6E7472616374206265666F72652069 PUSH1 0x60 DUP3 ADD MSTORE PUSH18 0x1B9D195C9858DD1A5B99C81DDA5D1A081A5D PUSH1 0x72 SHL PUSH1 0x80 DUP3 ADD MSTORE PUSH1 0xA0 ADD SWAP1 JUMP JUMPDEST PUSH1 0x20 DUP1 DUP3 MSTORE PUSH1 0x2C SWAP1 DUP3 ADD MSTORE PUSH32 0x43726F776473616C653A2073746172742074696D65206973206E6F7420626566 PUSH1 0x40 DUP3 ADD MSTORE PUSH12 0x6F726520656E642074696D65 PUSH1 0xA0 SHL PUSH1 0x60 DUP3 ADD MSTORE PUSH1 0x80 ADD SWAP1 JUMP JUMPDEST PUSH1 0x20 DUP1 DUP3 MSTORE PUSH1 0x15 SWAP1 DUP3 ADD MSTORE PUSH21 0x111BD8DD5B595B9D081CDA1BDD5B1908195E1A5CDD PUSH1 0x5A SHL PUSH1 0x40 DUP3 ADD MSTORE PUSH1 0x60 ADD SWAP1 JUMP JUMPDEST PUSH1 0x20 DUP1 DUP3 MSTORE PUSH1 0x2E SWAP1 DUP3 ADD MSTORE PUSH32 0x43726F776473616C653A2061756374696F6E2063616E6E6F7420686176652061 PUSH1 0x40 DUP3 ADD MSTORE PUSH14 0x1B1C9958591E481CDD185C9D1959 PUSH1 0x92 SHL PUSH1 0x60 DUP3 ADD MSTORE PUSH1 0x80 ADD SWAP1 JUMP JUMPDEST PUSH1 0x20 DUP1 DUP3 MSTORE PUSH1 0x1C SWAP1 DUP3 ADD MSTORE PUSH32 0x43726F776473616C653A20616C72656164792066696E616C697A656400000000 PUSH1 0x40 DUP3 ADD MSTORE PUSH1 0x60 ADD SWAP1 JUMP JUMPDEST PUSH1 0x20 DUP1 DUP3 MSTORE PUSH1 0x1C SWAP1 DUP3 ADD MSTORE PUSH32 0x426F72696E674D6174683A2075696E74313238204F766572666C6F7700000000 PUSH1 0x40 DUP3 ADD MSTORE PUSH1 0x60 ADD SWAP1 JUMP JUMPDEST PUSH1 0x20 DUP1 DUP3 MSTORE PUSH1 0x30 SWAP1 DUP3 ADD MSTORE PUSH32 0x416363657373436F6E74726F6C3A2073656E646572206D75737420626520616E PUSH1 0x40 DUP3 ADD MSTORE PUSH16 0x2061646D696E20746F207265766F6B65 PUSH1 0x80 SHL PUSH1 0x60 DUP3 ADD MSTORE PUSH1 0x80 ADD SWAP1 JUMP JUMPDEST PUSH1 0x20 DUP1 DUP3 MSTORE PUSH1 0x3D SWAP1 DUP3 ADD MSTORE PUSH32 0x43726F776473616C653A20676F616C2073686F756C6420626520657175616C20 PUSH1 0x40 DUP3 ADD MSTORE PUSH32 0x746F206F72206C6F776572207468616E20746F74616C20746F6B656E73000000 PUSH1 0x60 DUP3 ADD MSTORE PUSH1 0x80 ADD SWAP1 JUMP JUMPDEST PUSH1 0x20 DUP1 DUP3 MSTORE PUSH1 0x18 SWAP1 DUP3 ADD MSTORE PUSH32 0x426F72696E674D6174683A20416464204F766572666C6F770000000000000000 PUSH1 0x40 DUP3 ADD MSTORE PUSH1 0x60 ADD SWAP1 JUMP JUMPDEST PUSH1 0x20 DUP1 DUP3 MSTORE PUSH1 0x18 SWAP1 DUP3 ADD MSTORE PUSH32 0x5A65726F206E616D65206973206E6F7420616C6C6F7765640000000000000000 PUSH1 0x40 DUP3 ADD MSTORE PUSH1 0x60 ADD SWAP1 JUMP JUMPDEST PUSH1 0x20 DUP1 DUP3 MSTORE PUSH1 0x14 SWAP1 DUP3 ADD MSTORE PUSH20 0x43726F776473616C653A2072617465206973203 PUSH1 0x64 SHL PUSH1 0x40 DUP3 ADD MSTORE PUSH1 0x60 ADD SWAP1 JUMP JUMPDEST PUSH1 0x20 DUP1 DUP3 MSTORE PUSH1 0x28 SWAP1 DUP3 ADD MSTORE PUSH32 0x43726F776473616C653A205061796D656E742063757272656E6379206973206E PUSH1 0x40 DUP3 ADD MSTORE PUSH8 0x6F7420455243323 PUSH1 0xC4 SHL PUSH1 0x60 DUP3 ADD MSTORE PUSH1 0x80 ADD SWAP1 JUMP JUMPDEST PUSH1 0x20 DUP1 DUP3 MSTORE PUSH1 0x32 SWAP1 DUP3 ADD MSTORE PUSH32 0x43726F776473616C653A20656E642074696D65206D757374206265206F6C6465 PUSH1 0x40 DUP3 ADD MSTORE PUSH18 0x72207468616E207374617274207072696365 PUSH1 0x70 SHL PUSH1 0x60 DUP3 ADD MSTORE PUSH1 0x80 ADD SWAP1 JUMP JUMPDEST PUSH1 0x20 DUP1 DUP3 MSTORE PUSH1 0x2A SWAP1 DUP3 ADD MSTORE PUSH32 0x43726F776473616C653A20546F6B656E20646F6573206E6F7420686176652031 PUSH1 0x40 DUP3 ADD MSTORE PUSH10 0x3820646563696D616C73 PUSH1 0xB0 SHL PUSH1 0x60 DUP3 ADD MSTORE PUSH1 0x80 ADD SWAP1 JUMP JUMPDEST PUSH1 0x20 DUP1 DUP3 MSTORE PUSH1 0x1F SWAP1 DUP3 ADD MSTORE PUSH32 0x43726F776473616C653A2046756E647320616C72656164792072616973656400 PUSH1 0x40 DUP3 ADD MSTORE PUSH1 0x60 ADD SWAP1 JUMP JUMPDEST PUSH1 0x20 DUP1 DUP3 MSTORE PUSH1 0x24 SWAP1 DUP3 ADD MSTORE PUSH32 0x43726F776473616C653A2061646D696E20697320746865207A65726F20616464 PUSH1 0x40 DUP3 ADD MSTORE PUSH4 0x72657373 PUSH1 0xE0 SHL PUSH1 0x60 DUP3 ADD MSTORE PUSH1 0x80 ADD SWAP1 JUMP JUMPDEST PUSH1 0x20 DUP1 DUP3 MSTORE PUSH1 0x1B SWAP1 DUP3 ADD MSTORE PUSH32 0x426F72696E674D6174683A2075696E743634204F766572666C6F770000000000 PUSH1 0x40 DUP3 ADD MSTORE PUSH1 0x60 ADD SWAP1 JUMP JUMPDEST PUSH1 0x20 DUP1 DUP3 MSTORE PUSH1 0x2A SWAP1 DUP3 ADD MSTORE PUSH32 0x43726F776473616C653A2062656E656669636961727920697320746865207A65 PUSH1 0x40 DUP3 ADD MSTORE PUSH10 0x726F2061646472657373 PUSH1 0xB0 SHL PUSH1 0x60 DUP3 ADD MSTORE PUSH1 0x80 ADD SWAP1 JUMP JUMPDEST PUSH1 0x20 DUP1 DUP3 MSTORE PUSH1 0x26 SWAP1 DUP3 ADD MSTORE PUSH32 0x43726F776473616C653A205061796D656E742063757272656E6379206973206E PUSH1 0x40 DUP3 ADD MSTORE PUSH6 0xDEE8408AA89 PUSH1 0xD3 SHL PUSH1 0x60 DUP3 ADD MSTORE PUSH1 0x80 ADD SWAP1 JUMP JUMPDEST PUSH1 0x20 DUP1 DUP3 MSTORE PUSH1 0x1F SWAP1 DUP3 ADD MSTORE PUSH32 0x43726F776473616C653A20486173206E6F742066696E69736865642079657400 PUSH1 0x40 DUP3 ADD MSTORE PUSH1 0x60 ADD SWAP1 JUMP JUMPDEST PUSH1 0x20 DUP1 DUP3 MSTORE PUSH1 0x23 SWAP1 DUP3 ADD MSTORE PUSH32 0x5472616E7366657248656C7065723A204554485F5452414E534645525F464149 PUSH1 0x40 DUP3 ADD MSTORE PUSH3 0x131151 PUSH1 0xEA SHL PUSH1 0x60 DUP3 ADD MSTORE PUSH1 0x80 ADD SWAP1 JUMP JUMPDEST PUSH1 0x20 DUP1 DUP3 MSTORE DUP2 DUP2 ADD MSTORE PUSH32 0x43726F776473616C653A206F7574736964652061756374696F6E20686F757273 PUSH1 0x40 DUP3 ADD MSTORE PUSH1 0x60 ADD SWAP1 JUMP JUMPDEST PUSH1 0x20 DUP1 DUP3 MSTORE PUSH1 0x27 SWAP1 DUP3 ADD MSTORE PUSH32 0x43726F776473616C653A2061756374696F6E20686173206E6F742066696E6973 PUSH1 0x40 DUP3 ADD MSTORE PUSH7 0x1A1959081E595D PUSH1 0xCA SHL PUSH1 0x60 DUP3 ADD MSTORE PUSH1 0x80 ADD SWAP1 JUMP JUMPDEST PUSH1 0x20 DUP1 DUP3 MSTORE PUSH1 0x18 SWAP1 DUP3 ADD MSTORE PUSH32 0x43726F776473616C653A206E6F742066696E616C697A65640000000000000000 PUSH1 0x40 DUP3 ADD MSTORE PUSH1 0x60 ADD SWAP1 JUMP JUMPDEST PUSH1 0x20 DUP1 DUP3 MSTORE PUSH1 0x2A SWAP1 DUP3 ADD MSTORE PUSH32 0x43726F776473616C653A206D696E696D756D2074617267657420657863656564 PUSH1 0x40 DUP3 ADD MSTORE PUSH10 0x7320686172642063617 PUSH1 0xB4 SHL PUSH1 0x60 DUP3 ADD MSTORE PUSH1 0x80 ADD SWAP1 JUMP JUMPDEST PUSH1 0x20 DUP1 DUP3 MSTORE PUSH1 0x13 SWAP1 DUP3 ADD MSTORE PUSH19 0x496E646578206F7574206F6620626F756E6473 PUSH1 0x68 SHL PUSH1 0x40 DUP3 ADD MSTORE PUSH1 0x60 ADD SWAP1 JUMP JUMPDEST PUSH1 0x20 DUP1 DUP3 MSTORE PUSH1 0x1C SWAP1 DUP3 ADD MSTORE PUSH32 0x43726F776473616C653A20746F74616C20746F6B656E73206973203000000000 PUSH1 0x40 DUP3 ADD MSTORE PUSH1 0x60 ADD SWAP1 JUMP JUMPDEST PUSH1 0x20 DUP1 DUP3 MSTORE PUSH1 0x25 SWAP1 DUP3 ADD MSTORE PUSH32 0x43726F776473616C653A2077616C6C657420697320746865207A65726F206164 PUSH1 0x40 DUP3 ADD MSTORE PUSH5 0x6472657373 PUSH1 0xD8 SHL PUSH1 0x60 DUP3 ADD MSTORE PUSH1 0x80 ADD SWAP1 JUMP JUMPDEST PUSH1 0x20 DUP1 DUP3 MSTORE PUSH1 0x1A SWAP1 DUP3 ADD MSTORE PUSH32 0x53686F756C64206E6F74206265206120656D7074792064617461000000000000 PUSH1 0x40 DUP3 ADD MSTORE PUSH1 0x60 ADD SWAP1 JUMP JUMPDEST PUSH1 0x20 DUP1 DUP3 MSTORE PUSH1 0x3E SWAP1 DUP3 ADD MSTORE PUSH32 0x43726F776473616C653A20656E74657220616E20756E69782074696D65737461 PUSH1 0x40 DUP3 ADD MSTORE PUSH32 0x6D7020696E207365636F6E64732C206E6F74206D696C697365636F6E64730000 PUSH1 0x60 DUP3 ADD MSTORE PUSH1 0x80 ADD SWAP1 JUMP JUMPDEST PUSH1 0x20 DUP1 DUP3 MSTORE PUSH1 0x1D SWAP1 DUP3 ADD MSTORE PUSH32 0x43726F776473616C653A206E6F20746F6B656E7320746F20636C61696D000000 PUSH1 0x40 DUP3 ADD MSTORE PUSH1 0x60 ADD SWAP1 JUMP JUMPDEST PUSH1 0x20 DUP1 DUP3 MSTORE PUSH1 0x1F SWAP1 DUP3 ADD MSTORE PUSH32 0x5265656E7472616E637947756172643A207265656E7472616E742063616C6C00 PUSH1 0x40 DUP3 ADD MSTORE PUSH1 0x60 ADD SWAP1 JUMP JUMPDEST PUSH1 0x20 DUP1 DUP3 MSTORE PUSH1 0x18 SWAP1 DUP3 ADD MSTORE PUSH32 0x426F72696E674D6174683A204D756C204F766572666C6F770000000000000000 PUSH1 0x40 DUP3 ADD MSTORE PUSH1 0x60 ADD SWAP1 JUMP JUMPDEST PUSH1 0x20 DUP1 DUP3 MSTORE PUSH1 0x22 SWAP1 DUP3 ADD MSTORE PUSH32 0x43726F776473616C653A2073656E646572206D75737420626520616E2061646D PUSH1 0x40 DUP3 ADD MSTORE PUSH2 0x34B7 PUSH1 0xF1 SHL PUSH1 0x60 DUP3 ADD MSTORE PUSH1 0x80 ADD SWAP1 JUMP JUMPDEST PUSH1 0x20 DUP1 DUP3 MSTORE PUSH1 0x14 SWAP1 DUP3 ADD MSTORE PUSH20 0x43726F776473616C653A20676F616C206973203 PUSH1 0x64 SHL PUSH1 0x40 DUP3 ADD MSTORE PUSH1 0x60 ADD SWAP1 JUMP JUMPDEST PUSH1 0x20 DUP1 DUP3 MSTORE PUSH1 0x2F SWAP1 DUP3 ADD MSTORE PUSH32 0x416363657373436F6E74726F6C3A2063616E206F6E6C792072656E6F756E6365 PUSH1 0x40 DUP3 ADD MSTORE PUSH15 0x103937B632B9903337B91039B2B633 PUSH1 0x89 SHL PUSH1 0x60 DUP3 ADD MSTORE PUSH1 0x80 ADD SWAP1 JUMP JUMPDEST PUSH1 0x20 DUP1 DUP3 MSTORE PUSH1 0x2A SWAP1 DUP3 ADD MSTORE PUSH32 0x43726F776473616C653A205061796D656E742063757272656E6379206973206E PUSH1 0x40 DUP3 ADD MSTORE PUSH10 0x37BA1030903A37B5B2B7 PUSH1 0xB1 SHL PUSH1 0x60 DUP3 ADD MSTORE PUSH1 0x80 ADD SWAP1 JUMP JUMPDEST PUSH1 0x20 DUP1 DUP3 MSTORE PUSH1 0x14 SWAP1 DUP3 ADD MSTORE PUSH20 0x426F72696E674D6174683A20446976207A65726F PUSH1 0x60 SHL PUSH1 0x40 DUP3 ADD MSTORE PUSH1 0x60 ADD SWAP1 JUMP JUMPDEST PUSH1 0x1 PUSH1 0x1 PUSH1 0x80 SHL SUB SWAP4 SWAP1 SWAP4 AND DUP4 MSTORE SWAP1 ISZERO ISZERO PUSH1 0x20 DUP4 ADD MSTORE ISZERO ISZERO PUSH1 0x40 DUP3 ADD MSTORE PUSH1 0x60 ADD SWAP1 JUMP JUMPDEST PUSH1 0x1 PUSH1 0x1 PUSH1 0x80 SHL SUB SWAP3 DUP4 AND DUP2 MSTORE SWAP2 AND PUSH1 0x20 DUP3 ADD MSTORE PUSH1 0x40 ADD SWAP1 JUMP JUMPDEST SWAP2 DUP3 MSTORE PUSH1 0x20 DUP3 ADD MSTORE PUSH1 0x40 ADD SWAP1 JUMP JUMPDEST PUSH1 0x1 PUSH1 0x1 PUSH1 0x40 SHL SUB SWAP4 DUP5 AND DUP2 MSTORE SWAP2 SWAP1 SWAP3 AND PUSH1 0x20 DUP3 ADD MSTORE PUSH1 0x1 PUSH1 0x1 PUSH1 0x80 SHL SUB SWAP1 SWAP2 AND PUSH1 0x40 DUP3 ADD MSTORE PUSH1 0x60 ADD SWAP1 JUMP JUMPDEST PUSH1 0x0 DUP1 DUP4 CALLDATALOAD PUSH1 0x1E NOT DUP5 CALLDATASIZE SUB ADD DUP2 SLT PUSH2 0x4C4E JUMPI DUP3 DUP4 REVERT JUMPDEST DUP4 ADD DUP1 CALLDATALOAD SWAP2 POP PUSH1 0x1 PUSH1 0x1 PUSH1 0x40 SHL SUB DUP3 GT ISZERO PUSH2 0x4C67 JUMPI DUP3 DUP4 REVERT JUMPDEST PUSH1 0x20 ADD SWAP2 POP CALLDATASIZE DUP2 SWAP1 SUB DUP3 SGT ISZERO PUSH2 0x1A69 JUMPI PUSH1 0x0 DUP1 REVERT JUMPDEST PUSH1 0x0 SWAP1 DUP2 MSTORE PUSH1 0x20 SWAP1 KECCAK256 SWAP1 JUMP JUMPDEST PUSH1 0x0 JUMPDEST DUP4 DUP2 LT ISZERO PUSH2 0x4CA3 JUMPI DUP2 DUP2 ADD MLOAD DUP4 DUP3 ADD MSTORE PUSH1 0x20 ADD PUSH2 0x4C8B JUMP JUMPDEST DUP4 DUP2 GT ISZERO PUSH2 0x1DEE JUMPI POP POP PUSH1 0x0 SWAP2 ADD MSTORE JUMP JUMPDEST PUSH1 0x1 PUSH1 0x1 PUSH1 0xA0 SHL SUB DUP2 AND DUP2 EQ PUSH2 0x26F9 JUMPI PUSH1 0x0 DUP1 REVERT JUMPDEST DUP1 ISZERO ISZERO DUP2 EQ PUSH2 0x26F9 JUMPI PUSH1 0x0 DUP1 REVERT JUMPDEST PUSH1 0xFF DUP2 AND DUP2 EQ PUSH2 0x26F9 JUMPI PUSH1 0x0 DUP1 REVERT INVALID SWAP14 0x49 RETURN SWAP8 0xAE SWAP15 CALL 0xA8 CALLVALUE 0xB5 PUSH10 0xACB967799A367061E305 SWAP4 0x21 DUP2 LOG4 0x4F JUMPI PUSH20 0xDA873BFD97667070C54EF182B0F5858B034BEAC1 0xB6 RETURN ADDMOD SWAP11 LOG2 0xD3 XOR DUP12 0xB1 0xE8 SWAP3 SWAP16 0x4F 0xA9 0xB9 0x29 SWAP16 0x2D CREATE INVALID 0xD2 0xC7 PUSH23 0x48DE5860A4CC508CD0818C85B8B8A1AB4CEEEF8D981C89 JUMP 0xA6 0x49 KECCAK256 PUSH22 0x6E6465727374616E642074686174204920616D20696E PUSH21 0x6572616374696E672077697468206120736D617274 KECCAK256 PUSH4 0x6F6E7472 PUSH2 0x6374 0x2E KECCAK256 0x49 KECCAK256 PUSH22 0x6E6465727374616E64207468617420746F6B656E7320 PUSH4 0x6F6D6D69 PUSH21 0x656420617265207375626A65637420746F20746865 KECCAK256 PUSH21 0x6F6B656E2069737375657220616E64206C6F63616C KECCAK256 PUSH13 0x61777320776865726520617070 PUSH13 0x696361626C652E204920726576 PUSH10 0x6577656420636F646520 PUSH16 0x662074686520736D61727420636F6E74 PUSH19 0x61637420616E6420756E6465727374616E6420 PUSH10 0x742066756C6C792E2049 KECCAK256 PUSH2 0x6772 PUSH6 0x6520746F206E PUSH16 0x7420686F6C6420646576656C6F706572 PUSH20 0x206F72206F746865722070656F706C6520617373 PUSH16 0x63696174656420776974682074686520 PUSH17 0x726F6A656374206C6961626C6520666F72 KECCAK256 PUSH2 0x6E79 KECCAK256 PUSH13 0x6F73736573206F72206D697375 PUSH15 0x6465727374616E64696E6773A26469 PUSH17 0x667358221220DDF1CB3091DF95CDB31295 MSIZE 0x29 0x23 0xBE SSTORE 0xEA 0xC0 0xB1 JUMP 0xEE DUP5 SDIV 0x4D PUSH32 0x77A3FE50029CFD64736F6C634300060C00330000000000000000000000000000 ",
  "sha1": "ee903b5a61242adfb3b1131e3e747aea67039fae",
  "source": "pragma solidity 0.6.12;\npragma experimental ABIEncoderV2;\n\n//----------------------------------------------------------------------------------\n//    I n s t a n t\n//\n//        .:mmm.         .:mmm:.       .ii.  .:SSSSSSSSSSSSS.     .oOOOOOOOOOOOo.  \n//      .mMM'':Mm.     .:MM'':Mm:.     .II:  :SSs..........     .oOO'''''''''''OOo.\n//    .:Mm'   ':Mm.   .:Mm'   'MM:.    .II:  'sSSSSSSSSSSSSS:.  :OO.           .OO:\n//  .'mMm'     ':MM:.:MMm'     ':MM:.  .II:  .:...........:SS.  'OOo:.........:oOO'\n//  'mMm'        ':MMmm'         'mMm:  II:  'sSSSSSSSSSSSSS'     'oOOOOOOOOOOOO'  \n//\n//----------------------------------------------------------------------------------\n//\n// Chef Gonpachi's Crowdsale\n//\n// A fixed price token swap contract. \n//\n// Inspired by the Open Zeppelin crowsdale and delta.financial\n// https://github.com/OpenZeppelin/openzeppelin-contracts\n// \n// This program is free software: you can redistribute it and/or modify\n// it under the terms of the GNU General Public License as published by\n// the Free Software Foundation, either version 3 of the License\n//\n// This program is distributed in the hope that it will be useful,\n// but WITHOUT ANY WARRANTY; without even the implied warranty of\n// MERCHANTABILITY or FITNESS FOR A PARTICULAR PURPOSE.  See the\n// GNU General Public License for more details.\n//\n// The above copyright notice and this permission notice shall be included \n// in all copies or substantial portions of the Software.\n//\n// Made for Sushi.com \n// \n// Enjoy. (c) Chef Gonpachi, Kusatoshi, SSMikazu 2021 \n// <https://github.com/chefgonpachi/MISO/>\n//\n// ---------------------------------------------------------------------\n// SPDX-License-Identifier: GPL-3.0                        \n// ---------------------------------------------------------------------\n\nimport \"../OpenZeppelin/utils/ReentrancyGuard.sol\";\nimport \"../Access/MISOAccessControls.sol\";\nimport \"../Utils/SafeTransfer.sol\";\nimport \"../Utils/BoringBatchable.sol\";\nimport \"../Utils/BoringERC20.sol\";\nimport \"../Utils/BoringMath.sol\";\nimport \"../Utils/Documents.sol\";\nimport \"../interfaces/IPointList.sol\";\nimport \"../interfaces/IMisoMarket.sol\";\n\n\ncontract Crowdsale is IMisoMarket, MISOAccessControls, BoringBatchable, SafeTransfer, Documents , ReentrancyGuard  {\n    using BoringMath for uint256;\n    using BoringMath128 for uint128;\n    using BoringMath64 for uint64;\n    using BoringERC20 for IERC20;\n\n    /// @notice MISOMarket template id for the factory contract.\n    /// @dev For different marketplace types, this must be incremented.\n    uint256 public constant override marketTemplate = 1;\n\n    /// @notice The placeholder ETH address.\n    address private constant ETH_ADDRESS = 0xEeeeeEeeeEeEeeEeEeEeeEEEeeeeEeeeeeeeEEeE;\n\n    /** \n    * @notice rate - How many token units a buyer gets per token or wei.\n    * The rate is the conversion between wei and the smallest and indivisible token unit.\n    * So, if you are using a rate of 1 with a ERC20Detailed token with 3 decimals called TOK\n    * 1 wei will give you 1 unit, or 0.001 TOK.\n    */\n    /// @notice goal - Minimum amount of funds to be raised in weis or tokens.\n    struct MarketPrice {\n        uint128 rate;\n        uint128 goal; \n    }\n    MarketPrice public marketPrice;\n\n    /// @notice Starting time of crowdsale.\n    /// @notice Ending time of crowdsale.\n    /// @notice Total number of tokens to sell.\n    struct MarketInfo {\n        uint64 startTime;\n        uint64 endTime; \n        uint128 totalTokens;\n    }\n    MarketInfo public marketInfo;\n\n    /// @notice Amount of wei raised.\n    /// @notice Whether crowdsale has been initialized or not.\n    /// @notice Whether crowdsale has been finalized or not.\n    struct MarketStatus {\n        uint128 commitmentsTotal;\n        bool finalized;\n        bool usePointList;\n    }\n    MarketStatus public marketStatus;\n\n    /// @notice The token being sold.\n    address public auctionToken;\n    /// @notice Address where funds are collected.\n    address payable public wallet;\n    /// @notice The currency the crowdsale accepts for payment. Can be ETH or token address.\n    address public paymentCurrency;\n    /// @notice Address that manages auction approvals.\n    address public pointList;\n\n    /// @notice The commited amount of accounts.\n    mapping(address => uint256) public commitments;\n    /// @notice Amount of tokens to claim per address.\n    mapping(address => uint256) public claimed;\n\n    /// @notice Event for updating auction times.  Needs to be before auction starts.\n    event AuctionTimeUpdated(uint256 startTime, uint256 endTime); \n    /// @notice Event for updating auction prices. Needs to be before auction starts.\n    event AuctionPriceUpdated(uint256 rate, uint256 goal); \n    /// @notice Event for updating auction wallet. Needs to be before auction starts.\n    event AuctionWalletUpdated(address wallet); \n\n    /// @notice Event for adding a commitment.\n    event AddedCommitment(address addr, uint256 commitment);\n    \n    /// @notice Event for finalization of the crowdsale\n    event AuctionFinalized();\n    /// @notice Event for cancellation of the auction.\n    event AuctionCancelled();\n\n    /**\n     * @notice Initializes main contract variables and transfers funds for the sale.\n     * @dev Init function.\n     * @param _funder The address that funds the token for crowdsale.\n     * @param _token Address of the token being sold.\n     * @param _paymentCurrency The currency the crowdsale accepts for payment. Can be ETH or token address.\n     * @param _totalTokens The total number of tokens to sell in crowdsale.\n     * @param _startTime Crowdsale start time.\n     * @param _endTime Crowdsale end time.\n     * @param _rate Number of token units a buyer gets per wei or token.\n     * @param _goal Minimum amount of funds to be raised in weis or tokens.\n     * @param _admin Address that can finalize auction.\n     * @param _pointList Address that will manage auction approvals.\n     * @param _wallet Address where collected funds will be forwarded to.\n     */\n    function initCrowdsale(\n        address _funder,\n        address _token,\n        address _paymentCurrency,\n        uint256 _totalTokens,\n        uint256 _startTime,\n        uint256 _endTime,\n        uint256 _rate,\n        uint256 _goal,\n        address _admin,\n        address _pointList,\n        address payable _wallet\n    ) public {\n        require(_startTime < 10000000000, \"Crowdsale: enter an unix timestamp in seconds, not miliseconds\");\n        require(_endTime < 10000000000, \"Crowdsale: enter an unix timestamp in seconds, not miliseconds\");\n        require(_startTime >= block.timestamp, \"Crowdsale: start time is before current time\");\n        require(_endTime > _startTime, \"Crowdsale: start time is not before end time\");\n        require(_rate > 0, \"Crowdsale: rate is 0\");\n        require(_wallet != address(0), \"Crowdsale: wallet is the zero address\");\n        require(_admin != address(0), \"Crowdsale: admin is the zero address\");\n        require(_totalTokens > 0, \"Crowdsale: total tokens is 0\");\n        require(_goal > 0, \"Crowdsale: goal is 0\");\n        require(IERC20(_token).decimals() == 18, \"Crowdsale: Token does not have 18 decimals\");\n        if (_paymentCurrency != ETH_ADDRESS) {\n            require(IERC20(_paymentCurrency).decimals() > 0, \"Crowdsale: Payment currency is not ERC20\");\n        }\n\n        marketPrice.rate = BoringMath.to128(_rate);\n        marketPrice.goal = BoringMath.to128(_goal);\n\n        marketInfo.startTime = BoringMath.to64(_startTime);\n        marketInfo.endTime = BoringMath.to64(_endTime);\n        marketInfo.totalTokens = BoringMath.to128(_totalTokens);\n\n        auctionToken = _token;\n        paymentCurrency = _paymentCurrency;\n        wallet = _wallet;\n\n        initAccessControls(_admin);\n\n        _setList(_pointList);\n        \n        require(_getTokenAmount(_goal) <= _totalTokens, \"Crowdsale: goal should be equal to or lower than total tokens\");\n\n        _safeTransferFrom(_token, _funder, _totalTokens);\n    }\n\n\n    ///--------------------------------------------------------\n    /// Commit to buying tokens!\n    ///--------------------------------------------------------\n\n    receive() external payable {\n        revertBecauseUserDidNotProvideAgreement();\n    }\n\n    /** \n     * @dev Attribution to the awesome delta.financial contracts\n    */  \n    function marketParticipationAgreement() public pure returns (string memory) {\n        return \"I understand that I am interacting with a smart contract. I understand that tokens commited are subject to the token issuer and local laws where applicable. I reviewed code of the smart contract and understand it fully. I agree to not hold developers or other people associated with the project liable for any losses or misunderstandings\";\n    }\n    /** \n     * @dev Not using modifiers is a purposeful choice for code readability.\n    */ \n    function revertBecauseUserDidNotProvideAgreement() internal pure {\n        revert(\"No agreement provided, please review the smart contract before interacting with it\");\n    }\n\n    /**\n     * @notice Checks the amount of ETH to commit and adds the commitment. Refunds the buyer if commit is too high.\n     * @dev low level token purchase with ETH ***DO NOT OVERRIDE***\n     * This function has a non-reentrancy guard, so it should not be called by\n     * another `nonReentrant` function.\n     * @param _beneficiary Recipient of the token purchase.\n     */\n    function commitEth(\n        address payable _beneficiary,\n        bool readAndAgreedToMarketParticipationAgreement\n    ) \n        public payable   nonReentrant    \n    {\n        require(paymentCurrency == ETH_ADDRESS, \"Crowdsale: Payment currency is not ETH\"); \n        if(readAndAgreedToMarketParticipationAgreement == false) {\n            revertBecauseUserDidNotProvideAgreement();\n        }\n\n        /// @dev Get ETH able to be committed.\n        uint256 ethToTransfer = calculateCommitment(msg.value);\n\n        /// @dev Accept ETH Payments.\n        uint256 ethToRefund = msg.value.sub(ethToTransfer);\n        if (ethToTransfer > 0) {\n            _addCommitment(_beneficiary, ethToTransfer);\n        }\n\n        /// @dev Return any ETH to be refunded.\n        if (ethToRefund > 0) {\n            _beneficiary.transfer(ethToRefund);\n        }\n    }\n\n    /**\n     * @notice Buy Tokens by commiting approved ERC20 tokens to this contract address.\n     * @param _amount Amount of tokens to commit.\n     */\n    function commitTokens(uint256 _amount, bool readAndAgreedToMarketParticipationAgreement) public {\n        commitTokensFrom(msg.sender, _amount, readAndAgreedToMarketParticipationAgreement);\n    }\n\n    /**\n     * @notice Checks how much is user able to commit and processes that commitment.\n     * @dev Users must approve contract prior to committing tokens to auction.\n     * @param _from User ERC20 address.\n     * @param _amount Amount of approved ERC20 tokens.\n     */\n    function commitTokensFrom(\n        address _from,\n        uint256 _amount,\n        bool readAndAgreedToMarketParticipationAgreement\n    ) \n        public   nonReentrant  \n    {\n        require(address(paymentCurrency) != ETH_ADDRESS, \"Crowdsale: Payment currency is not a token\");\n        if(readAndAgreedToMarketParticipationAgreement == false) {\n            revertBecauseUserDidNotProvideAgreement();\n        }\n        uint256 tokensToTransfer = calculateCommitment(_amount);\n        if (tokensToTransfer > 0) {\n            _safeTransferFrom(paymentCurrency, msg.sender, tokensToTransfer);\n            _addCommitment(_from, tokensToTransfer);\n        }\n    }\n\n    /**\n     * @notice Checks if the commitment does not exceed the goal of this sale.\n     * @param _commitment Number of tokens to be commited.\n     * @return committed The amount able to be purchased during a sale.\n     */\n    function calculateCommitment(uint256 _commitment)\n        public\n        view\n        returns (uint256 committed)\n    {\n        uint256 tokens = _getTokenAmount(_commitment);\n        uint256 tokensCommited =_getTokenAmount(uint256(marketStatus.commitmentsTotal));\n        if ( tokensCommited.add(tokens) > uint256(marketInfo.totalTokens)) {\n            return _getTokenPrice(uint256(marketInfo.totalTokens).sub(tokensCommited));\n        }\n        return _commitment;\n    }\n\n    /**\n     * @notice Updates commitment of the buyer and the amount raised, emits an event.\n     * @param _addr Recipient of the token purchase.\n     * @param _commitment Value in wei or token involved in the purchase.\n     */\n    function _addCommitment(address _addr, uint256 _commitment) internal {\n        require(block.timestamp >= uint256(marketInfo.startTime) && block.timestamp <= uint256(marketInfo.endTime), \"Crowdsale: outside auction hours\");\n        require(_addr != address(0), \"Crowdsale: beneficiary is the zero address\");\n\n        uint256 newCommitment = commitments[_addr].add(_commitment);\n        if (marketStatus.usePointList) {\n            require(IPointList(pointList).hasPoints(_addr, newCommitment));\n        }\n\n        commitments[_addr] = newCommitment;\n\n        /// @dev Update state.\n        marketStatus.commitmentsTotal = BoringMath.to128(uint256(marketStatus.commitmentsTotal).add(_commitment));\n\n        emit AddedCommitment(_addr, _commitment);\n    }\n\n    function withdrawTokens() public  {\n        withdrawTokens(msg.sender);\n    }\n\n    /**\n     * @notice Withdraws bought tokens, or returns commitment if the sale is unsuccessful.\n     * @dev Withdraw tokens only after crowdsale ends.\n     * @param beneficiary Whose tokens will be withdrawn.\n     */\n    function withdrawTokens(address payable beneficiary) public   nonReentrant  {    \n        if (auctionSuccessful()) {\n            require(marketStatus.finalized, \"Crowdsale: not finalized\");\n            /// @dev Successful auction! Transfer claimed tokens.\n            uint256 tokensToClaim = tokensClaimable(beneficiary);\n            require(tokensToClaim > 0, \"Crowdsale: no tokens to claim\"); \n            claimed[beneficiary] = claimed[beneficiary].add(tokensToClaim);\n            _safeTokenPayment(auctionToken, beneficiary, tokensToClaim);\n        } else {\n            /// @dev Auction did not meet reserve price.\n            /// @dev Return committed funds back to user.\n            require(block.timestamp > uint256(marketInfo.endTime), \"Crowdsale: auction has not finished yet\");\n            uint256 accountBalance = commitments[beneficiary];\n            commitments[beneficiary] = 0; // Stop multiple withdrawals and free some gas\n            _safeTokenPayment(paymentCurrency, beneficiary, accountBalance);\n        }\n    }\n\n    /**\n     * @notice Adjusts users commitment depending on amount already claimed and unclaimed tokens left.\n     * @return claimerCommitment How many tokens the user is able to claim.\n     */\n    function tokensClaimable(address _user) public view returns (uint256 claimerCommitment) {\n        uint256 unclaimedTokens = IERC20(auctionToken).balanceOf(address(this));\n        claimerCommitment = _getTokenAmount(commitments[_user]);\n        claimerCommitment = claimerCommitment.sub(claimed[_user]);\n\n        if(claimerCommitment > unclaimedTokens){\n            claimerCommitment = unclaimedTokens;\n        }\n    }\n    \n    //--------------------------------------------------------\n    // Finalize Auction\n    //--------------------------------------------------------\n    \n    /**\n     * @notice Manually finalizes the Crowdsale.\n     * @dev Must be called after crowdsale ends, to do some extra finalization work.\n     * Calls the contracts finalization function.\n     */\n    function finalize() public nonReentrant {\n        require(            \n            hasAdminRole(msg.sender) \n            || wallet == msg.sender\n            || hasSmartContractRole(msg.sender) \n            || finalizeTimeExpired(),\n            \"Crowdsale: sender must be an admin\"\n        );\n        MarketStatus storage status = marketStatus;\n        require(!status.finalized, \"Crowdsale: already finalized\");\n        MarketInfo storage info = marketInfo;\n\n        if (auctionSuccessful()) {\n            /// @dev Successful auction\n            /// @dev Transfer contributed tokens to wallet.\n            require(auctionEnded(), \"Crowdsale: Has not finished yet\"); \n            _safeTokenPayment(paymentCurrency, wallet, uint256(status.commitmentsTotal));\n            /// @dev Transfer unsold tokens to wallet.\n            uint256 soldTokens = _getTokenAmount(uint256(status.commitmentsTotal));\n            uint256 unsoldTokens = uint256(info.totalTokens).sub(soldTokens);\n            if(unsoldTokens > 0) {\n                _safeTokenPayment(auctionToken, wallet, unsoldTokens);\n            }\n        } else {\n            /// @dev Failed auction\n            /// @dev Return auction tokens back to wallet.\n            require(auctionEnded(), \"Crowdsale: Has not finished yet\"); \n            _safeTokenPayment(auctionToken, wallet, uint256(info.totalTokens));\n        }\n\n        status.finalized = true;\n\n        emit AuctionFinalized();\n    }\n\n    /**\n     * @notice Cancel Auction\n     * @dev Admin can cancel the auction before it starts\n     */\n    function cancelAuction() public   nonReentrant  \n    {\n        require(hasAdminRole(msg.sender));\n        MarketStatus storage status = marketStatus;\n        require(!status.finalized, \"Crowdsale: already finalized\");\n        require( uint256(status.commitmentsTotal) == 0, \"Crowdsale: Funds already raised\" );\n\n        _safeTokenPayment(auctionToken, wallet, uint256(marketInfo.totalTokens));\n\n        status.finalized = true;\n        emit AuctionCancelled();\n    }\n\n    function tokenPrice() public view returns (uint256) {\n        return uint256(marketPrice.rate); \n    }\n\n    function _getTokenPrice(uint256 _amount) internal view returns (uint256) {\n        return _amount.mul(uint256(marketPrice.rate)).div(10**uint256(IERC20(auctionToken).decimals()));   \n    }\n\n    function getTokenAmount(uint256 _amount) public view returns (uint256) {\n        _getTokenAmount(_amount);\n    }\n\n    /**\n     * @notice Calculates the number of tokens to purchase.\n     * @dev Override to extend the way in which ether is converted to tokens.\n     * @param _amount Value in wei or token to be converted into tokens.\n     * @return tokenAmount Number of tokens that can be purchased with the specified amount.\n     */\n    function _getTokenAmount(uint256 _amount) internal view returns (uint256) {\n        return _amount.mul(10**uint256(IERC20(auctionToken).decimals())).div(uint256(marketPrice.rate));\n    }\n\n    /**\n     * @notice Checks if the sale is open.\n     * @return isOpen True if the crowdsale is open, false otherwise.\n     */\n    function isOpen() public view returns (bool) {\n        return block.timestamp >= uint256(marketInfo.startTime) && block.timestamp <= uint256(marketInfo.endTime);\n    }\n\n    /**\n     * @notice Checks if the sale minimum amount was raised.\n     * @return auctionSuccessful True if the commitmentsTotal is equal or higher than goal.\n     */\n    function auctionSuccessful() public view returns (bool) {\n        return uint256(marketStatus.commitmentsTotal) >= uint256(marketPrice.goal);\n    }\n\n    /**\n     * @notice Checks if the sale has ended.\n     * @return auctionEnded True if sold out or time has ended.\n     */\n    function auctionEnded() public view returns (bool) {\n        return block.timestamp > uint256(marketInfo.endTime) || \n        _getTokenAmount(uint256(marketStatus.commitmentsTotal) + 1) >= uint256(marketInfo.totalTokens);\n    }\n\n    /**\n     * @notice Checks if the sale has been finalised.\n     * @return bool True if sale has been finalised.\n     */\n    function finalized() public view returns (bool) {\n        return marketStatus.finalized;\n    }\n\n    /**\n     * @return True if 7 days have passed since the end of the auction\n    */\n    function finalizeTimeExpired() public view returns (bool) {\n        return uint256(marketInfo.endTime) + 7 days < block.timestamp;\n    }\n    \n\n    //--------------------------------------------------------\n    // Documents\n    //--------------------------------------------------------\n\n    function setDocument(string calldata _name, string calldata _data) external {\n        require(hasAdminRole(msg.sender) );\n        _setDocument( _name, _data);\n    }\n\n    function setDocuments(string[] calldata _name, string[] calldata _data) external {\n        require(hasAdminRole(msg.sender) );\n        uint256 numDocs = _name.length;\n        for (uint256 i = 0; i < numDocs; i++) {\n            _setDocument( _name[i], _data[i]);\n        }\n    }\n\n    function removeDocument(string calldata _name) external {\n        require(hasAdminRole(msg.sender));\n        _removeDocument(_name);\n    }\n\n    //--------------------------------------------------------\n    // Point Lists\n    //--------------------------------------------------------\n\n\n    function setList(address _list) external {\n        require(hasAdminRole(msg.sender));\n        _setList(_list);\n    }\n\n    function enableList(bool _status) external {\n        require(hasAdminRole(msg.sender));\n        marketStatus.usePointList = _status;\n    }\n\n    function _setList(address _pointList) private {\n        if (_pointList != address(0)) {\n            pointList = _pointList;\n            marketStatus.usePointList = true;\n        }\n    }\n\n    //--------------------------------------------------------\n    // Setter Functions\n    //--------------------------------------------------------\n\n    /**\n     * @notice Admin can set start and end time through this function.\n     * @param _startTime Auction start time.\n     * @param _endTime Auction end time.\n     */\n    function setAuctionTime(uint256 _startTime, uint256 _endTime) external {\n        require(hasAdminRole(msg.sender));\n        require(_startTime < 10000000000, \"Crowdsale: enter an unix timestamp in seconds, not miliseconds\");\n        require(_endTime < 10000000000, \"Crowdsale: enter an unix timestamp in seconds, not miliseconds\");\n        require(_startTime >= block.timestamp, \"Crowdsale: start time is before current time\");\n        require(_endTime > _startTime, \"Crowdsale: end time must be older than start price\");\n\n        require(marketStatus.commitmentsTotal == 0, \"Crowdsale: auction cannot have already started\");\n\n        marketInfo.startTime = BoringMath.to64(_startTime);\n        marketInfo.endTime = BoringMath.to64(_endTime);\n        \n        emit AuctionTimeUpdated(_startTime,_endTime);\n    }\n\n    /**\n     * @notice Admin can set auction price through this function.\n     * @param _rate Price per token.\n     * @param _goal Minimum amount raised and goal for the auction.\n     */\n    function setAuctionPrice(uint256 _rate, uint256 _goal) external {\n        require(hasAdminRole(msg.sender));\n        require(_goal > 0, \"Crowdsale: goal is 0\");\n        require(_rate > 0, \"Crowdsale: rate is 0\");\n        require(marketStatus.commitmentsTotal == 0, \"Crowdsale: auction cannot have already started\");\n        require(_getTokenAmount(_goal) <= uint256(marketInfo.totalTokens), \"Crowdsale: minimum target exceeds hard cap\");\n\n        marketPrice.rate = BoringMath.to128(_rate);\n        marketPrice.goal = BoringMath.to128(_goal);\n\n        emit AuctionPriceUpdated(_rate,_goal);\n    }\n\n    /**\n     * @notice Admin can set the auction wallet through this function.\n     * @param _wallet Auction wallet is where funds will be sent.\n     */\n    function setAuctionWallet(address payable _wallet) external {\n        require(hasAdminRole(msg.sender));\n        require(_wallet != address(0), \"Crowdsale: wallet is the zero address\");\n        wallet = _wallet;\n\n        emit AuctionWalletUpdated(_wallet);\n    }\n\n\n    //--------------------------------------------------------\n    // Market Launchers\n    //--------------------------------------------------------\n\n    function init(bytes calldata _data) external override payable {\n\n    }\n\n    /**\n     * @notice Decodes and hands Crowdsale data to the initCrowdsale function.\n     * @param _data Encoded data for initialization.\n     */\n    function initMarket(bytes calldata _data) public override {\n        (\n        address _funder,\n        address _token,\n        address _paymentCurrency,\n        uint256 _totalTokens,\n        uint256 _startTime,\n        uint256 _endTime,\n        uint256 _rate,\n        uint256 _goal,\n        address _admin,\n        address _pointList,\n        address payable _wallet\n        ) = abi.decode(_data, (\n            address,\n            address,\n            address,\n            uint256,\n            uint256,\n            uint256,\n            uint256,\n            uint256,\n            address,\n            address,\n            address\n            )\n        );\n    \n        initCrowdsale(_funder, _token, _paymentCurrency, _totalTokens, _startTime, _endTime, _rate, _goal, _admin, _pointList, _wallet);\n    }\n\n    /**\n     * @notice Collects data to initialize the crowd sale.\n     * @param _funder The address that funds the token for crowdsale.\n     * @param _token Address of the token being sold.\n     * @param _paymentCurrency The currency the crowdsale accepts for payment. Can be ETH or token address.\n     * @param _totalTokens The total number of tokens to sell in crowdsale.\n     * @param _startTime Crowdsale start time.\n     * @param _endTime Crowdsale end time.\n     * @param _rate Number of token units a buyer gets per wei or token.\n     * @param _goal Minimum amount of funds to be raised in weis or tokens.\n     * @param _admin Address that can finalize crowdsale.\n     * @param _pointList Address that will manage auction approvals.\n     * @param _wallet Address where collected funds will be forwarded to.\n     * @return _data All the data in bytes format.\n     */\n    function getCrowdsaleInitData(\n        address _funder,\n        address _token,\n        address _paymentCurrency,\n        uint256 _totalTokens,\n        uint256 _startTime,\n        uint256 _endTime,\n        uint256 _rate,\n        uint256 _goal,\n        address _admin,\n        address _pointList,\n        address payable _wallet\n    )\n        external pure returns (bytes memory _data)\n    {\n        return abi.encode(\n            _funder,\n            _token,\n            _paymentCurrency,\n            _totalTokens,\n            _startTime,\n            _endTime,\n            _rate,\n            _goal,\n            _admin,\n            _pointList,\n            _wallet\n            );\n    }\n    \n    function getBaseInformation() external view returns(\n        address, \n        uint64,\n        uint64,\n        bool \n    ) {\n        return (auctionToken, marketInfo.startTime, marketInfo.endTime, marketStatus.finalized);\n    }\n\n    function getTotalTokens() external view returns(uint256) {\n        return uint256(marketInfo.totalTokens);\n    }\n}\n",
  "sourcePath": "contracts/Auctions/Crowdsale.sol",
  "type": "contract"
}