{
  "abi": [
    {
      "inputs": [],
      "stateMutability": "nonpayable",
      "type": "constructor"
    },
    {
      "anonymous": false,
      "inputs": [
        {
          "indexed": true,
          "internalType": "address",
          "name": "owner",
          "type": "address"
        },
        {
          "indexed": true,
          "internalType": "address",
          "name": "addr",
          "type": "address"
        },
        {
          "indexed": false,
          "internalType": "address",
          "name": "launcherTemplate",
          "type": "address"
        }
      ],
      "name": "LauncherCreated",
      "type": "event"
    },
    {
      "anonymous": false,
      "inputs": [
        {
          "indexed": false,
          "internalType": "address",
          "name": "newLauncher",
          "type": "address"
        },
        {
          "indexed": false,
          "internalType": "uint256",
          "name": "templateId",
          "type": "uint256"
        }
      ],
      "name": "LauncherTemplateAdded",
      "type": "event"
    },
    {
      "anonymous": false,
      "inputs": [
        {
          "indexed": false,
          "internalType": "address",
          "name": "launcher",
          "type": "address"
        },
        {
          "indexed": false,
          "internalType": "uint256",
          "name": "templateId",
          "type": "uint256"
        }
      ],
      "name": "LauncherTemplateRemoved",
      "type": "event"
    },
    {
      "anonymous": false,
      "inputs": [
        {
          "indexed": false,
          "internalType": "address",
          "name": "sender",
          "type": "address"
        }
      ],
      "name": "MisoInitLauncher",
      "type": "event"
    },
    {
      "inputs": [],
      "name": "LAUNCHER_MINTER_ROLE",
      "outputs": [
        {
          "internalType": "bytes32",
          "name": "",
          "type": "bytes32"
        }
      ],
      "stateMutability": "view",
      "type": "function"
    },
    {
      "inputs": [],
      "name": "WETH",
      "outputs": [
        {
          "internalType": "address",
          "name": "",
          "type": "address"
        }
      ],
      "stateMutability": "view",
      "type": "function"
    },
    {
      "inputs": [],
      "name": "accessControls",
      "outputs": [
        {
          "internalType": "contract MISOAccessControls",
          "name": "",
          "type": "address"
        }
      ],
      "stateMutability": "view",
      "type": "function"
    },
    {
      "inputs": [
        {
          "internalType": "address",
          "name": "_template",
          "type": "address"
        }
      ],
      "name": "addLiquidityLauncherTemplate",
      "outputs": [],
      "stateMutability": "nonpayable",
      "type": "function"
    },
    {
      "inputs": [],
      "name": "bentoBox",
      "outputs": [
        {
          "internalType": "contract IBentoBoxFactory",
          "name": "",
          "type": "address"
        }
      ],
      "stateMutability": "view",
      "type": "function"
    },
    {
      "inputs": [
        {
          "internalType": "uint256",
          "name": "_templateId",
          "type": "uint256"
        },
        {
          "internalType": "address",
          "name": "_token",
          "type": "address"
        },
        {
          "internalType": "uint256",
          "name": "_tokenSupply",
          "type": "uint256"
        },
        {
          "internalType": "address payable",
          "name": "_integratorFeeAccount",
          "type": "address"
        },
        {
          "internalType": "bytes",
          "name": "_data",
          "type": "bytes"
        }
      ],
      "name": "createLauncher",
      "outputs": [
        {
          "internalType": "address",
          "name": "newLauncher",
          "type": "address"
        }
      ],
      "stateMutability": "payable",
      "type": "function"
    },
    {
      "inputs": [
        {
          "internalType": "uint256",
          "name": "",
          "type": "uint256"
        }
      ],
      "name": "currentTemplateId",
      "outputs": [
        {
          "internalType": "uint256",
          "name": "",
          "type": "uint256"
        }
      ],
      "stateMutability": "view",
      "type": "function"
    },
    {
      "inputs": [
        {
          "internalType": "uint256",
          "name": "_templateId",
          "type": "uint256"
        },
        {
          "internalType": "address payable",
          "name": "_integratorFeeAccount",
          "type": "address"
        }
      ],
      "name": "deployLauncher",
      "outputs": [
        {
          "internalType": "address",
          "name": "launcher",
          "type": "address"
        }
      ],
      "stateMutability": "payable",
      "type": "function"
    },
    {
      "inputs": [
        {
          "internalType": "address",
          "name": "_launcher",
          "type": "address"
        }
      ],
      "name": "getLauncherTemplateId",
      "outputs": [
        {
          "internalType": "uint64",
          "name": "",
          "type": "uint64"
        }
      ],
      "stateMutability": "view",
      "type": "function"
    },
    {
      "inputs": [],
      "name": "getLaunchers",
      "outputs": [
        {
          "internalType": "address[]",
          "name": "",
          "type": "address[]"
        }
      ],
      "stateMutability": "view",
      "type": "function"
    },
    {
      "inputs": [
        {
          "internalType": "uint256",
          "name": "_templateId",
          "type": "uint256"
        }
      ],
      "name": "getLiquidityLauncherTemplate",
      "outputs": [
        {
          "internalType": "address",
          "name": "",
          "type": "address"
        }
      ],
      "stateMutability": "view",
      "type": "function"
    },
    {
      "inputs": [
        {
          "internalType": "address",
          "name": "_launcherTemplate",
          "type": "address"
        }
      ],
      "name": "getTemplateId",
      "outputs": [
        {
          "internalType": "uint256",
          "name": "",
          "type": "uint256"
        }
      ],
      "stateMutability": "view",
      "type": "function"
    },
    {
      "inputs": [
        {
          "internalType": "address",
          "name": "_address",
          "type": "address"
        }
      ],
      "name": "hasLauncherMinterRole",
      "outputs": [
        {
          "internalType": "bool",
          "name": "",
          "type": "bool"
        }
      ],
      "stateMutability": "view",
      "type": "function"
    },
    {
      "inputs": [
        {
          "internalType": "address",
          "name": "_accessControls",
          "type": "address"
        },
        {
          "internalType": "address",
          "name": "_WETH",
          "type": "address"
        },
        {
          "internalType": "address",
          "name": "_bentoBox",
          "type": "address"
        }
      ],
      "name": "initMISOLauncher",
      "outputs": [],
      "stateMutability": "nonpayable",
      "type": "function"
    },
    {
      "inputs": [],
      "name": "launcherFees",
      "outputs": [
        {
          "internalType": "uint128",
          "name": "minimumFee",
          "type": "uint128"
        },
        {
          "internalType": "uint32",
          "name": "integratorFeePct",
          "type": "uint32"
        }
      ],
      "stateMutability": "view",
      "type": "function"
    },
    {
      "inputs": [
        {
          "internalType": "address",
          "name": "",
          "type": "address"
        }
      ],
      "name": "launcherInfo",
      "outputs": [
        {
          "internalType": "bool",
          "name": "exists",
          "type": "bool"
        },
        {
          "internalType": "uint64",
          "name": "templateId",
          "type": "uint64"
        },
        {
          "internalType": "uint128",
          "name": "index",
          "type": "uint128"
        }
      ],
      "stateMutability": "view",
      "type": "function"
    },
    {
      "inputs": [],
      "name": "launcherTemplateId",
      "outputs": [
        {
          "internalType": "uint256",
          "name": "",
          "type": "uint256"
        }
      ],
      "stateMutability": "view",
      "type": "function"
    },
    {
      "inputs": [
        {
          "internalType": "uint256",
          "name": "",
          "type": "uint256"
        }
      ],
      "name": "launchers",
      "outputs": [
        {
          "internalType": "address",
          "name": "",
          "type": "address"
        }
      ],
      "stateMutability": "view",
      "type": "function"
    },
    {
      "inputs": [],
      "name": "locked",
      "outputs": [
        {
          "internalType": "bool",
          "name": "",
          "type": "bool"
        }
      ],
      "stateMutability": "view",
      "type": "function"
    },
    {
      "inputs": [],
      "name": "minimumFee",
      "outputs": [
        {
          "internalType": "uint128",
          "name": "",
          "type": "uint128"
        }
      ],
      "stateMutability": "view",
      "type": "function"
    },
    {
      "inputs": [],
      "name": "misoDiv",
      "outputs": [
        {
          "internalType": "address payable",
          "name": "",
          "type": "address"
        }
      ],
      "stateMutability": "view",
      "type": "function"
    },
    {
      "inputs": [],
      "name": "numberOfLiquidityLauncherContracts",
      "outputs": [
        {
          "internalType": "uint256",
          "name": "",
          "type": "uint256"
        }
      ],
      "stateMutability": "view",
      "type": "function"
    },
    {
      "inputs": [
        {
          "internalType": "uint256",
          "name": "_templateId",
          "type": "uint256"
        }
      ],
      "name": "removeLiquidityLauncherTemplate",
      "outputs": [],
      "stateMutability": "nonpayable",
      "type": "function"
    },
    {
      "inputs": [
        {
          "internalType": "uint256",
          "name": "_templateType",
          "type": "uint256"
        },
        {
          "internalType": "uint256",
          "name": "_templateId",
          "type": "uint256"
        }
      ],
      "name": "setCurrentTemplateId",
      "outputs": [],
      "stateMutability": "nonpayable",
      "type": "function"
    },
    {
      "inputs": [
        {
          "internalType": "address payable",
          "name": "_divaddr",
          "type": "address"
        }
      ],
      "name": "setDividends",
      "outputs": [],
      "stateMutability": "nonpayable",
      "type": "function"
    },
    {
      "inputs": [
        {
          "internalType": "uint256",
          "name": "_amount",
          "type": "uint256"
        }
      ],
      "name": "setIntegratorFeePct",
      "outputs": [],
      "stateMutability": "nonpayable",
      "type": "function"
    },
    {
      "inputs": [
        {
          "internalType": "bool",
          "name": "_locked",
          "type": "bool"
        }
      ],
      "name": "setLocked",
      "outputs": [],
      "stateMutability": "nonpayable",
      "type": "function"
    },
    {
      "inputs": [
        {
          "internalType": "uint256",
          "name": "_amount",
          "type": "uint256"
        }
      ],
      "name": "setMinimumFee",
      "outputs": [],
      "stateMutability": "nonpayable",
      "type": "function"
    }
  ],
  "bytecode": "608060405234801561001057600080fd5b5061204b806100206000396000f3fe6080604052600436106101b75760003560e01c806386adc322116100ec578063ad5c46481161008a578063cd70f73411610064578063cd70f734146106aa578063cf309012146106d6578063d335ebda146106eb578063fcb62f901461071e576101b7565b8063ad5c464814610630578063bc79913b14610645578063c9907b0814610695576101b7565b806396f1266e116100c657806396f1266e146105735780639e5940cc146105885780639e9188ea146105b8578063a5f4d70f146105eb576101b7565b806386adc322146104ed5780638c363a0b1461050257806392787b4814610549576101b7565b80636b2ace871161015957806370433d031161013357806370433d031461042b578063748365ef146104905780637b7fb153146104a55780638637e041146104d8576101b7565b80636b2ace87146103875780636c4ceb361461039c5780636de88d9714610401576101b7565b80632ed4f578116101955780632ed4f578146102455780633eb63aa0146102815780633f1f44b0146102c7578063632cef90146102f1576101b7565b8063182a7506146101bc5780631a7626e7146101e8578063211e28b614610219575b600080fd5b3480156101c857600080fd5b506101e6600480360360208110156101df57600080fd5b503561075b565b005b3480156101f457600080fd5b506101fd610842565b604080516001600160801b039092168252519081900360200190f35b34801561022557600080fd5b506101e66004803603602081101561023c57600080fd5b50351515610851565b34801561025157600080fd5b5061026f6004803603602081101561026857600080fd5b5035610916565b60408051918252519081900360200190f35b34801561028d57600080fd5b506102ab600480360360208110156102a457600080fd5b5035610928565b604080516001600160a01b039092168252519081900360200190f35b3480156102d357600080fd5b506101e6600480360360208110156102ea57600080fd5b503561094f565b6102ab600480360360a081101561030757600080fd5b8135916001600160a01b0360208201358116926040830135926060810135909216919081019060a08101608082013564010000000081111561034857600080fd5b82018360208201111561035a57600080fd5b8035906020019184600183028401116401000000008311171561037c57600080fd5b509092509050610a73565b34801561039357600080fd5b506102ab610c79565b3480156103a857600080fd5b506103cf600480360360208110156103bf57600080fd5b50356001600160a01b0316610c88565b60408051931515845267ffffffffffffffff90921660208401526001600160801b031682820152519081900360600190f35b34801561040d57600080fd5b506102ab6004803603602081101561042457600080fd5b5035610cbf565b34801561043757600080fd5b50610440610cda565b60408051602080825283518183015283519192839290830191858101910280838360005b8381101561047c578181015183820152602001610464565b505050509050019250505060405180910390f35b34801561049c57600080fd5b506102ab610d3c565b3480156104b157600080fd5b506101e6600480360360208110156104c857600080fd5b50356001600160a01b0316610d4b565b3480156104e457600080fd5b5061026f610fb0565b3480156104f957600080fd5b5061026f610fd4565b34801561050e57600080fd5b506105356004803603602081101561052557600080fd5b50356001600160a01b0316610fda565b604080519115158252519081900360200190f35b34801561055557600080fd5b506101e66004803603602081101561056c57600080fd5b5035611080565b34801561057f57600080fd5b5061026f611244565b34801561059457600080fd5b506101e6600480360360408110156105ab57600080fd5b508035906020013561124a565b3480156105c457600080fd5b506101e6600480360360208110156105db57600080fd5b50356001600160a01b031661138c565b3480156105f757600080fd5b506101e66004803603606081101561060e57600080fd5b506001600160a01b038135811691602081013582169160409091013516611479565b34801561063c57600080fd5b506102ab6115ec565b34801561065157600080fd5b506106786004803603602081101561066857600080fd5b50356001600160a01b03166115fb565b6040805167ffffffffffffffff9092168252519081900360200190f35b3480156106a157600080fd5b506102ab611625565b6102ab600480360360408110156106c057600080fd5b50803590602001356001600160a01b0316611639565b3480156106e257600080fd5b50610535611b25565b3480156106f757600080fd5b5061026f6004803603602081101561070e57600080fd5b50356001600160a01b0316611b2e565b34801561072a57600080fd5b50610733611b49565b604080516001600160801b03909316835263ffffffff90911660208301528051918290030190f35b6000546040805163c395fcb360e01b815233600482015290516001600160a01b039092169163c395fcb391602480820192602092909190829003018186803b1580156107a657600080fd5b505afa1580156107ba573d6000803e3d6000fd5b505050506040513d60208110156107d057600080fd5b505161080d5760405162461bcd60e51b8152600401808060200182810382526025815260200180611e6c6025913960400191505060405180910390fd5b61081681611b67565b600980546fffffffffffffffffffffffffffffffff19166001600160801b039290921691909117905550565b6009546001600160801b031690565b6000546040805163c395fcb360e01b815233600482015290516001600160a01b039092169163c395fcb391602480820192602092909190829003018186803b15801561089c57600080fd5b505afa1580156108b0573d6000803e3d6000fd5b505050506040513d60208110156108c657600080fd5b50516109035760405162461bcd60e51b8152600401808060200182810382526022815260200180611f096022913960400191505060405180910390fd5b600a805460ff1916911515919091179055565b60076020526000908152604090205481565b6001818154811061093557fe5b6000918252602090912001546001600160a01b0316905081565b6000546040805163c395fcb360e01b815233600482015290516001600160a01b039092169163c395fcb391602480820192602092909190829003018186803b15801561099a57600080fd5b505afa1580156109ae573d6000803e3d6000fd5b505050506040513d60208110156109c457600080fd5b5051610a015760405162461bcd60e51b8152600401808060200182810382526025815260200180611e6c6025913960400191505060405180910390fd5b6103e8811115610a425760405162461bcd60e51b8152600401808060200182810382526027815260200180611e916027913960400191505060405180910390fd5b610a4b81611bc9565b6009805463ffffffff92909216600160801b0263ffffffff60801b1990921691909117905550565b6000610a7f8785611639565b90508415610b4a57610a92863387611c24565b856001600160a01b031663095ea7b382876040518363ffffffff1660e01b815260040180836001600160a01b0316815260200182815260200192505050602060405180830381600087803b158015610ae957600080fd5b505af1158015610afd573d6000803e3d6000fd5b505050506040513d6020811015610b1357600080fd5b5051610b4a576040805162461bcd60e51b81526020600482015260016024820152603160f81b604482015290519081900360640190fd5b604051637c17e46760e11b8152602060048201908152602482018490526001600160a01b0383169163f82fc8ce9186918691908190604401848480828437600081840152601f19601f8201169050808301925050509350505050600060405180830381600087803b158015610bbe57600080fd5b505af1158015610bd2573d6000803e3d6000fd5b505050506000851115610c6f576000866001600160a01b03166370a08231306040518263ffffffff1660e01b815260040180826001600160a01b0316815260200191505060206040518083038186803b158015610c2e57600080fd5b505afa158015610c42573d6000803e3d6000fd5b505050506040513d6020811015610c5857600080fd5b505190508015610c6d57610c6d873383611d4c565b505b9695505050505050565b6004546001600160a01b031681565b60086020526000908152604090205460ff811690610100810467ffffffffffffffff1690600160481b90046001600160801b031683565b6000908152600560205260409020546001600160a01b031690565b60606001805480602002602001604051908101604052809291908181526020018280548015610d3257602002820191906000526020600020905b81546001600160a01b03168152600190910190602001808311610d14575b5050505050905090565b6000546001600160a01b031681565b6000546040805163c395fcb360e01b815233600482015290516001600160a01b039092169163c395fcb391602480820192602092909190829003018186803b158015610d9657600080fd5b505afa158015610daa573d6000803e3d6000fd5b505050506040513d6020811015610dc057600080fd5b505180610e40575060005460408051637e271f0560e11b815233600482015290516001600160a01b039092169163fc4e3e0a91602480820192602092909190829003018186803b158015610e1357600080fd5b505afa158015610e27573d6000803e3d6000fd5b505050506040513d6020811015610e3d57600080fd5b50515b610e7b5760405162461bcd60e51b8152600401808060200182810382526025815260200180611e6c6025913960400191505060405180910390fd5b6000816001600160a01b0316638566de4b6040518163ffffffff1660e01b815260040160206040518083038186803b158015610eb657600080fd5b505afa158015610eca573d6000803e3d6000fd5b505050506040513d6020811015610ee057600080fd5b5051905080610f205760405162461bcd60e51b8152600401808060200182810382526026815260200180611eb86026913960400191505060405180910390fd5b60028054600101808255600090815260056020908152604080832080546001600160a01b0319166001600160a01b038816908117909155935484845260068352818420819055858452600783529281902083905580519384529083019190915280517f6c52e34db307a16709b387d61b2de0b4dd4a2ef6fd68b04b5515ef00a533b18f9281900390910190a15050565b7fceb69df9dd42f6c115645ad1e6ac8c9f124a39546dd50de2e04024128b14698081565b60015490565b6000805460408051632474521560e21b81527fceb69df9dd42f6c115645ad1e6ac8c9f124a39546dd50de2e04024128b14698060048201526001600160a01b038581166024830152915191909216916391d14854916044808301926020929190829003018186803b15801561104e57600080fd5b505afa158015611062573d6000803e3d6000fd5b505050506040513d602081101561107857600080fd5b505192915050565b6000546040805163c395fcb360e01b815233600482015290516001600160a01b039092169163c395fcb391602480820192602092909190829003018186803b1580156110cb57600080fd5b505afa1580156110df573d6000803e3d6000fd5b505050506040513d60208110156110f557600080fd5b505180611175575060005460408051637e271f0560e11b815233600482015290516001600160a01b039092169163fc4e3e0a91602480820192602092909190829003018186803b15801561114857600080fd5b505afa15801561115c573d6000803e3d6000fd5b505050506040513d602081101561117257600080fd5b50515b6111b05760405162461bcd60e51b8152600401808060200182810382526025815260200180611e6c6025913960400191505060405180910390fd5b6000818152600560205260409020546001600160a01b03166111d157600080fd5b600081815260056020908152604080832080546001600160a01b031981169091556001600160a01b03168084526006835281842093909355805183815291820184905280517f9c4b27a4ee95cde6444d871111211ff603accbdff0b4e96e07af9f4eba52be579281900390910190a15050565b60025481565b6000546040805163c395fcb360e01b815233600482015290516001600160a01b039092169163c395fcb391602480820192602092909190829003018186803b15801561129557600080fd5b505afa1580156112a9573d6000803e3d6000fd5b505050506040513d60208110156112bf57600080fd5b50518061133f575060005460408051637e271f0560e11b815233600482015290516001600160a01b039092169163fc4e3e0a91602480820192602092909190829003018186803b15801561131257600080fd5b505afa158015611326573d6000803e3d6000fd5b505050506040513d602081101561133c57600080fd5b50515b61137a5760405162461bcd60e51b8152600401808060200182810382526022815260200180611f096022913960400191505060405180910390fd5b60009182526007602052604090912055565b6000546040805163c395fcb360e01b815233600482015290516001600160a01b039092169163c395fcb391602480820192602092909190829003018186803b1580156113d757600080fd5b505afa1580156113eb573d6000803e3d6000fd5b505050506040513d602081101561140157600080fd5b505161143e5760405162461bcd60e51b815260040180806020018281038252602c815260200180611f58602c913960400191505060405180910390fd5b6001600160a01b03811661145157600080fd5b600a80546001600160a01b0390921661010002610100600160a81b0319909216919091179055565b600054600160a01b900460ff161561149057600080fd5b6001600160a01b0382166114d55760405162461bcd60e51b815260040180806020018281038252602c815260200180611fea602c913960400191505060405180910390fd5b6001600160a01b03831661151a5760405162461bcd60e51b8152600401808060200182810382526036815260200180611f846036913960400191505060405180910390fd5b6001600160a01b03811661155f5760405162461bcd60e51b8152600401808060200182810382526030815260200180611fba6030913960400191505060405180910390fd5b60008054600480546001600160a01b038581166001600160a01b03199283161790925560038054878416908316179055600a805460ff1916600117905560ff60a01b1991871692169190911716600160a01b1790556040805133815290517f273553a2db9d9c7afb53120e2c4a60f274686bbe8e64b350d64aaa9d6289397e9181900360200190a1505050565b6003546001600160a01b031681565b6001600160a01b0316600090815260086020526040902054610100900467ffffffffffffffff1690565b600a5461010090046001600160a01b031681565b600a5460009060ff1615611786576000546040805163c395fcb360e01b815233600482015290516001600160a01b039092169163c395fcb391602480820192602092909190829003018186803b15801561169257600080fd5b505afa1580156116a6573d6000803e3d6000fd5b505050506040513d60208110156116bc57600080fd5b50518061173c57506000546040805163099db01760e01b815233600482015290516001600160a01b039092169163099db01791602480820192602092909190829003018186803b15801561170f57600080fd5b505afa158015611723573d6000803e3d6000fd5b505050506040513d602081101561173957600080fd5b50515b8061174b575061174b33610fda565b6117865760405162461bcd60e51b815260040180806020018281038252602d815260200180611f2b602d913960400191505060405180910390fd5b61178e611e27565b506040805180820182526009546001600160801b038082168352600160801b90910463ffffffff16602080840191909152600087815260059091529290922054815191926001600160a01b03909116911634101561181d5760405162461bcd60e51b815260040180806020018281038252602b815260200180611ede602b913960400191505060405180910390fd5b6001600160a01b0381166118625760405162461bcd60e51b815260040180806020018281038252602d815260200180611e3f602d913960400191505060405180910390fd5b6000346001600160a01b038616158015906118905750600a546001600160a01b038781166101009092041614155b156118b3576103e8846020015163ffffffff168202816118ac57fe5b0491508190035b6004805460408051631f54245b60e01b81526001600160a01b0387811694820194909452600060448201819052606060248301526064820181905291519390921692631f54245b9260a4808201936020939283900390910190829087803b15801561191d57600080fd5b505af1158015611931573d6000803e3d6000fd5b505050506040513d602081101561194757600080fd5b50516040805160608101909152600181529095506020810161196889611dc8565b67ffffffffffffffff168152602001611985600180549050611b67565b6001600160801b039081169091526001600160a01b038088166000818152600860209081526040808320875181548985015199840151909816600160481b0278ffffffffffffffffffffffffffffffff0000000000000000001967ffffffffffffffff909a166101000268ffffffffffffffff001992151560ff19909a169990991791909116979097179790971695909517909555600180548082019091557fb10e2d527612073b26eecdfd717e6a320cf44b4afac2b0732d9fcbe2b7fa0cf60180546001600160a01b031916831790558b815260058552839020548351921682529151919233927f3ba8b254094e662ed7500a3ad77fd9f4f041f221a7b9f0714e3fdbf324c5d8639281900390910190a38015611add57600a546040516101009091046001600160a01b0316906108fc8315029083906000818181858888f19350505050158015611adb573d6000803e3d6000fd5b505b8115611b1b576040516001600160a01b0387169083156108fc029084906000818181858888f19350505050158015611b19573d6000803e3d6000fd5b505b5050505092915050565b600a5460ff1681565b6001600160a01b031660009081526006602052604090205490565b6009546001600160801b03811690600160801b900463ffffffff1682565b60006001600160801b03821115611bc5576040805162461bcd60e51b815260206004820152601c60248201527f426f72696e674d6174683a2075696e74313238204f766572666c6f7700000000604482015290519081900360640190fd5b5090565b600063ffffffff821115611bc5576040805162461bcd60e51b815260206004820152601b60248201527f426f72696e674d6174683a2075696e743332204f766572666c6f770000000000604482015290519081900360640190fd5b604080516001600160a01b038481166024830152306044830152606480830185905283518084039091018152608490920183526020820180516001600160e01b03166323b872dd60e01b178152925182516000946060949389169392918291908083835b60208310611ca75780518252601f199092019160209182019101611c88565b6001836020036101000a0380198251168184511680821785525050505050509050019150506000604051808303816000865af19150503d8060008114611d09576040519150601f19603f3d011682016040523d82523d6000602084013e611d0e565b606091505b5091509150818015611d3c575080511580611d3c5750808060200190516020811015611d3957600080fd5b50515b611d4557600080fd5b5050505050565b604080516001600160a01b038481166024830152604480830185905283518084039091018152606490920183526020820180516001600160e01b031663a9059cbb60e01b1781529251825160009460609493891693929182919080838360208310611ca75780518252601f199092019160209182019101611c88565b600067ffffffffffffffff821115611bc5576040805162461bcd60e51b815260206004820152601b60248201527f426f72696e674d6174683a2075696e743634204f766572666c6f770000000000604482015290519081900360640190fd5b60408051808201909152600080825260208201529056fe4d49534f4c61756e636865723a204c61756e636865722074656d706c61746520646f65736e27742065786973744d49534f4c61756e636865723a2053656e646572206d757374206265206f70657261746f724d49534f4c61756e636865723a2050657263656e74616765206973206f7574206f6620313030304d49534f4c61756e636865723a20496e636f72726563742074656d706c61746520636f6465204d49534f4c61756e636865723a204661696c656420746f207472616e73666572206d696e696d756d4665654d49534f4c61756e636865723a2053656e646572206d7573742062652061646d696e4d49534f4c61756e636865723a2053656e646572206d757374206265206d696e746572206966206c6f636b65644d49534f4c61756e636865722e7365744465763a2053656e646572206d757374206265206f70657261746f72696e69744d49534f4c61756e636865723a20616363657373436f6e74726f6c732063616e6e6f742062652073657420746f207a65726f696e69744d49534f4c61756e636865723a2062656e746f426f782063616e6e6f742062652073657420746f207a65726f696e69744d49534f4c61756e636865723a20574554482063616e6e6f742062652073657420746f207a65726fa2646970667358221220daaa66b2450f1de920fc640c5c5cce97d75b4adfae53101325910e691b7c96c464736f6c634300060c0033",
  "bytecodeSha1": "d53b346751c75ac561905b2a557331897d8cbbb6",
  "compiler": {
    "evm_version": "istanbul",
    "optimizer": {
      "enabled": true,
      "runs": 200
    },
    "version": "0.6.12+commit.27d51765"
  },
  "contractName": "MISOLauncher",
  "language": "Solidity",
  "natspec": {
    "kind": "dev",
    "methods": {
      "WETH()": {
        "notice": "Address for Wrapped Ether."
      },
      "accessControls()": {
        "notice": "Responsible for access rights to the contract."
      },
      "addLiquidityLauncherTemplate(address)": {
        "details": "Should have operator access",
        "notice": "Function to add a launcher template to create through factory.",
        "params": {
          "_template": "Launcher template address."
        }
      },
      "createLauncher(uint256,address,uint256,address,bytes)": {
        "details": "Initializes auction with the parameters passed.",
        "notice": "Creates a new MISOLauncher using _templateId.",
        "params": {
          "_data": "Data to be sent to template on Init.",
          "_integratorFeeAccount": "Address to send refferal bonus, if set.",
          "_templateId": "Id of the auction template to create.",
          "_token": "The token address to be sold.",
          "_tokenSupply": "Amount of tokens to be sold at market."
        },
        "returns": {
          "newLauncher": "Launcher address."
        }
      },
      "deployLauncher(uint256,address)": {
        "notice": "Creates a launcher corresponding to _templateId.",
        "params": {
          "_integratorFeeAccount": "Address to pay the fee to.",
          "_templateId": "Template id of the launcher to create."
        },
        "returns": {
          "launcher": " Launcher address."
        }
      },
      "getLiquidityLauncherTemplate(uint256)": {
        "notice": "Get the address based on launcher template ID.",
        "params": {
          "_templateId": "Launcher template ID."
        },
        "returns": {
          "_0": "address of the required template ID."
        }
      },
      "hasLauncherMinterRole(address)": {
        "notice": "Used to check whether an address has the minter role",
        "params": {
          "_address": "EOA or contract being checked"
        },
        "returns": {
          "_0": "bool True if the account has the role or false if it does not"
        }
      },
      "initMISOLauncher(address,address,address)": {
        "details": "Can only be initialized once.",
        "notice": "Single gateway to initialize the MISO Launcher with proper address.",
        "params": {
          "_accessControls": "Sets address to get the access controls from."
        }
      },
      "launcherFees()": {
        "notice": "Minimum fee to create a launcher through the factory."
      },
      "launcherInfo(address)": {
        "notice": "Mapping from auction created through this contract to Auction struct."
      },
      "launcherTemplateId()": {
        "notice": "Template id to track respective auction template."
      },
      "launchers(uint256)": {
        "notice": "All the launchers created using factory."
      },
      "locked()": {
        "notice": "Contract locked status. If locked, only minters can deploy"
      },
      "misoDiv()": {
        "notice": "Any donations if set are sent here."
      },
      "numberOfLiquidityLauncherContracts()": {
        "notice": "Get the total number of launchers in the contract.",
        "returns": {
          "_0": "uint256 Launcher count."
        }
      },
      "removeLiquidityLauncherTemplate(uint256)": {
        "details": "Function to remove a launcher template from factory.Should have operator access.",
        "params": {
          "_templateId": "Id of the template to be deleted."
        }
      },
      "setCurrentTemplateId(uint256,uint256)": {
        "notice": "Sets the current template ID for any type.",
        "params": {
          "_templateId": "The ID of the current template for that type",
          "_templateType": "Type of template."
        }
      },
      "setDividends(address)": {
        "notice": "Sets dividend address.",
        "params": {
          "_divaddr": "Dividend address."
        }
      },
      "setIntegratorFeePct(uint256)": {
        "notice": "Sets integrator fee percentage.",
        "params": {
          "_amount": "Percentage amount."
        }
      },
      "setLocked(bool)": {
        "notice": "Sets the factory to be locked or unlocked.",
        "params": {
          "_locked": "bool."
        }
      },
      "setMinimumFee(uint256)": {
        "notice": "Sets the minimum fee.",
        "params": {
          "_amount": "Fee amount."
        }
      }
    },
    "version": 1
  },
  "opcodes": "PUSH1 0x80 PUSH1 0x40 MSTORE PUSH1 0x4 CALLDATASIZE LT PUSH2 0x1B7 JUMPI PUSH1 0x0 CALLDATALOAD PUSH1 0xE0 SHR DUP1 PUSH4 0x86ADC322 GT PUSH2 0xEC JUMPI DUP1 PUSH4 0xAD5C4648 GT PUSH2 0x8A JUMPI DUP1 PUSH4 0xCD70F734 GT PUSH2 0x64 JUMPI DUP1 PUSH4 0xCD70F734 EQ PUSH2 0x6AA JUMPI DUP1 PUSH4 0xCF309012 EQ PUSH2 0x6D6 JUMPI DUP1 PUSH4 0xD335EBDA EQ PUSH2 0x6EB JUMPI DUP1 PUSH4 0xFCB62F90 EQ PUSH2 0x71E JUMPI PUSH2 0x1B7 JUMP JUMPDEST DUP1 PUSH4 0xAD5C4648 EQ PUSH2 0x630 JUMPI DUP1 PUSH4 0xBC79913B EQ PUSH2 0x645 JUMPI DUP1 PUSH4 0xC9907B08 EQ PUSH2 0x695 JUMPI PUSH2 0x1B7 JUMP JUMPDEST DUP1 PUSH4 0x96F1266E GT PUSH2 0xC6 JUMPI DUP1 PUSH4 0x96F1266E EQ PUSH2 0x573 JUMPI DUP1 PUSH4 0x9E5940CC EQ PUSH2 0x588 JUMPI DUP1 PUSH4 0x9E9188EA EQ PUSH2 0x5B8 JUMPI DUP1 PUSH4 0xA5F4D70F EQ PUSH2 0x5EB JUMPI PUSH2 0x1B7 JUMP JUMPDEST DUP1 PUSH4 0x86ADC322 EQ PUSH2 0x4ED JUMPI DUP1 PUSH4 0x8C363A0B EQ PUSH2 0x502 JUMPI DUP1 PUSH4 0x92787B48 EQ PUSH2 0x549 JUMPI PUSH2 0x1B7 JUMP JUMPDEST DUP1 PUSH4 0x6B2ACE87 GT PUSH2 0x159 JUMPI DUP1 PUSH4 0x70433D03 GT PUSH2 0x133 JUMPI DUP1 PUSH4 0x70433D03 EQ PUSH2 0x42B JUMPI DUP1 PUSH4 0x748365EF EQ PUSH2 0x490 JUMPI DUP1 PUSH4 0x7B7FB153 EQ PUSH2 0x4A5 JUMPI DUP1 PUSH4 0x8637E041 EQ PUSH2 0x4D8 JUMPI PUSH2 0x1B7 JUMP JUMPDEST DUP1 PUSH4 0x6B2ACE87 EQ PUSH2 0x387 JUMPI DUP1 PUSH4 0x6C4CEB36 EQ PUSH2 0x39C JUMPI DUP1 PUSH4 0x6DE88D97 EQ PUSH2 0x401 JUMPI PUSH2 0x1B7 JUMP JUMPDEST DUP1 PUSH4 0x2ED4F578 GT PUSH2 0x195 JUMPI DUP1 PUSH4 0x2ED4F578 EQ PUSH2 0x245 JUMPI DUP1 PUSH4 0x3EB63AA0 EQ PUSH2 0x281 JUMPI DUP1 PUSH4 0x3F1F44B0 EQ PUSH2 0x2C7 JUMPI DUP1 PUSH4 0x632CEF90 EQ PUSH2 0x2F1 JUMPI PUSH2 0x1B7 JUMP JUMPDEST DUP1 PUSH4 0x182A7506 EQ PUSH2 0x1BC JUMPI DUP1 PUSH4 0x1A7626E7 EQ PUSH2 0x1E8 JUMPI DUP1 PUSH4 0x211E28B6 EQ PUSH2 0x219 JUMPI JUMPDEST PUSH1 0x0 DUP1 REVERT JUMPDEST CALLVALUE DUP1 ISZERO PUSH2 0x1C8 JUMPI PUSH1 0x0 DUP1 REVERT JUMPDEST POP PUSH2 0x1E6 PUSH1 0x4 DUP1 CALLDATASIZE SUB PUSH1 0x20 DUP2 LT ISZERO PUSH2 0x1DF JUMPI PUSH1 0x0 DUP1 REVERT JUMPDEST POP CALLDATALOAD PUSH2 0x75B JUMP JUMPDEST STOP JUMPDEST CALLVALUE DUP1 ISZERO PUSH2 0x1F4 JUMPI PUSH1 0x0 DUP1 REVERT JUMPDEST POP PUSH2 0x1FD PUSH2 0x842 JUMP JUMPDEST PUSH1 0x40 DUP1 MLOAD PUSH1 0x1 PUSH1 0x1 PUSH1 0x80 SHL SUB SWAP1 SWAP3 AND DUP3 MSTORE MLOAD SWAP1 DUP2 SWAP1 SUB PUSH1 0x20 ADD SWAP1 RETURN JUMPDEST CALLVALUE DUP1 ISZERO PUSH2 0x225 JUMPI PUSH1 0x0 DUP1 REVERT JUMPDEST POP PUSH2 0x1E6 PUSH1 0x4 DUP1 CALLDATASIZE SUB PUSH1 0x20 DUP2 LT ISZERO PUSH2 0x23C JUMPI PUSH1 0x0 DUP1 REVERT JUMPDEST POP CALLDATALOAD ISZERO ISZERO PUSH2 0x851 JUMP JUMPDEST CALLVALUE DUP1 ISZERO PUSH2 0x251 JUMPI PUSH1 0x0 DUP1 REVERT JUMPDEST POP PUSH2 0x26F PUSH1 0x4 DUP1 CALLDATASIZE SUB PUSH1 0x20 DUP2 LT ISZERO PUSH2 0x268 JUMPI PUSH1 0x0 DUP1 REVERT JUMPDEST POP CALLDATALOAD PUSH2 0x916 JUMP JUMPDEST PUSH1 0x40 DUP1 MLOAD SWAP2 DUP3 MSTORE MLOAD SWAP1 DUP2 SWAP1 SUB PUSH1 0x20 ADD SWAP1 RETURN JUMPDEST CALLVALUE DUP1 ISZERO PUSH2 0x28D JUMPI PUSH1 0x0 DUP1 REVERT JUMPDEST POP PUSH2 0x2AB PUSH1 0x4 DUP1 CALLDATASIZE SUB PUSH1 0x20 DUP2 LT ISZERO PUSH2 0x2A4 JUMPI PUSH1 0x0 DUP1 REVERT JUMPDEST POP CALLDATALOAD PUSH2 0x928 JUMP JUMPDEST PUSH1 0x40 DUP1 MLOAD PUSH1 0x1 PUSH1 0x1 PUSH1 0xA0 SHL SUB SWAP1 SWAP3 AND DUP3 MSTORE MLOAD SWAP1 DUP2 SWAP1 SUB PUSH1 0x20 ADD SWAP1 RETURN JUMPDEST CALLVALUE DUP1 ISZERO PUSH2 0x2D3 JUMPI PUSH1 0x0 DUP1 REVERT JUMPDEST POP PUSH2 0x1E6 PUSH1 0x4 DUP1 CALLDATASIZE SUB PUSH1 0x20 DUP2 LT ISZERO PUSH2 0x2EA JUMPI PUSH1 0x0 DUP1 REVERT JUMPDEST POP CALLDATALOAD PUSH2 0x94F JUMP JUMPDEST PUSH2 0x2AB PUSH1 0x4 DUP1 CALLDATASIZE SUB PUSH1 0xA0 DUP2 LT ISZERO PUSH2 0x307 JUMPI PUSH1 0x0 DUP1 REVERT JUMPDEST DUP2 CALLDATALOAD SWAP2 PUSH1 0x1 PUSH1 0x1 PUSH1 0xA0 SHL SUB PUSH1 0x20 DUP3 ADD CALLDATALOAD DUP2 AND SWAP3 PUSH1 0x40 DUP4 ADD CALLDATALOAD SWAP3 PUSH1 0x60 DUP2 ADD CALLDATALOAD SWAP1 SWAP3 AND SWAP2 SWAP1 DUP2 ADD SWAP1 PUSH1 0xA0 DUP2 ADD PUSH1 0x80 DUP3 ADD CALLDATALOAD PUSH5 0x100000000 DUP2 GT ISZERO PUSH2 0x348 JUMPI PUSH1 0x0 DUP1 REVERT JUMPDEST DUP3 ADD DUP4 PUSH1 0x20 DUP3 ADD GT ISZERO PUSH2 0x35A JUMPI PUSH1 0x0 DUP1 REVERT JUMPDEST DUP1 CALLDATALOAD SWAP1 PUSH1 0x20 ADD SWAP2 DUP5 PUSH1 0x1 DUP4 MUL DUP5 ADD GT PUSH5 0x100000000 DUP4 GT OR ISZERO PUSH2 0x37C JUMPI PUSH1 0x0 DUP1 REVERT JUMPDEST POP SWAP1 SWAP3 POP SWAP1 POP PUSH2 0xA73 JUMP JUMPDEST CALLVALUE DUP1 ISZERO PUSH2 0x393 JUMPI PUSH1 0x0 DUP1 REVERT JUMPDEST POP PUSH2 0x2AB PUSH2 0xC79 JUMP JUMPDEST CALLVALUE DUP1 ISZERO PUSH2 0x3A8 JUMPI PUSH1 0x0 DUP1 REVERT JUMPDEST POP PUSH2 0x3CF PUSH1 0x4 DUP1 CALLDATASIZE SUB PUSH1 0x20 DUP2 LT ISZERO PUSH2 0x3BF JUMPI PUSH1 0x0 DUP1 REVERT JUMPDEST POP CALLDATALOAD PUSH1 0x1 PUSH1 0x1 PUSH1 0xA0 SHL SUB AND PUSH2 0xC88 JUMP JUMPDEST PUSH1 0x40 DUP1 MLOAD SWAP4 ISZERO ISZERO DUP5 MSTORE PUSH8 0xFFFFFFFFFFFFFFFF SWAP1 SWAP3 AND PUSH1 0x20 DUP5 ADD MSTORE PUSH1 0x1 PUSH1 0x1 PUSH1 0x80 SHL SUB AND DUP3 DUP3 ADD MSTORE MLOAD SWAP1 DUP2 SWAP1 SUB PUSH1 0x60 ADD SWAP1 RETURN JUMPDEST CALLVALUE DUP1 ISZERO PUSH2 0x40D JUMPI PUSH1 0x0 DUP1 REVERT JUMPDEST POP PUSH2 0x2AB PUSH1 0x4 DUP1 CALLDATASIZE SUB PUSH1 0x20 DUP2 LT ISZERO PUSH2 0x424 JUMPI PUSH1 0x0 DUP1 REVERT JUMPDEST POP CALLDATALOAD PUSH2 0xCBF JUMP JUMPDEST CALLVALUE DUP1 ISZERO PUSH2 0x437 JUMPI PUSH1 0x0 DUP1 REVERT JUMPDEST POP PUSH2 0x440 PUSH2 0xCDA JUMP JUMPDEST PUSH1 0x40 DUP1 MLOAD PUSH1 0x20 DUP1 DUP3 MSTORE DUP4 MLOAD DUP2 DUP4 ADD MSTORE DUP4 MLOAD SWAP2 SWAP3 DUP4 SWAP3 SWAP1 DUP4 ADD SWAP2 DUP6 DUP2 ADD SWAP2 MUL DUP1 DUP4 DUP4 PUSH1 0x0 JUMPDEST DUP4 DUP2 LT ISZERO PUSH2 0x47C JUMPI DUP2 DUP2 ADD MLOAD DUP4 DUP3 ADD MSTORE PUSH1 0x20 ADD PUSH2 0x464 JUMP JUMPDEST POP POP POP POP SWAP1 POP ADD SWAP3 POP POP POP PUSH1 0x40 MLOAD DUP1 SWAP2 SUB SWAP1 RETURN JUMPDEST CALLVALUE DUP1 ISZERO PUSH2 0x49C JUMPI PUSH1 0x0 DUP1 REVERT JUMPDEST POP PUSH2 0x2AB PUSH2 0xD3C JUMP JUMPDEST CALLVALUE DUP1 ISZERO PUSH2 0x4B1 JUMPI PUSH1 0x0 DUP1 REVERT JUMPDEST POP PUSH2 0x1E6 PUSH1 0x4 DUP1 CALLDATASIZE SUB PUSH1 0x20 DUP2 LT ISZERO PUSH2 0x4C8 JUMPI PUSH1 0x0 DUP1 REVERT JUMPDEST POP CALLDATALOAD PUSH1 0x1 PUSH1 0x1 PUSH1 0xA0 SHL SUB AND PUSH2 0xD4B JUMP JUMPDEST CALLVALUE DUP1 ISZERO PUSH2 0x4E4 JUMPI PUSH1 0x0 DUP1 REVERT JUMPDEST POP PUSH2 0x26F PUSH2 0xFB0 JUMP JUMPDEST CALLVALUE DUP1 ISZERO PUSH2 0x4F9 JUMPI PUSH1 0x0 DUP1 REVERT JUMPDEST POP PUSH2 0x26F PUSH2 0xFD4 JUMP JUMPDEST CALLVALUE DUP1 ISZERO PUSH2 0x50E JUMPI PUSH1 0x0 DUP1 REVERT JUMPDEST POP PUSH2 0x535 PUSH1 0x4 DUP1 CALLDATASIZE SUB PUSH1 0x20 DUP2 LT ISZERO PUSH2 0x525 JUMPI PUSH1 0x0 DUP1 REVERT JUMPDEST POP CALLDATALOAD PUSH1 0x1 PUSH1 0x1 PUSH1 0xA0 SHL SUB AND PUSH2 0xFDA JUMP JUMPDEST PUSH1 0x40 DUP1 MLOAD SWAP2 ISZERO ISZERO DUP3 MSTORE MLOAD SWAP1 DUP2 SWAP1 SUB PUSH1 0x20 ADD SWAP1 RETURN JUMPDEST CALLVALUE DUP1 ISZERO PUSH2 0x555 JUMPI PUSH1 0x0 DUP1 REVERT JUMPDEST POP PUSH2 0x1E6 PUSH1 0x4 DUP1 CALLDATASIZE SUB PUSH1 0x20 DUP2 LT ISZERO PUSH2 0x56C JUMPI PUSH1 0x0 DUP1 REVERT JUMPDEST POP CALLDATALOAD PUSH2 0x1080 JUMP JUMPDEST CALLVALUE DUP1 ISZERO PUSH2 0x57F JUMPI PUSH1 0x0 DUP1 REVERT JUMPDEST POP PUSH2 0x26F PUSH2 0x1244 JUMP JUMPDEST CALLVALUE DUP1 ISZERO PUSH2 0x594 JUMPI PUSH1 0x0 DUP1 REVERT JUMPDEST POP PUSH2 0x1E6 PUSH1 0x4 DUP1 CALLDATASIZE SUB PUSH1 0x40 DUP2 LT ISZERO PUSH2 0x5AB JUMPI PUSH1 0x0 DUP1 REVERT JUMPDEST POP DUP1 CALLDATALOAD SWAP1 PUSH1 0x20 ADD CALLDATALOAD PUSH2 0x124A JUMP JUMPDEST CALLVALUE DUP1 ISZERO PUSH2 0x5C4 JUMPI PUSH1 0x0 DUP1 REVERT JUMPDEST POP PUSH2 0x1E6 PUSH1 0x4 DUP1 CALLDATASIZE SUB PUSH1 0x20 DUP2 LT ISZERO PUSH2 0x5DB JUMPI PUSH1 0x0 DUP1 REVERT JUMPDEST POP CALLDATALOAD PUSH1 0x1 PUSH1 0x1 PUSH1 0xA0 SHL SUB AND PUSH2 0x138C JUMP JUMPDEST CALLVALUE DUP1 ISZERO PUSH2 0x5F7 JUMPI PUSH1 0x0 DUP1 REVERT JUMPDEST POP PUSH2 0x1E6 PUSH1 0x4 DUP1 CALLDATASIZE SUB PUSH1 0x60 DUP2 LT ISZERO PUSH2 0x60E JUMPI PUSH1 0x0 DUP1 REVERT JUMPDEST POP PUSH1 0x1 PUSH1 0x1 PUSH1 0xA0 SHL SUB DUP2 CALLDATALOAD DUP2 AND SWAP2 PUSH1 0x20 DUP2 ADD CALLDATALOAD DUP3 AND SWAP2 PUSH1 0x40 SWAP1 SWAP2 ADD CALLDATALOAD AND PUSH2 0x1479 JUMP JUMPDEST CALLVALUE DUP1 ISZERO PUSH2 0x63C JUMPI PUSH1 0x0 DUP1 REVERT JUMPDEST POP PUSH2 0x2AB PUSH2 0x15EC JUMP JUMPDEST CALLVALUE DUP1 ISZERO PUSH2 0x651 JUMPI PUSH1 0x0 DUP1 REVERT JUMPDEST POP PUSH2 0x678 PUSH1 0x4 DUP1 CALLDATASIZE SUB PUSH1 0x20 DUP2 LT ISZERO PUSH2 0x668 JUMPI PUSH1 0x0 DUP1 REVERT JUMPDEST POP CALLDATALOAD PUSH1 0x1 PUSH1 0x1 PUSH1 0xA0 SHL SUB AND PUSH2 0x15FB JUMP JUMPDEST PUSH1 0x40 DUP1 MLOAD PUSH8 0xFFFFFFFFFFFFFFFF SWAP1 SWAP3 AND DUP3 MSTORE MLOAD SWAP1 DUP2 SWAP1 SUB PUSH1 0x20 ADD SWAP1 RETURN JUMPDEST CALLVALUE DUP1 ISZERO PUSH2 0x6A1 JUMPI PUSH1 0x0 DUP1 REVERT JUMPDEST POP PUSH2 0x2AB PUSH2 0x1625 JUMP JUMPDEST PUSH2 0x2AB PUSH1 0x4 DUP1 CALLDATASIZE SUB PUSH1 0x40 DUP2 LT ISZERO PUSH2 0x6C0 JUMPI PUSH1 0x0 DUP1 REVERT JUMPDEST POP DUP1 CALLDATALOAD SWAP1 PUSH1 0x20 ADD CALLDATALOAD PUSH1 0x1 PUSH1 0x1 PUSH1 0xA0 SHL SUB AND PUSH2 0x1639 JUMP JUMPDEST CALLVALUE DUP1 ISZERO PUSH2 0x6E2 JUMPI PUSH1 0x0 DUP1 REVERT JUMPDEST POP PUSH2 0x535 PUSH2 0x1B25 JUMP JUMPDEST CALLVALUE DUP1 ISZERO PUSH2 0x6F7 JUMPI PUSH1 0x0 DUP1 REVERT JUMPDEST POP PUSH2 0x26F PUSH1 0x4 DUP1 CALLDATASIZE SUB PUSH1 0x20 DUP2 LT ISZERO PUSH2 0x70E JUMPI PUSH1 0x0 DUP1 REVERT JUMPDEST POP CALLDATALOAD PUSH1 0x1 PUSH1 0x1 PUSH1 0xA0 SHL SUB AND PUSH2 0x1B2E JUMP JUMPDEST CALLVALUE DUP1 ISZERO PUSH2 0x72A JUMPI PUSH1 0x0 DUP1 REVERT JUMPDEST POP PUSH2 0x733 PUSH2 0x1B49 JUMP JUMPDEST PUSH1 0x40 DUP1 MLOAD PUSH1 0x1 PUSH1 0x1 PUSH1 0x80 SHL SUB SWAP1 SWAP4 AND DUP4 MSTORE PUSH4 0xFFFFFFFF SWAP1 SWAP2 AND PUSH1 0x20 DUP4 ADD MSTORE DUP1 MLOAD SWAP2 DUP3 SWAP1 SUB ADD SWAP1 RETURN JUMPDEST PUSH1 0x0 SLOAD PUSH1 0x40 DUP1 MLOAD PUSH4 0xC395FCB3 PUSH1 0xE0 SHL DUP2 MSTORE CALLER PUSH1 0x4 DUP3 ADD MSTORE SWAP1 MLOAD PUSH1 0x1 PUSH1 0x1 PUSH1 0xA0 SHL SUB SWAP1 SWAP3 AND SWAP2 PUSH4 0xC395FCB3 SWAP2 PUSH1 0x24 DUP1 DUP3 ADD SWAP3 PUSH1 0x20 SWAP3 SWAP1 SWAP2 SWAP1 DUP3 SWAP1 SUB ADD DUP2 DUP7 DUP1 EXTCODESIZE ISZERO DUP1 ISZERO PUSH2 0x7A6 JUMPI PUSH1 0x0 DUP1 REVERT JUMPDEST POP GAS STATICCALL ISZERO DUP1 ISZERO PUSH2 0x7BA JUMPI RETURNDATASIZE PUSH1 0x0 DUP1 RETURNDATACOPY RETURNDATASIZE PUSH1 0x0 REVERT JUMPDEST POP POP POP POP PUSH1 0x40 MLOAD RETURNDATASIZE PUSH1 0x20 DUP2 LT ISZERO PUSH2 0x7D0 JUMPI PUSH1 0x0 DUP1 REVERT JUMPDEST POP MLOAD PUSH2 0x80D JUMPI PUSH1 0x40 MLOAD PUSH3 0x461BCD PUSH1 0xE5 SHL DUP2 MSTORE PUSH1 0x4 ADD DUP1 DUP1 PUSH1 0x20 ADD DUP3 DUP2 SUB DUP3 MSTORE PUSH1 0x25 DUP2 MSTORE PUSH1 0x20 ADD DUP1 PUSH2 0x1E6C PUSH1 0x25 SWAP2 CODECOPY PUSH1 0x40 ADD SWAP2 POP POP PUSH1 0x40 MLOAD DUP1 SWAP2 SUB SWAP1 REVERT JUMPDEST PUSH2 0x816 DUP2 PUSH2 0x1B67 JUMP JUMPDEST PUSH1 0x9 DUP1 SLOAD PUSH16 0xFFFFFFFFFFFFFFFFFFFFFFFFFFFFFFFF NOT AND PUSH1 0x1 PUSH1 0x1 PUSH1 0x80 SHL SUB SWAP3 SWAP1 SWAP3 AND SWAP2 SWAP1 SWAP2 OR SWAP1 SSTORE POP JUMP JUMPDEST PUSH1 0x9 SLOAD PUSH1 0x1 PUSH1 0x1 PUSH1 0x80 SHL SUB AND SWAP1 JUMP JUMPDEST PUSH1 0x0 SLOAD PUSH1 0x40 DUP1 MLOAD PUSH4 0xC395FCB3 PUSH1 0xE0 SHL DUP2 MSTORE CALLER PUSH1 0x4 DUP3 ADD MSTORE SWAP1 MLOAD PUSH1 0x1 PUSH1 0x1 PUSH1 0xA0 SHL SUB SWAP1 SWAP3 AND SWAP2 PUSH4 0xC395FCB3 SWAP2 PUSH1 0x24 DUP1 DUP3 ADD SWAP3 PUSH1 0x20 SWAP3 SWAP1 SWAP2 SWAP1 DUP3 SWAP1 SUB ADD DUP2 DUP7 DUP1 EXTCODESIZE ISZERO DUP1 ISZERO PUSH2 0x89C JUMPI PUSH1 0x0 DUP1 REVERT JUMPDEST POP GAS STATICCALL ISZERO DUP1 ISZERO PUSH2 0x8B0 JUMPI RETURNDATASIZE PUSH1 0x0 DUP1 RETURNDATACOPY RETURNDATASIZE PUSH1 0x0 REVERT JUMPDEST POP POP POP POP PUSH1 0x40 MLOAD RETURNDATASIZE PUSH1 0x20 DUP2 LT ISZERO PUSH2 0x8C6 JUMPI PUSH1 0x0 DUP1 REVERT JUMPDEST POP MLOAD PUSH2 0x903 JUMPI PUSH1 0x40 MLOAD PUSH3 0x461BCD PUSH1 0xE5 SHL DUP2 MSTORE PUSH1 0x4 ADD DUP1 DUP1 PUSH1 0x20 ADD DUP3 DUP2 SUB DUP3 MSTORE PUSH1 0x22 DUP2 MSTORE PUSH1 0x20 ADD DUP1 PUSH2 0x1F09 PUSH1 0x22 SWAP2 CODECOPY PUSH1 0x40 ADD SWAP2 POP POP PUSH1 0x40 MLOAD DUP1 SWAP2 SUB SWAP1 REVERT JUMPDEST PUSH1 0xA DUP1 SLOAD PUSH1 0xFF NOT AND SWAP2 ISZERO ISZERO SWAP2 SWAP1 SWAP2 OR SWAP1 SSTORE JUMP JUMPDEST PUSH1 0x7 PUSH1 0x20 MSTORE PUSH1 0x0 SWAP1 DUP2 MSTORE PUSH1 0x40 SWAP1 KECCAK256 SLOAD DUP2 JUMP JUMPDEST PUSH1 0x1 DUP2 DUP2 SLOAD DUP2 LT PUSH2 0x935 JUMPI INVALID JUMPDEST PUSH1 0x0 SWAP2 DUP3 MSTORE PUSH1 0x20 SWAP1 SWAP2 KECCAK256 ADD SLOAD PUSH1 0x1 PUSH1 0x1 PUSH1 0xA0 SHL SUB AND SWAP1 POP DUP2 JUMP JUMPDEST PUSH1 0x0 SLOAD PUSH1 0x40 DUP1 MLOAD PUSH4 0xC395FCB3 PUSH1 0xE0 SHL DUP2 MSTORE CALLER PUSH1 0x4 DUP3 ADD MSTORE SWAP1 MLOAD PUSH1 0x1 PUSH1 0x1 PUSH1 0xA0 SHL SUB SWAP1 SWAP3 AND SWAP2 PUSH4 0xC395FCB3 SWAP2 PUSH1 0x24 DUP1 DUP3 ADD SWAP3 PUSH1 0x20 SWAP3 SWAP1 SWAP2 SWAP1 DUP3 SWAP1 SUB ADD DUP2 DUP7 DUP1 EXTCODESIZE ISZERO DUP1 ISZERO PUSH2 0x99A JUMPI PUSH1 0x0 DUP1 REVERT JUMPDEST POP GAS STATICCALL ISZERO DUP1 ISZERO PUSH2 0x9AE JUMPI RETURNDATASIZE PUSH1 0x0 DUP1 RETURNDATACOPY RETURNDATASIZE PUSH1 0x0 REVERT JUMPDEST POP POP POP POP PUSH1 0x40 MLOAD RETURNDATASIZE PUSH1 0x20 DUP2 LT ISZERO PUSH2 0x9C4 JUMPI PUSH1 0x0 DUP1 REVERT JUMPDEST POP MLOAD PUSH2 0xA01 JUMPI PUSH1 0x40 MLOAD PUSH3 0x461BCD PUSH1 0xE5 SHL DUP2 MSTORE PUSH1 0x4 ADD DUP1 DUP1 PUSH1 0x20 ADD DUP3 DUP2 SUB DUP3 MSTORE PUSH1 0x25 DUP2 MSTORE PUSH1 0x20 ADD DUP1 PUSH2 0x1E6C PUSH1 0x25 SWAP2 CODECOPY PUSH1 0x40 ADD SWAP2 POP POP PUSH1 0x40 MLOAD DUP1 SWAP2 SUB SWAP1 REVERT JUMPDEST PUSH2 0x3E8 DUP2 GT ISZERO PUSH2 0xA42 JUMPI PUSH1 0x40 MLOAD PUSH3 0x461BCD PUSH1 0xE5 SHL DUP2 MSTORE PUSH1 0x4 ADD DUP1 DUP1 PUSH1 0x20 ADD DUP3 DUP2 SUB DUP3 MSTORE PUSH1 0x27 DUP2 MSTORE PUSH1 0x20 ADD DUP1 PUSH2 0x1E91 PUSH1 0x27 SWAP2 CODECOPY PUSH1 0x40 ADD SWAP2 POP POP PUSH1 0x40 MLOAD DUP1 SWAP2 SUB SWAP1 REVERT JUMPDEST PUSH2 0xA4B DUP2 PUSH2 0x1BC9 JUMP JUMPDEST PUSH1 0x9 DUP1 SLOAD PUSH4 0xFFFFFFFF SWAP3 SWAP1 SWAP3 AND PUSH1 0x1 PUSH1 0x80 SHL MUL PUSH4 0xFFFFFFFF PUSH1 0x80 SHL NOT SWAP1 SWAP3 AND SWAP2 SWAP1 SWAP2 OR SWAP1 SSTORE POP JUMP JUMPDEST PUSH1 0x0 PUSH2 0xA7F DUP8 DUP6 PUSH2 0x1639 JUMP JUMPDEST SWAP1 POP DUP5 ISZERO PUSH2 0xB4A JUMPI PUSH2 0xA92 DUP7 CALLER DUP8 PUSH2 0x1C24 JUMP JUMPDEST DUP6 PUSH1 0x1 PUSH1 0x1 PUSH1 0xA0 SHL SUB AND PUSH4 0x95EA7B3 DUP3 DUP8 PUSH1 0x40 MLOAD DUP4 PUSH4 0xFFFFFFFF AND PUSH1 0xE0 SHL DUP2 MSTORE PUSH1 0x4 ADD DUP1 DUP4 PUSH1 0x1 PUSH1 0x1 PUSH1 0xA0 SHL SUB AND DUP2 MSTORE PUSH1 0x20 ADD DUP3 DUP2 MSTORE PUSH1 0x20 ADD SWAP3 POP POP POP PUSH1 0x20 PUSH1 0x40 MLOAD DUP1 DUP4 SUB DUP2 PUSH1 0x0 DUP8 DUP1 EXTCODESIZE ISZERO DUP1 ISZERO PUSH2 0xAE9 JUMPI PUSH1 0x0 DUP1 REVERT JUMPDEST POP GAS CALL ISZERO DUP1 ISZERO PUSH2 0xAFD JUMPI RETURNDATASIZE PUSH1 0x0 DUP1 RETURNDATACOPY RETURNDATASIZE PUSH1 0x0 REVERT JUMPDEST POP POP POP POP PUSH1 0x40 MLOAD RETURNDATASIZE PUSH1 0x20 DUP2 LT ISZERO PUSH2 0xB13 JUMPI PUSH1 0x0 DUP1 REVERT JUMPDEST POP MLOAD PUSH2 0xB4A JUMPI PUSH1 0x40 DUP1 MLOAD PUSH3 0x461BCD PUSH1 0xE5 SHL DUP2 MSTORE PUSH1 0x20 PUSH1 0x4 DUP3 ADD MSTORE PUSH1 0x1 PUSH1 0x24 DUP3 ADD MSTORE PUSH1 0x31 PUSH1 0xF8 SHL PUSH1 0x44 DUP3 ADD MSTORE SWAP1 MLOAD SWAP1 DUP2 SWAP1 SUB PUSH1 0x64 ADD SWAP1 REVERT JUMPDEST PUSH1 0x40 MLOAD PUSH4 0x7C17E467 PUSH1 0xE1 SHL DUP2 MSTORE PUSH1 0x20 PUSH1 0x4 DUP3 ADD SWAP1 DUP2 MSTORE PUSH1 0x24 DUP3 ADD DUP5 SWAP1 MSTORE PUSH1 0x1 PUSH1 0x1 PUSH1 0xA0 SHL SUB DUP4 AND SWAP2 PUSH4 0xF82FC8CE SWAP2 DUP7 SWAP2 DUP7 SWAP2 SWAP1 DUP2 SWAP1 PUSH1 0x44 ADD DUP5 DUP5 DUP1 DUP3 DUP5 CALLDATACOPY PUSH1 0x0 DUP2 DUP5 ADD MSTORE PUSH1 0x1F NOT PUSH1 0x1F DUP3 ADD AND SWAP1 POP DUP1 DUP4 ADD SWAP3 POP POP POP SWAP4 POP POP POP POP PUSH1 0x0 PUSH1 0x40 MLOAD DUP1 DUP4 SUB DUP2 PUSH1 0x0 DUP8 DUP1 EXTCODESIZE ISZERO DUP1 ISZERO PUSH2 0xBBE JUMPI PUSH1 0x0 DUP1 REVERT JUMPDEST POP GAS CALL ISZERO DUP1 ISZERO PUSH2 0xBD2 JUMPI RETURNDATASIZE PUSH1 0x0 DUP1 RETURNDATACOPY RETURNDATASIZE PUSH1 0x0 REVERT JUMPDEST POP POP POP POP PUSH1 0x0 DUP6 GT ISZERO PUSH2 0xC6F JUMPI PUSH1 0x0 DUP7 PUSH1 0x1 PUSH1 0x1 PUSH1 0xA0 SHL SUB AND PUSH4 0x70A08231 ADDRESS PUSH1 0x40 MLOAD DUP3 PUSH4 0xFFFFFFFF AND PUSH1 0xE0 SHL DUP2 MSTORE PUSH1 0x4 ADD DUP1 DUP3 PUSH1 0x1 PUSH1 0x1 PUSH1 0xA0 SHL SUB AND DUP2 MSTORE PUSH1 0x20 ADD SWAP2 POP POP PUSH1 0x20 PUSH1 0x40 MLOAD DUP1 DUP4 SUB DUP2 DUP7 DUP1 EXTCODESIZE ISZERO DUP1 ISZERO PUSH2 0xC2E JUMPI PUSH1 0x0 DUP1 REVERT JUMPDEST POP GAS STATICCALL ISZERO DUP1 ISZERO PUSH2 0xC42 JUMPI RETURNDATASIZE PUSH1 0x0 DUP1 RETURNDATACOPY RETURNDATASIZE PUSH1 0x0 REVERT JUMPDEST POP POP POP POP PUSH1 0x40 MLOAD RETURNDATASIZE PUSH1 0x20 DUP2 LT ISZERO PUSH2 0xC58 JUMPI PUSH1 0x0 DUP1 REVERT JUMPDEST POP MLOAD SWAP1 POP DUP1 ISZERO PUSH2 0xC6D JUMPI PUSH2 0xC6D DUP8 CALLER DUP4 PUSH2 0x1D4C JUMP JUMPDEST POP JUMPDEST SWAP7 SWAP6 POP POP POP POP POP POP JUMP JUMPDEST PUSH1 0x4 SLOAD PUSH1 0x1 PUSH1 0x1 PUSH1 0xA0 SHL SUB AND DUP2 JUMP JUMPDEST PUSH1 0x8 PUSH1 0x20 MSTORE PUSH1 0x0 SWAP1 DUP2 MSTORE PUSH1 0x40 SWAP1 KECCAK256 SLOAD PUSH1 0xFF DUP2 AND SWAP1 PUSH2 0x100 DUP2 DIV PUSH8 0xFFFFFFFFFFFFFFFF AND SWAP1 PUSH1 0x1 PUSH1 0x48 SHL SWAP1 DIV PUSH1 0x1 PUSH1 0x1 PUSH1 0x80 SHL SUB AND DUP4 JUMP JUMPDEST PUSH1 0x0 SWAP1 DUP2 MSTORE PUSH1 0x5 PUSH1 0x20 MSTORE PUSH1 0x40 SWAP1 KECCAK256 SLOAD PUSH1 0x1 PUSH1 0x1 PUSH1 0xA0 SHL SUB AND SWAP1 JUMP JUMPDEST PUSH1 0x60 PUSH1 0x1 DUP1 SLOAD DUP1 PUSH1 0x20 MUL PUSH1 0x20 ADD PUSH1 0x40 MLOAD SWAP1 DUP2 ADD PUSH1 0x40 MSTORE DUP1 SWAP3 SWAP2 SWAP1 DUP2 DUP2 MSTORE PUSH1 0x20 ADD DUP3 DUP1 SLOAD DUP1 ISZERO PUSH2 0xD32 JUMPI PUSH1 0x20 MUL DUP3 ADD SWAP2 SWAP1 PUSH1 0x0 MSTORE PUSH1 0x20 PUSH1 0x0 KECCAK256 SWAP1 JUMPDEST DUP2 SLOAD PUSH1 0x1 PUSH1 0x1 PUSH1 0xA0 SHL SUB AND DUP2 MSTORE PUSH1 0x1 SWAP1 SWAP2 ADD SWAP1 PUSH1 0x20 ADD DUP1 DUP4 GT PUSH2 0xD14 JUMPI JUMPDEST POP POP POP POP POP SWAP1 POP SWAP1 JUMP JUMPDEST PUSH1 0x0 SLOAD PUSH1 0x1 PUSH1 0x1 PUSH1 0xA0 SHL SUB AND DUP2 JUMP JUMPDEST PUSH1 0x0 SLOAD PUSH1 0x40 DUP1 MLOAD PUSH4 0xC395FCB3 PUSH1 0xE0 SHL DUP2 MSTORE CALLER PUSH1 0x4 DUP3 ADD MSTORE SWAP1 MLOAD PUSH1 0x1 PUSH1 0x1 PUSH1 0xA0 SHL SUB SWAP1 SWAP3 AND SWAP2 PUSH4 0xC395FCB3 SWAP2 PUSH1 0x24 DUP1 DUP3 ADD SWAP3 PUSH1 0x20 SWAP3 SWAP1 SWAP2 SWAP1 DUP3 SWAP1 SUB ADD DUP2 DUP7 DUP1 EXTCODESIZE ISZERO DUP1 ISZERO PUSH2 0xD96 JUMPI PUSH1 0x0 DUP1 REVERT JUMPDEST POP GAS STATICCALL ISZERO DUP1 ISZERO PUSH2 0xDAA JUMPI RETURNDATASIZE PUSH1 0x0 DUP1 RETURNDATACOPY RETURNDATASIZE PUSH1 0x0 REVERT JUMPDEST POP POP POP POP PUSH1 0x40 MLOAD RETURNDATASIZE PUSH1 0x20 DUP2 LT ISZERO PUSH2 0xDC0 JUMPI PUSH1 0x0 DUP1 REVERT JUMPDEST POP MLOAD DUP1 PUSH2 0xE40 JUMPI POP PUSH1 0x0 SLOAD PUSH1 0x40 DUP1 MLOAD PUSH4 0x7E271F05 PUSH1 0xE1 SHL DUP2 MSTORE CALLER PUSH1 0x4 DUP3 ADD MSTORE SWAP1 MLOAD PUSH1 0x1 PUSH1 0x1 PUSH1 0xA0 SHL SUB SWAP1 SWAP3 AND SWAP2 PUSH4 0xFC4E3E0A SWAP2 PUSH1 0x24 DUP1 DUP3 ADD SWAP3 PUSH1 0x20 SWAP3 SWAP1 SWAP2 SWAP1 DUP3 SWAP1 SUB ADD DUP2 DUP7 DUP1 EXTCODESIZE ISZERO DUP1 ISZERO PUSH2 0xE13 JUMPI PUSH1 0x0 DUP1 REVERT JUMPDEST POP GAS STATICCALL ISZERO DUP1 ISZERO PUSH2 0xE27 JUMPI RETURNDATASIZE PUSH1 0x0 DUP1 RETURNDATACOPY RETURNDATASIZE PUSH1 0x0 REVERT JUMPDEST POP POP POP POP PUSH1 0x40 MLOAD RETURNDATASIZE PUSH1 0x20 DUP2 LT ISZERO PUSH2 0xE3D JUMPI PUSH1 0x0 DUP1 REVERT JUMPDEST POP MLOAD JUMPDEST PUSH2 0xE7B JUMPI PUSH1 0x40 MLOAD PUSH3 0x461BCD PUSH1 0xE5 SHL DUP2 MSTORE PUSH1 0x4 ADD DUP1 DUP1 PUSH1 0x20 ADD DUP3 DUP2 SUB DUP3 MSTORE PUSH1 0x25 DUP2 MSTORE PUSH1 0x20 ADD DUP1 PUSH2 0x1E6C PUSH1 0x25 SWAP2 CODECOPY PUSH1 0x40 ADD SWAP2 POP POP PUSH1 0x40 MLOAD DUP1 SWAP2 SUB SWAP1 REVERT JUMPDEST PUSH1 0x0 DUP2 PUSH1 0x1 PUSH1 0x1 PUSH1 0xA0 SHL SUB AND PUSH4 0x8566DE4B PUSH1 0x40 MLOAD DUP2 PUSH4 0xFFFFFFFF AND PUSH1 0xE0 SHL DUP2 MSTORE PUSH1 0x4 ADD PUSH1 0x20 PUSH1 0x40 MLOAD DUP1 DUP4 SUB DUP2 DUP7 DUP1 EXTCODESIZE ISZERO DUP1 ISZERO PUSH2 0xEB6 JUMPI PUSH1 0x0 DUP1 REVERT JUMPDEST POP GAS STATICCALL ISZERO DUP1 ISZERO PUSH2 0xECA JUMPI RETURNDATASIZE PUSH1 0x0 DUP1 RETURNDATACOPY RETURNDATASIZE PUSH1 0x0 REVERT JUMPDEST POP POP POP POP PUSH1 0x40 MLOAD RETURNDATASIZE PUSH1 0x20 DUP2 LT ISZERO PUSH2 0xEE0 JUMPI PUSH1 0x0 DUP1 REVERT JUMPDEST POP MLOAD SWAP1 POP DUP1 PUSH2 0xF20 JUMPI PUSH1 0x40 MLOAD PUSH3 0x461BCD PUSH1 0xE5 SHL DUP2 MSTORE PUSH1 0x4 ADD DUP1 DUP1 PUSH1 0x20 ADD DUP3 DUP2 SUB DUP3 MSTORE PUSH1 0x26 DUP2 MSTORE PUSH1 0x20 ADD DUP1 PUSH2 0x1EB8 PUSH1 0x26 SWAP2 CODECOPY PUSH1 0x40 ADD SWAP2 POP POP PUSH1 0x40 MLOAD DUP1 SWAP2 SUB SWAP1 REVERT JUMPDEST PUSH1 0x2 DUP1 SLOAD PUSH1 0x1 ADD DUP1 DUP3 SSTORE PUSH1 0x0 SWAP1 DUP2 MSTORE PUSH1 0x5 PUSH1 0x20 SWAP1 DUP2 MSTORE PUSH1 0x40 DUP1 DUP4 KECCAK256 DUP1 SLOAD PUSH1 0x1 PUSH1 0x1 PUSH1 0xA0 SHL SUB NOT AND PUSH1 0x1 PUSH1 0x1 PUSH1 0xA0 SHL SUB DUP9 AND SWAP1 DUP2 OR SWAP1 SWAP2 SSTORE SWAP4 SLOAD DUP5 DUP5 MSTORE PUSH1 0x6 DUP4 MSTORE DUP2 DUP5 KECCAK256 DUP2 SWAP1 SSTORE DUP6 DUP5 MSTORE PUSH1 0x7 DUP4 MSTORE SWAP3 DUP2 SWAP1 KECCAK256 DUP4 SWAP1 SSTORE DUP1 MLOAD SWAP4 DUP5 MSTORE SWAP1 DUP4 ADD SWAP2 SWAP1 SWAP2 MSTORE DUP1 MLOAD PUSH32 0x6C52E34DB307A16709B387D61B2DE0B4DD4A2EF6FD68B04B5515EF00A533B18F SWAP3 DUP2 SWAP1 SUB SWAP1 SWAP2 ADD SWAP1 LOG1 POP POP JUMP JUMPDEST PUSH32 0xCEB69DF9DD42F6C115645AD1E6AC8C9F124A39546DD50DE2E04024128B146980 DUP2 JUMP JUMPDEST PUSH1 0x1 SLOAD SWAP1 JUMP JUMPDEST PUSH1 0x0 DUP1 SLOAD PUSH1 0x40 DUP1 MLOAD PUSH4 0x24745215 PUSH1 0xE2 SHL DUP2 MSTORE PUSH32 0xCEB69DF9DD42F6C115645AD1E6AC8C9F124A39546DD50DE2E04024128B146980 PUSH1 0x4 DUP3 ADD MSTORE PUSH1 0x1 PUSH1 0x1 PUSH1 0xA0 SHL SUB DUP6 DUP2 AND PUSH1 0x24 DUP4 ADD MSTORE SWAP2 MLOAD SWAP2 SWAP1 SWAP3 AND SWAP2 PUSH4 0x91D14854 SWAP2 PUSH1 0x44 DUP1 DUP4 ADD SWAP3 PUSH1 0x20 SWAP3 SWAP2 SWAP1 DUP3 SWAP1 SUB ADD DUP2 DUP7 DUP1 EXTCODESIZE ISZERO DUP1 ISZERO PUSH2 0x104E JUMPI PUSH1 0x0 DUP1 REVERT JUMPDEST POP GAS STATICCALL ISZERO DUP1 ISZERO PUSH2 0x1062 JUMPI RETURNDATASIZE PUSH1 0x0 DUP1 RETURNDATACOPY RETURNDATASIZE PUSH1 0x0 REVERT JUMPDEST POP POP POP POP PUSH1 0x40 MLOAD RETURNDATASIZE PUSH1 0x20 DUP2 LT ISZERO PUSH2 0x1078 JUMPI PUSH1 0x0 DUP1 REVERT JUMPDEST POP MLOAD SWAP3 SWAP2 POP POP JUMP JUMPDEST PUSH1 0x0 SLOAD PUSH1 0x40 DUP1 MLOAD PUSH4 0xC395FCB3 PUSH1 0xE0 SHL DUP2 MSTORE CALLER PUSH1 0x4 DUP3 ADD MSTORE SWAP1 MLOAD PUSH1 0x1 PUSH1 0x1 PUSH1 0xA0 SHL SUB SWAP1 SWAP3 AND SWAP2 PUSH4 0xC395FCB3 SWAP2 PUSH1 0x24 DUP1 DUP3 ADD SWAP3 PUSH1 0x20 SWAP3 SWAP1 SWAP2 SWAP1 DUP3 SWAP1 SUB ADD DUP2 DUP7 DUP1 EXTCODESIZE ISZERO DUP1 ISZERO PUSH2 0x10CB JUMPI PUSH1 0x0 DUP1 REVERT JUMPDEST POP GAS STATICCALL ISZERO DUP1 ISZERO PUSH2 0x10DF JUMPI RETURNDATASIZE PUSH1 0x0 DUP1 RETURNDATACOPY RETURNDATASIZE PUSH1 0x0 REVERT JUMPDEST POP POP POP POP PUSH1 0x40 MLOAD RETURNDATASIZE PUSH1 0x20 DUP2 LT ISZERO PUSH2 0x10F5 JUMPI PUSH1 0x0 DUP1 REVERT JUMPDEST POP MLOAD DUP1 PUSH2 0x1175 JUMPI POP PUSH1 0x0 SLOAD PUSH1 0x40 DUP1 MLOAD PUSH4 0x7E271F05 PUSH1 0xE1 SHL DUP2 MSTORE CALLER PUSH1 0x4 DUP3 ADD MSTORE SWAP1 MLOAD PUSH1 0x1 PUSH1 0x1 PUSH1 0xA0 SHL SUB SWAP1 SWAP3 AND SWAP2 PUSH4 0xFC4E3E0A SWAP2 PUSH1 0x24 DUP1 DUP3 ADD SWAP3 PUSH1 0x20 SWAP3 SWAP1 SWAP2 SWAP1 DUP3 SWAP1 SUB ADD DUP2 DUP7 DUP1 EXTCODESIZE ISZERO DUP1 ISZERO PUSH2 0x1148 JUMPI PUSH1 0x0 DUP1 REVERT JUMPDEST POP GAS STATICCALL ISZERO DUP1 ISZERO PUSH2 0x115C JUMPI RETURNDATASIZE PUSH1 0x0 DUP1 RETURNDATACOPY RETURNDATASIZE PUSH1 0x0 REVERT JUMPDEST POP POP POP POP PUSH1 0x40 MLOAD RETURNDATASIZE PUSH1 0x20 DUP2 LT ISZERO PUSH2 0x1172 JUMPI PUSH1 0x0 DUP1 REVERT JUMPDEST POP MLOAD JUMPDEST PUSH2 0x11B0 JUMPI PUSH1 0x40 MLOAD PUSH3 0x461BCD PUSH1 0xE5 SHL DUP2 MSTORE PUSH1 0x4 ADD DUP1 DUP1 PUSH1 0x20 ADD DUP3 DUP2 SUB DUP3 MSTORE PUSH1 0x25 DUP2 MSTORE PUSH1 0x20 ADD DUP1 PUSH2 0x1E6C PUSH1 0x25 SWAP2 CODECOPY PUSH1 0x40 ADD SWAP2 POP POP PUSH1 0x40 MLOAD DUP1 SWAP2 SUB SWAP1 REVERT JUMPDEST PUSH1 0x0 DUP2 DUP2 MSTORE PUSH1 0x5 PUSH1 0x20 MSTORE PUSH1 0x40 SWAP1 KECCAK256 SLOAD PUSH1 0x1 PUSH1 0x1 PUSH1 0xA0 SHL SUB AND PUSH2 0x11D1 JUMPI PUSH1 0x0 DUP1 REVERT JUMPDEST PUSH1 0x0 DUP2 DUP2 MSTORE PUSH1 0x5 PUSH1 0x20 SWAP1 DUP2 MSTORE PUSH1 0x40 DUP1 DUP4 KECCAK256 DUP1 SLOAD PUSH1 0x1 PUSH1 0x1 PUSH1 0xA0 SHL SUB NOT DUP2 AND SWAP1 SWAP2 SSTORE PUSH1 0x1 PUSH1 0x1 PUSH1 0xA0 SHL SUB AND DUP1 DUP5 MSTORE PUSH1 0x6 DUP4 MSTORE DUP2 DUP5 KECCAK256 SWAP4 SWAP1 SWAP4 SSTORE DUP1 MLOAD DUP4 DUP2 MSTORE SWAP2 DUP3 ADD DUP5 SWAP1 MSTORE DUP1 MLOAD PUSH32 0x9C4B27A4EE95CDE6444D871111211FF603ACCBDFF0B4E96E07AF9F4EBA52BE57 SWAP3 DUP2 SWAP1 SUB SWAP1 SWAP2 ADD SWAP1 LOG1 POP POP JUMP JUMPDEST PUSH1 0x2 SLOAD DUP2 JUMP JUMPDEST PUSH1 0x0 SLOAD PUSH1 0x40 DUP1 MLOAD PUSH4 0xC395FCB3 PUSH1 0xE0 SHL DUP2 MSTORE CALLER PUSH1 0x4 DUP3 ADD MSTORE SWAP1 MLOAD PUSH1 0x1 PUSH1 0x1 PUSH1 0xA0 SHL SUB SWAP1 SWAP3 AND SWAP2 PUSH4 0xC395FCB3 SWAP2 PUSH1 0x24 DUP1 DUP3 ADD SWAP3 PUSH1 0x20 SWAP3 SWAP1 SWAP2 SWAP1 DUP3 SWAP1 SUB ADD DUP2 DUP7 DUP1 EXTCODESIZE ISZERO DUP1 ISZERO PUSH2 0x1295 JUMPI PUSH1 0x0 DUP1 REVERT JUMPDEST POP GAS STATICCALL ISZERO DUP1 ISZERO PUSH2 0x12A9 JUMPI RETURNDATASIZE PUSH1 0x0 DUP1 RETURNDATACOPY RETURNDATASIZE PUSH1 0x0 REVERT JUMPDEST POP POP POP POP PUSH1 0x40 MLOAD RETURNDATASIZE PUSH1 0x20 DUP2 LT ISZERO PUSH2 0x12BF JUMPI PUSH1 0x0 DUP1 REVERT JUMPDEST POP MLOAD DUP1 PUSH2 0x133F JUMPI POP PUSH1 0x0 SLOAD PUSH1 0x40 DUP1 MLOAD PUSH4 0x7E271F05 PUSH1 0xE1 SHL DUP2 MSTORE CALLER PUSH1 0x4 DUP3 ADD MSTORE SWAP1 MLOAD PUSH1 0x1 PUSH1 0x1 PUSH1 0xA0 SHL SUB SWAP1 SWAP3 AND SWAP2 PUSH4 0xFC4E3E0A SWAP2 PUSH1 0x24 DUP1 DUP3 ADD SWAP3 PUSH1 0x20 SWAP3 SWAP1 SWAP2 SWAP1 DUP3 SWAP1 SUB ADD DUP2 DUP7 DUP1 EXTCODESIZE ISZERO DUP1 ISZERO PUSH2 0x1312 JUMPI PUSH1 0x0 DUP1 REVERT JUMPDEST POP GAS STATICCALL ISZERO DUP1 ISZERO PUSH2 0x1326 JUMPI RETURNDATASIZE PUSH1 0x0 DUP1 RETURNDATACOPY RETURNDATASIZE PUSH1 0x0 REVERT JUMPDEST POP POP POP POP PUSH1 0x40 MLOAD RETURNDATASIZE PUSH1 0x20 DUP2 LT ISZERO PUSH2 0x133C JUMPI PUSH1 0x0 DUP1 REVERT JUMPDEST POP MLOAD JUMPDEST PUSH2 0x137A JUMPI PUSH1 0x40 MLOAD PUSH3 0x461BCD PUSH1 0xE5 SHL DUP2 MSTORE PUSH1 0x4 ADD DUP1 DUP1 PUSH1 0x20 ADD DUP3 DUP2 SUB DUP3 MSTORE PUSH1 0x22 DUP2 MSTORE PUSH1 0x20 ADD DUP1 PUSH2 0x1F09 PUSH1 0x22 SWAP2 CODECOPY PUSH1 0x40 ADD SWAP2 POP POP PUSH1 0x40 MLOAD DUP1 SWAP2 SUB SWAP1 REVERT JUMPDEST PUSH1 0x0 SWAP2 DUP3 MSTORE PUSH1 0x7 PUSH1 0x20 MSTORE PUSH1 0x40 SWAP1 SWAP2 KECCAK256 SSTORE JUMP JUMPDEST PUSH1 0x0 SLOAD PUSH1 0x40 DUP1 MLOAD PUSH4 0xC395FCB3 PUSH1 0xE0 SHL DUP2 MSTORE CALLER PUSH1 0x4 DUP3 ADD MSTORE SWAP1 MLOAD PUSH1 0x1 PUSH1 0x1 PUSH1 0xA0 SHL SUB SWAP1 SWAP3 AND SWAP2 PUSH4 0xC395FCB3 SWAP2 PUSH1 0x24 DUP1 DUP3 ADD SWAP3 PUSH1 0x20 SWAP3 SWAP1 SWAP2 SWAP1 DUP3 SWAP1 SUB ADD DUP2 DUP7 DUP1 EXTCODESIZE ISZERO DUP1 ISZERO PUSH2 0x13D7 JUMPI PUSH1 0x0 DUP1 REVERT JUMPDEST POP GAS STATICCALL ISZERO DUP1 ISZERO PUSH2 0x13EB JUMPI RETURNDATASIZE PUSH1 0x0 DUP1 RETURNDATACOPY RETURNDATASIZE PUSH1 0x0 REVERT JUMPDEST POP POP POP POP PUSH1 0x40 MLOAD RETURNDATASIZE PUSH1 0x20 DUP2 LT ISZERO PUSH2 0x1401 JUMPI PUSH1 0x0 DUP1 REVERT JUMPDEST POP MLOAD PUSH2 0x143E JUMPI PUSH1 0x40 MLOAD PUSH3 0x461BCD PUSH1 0xE5 SHL DUP2 MSTORE PUSH1 0x4 ADD DUP1 DUP1 PUSH1 0x20 ADD DUP3 DUP2 SUB DUP3 MSTORE PUSH1 0x2C DUP2 MSTORE PUSH1 0x20 ADD DUP1 PUSH2 0x1F58 PUSH1 0x2C SWAP2 CODECOPY PUSH1 0x40 ADD SWAP2 POP POP PUSH1 0x40 MLOAD DUP1 SWAP2 SUB SWAP1 REVERT JUMPDEST PUSH1 0x1 PUSH1 0x1 PUSH1 0xA0 SHL SUB DUP2 AND PUSH2 0x1451 JUMPI PUSH1 0x0 DUP1 REVERT JUMPDEST PUSH1 0xA DUP1 SLOAD PUSH1 0x1 PUSH1 0x1 PUSH1 0xA0 SHL SUB SWAP1 SWAP3 AND PUSH2 0x100 MUL PUSH2 0x100 PUSH1 0x1 PUSH1 0xA8 SHL SUB NOT SWAP1 SWAP3 AND SWAP2 SWAP1 SWAP2 OR SWAP1 SSTORE JUMP JUMPDEST PUSH1 0x0 SLOAD PUSH1 0x1 PUSH1 0xA0 SHL SWAP1 DIV PUSH1 0xFF AND ISZERO PUSH2 0x1490 JUMPI PUSH1 0x0 DUP1 REVERT JUMPDEST PUSH1 0x1 PUSH1 0x1 PUSH1 0xA0 SHL SUB DUP3 AND PUSH2 0x14D5 JUMPI PUSH1 0x40 MLOAD PUSH3 0x461BCD PUSH1 0xE5 SHL DUP2 MSTORE PUSH1 0x4 ADD DUP1 DUP1 PUSH1 0x20 ADD DUP3 DUP2 SUB DUP3 MSTORE PUSH1 0x2C DUP2 MSTORE PUSH1 0x20 ADD DUP1 PUSH2 0x1FEA PUSH1 0x2C SWAP2 CODECOPY PUSH1 0x40 ADD SWAP2 POP POP PUSH1 0x40 MLOAD DUP1 SWAP2 SUB SWAP1 REVERT JUMPDEST PUSH1 0x1 PUSH1 0x1 PUSH1 0xA0 SHL SUB DUP4 AND PUSH2 0x151A JUMPI PUSH1 0x40 MLOAD PUSH3 0x461BCD PUSH1 0xE5 SHL DUP2 MSTORE PUSH1 0x4 ADD DUP1 DUP1 PUSH1 0x20 ADD DUP3 DUP2 SUB DUP3 MSTORE PUSH1 0x36 DUP2 MSTORE PUSH1 0x20 ADD DUP1 PUSH2 0x1F84 PUSH1 0x36 SWAP2 CODECOPY PUSH1 0x40 ADD SWAP2 POP POP PUSH1 0x40 MLOAD DUP1 SWAP2 SUB SWAP1 REVERT JUMPDEST PUSH1 0x1 PUSH1 0x1 PUSH1 0xA0 SHL SUB DUP2 AND PUSH2 0x155F JUMPI PUSH1 0x40 MLOAD PUSH3 0x461BCD PUSH1 0xE5 SHL DUP2 MSTORE PUSH1 0x4 ADD DUP1 DUP1 PUSH1 0x20 ADD DUP3 DUP2 SUB DUP3 MSTORE PUSH1 0x30 DUP2 MSTORE PUSH1 0x20 ADD DUP1 PUSH2 0x1FBA PUSH1 0x30 SWAP2 CODECOPY PUSH1 0x40 ADD SWAP2 POP POP PUSH1 0x40 MLOAD DUP1 SWAP2 SUB SWAP1 REVERT JUMPDEST PUSH1 0x0 DUP1 SLOAD PUSH1 0x4 DUP1 SLOAD PUSH1 0x1 PUSH1 0x1 PUSH1 0xA0 SHL SUB DUP6 DUP2 AND PUSH1 0x1 PUSH1 0x1 PUSH1 0xA0 SHL SUB NOT SWAP3 DUP4 AND OR SWAP1 SWAP3 SSTORE PUSH1 0x3 DUP1 SLOAD DUP8 DUP5 AND SWAP1 DUP4 AND OR SWAP1 SSTORE PUSH1 0xA DUP1 SLOAD PUSH1 0xFF NOT AND PUSH1 0x1 OR SWAP1 SSTORE PUSH1 0xFF PUSH1 0xA0 SHL NOT SWAP2 DUP8 AND SWAP3 AND SWAP2 SWAP1 SWAP2 OR AND PUSH1 0x1 PUSH1 0xA0 SHL OR SWAP1 SSTORE PUSH1 0x40 DUP1 MLOAD CALLER DUP2 MSTORE SWAP1 MLOAD PUSH32 0x273553A2DB9D9C7AFB53120E2C4A60F274686BBE8E64B350D64AAA9D6289397E SWAP2 DUP2 SWAP1 SUB PUSH1 0x20 ADD SWAP1 LOG1 POP POP POP JUMP JUMPDEST PUSH1 0x3 SLOAD PUSH1 0x1 PUSH1 0x1 PUSH1 0xA0 SHL SUB AND DUP2 JUMP JUMPDEST PUSH1 0x1 PUSH1 0x1 PUSH1 0xA0 SHL SUB AND PUSH1 0x0 SWAP1 DUP2 MSTORE PUSH1 0x8 PUSH1 0x20 MSTORE PUSH1 0x40 SWAP1 KECCAK256 SLOAD PUSH2 0x100 SWAP1 DIV PUSH8 0xFFFFFFFFFFFFFFFF AND SWAP1 JUMP JUMPDEST PUSH1 0xA SLOAD PUSH2 0x100 SWAP1 DIV PUSH1 0x1 PUSH1 0x1 PUSH1 0xA0 SHL SUB AND DUP2 JUMP JUMPDEST PUSH1 0xA SLOAD PUSH1 0x0 SWAP1 PUSH1 0xFF AND ISZERO PUSH2 0x1786 JUMPI PUSH1 0x0 SLOAD PUSH1 0x40 DUP1 MLOAD PUSH4 0xC395FCB3 PUSH1 0xE0 SHL DUP2 MSTORE CALLER PUSH1 0x4 DUP3 ADD MSTORE SWAP1 MLOAD PUSH1 0x1 PUSH1 0x1 PUSH1 0xA0 SHL SUB SWAP1 SWAP3 AND SWAP2 PUSH4 0xC395FCB3 SWAP2 PUSH1 0x24 DUP1 DUP3 ADD SWAP3 PUSH1 0x20 SWAP3 SWAP1 SWAP2 SWAP1 DUP3 SWAP1 SUB ADD DUP2 DUP7 DUP1 EXTCODESIZE ISZERO DUP1 ISZERO PUSH2 0x1692 JUMPI PUSH1 0x0 DUP1 REVERT JUMPDEST POP GAS STATICCALL ISZERO DUP1 ISZERO PUSH2 0x16A6 JUMPI RETURNDATASIZE PUSH1 0x0 DUP1 RETURNDATACOPY RETURNDATASIZE PUSH1 0x0 REVERT JUMPDEST POP POP POP POP PUSH1 0x40 MLOAD RETURNDATASIZE PUSH1 0x20 DUP2 LT ISZERO PUSH2 0x16BC JUMPI PUSH1 0x0 DUP1 REVERT JUMPDEST POP MLOAD DUP1 PUSH2 0x173C JUMPI POP PUSH1 0x0 SLOAD PUSH1 0x40 DUP1 MLOAD PUSH4 0x99DB017 PUSH1 0xE0 SHL DUP2 MSTORE CALLER PUSH1 0x4 DUP3 ADD MSTORE SWAP1 MLOAD PUSH1 0x1 PUSH1 0x1 PUSH1 0xA0 SHL SUB SWAP1 SWAP3 AND SWAP2 PUSH4 0x99DB017 SWAP2 PUSH1 0x24 DUP1 DUP3 ADD SWAP3 PUSH1 0x20 SWAP3 SWAP1 SWAP2 SWAP1 DUP3 SWAP1 SUB ADD DUP2 DUP7 DUP1 EXTCODESIZE ISZERO DUP1 ISZERO PUSH2 0x170F JUMPI PUSH1 0x0 DUP1 REVERT JUMPDEST POP GAS STATICCALL ISZERO DUP1 ISZERO PUSH2 0x1723 JUMPI RETURNDATASIZE PUSH1 0x0 DUP1 RETURNDATACOPY RETURNDATASIZE PUSH1 0x0 REVERT JUMPDEST POP POP POP POP PUSH1 0x40 MLOAD RETURNDATASIZE PUSH1 0x20 DUP2 LT ISZERO PUSH2 0x1739 JUMPI PUSH1 0x0 DUP1 REVERT JUMPDEST POP MLOAD JUMPDEST DUP1 PUSH2 0x174B JUMPI POP PUSH2 0x174B CALLER PUSH2 0xFDA JUMP JUMPDEST PUSH2 0x1786 JUMPI PUSH1 0x40 MLOAD PUSH3 0x461BCD PUSH1 0xE5 SHL DUP2 MSTORE PUSH1 0x4 ADD DUP1 DUP1 PUSH1 0x20 ADD DUP3 DUP2 SUB DUP3 MSTORE PUSH1 0x2D DUP2 MSTORE PUSH1 0x20 ADD DUP1 PUSH2 0x1F2B PUSH1 0x2D SWAP2 CODECOPY PUSH1 0x40 ADD SWAP2 POP POP PUSH1 0x40 MLOAD DUP1 SWAP2 SUB SWAP1 REVERT JUMPDEST PUSH2 0x178E PUSH2 0x1E27 JUMP JUMPDEST POP PUSH1 0x40 DUP1 MLOAD DUP1 DUP3 ADD DUP3 MSTORE PUSH1 0x9 SLOAD PUSH1 0x1 PUSH1 0x1 PUSH1 0x80 SHL SUB DUP1 DUP3 AND DUP4 MSTORE PUSH1 0x1 PUSH1 0x80 SHL SWAP1 SWAP2 DIV PUSH4 0xFFFFFFFF AND PUSH1 0x20 DUP1 DUP5 ADD SWAP2 SWAP1 SWAP2 MSTORE PUSH1 0x0 DUP8 DUP2 MSTORE PUSH1 0x5 SWAP1 SWAP2 MSTORE SWAP3 SWAP1 SWAP3 KECCAK256 SLOAD DUP2 MLOAD SWAP2 SWAP3 PUSH1 0x1 PUSH1 0x1 PUSH1 0xA0 SHL SUB SWAP1 SWAP2 AND SWAP2 AND CALLVALUE LT ISZERO PUSH2 0x181D JUMPI PUSH1 0x40 MLOAD PUSH3 0x461BCD PUSH1 0xE5 SHL DUP2 MSTORE PUSH1 0x4 ADD DUP1 DUP1 PUSH1 0x20 ADD DUP3 DUP2 SUB DUP3 MSTORE PUSH1 0x2B DUP2 MSTORE PUSH1 0x20 ADD DUP1 PUSH2 0x1EDE PUSH1 0x2B SWAP2 CODECOPY PUSH1 0x40 ADD SWAP2 POP POP PUSH1 0x40 MLOAD DUP1 SWAP2 SUB SWAP1 REVERT JUMPDEST PUSH1 0x1 PUSH1 0x1 PUSH1 0xA0 SHL SUB DUP2 AND PUSH2 0x1862 JUMPI PUSH1 0x40 MLOAD PUSH3 0x461BCD PUSH1 0xE5 SHL DUP2 MSTORE PUSH1 0x4 ADD DUP1 DUP1 PUSH1 0x20 ADD DUP3 DUP2 SUB DUP3 MSTORE PUSH1 0x2D DUP2 MSTORE PUSH1 0x20 ADD DUP1 PUSH2 0x1E3F PUSH1 0x2D SWAP2 CODECOPY PUSH1 0x40 ADD SWAP2 POP POP PUSH1 0x40 MLOAD DUP1 SWAP2 SUB SWAP1 REVERT JUMPDEST PUSH1 0x0 CALLVALUE PUSH1 0x1 PUSH1 0x1 PUSH1 0xA0 SHL SUB DUP7 AND ISZERO DUP1 ISZERO SWAP1 PUSH2 0x1890 JUMPI POP PUSH1 0xA SLOAD PUSH1 0x1 PUSH1 0x1 PUSH1 0xA0 SHL SUB DUP8 DUP2 AND PUSH2 0x100 SWAP1 SWAP3 DIV AND EQ ISZERO JUMPDEST ISZERO PUSH2 0x18B3 JUMPI PUSH2 0x3E8 DUP5 PUSH1 0x20 ADD MLOAD PUSH4 0xFFFFFFFF AND DUP3 MUL DUP2 PUSH2 0x18AC JUMPI INVALID JUMPDEST DIV SWAP2 POP DUP2 SWAP1 SUB JUMPDEST PUSH1 0x4 DUP1 SLOAD PUSH1 0x40 DUP1 MLOAD PUSH4 0x1F54245B PUSH1 0xE0 SHL DUP2 MSTORE PUSH1 0x1 PUSH1 0x1 PUSH1 0xA0 SHL SUB DUP8 DUP2 AND SWAP5 DUP3 ADD SWAP5 SWAP1 SWAP5 MSTORE PUSH1 0x0 PUSH1 0x44 DUP3 ADD DUP2 SWAP1 MSTORE PUSH1 0x60 PUSH1 0x24 DUP4 ADD MSTORE PUSH1 0x64 DUP3 ADD DUP2 SWAP1 MSTORE SWAP2 MLOAD SWAP4 SWAP1 SWAP3 AND SWAP3 PUSH4 0x1F54245B SWAP3 PUSH1 0xA4 DUP1 DUP3 ADD SWAP4 PUSH1 0x20 SWAP4 SWAP3 DUP4 SWAP1 SUB SWAP1 SWAP2 ADD SWAP1 DUP3 SWAP1 DUP8 DUP1 EXTCODESIZE ISZERO DUP1 ISZERO PUSH2 0x191D JUMPI PUSH1 0x0 DUP1 REVERT JUMPDEST POP GAS CALL ISZERO DUP1 ISZERO PUSH2 0x1931 JUMPI RETURNDATASIZE PUSH1 0x0 DUP1 RETURNDATACOPY RETURNDATASIZE PUSH1 0x0 REVERT JUMPDEST POP POP POP POP PUSH1 0x40 MLOAD RETURNDATASIZE PUSH1 0x20 DUP2 LT ISZERO PUSH2 0x1947 JUMPI PUSH1 0x0 DUP1 REVERT JUMPDEST POP MLOAD PUSH1 0x40 DUP1 MLOAD PUSH1 0x60 DUP2 ADD SWAP1 SWAP2 MSTORE PUSH1 0x1 DUP2 MSTORE SWAP1 SWAP6 POP PUSH1 0x20 DUP2 ADD PUSH2 0x1968 DUP10 PUSH2 0x1DC8 JUMP JUMPDEST PUSH8 0xFFFFFFFFFFFFFFFF AND DUP2 MSTORE PUSH1 0x20 ADD PUSH2 0x1985 PUSH1 0x1 DUP1 SLOAD SWAP1 POP PUSH2 0x1B67 JUMP JUMPDEST PUSH1 0x1 PUSH1 0x1 PUSH1 0x80 SHL SUB SWAP1 DUP2 AND SWAP1 SWAP2 MSTORE PUSH1 0x1 PUSH1 0x1 PUSH1 0xA0 SHL SUB DUP1 DUP9 AND PUSH1 0x0 DUP2 DUP2 MSTORE PUSH1 0x8 PUSH1 0x20 SWAP1 DUP2 MSTORE PUSH1 0x40 DUP1 DUP4 KECCAK256 DUP8 MLOAD DUP2 SLOAD DUP10 DUP6 ADD MLOAD SWAP10 DUP5 ADD MLOAD SWAP1 SWAP9 AND PUSH1 0x1 PUSH1 0x48 SHL MUL PUSH25 0xFFFFFFFFFFFFFFFFFFFFFFFFFFFFFFFF000000000000000000 NOT PUSH8 0xFFFFFFFFFFFFFFFF SWAP1 SWAP11 AND PUSH2 0x100 MUL PUSH9 0xFFFFFFFFFFFFFFFF00 NOT SWAP3 ISZERO ISZERO PUSH1 0xFF NOT SWAP1 SWAP11 AND SWAP10 SWAP1 SWAP10 OR SWAP2 SWAP1 SWAP2 AND SWAP8 SWAP1 SWAP8 OR SWAP8 SWAP1 SWAP8 AND SWAP6 SWAP1 SWAP6 OR SWAP1 SWAP6 SSTORE PUSH1 0x1 DUP1 SLOAD DUP1 DUP3 ADD SWAP1 SWAP2 SSTORE PUSH32 0xB10E2D527612073B26EECDFD717E6A320CF44B4AFAC2B0732D9FCBE2B7FA0CF6 ADD DUP1 SLOAD PUSH1 0x1 PUSH1 0x1 PUSH1 0xA0 SHL SUB NOT AND DUP4 OR SWAP1 SSTORE DUP12 DUP2 MSTORE PUSH1 0x5 DUP6 MSTORE DUP4 SWAP1 KECCAK256 SLOAD DUP4 MLOAD SWAP3 AND DUP3 MSTORE SWAP2 MLOAD SWAP2 SWAP3 CALLER SWAP3 PUSH32 0x3BA8B254094E662ED7500A3AD77FD9F4F041F221A7B9F0714E3FDBF324C5D863 SWAP3 DUP2 SWAP1 SUB SWAP1 SWAP2 ADD SWAP1 LOG3 DUP1 ISZERO PUSH2 0x1ADD JUMPI PUSH1 0xA SLOAD PUSH1 0x40 MLOAD PUSH2 0x100 SWAP1 SWAP2 DIV PUSH1 0x1 PUSH1 0x1 PUSH1 0xA0 SHL SUB AND SWAP1 PUSH2 0x8FC DUP4 ISZERO MUL SWAP1 DUP4 SWAP1 PUSH1 0x0 DUP2 DUP2 DUP2 DUP6 DUP9 DUP9 CALL SWAP4 POP POP POP POP ISZERO DUP1 ISZERO PUSH2 0x1ADB JUMPI RETURNDATASIZE PUSH1 0x0 DUP1 RETURNDATACOPY RETURNDATASIZE PUSH1 0x0 REVERT JUMPDEST POP JUMPDEST DUP2 ISZERO PUSH2 0x1B1B JUMPI PUSH1 0x40 MLOAD PUSH1 0x1 PUSH1 0x1 PUSH1 0xA0 SHL SUB DUP8 AND SWAP1 DUP4 ISZERO PUSH2 0x8FC MUL SWAP1 DUP5 SWAP1 PUSH1 0x0 DUP2 DUP2 DUP2 DUP6 DUP9 DUP9 CALL SWAP4 POP POP POP POP ISZERO DUP1 ISZERO PUSH2 0x1B19 JUMPI RETURNDATASIZE PUSH1 0x0 DUP1 RETURNDATACOPY RETURNDATASIZE PUSH1 0x0 REVERT JUMPDEST POP JUMPDEST POP POP POP POP SWAP3 SWAP2 POP POP JUMP JUMPDEST PUSH1 0xA SLOAD PUSH1 0xFF AND DUP2 JUMP JUMPDEST PUSH1 0x1 PUSH1 0x1 PUSH1 0xA0 SHL SUB AND PUSH1 0x0 SWAP1 DUP2 MSTORE PUSH1 0x6 PUSH1 0x20 MSTORE PUSH1 0x40 SWAP1 KECCAK256 SLOAD SWAP1 JUMP JUMPDEST PUSH1 0x9 SLOAD PUSH1 0x1 PUSH1 0x1 PUSH1 0x80 SHL SUB DUP2 AND SWAP1 PUSH1 0x1 PUSH1 0x80 SHL SWAP1 DIV PUSH4 0xFFFFFFFF AND DUP3 JUMP JUMPDEST PUSH1 0x0 PUSH1 0x1 PUSH1 0x1 PUSH1 0x80 SHL SUB DUP3 GT ISZERO PUSH2 0x1BC5 JUMPI PUSH1 0x40 DUP1 MLOAD PUSH3 0x461BCD PUSH1 0xE5 SHL DUP2 MSTORE PUSH1 0x20 PUSH1 0x4 DUP3 ADD MSTORE PUSH1 0x1C PUSH1 0x24 DUP3 ADD MSTORE PUSH32 0x426F72696E674D6174683A2075696E74313238204F766572666C6F7700000000 PUSH1 0x44 DUP3 ADD MSTORE SWAP1 MLOAD SWAP1 DUP2 SWAP1 SUB PUSH1 0x64 ADD SWAP1 REVERT JUMPDEST POP SWAP1 JUMP JUMPDEST PUSH1 0x0 PUSH4 0xFFFFFFFF DUP3 GT ISZERO PUSH2 0x1BC5 JUMPI PUSH1 0x40 DUP1 MLOAD PUSH3 0x461BCD PUSH1 0xE5 SHL DUP2 MSTORE PUSH1 0x20 PUSH1 0x4 DUP3 ADD MSTORE PUSH1 0x1B PUSH1 0x24 DUP3 ADD MSTORE PUSH32 0x426F72696E674D6174683A2075696E743332204F766572666C6F770000000000 PUSH1 0x44 DUP3 ADD MSTORE SWAP1 MLOAD SWAP1 DUP2 SWAP1 SUB PUSH1 0x64 ADD SWAP1 REVERT JUMPDEST PUSH1 0x40 DUP1 MLOAD PUSH1 0x1 PUSH1 0x1 PUSH1 0xA0 SHL SUB DUP5 DUP2 AND PUSH1 0x24 DUP4 ADD MSTORE ADDRESS PUSH1 0x44 DUP4 ADD MSTORE PUSH1 0x64 DUP1 DUP4 ADD DUP6 SWAP1 MSTORE DUP4 MLOAD DUP1 DUP5 SUB SWAP1 SWAP2 ADD DUP2 MSTORE PUSH1 0x84 SWAP1 SWAP3 ADD DUP4 MSTORE PUSH1 0x20 DUP3 ADD DUP1 MLOAD PUSH1 0x1 PUSH1 0x1 PUSH1 0xE0 SHL SUB AND PUSH4 0x23B872DD PUSH1 0xE0 SHL OR DUP2 MSTORE SWAP3 MLOAD DUP3 MLOAD PUSH1 0x0 SWAP5 PUSH1 0x60 SWAP5 SWAP4 DUP10 AND SWAP4 SWAP3 SWAP2 DUP3 SWAP2 SWAP1 DUP1 DUP4 DUP4 JUMPDEST PUSH1 0x20 DUP4 LT PUSH2 0x1CA7 JUMPI DUP1 MLOAD DUP3 MSTORE PUSH1 0x1F NOT SWAP1 SWAP3 ADD SWAP2 PUSH1 0x20 SWAP2 DUP3 ADD SWAP2 ADD PUSH2 0x1C88 JUMP JUMPDEST PUSH1 0x1 DUP4 PUSH1 0x20 SUB PUSH2 0x100 EXP SUB DUP1 NOT DUP3 MLOAD AND DUP2 DUP5 MLOAD AND DUP1 DUP3 OR DUP6 MSTORE POP POP POP POP POP POP SWAP1 POP ADD SWAP2 POP POP PUSH1 0x0 PUSH1 0x40 MLOAD DUP1 DUP4 SUB DUP2 PUSH1 0x0 DUP7 GAS CALL SWAP2 POP POP RETURNDATASIZE DUP1 PUSH1 0x0 DUP2 EQ PUSH2 0x1D09 JUMPI PUSH1 0x40 MLOAD SWAP2 POP PUSH1 0x1F NOT PUSH1 0x3F RETURNDATASIZE ADD AND DUP3 ADD PUSH1 0x40 MSTORE RETURNDATASIZE DUP3 MSTORE RETURNDATASIZE PUSH1 0x0 PUSH1 0x20 DUP5 ADD RETURNDATACOPY PUSH2 0x1D0E JUMP JUMPDEST PUSH1 0x60 SWAP2 POP JUMPDEST POP SWAP2 POP SWAP2 POP DUP2 DUP1 ISZERO PUSH2 0x1D3C JUMPI POP DUP1 MLOAD ISZERO DUP1 PUSH2 0x1D3C JUMPI POP DUP1 DUP1 PUSH1 0x20 ADD SWAP1 MLOAD PUSH1 0x20 DUP2 LT ISZERO PUSH2 0x1D39 JUMPI PUSH1 0x0 DUP1 REVERT JUMPDEST POP MLOAD JUMPDEST PUSH2 0x1D45 JUMPI PUSH1 0x0 DUP1 REVERT JUMPDEST POP POP POP POP POP JUMP JUMPDEST PUSH1 0x40 DUP1 MLOAD PUSH1 0x1 PUSH1 0x1 PUSH1 0xA0 SHL SUB DUP5 DUP2 AND PUSH1 0x24 DUP4 ADD MSTORE PUSH1 0x44 DUP1 DUP4 ADD DUP6 SWAP1 MSTORE DUP4 MLOAD DUP1 DUP5 SUB SWAP1 SWAP2 ADD DUP2 MSTORE PUSH1 0x64 SWAP1 SWAP3 ADD DUP4 MSTORE PUSH1 0x20 DUP3 ADD DUP1 MLOAD PUSH1 0x1 PUSH1 0x1 PUSH1 0xE0 SHL SUB AND PUSH4 0xA9059CBB PUSH1 0xE0 SHL OR DUP2 MSTORE SWAP3 MLOAD DUP3 MLOAD PUSH1 0x0 SWAP5 PUSH1 0x60 SWAP5 SWAP4 DUP10 AND SWAP4 SWAP3 SWAP2 DUP3 SWAP2 SWAP1 DUP1 DUP4 DUP4 PUSH1 0x20 DUP4 LT PUSH2 0x1CA7 JUMPI DUP1 MLOAD DUP3 MSTORE PUSH1 0x1F NOT SWAP1 SWAP3 ADD SWAP2 PUSH1 0x20 SWAP2 DUP3 ADD SWAP2 ADD PUSH2 0x1C88 JUMP JUMPDEST PUSH1 0x0 PUSH8 0xFFFFFFFFFFFFFFFF DUP3 GT ISZERO PUSH2 0x1BC5 JUMPI PUSH1 0x40 DUP1 MLOAD PUSH3 0x461BCD PUSH1 0xE5 SHL DUP2 MSTORE PUSH1 0x20 PUSH1 0x4 DUP3 ADD MSTORE PUSH1 0x1B PUSH1 0x24 DUP3 ADD MSTORE PUSH32 0x426F72696E674D6174683A2075696E743634204F766572666C6F770000000000 PUSH1 0x44 DUP3 ADD MSTORE SWAP1 MLOAD SWAP1 DUP2 SWAP1 SUB PUSH1 0x64 ADD SWAP1 REVERT JUMPDEST PUSH1 0x40 DUP1 MLOAD DUP1 DUP3 ADD SWAP1 SWAP2 MSTORE PUSH1 0x0 DUP1 DUP3 MSTORE PUSH1 0x20 DUP3 ADD MSTORE SWAP1 JUMP INVALID 0x4D 0x49 MSTORE8 0x4F 0x4C PUSH2 0x756E PUSH4 0x6865723A KECCAK256 0x4C PUSH2 0x756E PUSH4 0x68657220 PUSH21 0x656D706C61746520646F65736E2774206578697374 0x4D 0x49 MSTORE8 0x4F 0x4C PUSH2 0x756E PUSH4 0x6865723A KECCAK256 MSTORE8 PUSH6 0x6E646572206D PUSH22 0x7374206265206F70657261746F724D49534F4C61756E PUSH4 0x6865723A KECCAK256 POP PUSH6 0x7263656E7461 PUSH8 0x65206973206F7574 KECCAK256 PUSH16 0x6620313030304D49534F4C61756E6368 PUSH6 0x723A20496E63 PUSH16 0x72726563742074656D706C6174652063 PUSH16 0x6465204D49534F4C61756E636865723A KECCAK256 CHAINID PUSH2 0x696C PUSH6 0x6420746F2074 PUSH19 0x616E73666572206D696E696D756D4665654D49 MSTORE8 0x4F 0x4C PUSH2 0x756E PUSH4 0x6865723A KECCAK256 MSTORE8 PUSH6 0x6E646572206D PUSH22 0x73742062652061646D696E4D49534F4C61756E636865 PUSH19 0x3A2053656E646572206D757374206265206D69 PUSH15 0x746572206966206C6F636B65644D49 MSTORE8 0x4F 0x4C PUSH2 0x756E PUSH4 0x6865722E PUSH20 0x65744465763A2053656E646572206D7573742062 PUSH6 0x206F70657261 PUSH21 0x6F72696E69744D49534F4C61756E636865723A2061 PUSH4 0x63657373 NUMBER PUSH16 0x6E74726F6C732063616E6E6F74206265 KECCAK256 PUSH20 0x657420746F207A65726F696E69744D49534F4C61 PUSH22 0x6E636865723A2062656E746F426F782063616E6E6F74 KECCAK256 PUSH3 0x652073 PUSH6 0x7420746F207A PUSH6 0x726F696E6974 0x4D 0x49 MSTORE8 0x4F 0x4C PUSH2 0x756E PUSH4 0x6865723A KECCAK256 JUMPI GASLIMIT SLOAD 0x48 KECCAK256 PUSH4 0x616E6E6F PUSH21 0x2062652073657420746F207A65726FA26469706673 PC 0x22 SLT KECCAK256 0xDA 0xAA PUSH7 0xB2450F1DE920FC PUSH5 0xC5C5CCE97 0xD7 JUMPDEST 0x4A 0xDF 0xAE MSTORE8 LT SGT 0x25 SWAP2 0xE PUSH10 0x1B7C96C464736F6C6343 STOP MOD 0xC STOP CALLER ",
  "sha1": "599ef8f8c8b8330a01b5d0928d65156e1ecc625d",
  "source": "pragma solidity 0.6.12;\n\n//----------------------------------------------------------------------------------\n//    I n s t a n t\n//\n//        .:mmm.         .:mmm:.       .ii.  .:SSSSSSSSSSSSS.     .oOOOOOOOOOOOo.  \n//      .mMM'':Mm.     .:MM'':Mm:.     .II:  :SSs..........     .oOO'''''''''''OOo.\n//    .:Mm'   ':Mm.   .:Mm'   'MM:.    .II:  'sSSSSSSSSSSSSS:.  :OO.           .OO:\n//  .'mMm'     ':MM:.:MMm'     ':MM:.  .II:  .:...........:SS.  'OOo:.........:oOO'\n//  'mMm'        ':MMmm'         'mMm:  II:  'sSSSSSSSSSSSSS'     'oOOOOOOOOOOOO'  \n//\n//----------------------------------------------------------------------------------\n//\n// Chef Gonpachi's MISO Launcher\n//\n// A factory to conveniently deploy your own liquidity contracts\n//\n// Inspired by Bokky's EtherVendingMachince.io\n// https://github.com/bokkypoobah/FixedSupplyTokenFactory\n// \n// This program is free software: you can redistribute it and/or modify\n// it under the terms of the GNU General Public License as published by\n// the Free Software Foundation, either version 3 of the License\n//\n// This program is distributed in the hope that it will be useful,\n// but WITHOUT ANY WARRANTY; without even the implied warranty of\n// MERCHANTABILITY or FITNESS FOR A PARTICULAR PURPOSE.  See the\n// GNU General Public License for more details.\n//\n// The above copyright notice and this permission notice shall be included \n// in all copies or substantial portions of the Software.\n//\n// Made for Sushi.com \n// \n// Enjoy. (c) Chef Gonpachi 2021 \n// <https://github.com/chefgonpachi/MISO/>\n//\n// ---------------------------------------------------------------------\n// SPDX-License-Identifier: GPL-3.0                        \n// ---------------------------------------------------------------------\n\nimport \"./Utils/SafeTransfer.sol\";\nimport \"./Utils/BoringMath.sol\";\nimport \"./Access/MISOAccessControls.sol\";\nimport \"./interfaces/IERC20.sol\";\nimport \"./interfaces/IMisoLiquidity.sol\";\nimport \"./interfaces/IBentoBoxFactory.sol\";\n\n\ncontract MISOLauncher is SafeTransfer {\n\n    using BoringMath for uint256;\n    using BoringMath128 for uint128;\n    using BoringMath64 for uint64;\n\n    /// @notice Responsible for access rights to the contract.\n    MISOAccessControls public accessControls;\n    bytes32 public constant LAUNCHER_MINTER_ROLE = keccak256(\"LAUNCHER_MINTER_ROLE\");\n\n    /// @notice Whether launcher has been initialized or not.\n    bool private initialised;\n\n    /// @notice Struct to track Auction template.\n    struct Launcher {\n        bool exists;\n        uint64 templateId;\n        uint128 index;\n    }\n\n    /// @notice All the launchers created using factory.\n    address[] public launchers;\n\n    /// @notice Template id to track respective auction template.\n    uint256 public launcherTemplateId;\n\n    /// @notice Address for Wrapped Ether.\n    address public WETH;\n    IBentoBoxFactory public bentoBox;\n\n    /// @notice Mapping from template id to launcher template address.\n    mapping(uint256 => address) private launcherTemplates;\n\n    /// @notice mapping from launcher template address to launcher template id\n    mapping(address => uint256) private launcherTemplateToId;\n\n    // /// @notice mapping from template type to template id\n    mapping(uint256 => uint256) public currentTemplateId;\n\n    /// @notice Mapping from auction created through this contract to Auction struct.\n    mapping(address => Launcher) public launcherInfo;\n\n    /// @notice Struct to define fees.\n    struct LauncherFees {\n        uint128 minimumFee;\n        uint32 integratorFeePct;\n    }\n\n    /// @notice Minimum fee to create a launcher through the factory.\n    LauncherFees public launcherFees;\n\n    /// @notice Contract locked status. If locked, only minters can deploy\n    bool public locked;\n\n    ///@notice Any donations if set are sent here.\n    address payable public misoDiv;\n\n    /// @notice Event emitted when first intializing the liquidity launcher.\n    event MisoInitLauncher(address sender);\n\n    /// @notice Event emitted when launcher is created using template id.\n    event LauncherCreated(address indexed owner, address indexed addr, address launcherTemplate);\n\n    /// @notice Event emitted when launcher template is added to factory.\n    event LauncherTemplateAdded(address newLauncher, uint256 templateId);\n\n    /// @notice Event emitted when launcher template is removed.\n    event LauncherTemplateRemoved(address launcher, uint256 templateId);\n\n    constructor() public {\n    }\n\n    /**\n     * @notice Single gateway to initialize the MISO Launcher with proper address.\n     * @dev Can only be initialized once.\n     * @param _accessControls Sets address to get the access controls from.\n     */\n    function initMISOLauncher(address _accessControls, address _WETH, address _bentoBox) external {\n        require(!initialised);\n        require(_WETH != address(0), \"initMISOLauncher: WETH cannot be set to zero\");\n        require(_accessControls != address(0), \"initMISOLauncher: accessControls cannot be set to zero\");\n        require(_bentoBox != address(0), \"initMISOLauncher: bentoBox cannot be set to zero\");\n\n        accessControls = MISOAccessControls(_accessControls);\n        bentoBox = IBentoBoxFactory(_bentoBox); \n        WETH = _WETH;\n        locked = true;\n        initialised = true;\n\n        emit MisoInitLauncher(msg.sender);\n    }\n\n    /**\n     * @notice Sets the minimum fee.\n     * @param _amount Fee amount.\n     */\n    function setMinimumFee(uint256 _amount) external {\n        require(\n            accessControls.hasAdminRole(msg.sender),\n            \"MISOLauncher: Sender must be operator\"\n        );\n        launcherFees.minimumFee = BoringMath.to128(_amount);\n    }\n\n    /**\n     * @notice Sets integrator fee percentage.\n     * @param _amount Percentage amount.\n     */\n    function setIntegratorFeePct(uint256 _amount) external {\n        require(\n            accessControls.hasAdminRole(msg.sender),\n            \"MISOLauncher: Sender must be operator\"\n        );\n        /// @dev this is out of 1000, ie 25% = 250\n        require(_amount <= 1000, \"MISOLauncher: Percentage is out of 1000\");\n        launcherFees.integratorFeePct = BoringMath.to32(_amount);\n    }\n\n    /**\n     * @notice Sets dividend address.\n     * @param _divaddr Dividend address.\n     */\n    function setDividends(address payable _divaddr) external {\n        require(accessControls.hasAdminRole(msg.sender), \"MISOLauncher.setDev: Sender must be operator\");\n        require(_divaddr != address(0));\n        misoDiv = _divaddr;\n    }\n    /**\n     * @notice Sets the factory to be locked or unlocked.\n     * @param _locked bool.\n     */\n    function setLocked(bool _locked) external {\n        require(\n            accessControls.hasAdminRole(msg.sender),\n            \"MISOLauncher: Sender must be admin\"\n        );\n        locked = _locked;\n    }\n\n    /**\n     * @notice Sets the current template ID for any type.\n     * @param _templateType Type of template.\n     * @param _templateId The ID of the current template for that type\n     */\n    function setCurrentTemplateId(uint256 _templateType, uint256 _templateId) external {\n        require(\n            accessControls.hasAdminRole(msg.sender) ||\n            accessControls.hasOperatorRole(msg.sender),\n            \"MISOLauncher: Sender must be admin\"\n        );\n        currentTemplateId[_templateType] = _templateId;\n    }\n\n    /**\n     * @notice Used to check whether an address has the minter role\n     * @param _address EOA or contract being checked\n     * @return bool True if the account has the role or false if it does not\n     */\n    function hasLauncherMinterRole(address _address) public view returns (bool) {\n        return accessControls.hasRole(LAUNCHER_MINTER_ROLE, _address);\n    }\n\n\n\n    /**\n     * @notice Creates a launcher corresponding to _templateId.\n     * @param _templateId Template id of the launcher to create.\n     * @param _integratorFeeAccount Address to pay the fee to.\n     * @return launcher  Launcher address.\n     */\n    function deployLauncher(\n        uint256 _templateId,\n        address payable _integratorFeeAccount\n    )\n        public payable returns (address launcher)\n    {\n        /// @dev If the contract is locked, only admin and minters can deploy. \n        if (locked) {\n            require(accessControls.hasAdminRole(msg.sender) \n                    || accessControls.hasMinterRole(msg.sender)\n                    || hasLauncherMinterRole(msg.sender),\n                \"MISOLauncher: Sender must be minter if locked\"\n            );\n        }\n\n        LauncherFees memory _launcherFees = launcherFees;\n        address launcherTemplate = launcherTemplates[_templateId];\n        require(msg.value >= uint256(_launcherFees.minimumFee), \"MISOLauncher: Failed to transfer minimumFee\");\n        require(launcherTemplate != address(0), \"MISOLauncher: Launcher template doesn't exist\");\n        uint256 integratorFee = 0;\n        uint256 misoFee = msg.value;\n        if (_integratorFeeAccount != address(0) && _integratorFeeAccount != misoDiv) {\n            integratorFee = misoFee * uint256(_launcherFees.integratorFeePct) / 1000;\n            misoFee = misoFee - integratorFee;\n        }\n        /// @dev Deploy using the BentoBox factory. \n        launcher = bentoBox.deploy(launcherTemplate, \"\", false);\n        launcherInfo[address(launcher)] = Launcher(true, BoringMath.to64(_templateId), BoringMath.to128(launchers.length));\n        launchers.push(address(launcher));\n        emit LauncherCreated(msg.sender, address(launcher), launcherTemplates[_templateId]);\n        if (misoFee > 0) {\n            misoDiv.transfer(misoFee);\n        }\n        if (integratorFee > 0) {\n            _integratorFeeAccount.transfer(integratorFee);\n        }\n    }\n\n\n    /**\n     * @notice Creates a new MISOLauncher using _templateId.\n     * @dev Initializes auction with the parameters passed.\n     * @param _templateId Id of the auction template to create.\n     * @param _token The token address to be sold.\n     * @param _tokenSupply Amount of tokens to be sold at market.\n     * @param _integratorFeeAccount Address to send refferal bonus, if set.\n     * @param _data Data to be sent to template on Init.\n     * @return newLauncher Launcher address.\n     */\n    function createLauncher(\n        uint256 _templateId,\n        address _token,\n        uint256 _tokenSupply,\n        address payable _integratorFeeAccount,\n        bytes calldata _data\n    )\n        external payable returns (address newLauncher)\n    {\n\n        newLauncher = deployLauncher(_templateId, _integratorFeeAccount);\n        if (_tokenSupply > 0) {\n            _safeTransferFrom(_token, msg.sender, _tokenSupply);\n            require(IERC20(_token).approve(newLauncher, _tokenSupply), \"1\");\n        }\n        IMisoLiquidity(newLauncher).initLauncher(_data);\n\n        if (_tokenSupply > 0) {\n            uint256 remainingBalance = IERC20(_token).balanceOf(address(this));\n            if (remainingBalance > 0) {\n                _safeTransfer(_token, msg.sender, remainingBalance);\n            }\n        }\n        return newLauncher;\n    }\n\n\n    /**\n     * @notice Function to add a launcher template to create through factory.\n     * @dev Should have operator access\n     * @param _template Launcher template address.\n    */\n    function addLiquidityLauncherTemplate(address _template) external {\n        require(\n            accessControls.hasAdminRole(msg.sender) ||\n            accessControls.hasOperatorRole(msg.sender),\n            \"MISOLauncher: Sender must be operator\"\n        );\n        uint256 templateType = IMisoLiquidity(_template).liquidityTemplate();\n        require(templateType > 0, \"MISOLauncher: Incorrect template code \");\n        launcherTemplateId++;\n\n        launcherTemplates[launcherTemplateId] = _template;\n        launcherTemplateToId[_template] = launcherTemplateId;\n        currentTemplateId[templateType] = launcherTemplateId;\n        emit LauncherTemplateAdded(_template, launcherTemplateId);\n\n    }\n\n    /**\n     * @dev Function to remove a launcher template from factory.\n     * @dev Should have operator access.\n     * @param _templateId Id of the template to be deleted.\n     */\n    function removeLiquidityLauncherTemplate(uint256 _templateId) external {\n        require(\n            accessControls.hasAdminRole(msg.sender) ||\n            accessControls.hasOperatorRole(msg.sender),\n            \"MISOLauncher: Sender must be operator\"\n        );\n        require(launcherTemplates[_templateId] != address(0));\n        address _template = launcherTemplates[_templateId];\n        launcherTemplates[_templateId] = address(0);\n        delete launcherTemplateToId[_template];\n        emit LauncherTemplateRemoved(_template, _templateId);\n    }\n\n    /**\n     * @notice Get the address based on launcher template ID.\n     * @param _templateId Launcher template ID.\n     * @return address of the required template ID.\n     */\n    function getLiquidityLauncherTemplate(uint256 _templateId) external view returns (address) {\n        return launcherTemplates[_templateId];\n    }\n\n    function getTemplateId(address _launcherTemplate) external view returns (uint256) {\n        return launcherTemplateToId[_launcherTemplate];\n    }\n\n    /**\n     * @notice Get the total number of launchers in the contract.\n     * @return uint256 Launcher count.\n     */\n    function numberOfLiquidityLauncherContracts() external view returns (uint256) {\n        return launchers.length;\n    }\n\n    function minimumFee() external view returns(uint128) {\n        return launcherFees.minimumFee;\n    }\n\n    function getLauncherTemplateId(address _launcher) external view returns(uint64) {\n        return launcherInfo[_launcher].templateId;\n    }\n    function getLaunchers() external view returns(address[] memory) {\n        return launchers;\n    }\n\n\n}\n",
  "sourcePath": "contracts/MISOLauncher.sol",
  "type": "contract"
}