{
  "abi": [
    {
      "inputs": [
        {
          "internalType": "address",
          "name": "_tokenFactory",
          "type": "address"
        },
        {
          "internalType": "address",
          "name": "_weth",
          "type": "address"
        },
        {
          "internalType": "address",
          "name": "_misoMarket",
          "type": "address"
        },
        {
          "internalType": "address",
          "name": "_misoLauncher",
          "type": "address"
        },
        {
          "internalType": "address",
          "name": "_uniswapFactory",
          "type": "address"
        },
        {
          "internalType": "address",
          "name": "_farmFactory",
          "type": "address"
        }
      ],
      "stateMutability": "nonpayable",
      "type": "constructor"
    },
    {
      "inputs": [],
      "name": "farmFactory",
      "outputs": [
        {
          "internalType": "contract IMISOFarmFactory",
          "name": "",
          "type": "address"
        }
      ],
      "stateMutability": "view",
      "type": "function"
    },
    {
      "inputs": [],
      "name": "misoLauncher",
      "outputs": [
        {
          "internalType": "contract IMisoLauncher",
          "name": "",
          "type": "address"
        }
      ],
      "stateMutability": "view",
      "type": "function"
    },
    {
      "inputs": [],
      "name": "misoMarket",
      "outputs": [
        {
          "internalType": "contract IMISOMarket",
          "name": "",
          "type": "address"
        }
      ],
      "stateMutability": "view",
      "type": "function"
    },
    {
      "inputs": [
        {
          "internalType": "string",
          "name": "_name",
          "type": "string"
        },
        {
          "internalType": "string",
          "name": "_symbol",
          "type": "string"
        },
        {
          "internalType": "address",
          "name": "accessControl",
          "type": "address"
        }
      ],
      "name": "prepareMiso",
      "outputs": [],
      "stateMutability": "payable",
      "type": "function"
    },
    {
      "inputs": [],
      "name": "tokenFactory",
      "outputs": [
        {
          "internalType": "contract IMISOTokenFactory",
          "name": "",
          "type": "address"
        }
      ],
      "stateMutability": "view",
      "type": "function"
    },
    {
      "inputs": [],
      "name": "uniswapFactory",
      "outputs": [
        {
          "internalType": "address",
          "name": "",
          "type": "address"
        }
      ],
      "stateMutability": "view",
      "type": "function"
    },
    {
      "inputs": [],
      "name": "weth",
      "outputs": [
        {
          "internalType": "contract IWETH",
          "name": "",
          "type": "address"
        }
      ],
      "stateMutability": "view",
      "type": "function"
    }
  ],
  "bytecode": "608060405234801561001057600080fd5b50604051610a91380380610a91833981810160405260c081101561003357600080fd5b508051602082015160408301516060840151608085015160a090950151600080546001600160a01b039687166001600160a01b03199182161790915560028054958716958216959095179094556001805493861693851693909317909255600380549185169184169190911790556005805494841694831694909417909355600480549290931691161790556109c3806100ce6000396000f3fe6080604052600436106100705760003560e01c80636d25e1751161004e5780636d25e175146100d05780638bdb2afa146100e5578063cd164671146100fa578063e77772fe146101c757610070565b80630b1481291461007557806327257e09146100a65780633fc8cef3146100bb575b600080fd5b34801561008157600080fd5b5061008a6101dc565b604080516001600160a01b039092168252519081900360200190f35b3480156100b257600080fd5b5061008a6101eb565b3480156100c757600080fd5b5061008a6101fa565b3480156100dc57600080fd5b5061008a610209565b3480156100f157600080fd5b5061008a610218565b6101c56004803603606081101561011057600080fd5b81019060208101813564010000000081111561012b57600080fd5b82018360208201111561013d57600080fd5b8035906020019184600183028401116401000000008311171561015f57600080fd5b91939092909160208101903564010000000081111561017d57600080fd5b82018360208201111561018f57600080fd5b803590602001918460018302840111640100000000831117156101b157600080fd5b9193509150356001600160a01b0316610227565b005b3480156101d357600080fd5b5061008a61097e565b6001546001600160a01b031681565b6003546001600160a01b031681565b6002546001600160a01b031681565b6004546001600160a01b031681565b6005546001600160a01b031681565b60006103e89050600061012c905060008060009054906101000a90046001600160a01b03166001600160a01b0316630795551d898989896001338a6040518863ffffffff1660e01b8152600401808060200180602001868152602001856001600160a01b0316815260200184815260200183810383528a8a82818152602001925080828437600083820152601f01601f191690910184810383528881526020019050888880828437600081840152601f19601f8201169050808301925050509950505050505050505050602060405180830381600087803b15801561030b57600080fd5b505af115801561031f573d6000803e3d6000fd5b505050506040513d602081101561033557600080fd5b50516001546040805163095ea7b360e01b81526001600160a01b0392831660048201526024810186905290519293509083169163095ea7b3916044808201926020929091908290030181600087803b15801561039057600080fd5b505af11580156103a4573d6000803e3d6000fd5b505050506040513d60208110156103ba57600080fd5b5050600354604080516305da9eaf60e31b81526001600482015290516000926001600160a01b031691632ed4f57891602480830192602092919082900301818787803b15801561040957600080fd5b505af115801561041d573d6000803e3d6000fd5b505050506040513d602081101561043357600080fd5b505160035460408051630632cef960e41b8152600481018490526001600160a01b0386811660248301526000604483018190526064830181905260a0608484015260a4830181905292519495509193919092169163632cef909160e480830192602092919082900301818787803b1580156104ad57600080fd5b505af11580156104c1573d6000803e3d6000fd5b505050506040513d60208110156104d757600080fd5b505160025460055460408051637855985160e01b81526001600160a01b038b8116600483015288811660248301529384166044820152918316606483810191909152336084840181905260a4840181905260c860c4850181905260e48501839052603c61010486018190529351969750909586956103e895939492938692918a16916378559851916101248082019260009290919082900301818387803b15801561058157600080fd5b505af1158015610595573d6000803e3d6000fd5b50505050896001600160a01b031663a9059cbb89836040518363ffffffff1660e01b815260040180836001600160a01b0316815260200182815260200192505050602060405180830381600087803b1580156105f057600080fd5b505af1158015610604573d6000803e3d6000fd5b505050506040513d602081101561061a57600080fd5b505060015460408051639baea4bf60e01b81526001600160a01b038d81166004830152602482018f905273eeeeeeeeeeeeeeeeeeeeeeeeeeeeeeeeeeeeeeee6044830152426005810160648085018290529182016084850181905260a4850183905260c860c486018190528f851660e487015233610104870181905260026101248801529651929e50909c50919a50909850929650600095509092169250639baea4bf916101448082019260209290919082900301818787803b1580156106e057600080fd5b505af11580156106f4573d6000803e3d6000fd5b505050506040513d602081101561070a57600080fd5b8101908080519060200190929190505050905050505050505060003390506000600a90506000600460009054906101000a90046001600160a01b03166001600160a01b031663a4f81e4f3488670de0b6b3a764000043600a01888f60016040518863ffffffff1660e01b815260040180876001600160a01b03168152602001868152602001858152602001846001600160a01b03168152602001836001600160a01b0316815260200182815260200196505050505050506020604051808303818588803b1580156107da57600080fd5b505af11580156107ee573d6000803e3d6000fd5b50505050506040513d602081101561080557600080fd5b50516040805163a9059cbb60e01b81526001600160a01b0380841660048301526024820186905291519293509088169163a9059cbb916044808201926020929091908290030181600087803b15801561085d57600080fd5b505af1158015610871573d6000803e3d6000fd5b505050506040513d602081101561088757600080fd5b5050604080516364f2bd5360e11b81529051600a916000916001600160a01b0388169163c9e57aa6916004808301926020929190829003018186803b1580156108cf57600080fd5b505afa1580156108e3573d6000803e3d6000fd5b505050506040513d60208110156108f957600080fd5b50516040805163d69de7e760e01b8152600481018590526001600160a01b038084166024830152600060448301819052925193945086169263d69de7e79260648084019391929182900301818387803b15801561095557600080fd5b505af1158015610969573d6000803e3d6000fd5b50505050505050505050505050505050505050565b6000546001600160a01b03168156fea264697066735822122076cac40fbe80c38f95298748a0657263353a7c932acfd6cee61d8ade8538320b64736f6c634300060c0033",
  "bytecodeSha1": "39995af9e709748c9002cbd73382d1b8f7252eac",
  "compiler": {
    "evm_version": "istanbul",
    "optimizer": {
      "enabled": true,
      "runs": 200
    },
    "version": "0.6.12+commit.27d51765"
  },
  "contractName": "MISORecipe01",
  "language": "Solidity",
  "natspec": {
    "kind": "dev",
    "methods": {
      "constructor": {
        "params": {
          "_farmFactory": "- A factory that makes farms that can stake and reward your new tokens \"",
          "_misoLauncher": "- MISOLauncher is a vault that collects tokens and sends them to SushiSwap",
          "_misoMarket": "- Factory that produces a market / auction to sell your tokens",
          "_tokenFactory": "- Token Factory that produced fresh new tokens",
          "_uniswapFactory": "- The SushiSwap factory to create new pools",
          "_weth": "- Wrapped Ethers contract address"
        }
      },
      "prepareMiso(string,string,address)": {
        "details": "Gateway to prepare a MISO recipe   "
      }
    },
    "version": 1
  },
  "opcodes": "PUSH1 0x80 PUSH1 0x40 MSTORE PUSH1 0x4 CALLDATASIZE LT PUSH2 0x70 JUMPI PUSH1 0x0 CALLDATALOAD PUSH1 0xE0 SHR DUP1 PUSH4 0x6D25E175 GT PUSH2 0x4E JUMPI DUP1 PUSH4 0x6D25E175 EQ PUSH2 0xD0 JUMPI DUP1 PUSH4 0x8BDB2AFA EQ PUSH2 0xE5 JUMPI DUP1 PUSH4 0xCD164671 EQ PUSH2 0xFA JUMPI DUP1 PUSH4 0xE77772FE EQ PUSH2 0x1C7 JUMPI PUSH2 0x70 JUMP JUMPDEST DUP1 PUSH4 0xB148129 EQ PUSH2 0x75 JUMPI DUP1 PUSH4 0x27257E09 EQ PUSH2 0xA6 JUMPI DUP1 PUSH4 0x3FC8CEF3 EQ PUSH2 0xBB JUMPI JUMPDEST PUSH1 0x0 DUP1 REVERT JUMPDEST CALLVALUE DUP1 ISZERO PUSH2 0x81 JUMPI PUSH1 0x0 DUP1 REVERT JUMPDEST POP PUSH2 0x8A PUSH2 0x1DC JUMP JUMPDEST PUSH1 0x40 DUP1 MLOAD PUSH1 0x1 PUSH1 0x1 PUSH1 0xA0 SHL SUB SWAP1 SWAP3 AND DUP3 MSTORE MLOAD SWAP1 DUP2 SWAP1 SUB PUSH1 0x20 ADD SWAP1 RETURN JUMPDEST CALLVALUE DUP1 ISZERO PUSH2 0xB2 JUMPI PUSH1 0x0 DUP1 REVERT JUMPDEST POP PUSH2 0x8A PUSH2 0x1EB JUMP JUMPDEST CALLVALUE DUP1 ISZERO PUSH2 0xC7 JUMPI PUSH1 0x0 DUP1 REVERT JUMPDEST POP PUSH2 0x8A PUSH2 0x1FA JUMP JUMPDEST CALLVALUE DUP1 ISZERO PUSH2 0xDC JUMPI PUSH1 0x0 DUP1 REVERT JUMPDEST POP PUSH2 0x8A PUSH2 0x209 JUMP JUMPDEST CALLVALUE DUP1 ISZERO PUSH2 0xF1 JUMPI PUSH1 0x0 DUP1 REVERT JUMPDEST POP PUSH2 0x8A PUSH2 0x218 JUMP JUMPDEST PUSH2 0x1C5 PUSH1 0x4 DUP1 CALLDATASIZE SUB PUSH1 0x60 DUP2 LT ISZERO PUSH2 0x110 JUMPI PUSH1 0x0 DUP1 REVERT JUMPDEST DUP2 ADD SWAP1 PUSH1 0x20 DUP2 ADD DUP2 CALLDATALOAD PUSH5 0x100000000 DUP2 GT ISZERO PUSH2 0x12B JUMPI PUSH1 0x0 DUP1 REVERT JUMPDEST DUP3 ADD DUP4 PUSH1 0x20 DUP3 ADD GT ISZERO PUSH2 0x13D JUMPI PUSH1 0x0 DUP1 REVERT JUMPDEST DUP1 CALLDATALOAD SWAP1 PUSH1 0x20 ADD SWAP2 DUP5 PUSH1 0x1 DUP4 MUL DUP5 ADD GT PUSH5 0x100000000 DUP4 GT OR ISZERO PUSH2 0x15F JUMPI PUSH1 0x0 DUP1 REVERT JUMPDEST SWAP2 SWAP4 SWAP1 SWAP3 SWAP1 SWAP2 PUSH1 0x20 DUP2 ADD SWAP1 CALLDATALOAD PUSH5 0x100000000 DUP2 GT ISZERO PUSH2 0x17D JUMPI PUSH1 0x0 DUP1 REVERT JUMPDEST DUP3 ADD DUP4 PUSH1 0x20 DUP3 ADD GT ISZERO PUSH2 0x18F JUMPI PUSH1 0x0 DUP1 REVERT JUMPDEST DUP1 CALLDATALOAD SWAP1 PUSH1 0x20 ADD SWAP2 DUP5 PUSH1 0x1 DUP4 MUL DUP5 ADD GT PUSH5 0x100000000 DUP4 GT OR ISZERO PUSH2 0x1B1 JUMPI PUSH1 0x0 DUP1 REVERT JUMPDEST SWAP2 SWAP4 POP SWAP2 POP CALLDATALOAD PUSH1 0x1 PUSH1 0x1 PUSH1 0xA0 SHL SUB AND PUSH2 0x227 JUMP JUMPDEST STOP JUMPDEST CALLVALUE DUP1 ISZERO PUSH2 0x1D3 JUMPI PUSH1 0x0 DUP1 REVERT JUMPDEST POP PUSH2 0x8A PUSH2 0x97E JUMP JUMPDEST PUSH1 0x1 SLOAD PUSH1 0x1 PUSH1 0x1 PUSH1 0xA0 SHL SUB AND DUP2 JUMP JUMPDEST PUSH1 0x3 SLOAD PUSH1 0x1 PUSH1 0x1 PUSH1 0xA0 SHL SUB AND DUP2 JUMP JUMPDEST PUSH1 0x2 SLOAD PUSH1 0x1 PUSH1 0x1 PUSH1 0xA0 SHL SUB AND DUP2 JUMP JUMPDEST PUSH1 0x4 SLOAD PUSH1 0x1 PUSH1 0x1 PUSH1 0xA0 SHL SUB AND DUP2 JUMP JUMPDEST PUSH1 0x5 SLOAD PUSH1 0x1 PUSH1 0x1 PUSH1 0xA0 SHL SUB AND DUP2 JUMP JUMPDEST PUSH1 0x0 PUSH2 0x3E8 SWAP1 POP PUSH1 0x0 PUSH2 0x12C SWAP1 POP PUSH1 0x0 DUP1 PUSH1 0x0 SWAP1 SLOAD SWAP1 PUSH2 0x100 EXP SWAP1 DIV PUSH1 0x1 PUSH1 0x1 PUSH1 0xA0 SHL SUB AND PUSH1 0x1 PUSH1 0x1 PUSH1 0xA0 SHL SUB AND PUSH4 0x795551D DUP10 DUP10 DUP10 DUP10 PUSH1 0x1 CALLER DUP11 PUSH1 0x40 MLOAD DUP9 PUSH4 0xFFFFFFFF AND PUSH1 0xE0 SHL DUP2 MSTORE PUSH1 0x4 ADD DUP1 DUP1 PUSH1 0x20 ADD DUP1 PUSH1 0x20 ADD DUP7 DUP2 MSTORE PUSH1 0x20 ADD DUP6 PUSH1 0x1 PUSH1 0x1 PUSH1 0xA0 SHL SUB AND DUP2 MSTORE PUSH1 0x20 ADD DUP5 DUP2 MSTORE PUSH1 0x20 ADD DUP4 DUP2 SUB DUP4 MSTORE DUP11 DUP11 DUP3 DUP2 DUP2 MSTORE PUSH1 0x20 ADD SWAP3 POP DUP1 DUP3 DUP5 CALLDATACOPY PUSH1 0x0 DUP4 DUP3 ADD MSTORE PUSH1 0x1F ADD PUSH1 0x1F NOT AND SWAP1 SWAP2 ADD DUP5 DUP2 SUB DUP4 MSTORE DUP9 DUP2 MSTORE PUSH1 0x20 ADD SWAP1 POP DUP9 DUP9 DUP1 DUP3 DUP5 CALLDATACOPY PUSH1 0x0 DUP2 DUP5 ADD MSTORE PUSH1 0x1F NOT PUSH1 0x1F DUP3 ADD AND SWAP1 POP DUP1 DUP4 ADD SWAP3 POP POP POP SWAP10 POP POP POP POP POP POP POP POP POP POP PUSH1 0x20 PUSH1 0x40 MLOAD DUP1 DUP4 SUB DUP2 PUSH1 0x0 DUP8 DUP1 EXTCODESIZE ISZERO DUP1 ISZERO PUSH2 0x30B JUMPI PUSH1 0x0 DUP1 REVERT JUMPDEST POP GAS CALL ISZERO DUP1 ISZERO PUSH2 0x31F JUMPI RETURNDATASIZE PUSH1 0x0 DUP1 RETURNDATACOPY RETURNDATASIZE PUSH1 0x0 REVERT JUMPDEST POP POP POP POP PUSH1 0x40 MLOAD RETURNDATASIZE PUSH1 0x20 DUP2 LT ISZERO PUSH2 0x335 JUMPI PUSH1 0x0 DUP1 REVERT JUMPDEST POP MLOAD PUSH1 0x1 SLOAD PUSH1 0x40 DUP1 MLOAD PUSH4 0x95EA7B3 PUSH1 0xE0 SHL DUP2 MSTORE PUSH1 0x1 PUSH1 0x1 PUSH1 0xA0 SHL SUB SWAP3 DUP4 AND PUSH1 0x4 DUP3 ADD MSTORE PUSH1 0x24 DUP2 ADD DUP7 SWAP1 MSTORE SWAP1 MLOAD SWAP3 SWAP4 POP SWAP1 DUP4 AND SWAP2 PUSH4 0x95EA7B3 SWAP2 PUSH1 0x44 DUP1 DUP3 ADD SWAP3 PUSH1 0x20 SWAP3 SWAP1 SWAP2 SWAP1 DUP3 SWAP1 SUB ADD DUP2 PUSH1 0x0 DUP8 DUP1 EXTCODESIZE ISZERO DUP1 ISZERO PUSH2 0x390 JUMPI PUSH1 0x0 DUP1 REVERT JUMPDEST POP GAS CALL ISZERO DUP1 ISZERO PUSH2 0x3A4 JUMPI RETURNDATASIZE PUSH1 0x0 DUP1 RETURNDATACOPY RETURNDATASIZE PUSH1 0x0 REVERT JUMPDEST POP POP POP POP PUSH1 0x40 MLOAD RETURNDATASIZE PUSH1 0x20 DUP2 LT ISZERO PUSH2 0x3BA JUMPI PUSH1 0x0 DUP1 REVERT JUMPDEST POP POP PUSH1 0x3 SLOAD PUSH1 0x40 DUP1 MLOAD PUSH4 0x5DA9EAF PUSH1 0xE3 SHL DUP2 MSTORE PUSH1 0x1 PUSH1 0x4 DUP3 ADD MSTORE SWAP1 MLOAD PUSH1 0x0 SWAP3 PUSH1 0x1 PUSH1 0x1 PUSH1 0xA0 SHL SUB AND SWAP2 PUSH4 0x2ED4F578 SWAP2 PUSH1 0x24 DUP1 DUP4 ADD SWAP3 PUSH1 0x20 SWAP3 SWAP2 SWAP1 DUP3 SWAP1 SUB ADD DUP2 DUP8 DUP8 DUP1 EXTCODESIZE ISZERO DUP1 ISZERO PUSH2 0x409 JUMPI PUSH1 0x0 DUP1 REVERT JUMPDEST POP GAS CALL ISZERO DUP1 ISZERO PUSH2 0x41D JUMPI RETURNDATASIZE PUSH1 0x0 DUP1 RETURNDATACOPY RETURNDATASIZE PUSH1 0x0 REVERT JUMPDEST POP POP POP POP PUSH1 0x40 MLOAD RETURNDATASIZE PUSH1 0x20 DUP2 LT ISZERO PUSH2 0x433 JUMPI PUSH1 0x0 DUP1 REVERT JUMPDEST POP MLOAD PUSH1 0x3 SLOAD PUSH1 0x40 DUP1 MLOAD PUSH4 0x632CEF9 PUSH1 0xE4 SHL DUP2 MSTORE PUSH1 0x4 DUP2 ADD DUP5 SWAP1 MSTORE PUSH1 0x1 PUSH1 0x1 PUSH1 0xA0 SHL SUB DUP7 DUP2 AND PUSH1 0x24 DUP4 ADD MSTORE PUSH1 0x0 PUSH1 0x44 DUP4 ADD DUP2 SWAP1 MSTORE PUSH1 0x64 DUP4 ADD DUP2 SWAP1 MSTORE PUSH1 0xA0 PUSH1 0x84 DUP5 ADD MSTORE PUSH1 0xA4 DUP4 ADD DUP2 SWAP1 MSTORE SWAP3 MLOAD SWAP5 SWAP6 POP SWAP2 SWAP4 SWAP2 SWAP1 SWAP3 AND SWAP2 PUSH4 0x632CEF90 SWAP2 PUSH1 0xE4 DUP1 DUP4 ADD SWAP3 PUSH1 0x20 SWAP3 SWAP2 SWAP1 DUP3 SWAP1 SUB ADD DUP2 DUP8 DUP8 DUP1 EXTCODESIZE ISZERO DUP1 ISZERO PUSH2 0x4AD JUMPI PUSH1 0x0 DUP1 REVERT JUMPDEST POP GAS CALL ISZERO DUP1 ISZERO PUSH2 0x4C1 JUMPI RETURNDATASIZE PUSH1 0x0 DUP1 RETURNDATACOPY RETURNDATASIZE PUSH1 0x0 REVERT JUMPDEST POP POP POP POP PUSH1 0x40 MLOAD RETURNDATASIZE PUSH1 0x20 DUP2 LT ISZERO PUSH2 0x4D7 JUMPI PUSH1 0x0 DUP1 REVERT JUMPDEST POP MLOAD PUSH1 0x2 SLOAD PUSH1 0x5 SLOAD PUSH1 0x40 DUP1 MLOAD PUSH4 0x78559851 PUSH1 0xE0 SHL DUP2 MSTORE PUSH1 0x1 PUSH1 0x1 PUSH1 0xA0 SHL SUB DUP12 DUP2 AND PUSH1 0x4 DUP4 ADD MSTORE DUP9 DUP2 AND PUSH1 0x24 DUP4 ADD MSTORE SWAP4 DUP5 AND PUSH1 0x44 DUP3 ADD MSTORE SWAP2 DUP4 AND PUSH1 0x64 DUP4 DUP2 ADD SWAP2 SWAP1 SWAP2 MSTORE CALLER PUSH1 0x84 DUP5 ADD DUP2 SWAP1 MSTORE PUSH1 0xA4 DUP5 ADD DUP2 SWAP1 MSTORE PUSH1 0xC8 PUSH1 0xC4 DUP6 ADD DUP2 SWAP1 MSTORE PUSH1 0xE4 DUP6 ADD DUP4 SWAP1 MSTORE PUSH1 0x3C PUSH2 0x104 DUP7 ADD DUP2 SWAP1 MSTORE SWAP4 MLOAD SWAP7 SWAP8 POP SWAP1 SWAP6 DUP7 SWAP6 PUSH2 0x3E8 SWAP6 SWAP4 SWAP5 SWAP3 SWAP4 DUP7 SWAP3 SWAP2 DUP11 AND SWAP2 PUSH4 0x78559851 SWAP2 PUSH2 0x124 DUP1 DUP3 ADD SWAP3 PUSH1 0x0 SWAP3 SWAP1 SWAP2 SWAP1 DUP3 SWAP1 SUB ADD DUP2 DUP4 DUP8 DUP1 EXTCODESIZE ISZERO DUP1 ISZERO PUSH2 0x581 JUMPI PUSH1 0x0 DUP1 REVERT JUMPDEST POP GAS CALL ISZERO DUP1 ISZERO PUSH2 0x595 JUMPI RETURNDATASIZE PUSH1 0x0 DUP1 RETURNDATACOPY RETURNDATASIZE PUSH1 0x0 REVERT JUMPDEST POP POP POP POP DUP10 PUSH1 0x1 PUSH1 0x1 PUSH1 0xA0 SHL SUB AND PUSH4 0xA9059CBB DUP10 DUP4 PUSH1 0x40 MLOAD DUP4 PUSH4 0xFFFFFFFF AND PUSH1 0xE0 SHL DUP2 MSTORE PUSH1 0x4 ADD DUP1 DUP4 PUSH1 0x1 PUSH1 0x1 PUSH1 0xA0 SHL SUB AND DUP2 MSTORE PUSH1 0x20 ADD DUP3 DUP2 MSTORE PUSH1 0x20 ADD SWAP3 POP POP POP PUSH1 0x20 PUSH1 0x40 MLOAD DUP1 DUP4 SUB DUP2 PUSH1 0x0 DUP8 DUP1 EXTCODESIZE ISZERO DUP1 ISZERO PUSH2 0x5F0 JUMPI PUSH1 0x0 DUP1 REVERT JUMPDEST POP GAS CALL ISZERO DUP1 ISZERO PUSH2 0x604 JUMPI RETURNDATASIZE PUSH1 0x0 DUP1 RETURNDATACOPY RETURNDATASIZE PUSH1 0x0 REVERT JUMPDEST POP POP POP POP PUSH1 0x40 MLOAD RETURNDATASIZE PUSH1 0x20 DUP2 LT ISZERO PUSH2 0x61A JUMPI PUSH1 0x0 DUP1 REVERT JUMPDEST POP POP PUSH1 0x1 SLOAD PUSH1 0x40 DUP1 MLOAD PUSH4 0x9BAEA4BF PUSH1 0xE0 SHL DUP2 MSTORE PUSH1 0x1 PUSH1 0x1 PUSH1 0xA0 SHL SUB DUP14 DUP2 AND PUSH1 0x4 DUP4 ADD MSTORE PUSH1 0x24 DUP3 ADD DUP16 SWAP1 MSTORE PUSH20 0xEEEEEEEEEEEEEEEEEEEEEEEEEEEEEEEEEEEEEEEE PUSH1 0x44 DUP4 ADD MSTORE TIMESTAMP PUSH1 0x5 DUP2 ADD PUSH1 0x64 DUP1 DUP6 ADD DUP3 SWAP1 MSTORE SWAP2 DUP3 ADD PUSH1 0x84 DUP6 ADD DUP2 SWAP1 MSTORE PUSH1 0xA4 DUP6 ADD DUP4 SWAP1 MSTORE PUSH1 0xC8 PUSH1 0xC4 DUP7 ADD DUP2 SWAP1 MSTORE DUP16 DUP6 AND PUSH1 0xE4 DUP8 ADD MSTORE CALLER PUSH2 0x104 DUP8 ADD DUP2 SWAP1 MSTORE PUSH1 0x2 PUSH2 0x124 DUP9 ADD MSTORE SWAP7 MLOAD SWAP3 SWAP15 POP SWAP1 SWAP13 POP SWAP2 SWAP11 POP SWAP1 SWAP9 POP SWAP3 SWAP7 POP PUSH1 0x0 SWAP6 POP SWAP1 SWAP3 AND SWAP3 POP PUSH4 0x9BAEA4BF SWAP2 PUSH2 0x144 DUP1 DUP3 ADD SWAP3 PUSH1 0x20 SWAP3 SWAP1 SWAP2 SWAP1 DUP3 SWAP1 SUB ADD DUP2 DUP8 DUP8 DUP1 EXTCODESIZE ISZERO DUP1 ISZERO PUSH2 0x6E0 JUMPI PUSH1 0x0 DUP1 REVERT JUMPDEST POP GAS CALL ISZERO DUP1 ISZERO PUSH2 0x6F4 JUMPI RETURNDATASIZE PUSH1 0x0 DUP1 RETURNDATACOPY RETURNDATASIZE PUSH1 0x0 REVERT JUMPDEST POP POP POP POP PUSH1 0x40 MLOAD RETURNDATASIZE PUSH1 0x20 DUP2 LT ISZERO PUSH2 0x70A JUMPI PUSH1 0x0 DUP1 REVERT JUMPDEST DUP2 ADD SWAP1 DUP1 DUP1 MLOAD SWAP1 PUSH1 0x20 ADD SWAP1 SWAP3 SWAP2 SWAP1 POP POP POP SWAP1 POP POP POP POP POP POP POP PUSH1 0x0 CALLER SWAP1 POP PUSH1 0x0 PUSH1 0xA SWAP1 POP PUSH1 0x0 PUSH1 0x4 PUSH1 0x0 SWAP1 SLOAD SWAP1 PUSH2 0x100 EXP SWAP1 DIV PUSH1 0x1 PUSH1 0x1 PUSH1 0xA0 SHL SUB AND PUSH1 0x1 PUSH1 0x1 PUSH1 0xA0 SHL SUB AND PUSH4 0xA4F81E4F CALLVALUE DUP9 PUSH8 0xDE0B6B3A7640000 NUMBER PUSH1 0xA ADD DUP9 DUP16 PUSH1 0x1 PUSH1 0x40 MLOAD DUP9 PUSH4 0xFFFFFFFF AND PUSH1 0xE0 SHL DUP2 MSTORE PUSH1 0x4 ADD DUP1 DUP8 PUSH1 0x1 PUSH1 0x1 PUSH1 0xA0 SHL SUB AND DUP2 MSTORE PUSH1 0x20 ADD DUP7 DUP2 MSTORE PUSH1 0x20 ADD DUP6 DUP2 MSTORE PUSH1 0x20 ADD DUP5 PUSH1 0x1 PUSH1 0x1 PUSH1 0xA0 SHL SUB AND DUP2 MSTORE PUSH1 0x20 ADD DUP4 PUSH1 0x1 PUSH1 0x1 PUSH1 0xA0 SHL SUB AND DUP2 MSTORE PUSH1 0x20 ADD DUP3 DUP2 MSTORE PUSH1 0x20 ADD SWAP7 POP POP POP POP POP POP POP PUSH1 0x20 PUSH1 0x40 MLOAD DUP1 DUP4 SUB DUP2 DUP6 DUP9 DUP1 EXTCODESIZE ISZERO DUP1 ISZERO PUSH2 0x7DA JUMPI PUSH1 0x0 DUP1 REVERT JUMPDEST POP GAS CALL ISZERO DUP1 ISZERO PUSH2 0x7EE JUMPI RETURNDATASIZE PUSH1 0x0 DUP1 RETURNDATACOPY RETURNDATASIZE PUSH1 0x0 REVERT JUMPDEST POP POP POP POP POP PUSH1 0x40 MLOAD RETURNDATASIZE PUSH1 0x20 DUP2 LT ISZERO PUSH2 0x805 JUMPI PUSH1 0x0 DUP1 REVERT JUMPDEST POP MLOAD PUSH1 0x40 DUP1 MLOAD PUSH4 0xA9059CBB PUSH1 0xE0 SHL DUP2 MSTORE PUSH1 0x1 PUSH1 0x1 PUSH1 0xA0 SHL SUB DUP1 DUP5 AND PUSH1 0x4 DUP4 ADD MSTORE PUSH1 0x24 DUP3 ADD DUP7 SWAP1 MSTORE SWAP2 MLOAD SWAP3 SWAP4 POP SWAP1 DUP9 AND SWAP2 PUSH4 0xA9059CBB SWAP2 PUSH1 0x44 DUP1 DUP3 ADD SWAP3 PUSH1 0x20 SWAP3 SWAP1 SWAP2 SWAP1 DUP3 SWAP1 SUB ADD DUP2 PUSH1 0x0 DUP8 DUP1 EXTCODESIZE ISZERO DUP1 ISZERO PUSH2 0x85D JUMPI PUSH1 0x0 DUP1 REVERT JUMPDEST POP GAS CALL ISZERO DUP1 ISZERO PUSH2 0x871 JUMPI RETURNDATASIZE PUSH1 0x0 DUP1 RETURNDATACOPY RETURNDATASIZE PUSH1 0x0 REVERT JUMPDEST POP POP POP POP PUSH1 0x40 MLOAD RETURNDATASIZE PUSH1 0x20 DUP2 LT ISZERO PUSH2 0x887 JUMPI PUSH1 0x0 DUP1 REVERT JUMPDEST POP POP PUSH1 0x40 DUP1 MLOAD PUSH4 0x64F2BD53 PUSH1 0xE1 SHL DUP2 MSTORE SWAP1 MLOAD PUSH1 0xA SWAP2 PUSH1 0x0 SWAP2 PUSH1 0x1 PUSH1 0x1 PUSH1 0xA0 SHL SUB DUP9 AND SWAP2 PUSH4 0xC9E57AA6 SWAP2 PUSH1 0x4 DUP1 DUP4 ADD SWAP3 PUSH1 0x20 SWAP3 SWAP2 SWAP1 DUP3 SWAP1 SUB ADD DUP2 DUP7 DUP1 EXTCODESIZE ISZERO DUP1 ISZERO PUSH2 0x8CF JUMPI PUSH1 0x0 DUP1 REVERT JUMPDEST POP GAS STATICCALL ISZERO DUP1 ISZERO PUSH2 0x8E3 JUMPI RETURNDATASIZE PUSH1 0x0 DUP1 RETURNDATACOPY RETURNDATASIZE PUSH1 0x0 REVERT JUMPDEST POP POP POP POP PUSH1 0x40 MLOAD RETURNDATASIZE PUSH1 0x20 DUP2 LT ISZERO PUSH2 0x8F9 JUMPI PUSH1 0x0 DUP1 REVERT JUMPDEST POP MLOAD PUSH1 0x40 DUP1 MLOAD PUSH4 0xD69DE7E7 PUSH1 0xE0 SHL DUP2 MSTORE PUSH1 0x4 DUP2 ADD DUP6 SWAP1 MSTORE PUSH1 0x1 PUSH1 0x1 PUSH1 0xA0 SHL SUB DUP1 DUP5 AND PUSH1 0x24 DUP4 ADD MSTORE PUSH1 0x0 PUSH1 0x44 DUP4 ADD DUP2 SWAP1 MSTORE SWAP3 MLOAD SWAP4 SWAP5 POP DUP7 AND SWAP3 PUSH4 0xD69DE7E7 SWAP3 PUSH1 0x64 DUP1 DUP5 ADD SWAP4 SWAP2 SWAP3 SWAP2 DUP3 SWAP1 SUB ADD DUP2 DUP4 DUP8 DUP1 EXTCODESIZE ISZERO DUP1 ISZERO PUSH2 0x955 JUMPI PUSH1 0x0 DUP1 REVERT JUMPDEST POP GAS CALL ISZERO DUP1 ISZERO PUSH2 0x969 JUMPI RETURNDATASIZE PUSH1 0x0 DUP1 RETURNDATACOPY RETURNDATASIZE PUSH1 0x0 REVERT JUMPDEST POP POP POP POP POP POP POP POP POP POP POP POP POP POP POP POP POP POP POP JUMP JUMPDEST PUSH1 0x0 SLOAD PUSH1 0x1 PUSH1 0x1 PUSH1 0xA0 SHL SUB AND DUP2 JUMP INVALID LOG2 PUSH5 0x6970667358 0x22 SLT KECCAK256 PUSH23 0xCAC40FBE80C38F95298748A0657263353A7C932ACFD6CE 0xE6 SAR DUP11 0xDE DUP6 CODESIZE ORIGIN SIGNEXTEND PUSH5 0x736F6C6343 STOP MOD 0xC STOP CALLER ",
  "sha1": "35ef2b1e79cde8de3046dd6acf6fd198a58eb572",
  "source": "pragma solidity 0.6.12;\n\nimport \"../OpenZeppelin/math/SafeMath.sol\";\nimport \"../interfaces/IERC20.sol\";\nimport \"../interfaces/IWETH9.sol\";\nimport \"../interfaces/IMisoCrowdsale.sol\";\nimport \"../interfaces/ISushiToken.sol\";\nimport \"../interfaces/IMisoLauncher.sol\";\n\n// MVP for preparing a MISO set menu\n\ninterface IMISOTokenFactory {\n    function createToken(\n        string memory _name,\n        string memory _symbol,\n        uint256 _templateId, \n        address _admin,\n        uint256 _initialSupply\n    ) external returns (address token);\n}\n\ninterface IMISOMarket {\n    function createCrowdsale(\n        address _token, \n        uint256 _tokenSupply, \n        address _paymentCurrency,\n        uint256 _startDate, \n        uint256 _endDate, \n        uint256 _rate, \n        uint256 _goal, \n        address _operator,\n        address payable _wallet,\n        uint256 _templateId\n    ) external returns (address newCrowdsale);\n}\n\n\ninterface IPoolLiquidity {\n   function initPoolLiquidity(\n            address _accessControls,\n            address _token,\n            address _WETH,\n            address _factory,\n            address _owner,\n            address _wallet,\n            uint256 _deadline,\n            uint256 _launchwindow,\n            uint256 _locktime\n    ) external;\n    function getLPTokenAddress() external view returns (address);\n}\n\ninterface IMISOFarmFactory {\n    function createFarm(\n            address _rewards,\n            uint256 _rewardsPerBlock,\n            uint256 _startBlock,\n            address _devaddr,\n            address _accessControls,\n            uint256 _templateId\n    ) external payable returns (address farm);\n}\n\ninterface IMasterChef {\n    function initFarm(\n        address _rewards,\n        uint256 _rewardsPerBlock,\n        uint256 _startBlock,\n        address _devaddr,\n        address _accessControls\n    ) external; \n    function addToken(uint256 _allocPoint, IERC20 _lpToken, bool _withUpdate) external;\n}\n\ncontract MISORecipe01 {\n\n    using SafeMath for uint256;\n\n    IMISOTokenFactory public tokenFactory;\n    IMISOMarket public misoMarket;\n    IWETH public weth;\n    IMisoLauncher public misoLauncher; \n    IMISOFarmFactory public farmFactory;\n\n    address public uniswapFactory;\n\n    /** \n     * @notice Recipe Number 01\n     * @param _tokenFactory - Token Factory that produced fresh new tokens\n     * @param _weth - Wrapped Ethers contract address\n     * @param _misoMarket - Factory that produces a market / auction to sell your tokens\n     * @param _misoLauncher - MISOLauncher is a vault that collects tokens and sends them to SushiSwap\n     * @param _uniswapFactory - The SushiSwap factory to create new pools\n     * @param _farmFactory - A factory that makes farms that can stake and reward your new tokens\n    \"*/\n    constructor(\n        address _tokenFactory,\n        address _weth,\n        address _misoMarket,\n        address _misoLauncher,\n        address _uniswapFactory,\n        address _farmFactory\n    ) public {\n        tokenFactory = IMISOTokenFactory(_tokenFactory);\n        weth = IWETH(_weth);\n        misoMarket = IMISOMarket(_misoMarket);\n        misoLauncher = IMisoLauncher(_misoLauncher);\n        uniswapFactory = _uniswapFactory;\n        farmFactory = IMISOFarmFactory(_farmFactory);\n\n    }\n\n    /** \n     * @dev Gateway to prepare a MISO recipe\n     *   \n    */\n    function prepareMiso(\n        string calldata _name,\n        string calldata _symbol,\n        address accessControl\n    )\n        external payable\n    {\n        uint256 tokensToMint = 1000;\n        uint256 tokensToMarket = 300;\n        // Mintable token\n        ISushiToken token = ISushiToken(tokenFactory.createToken(_name, _symbol, 1, msg.sender, tokensToMint));\n\n        token.approve(address(misoMarket), tokensToMarket);\n\n        // Scope for adding liquidity\n        uint256 templateId = misoLauncher.currentTemplateId(1);\n        IPoolLiquidity poolLiquidity = IPoolLiquidity(misoLauncher.createLauncher(templateId,address(token),0,address(0),\"\"));\n\n        {\n        address operator = msg.sender;\n        address payable wallet = msg.sender;\n\n        uint256 duration = 1000;\n        uint256 launchwindow = 100;\n        uint256 deadline = 200;\n        uint256 locktime = 60;\n        uint256 tokensToLiquidity = 1000;\n\n        poolLiquidity.initPoolLiquidity(accessControl,\n            address(token),\n            address(weth),\n            uniswapFactory,\n            operator,\n            wallet,\n            deadline,\n            launchwindow,\n            locktime); \n        \n        token.transfer(address(poolLiquidity),tokensToLiquidity);\n\n        }\n\n        // Scope for creating crowdsale\n        {\n        uint256 startTime = block.timestamp + 5;\n        uint256 endTime = block.timestamp + 100;\n        uint256 marketRate = 100;\n        uint256 marketGoal = 200;\n        address payable wallet = msg.sender;\n\n        IMisoCrowdsale crowdsale = IMisoCrowdsale(misoMarket.createCrowdsale(\n            address(token), \n            tokensToMarket, \n            0xEeeeeEeeeEeEeeEeEeEeeEEEeeeeEeeeeeeeEEeE,\n            startTime, \n            endTime, \n            marketRate,\n            marketGoal, \n            address(poolLiquidity), \n            wallet, \n            2\n        ));\n        }\n\n        // Scope for creating farm\n        {\n        address payable devAddr = msg.sender;\n        uint256 tokensToFarm = 10;\n        IMasterChef farm = IMasterChef(farmFactory.createFarm{value: msg.value}(\n                address(token),\n                1e18,  // rewardsPerBlock\n                block.number + 10, // startBlock\n                devAddr,\n                accessControl,\n                1));\n\n        \n        token.transfer(address(farm),tokensToFarm);\n        uint256 allocPoint = 10;\n        address lpToken = poolLiquidity.getLPTokenAddress();\n        farm.addToken(allocPoint, IERC20(lpToken), false);\n\n        }\n\n    }\n\n}",
  "sourcePath": "contracts/Recipes/MISORecipe01.sol",
  "type": "contract"
}