{
  "abi": [
    {
      "anonymous": false,
      "inputs": [
        {
          "indexed": false,
          "internalType": "address",
          "name": "newAddress",
          "type": "address"
        }
      ],
      "name": "FactoryDeprecated",
      "type": "event"
    },
    {
      "anonymous": false,
      "inputs": [
        {
          "indexed": false,
          "internalType": "uint256",
          "name": "oldFee",
          "type": "uint256"
        },
        {
          "indexed": false,
          "internalType": "uint256",
          "name": "newFee",
          "type": "uint256"
        }
      ],
      "name": "MinimumFeeUpdated",
      "type": "event"
    },
    {
      "anonymous": false,
      "inputs": [],
      "name": "MisoInitListFactory",
      "type": "event"
    },
    {
      "anonymous": false,
      "inputs": [
        {
          "indexed": true,
          "internalType": "address",
          "name": "operator",
          "type": "address"
        },
        {
          "indexed": true,
          "internalType": "address",
          "name": "addr",
          "type": "address"
        },
        {
          "indexed": false,
          "internalType": "address",
          "name": "pointList",
          "type": "address"
        },
        {
          "indexed": false,
          "internalType": "address",
          "name": "owner",
          "type": "address"
        }
      ],
      "name": "PointListDeployed",
      "type": "event"
    },
    {
      "inputs": [],
      "name": "accessControls",
      "outputs": [
        {
          "internalType": "contract MISOAccessControls",
          "name": "",
          "type": "address"
        }
      ],
      "stateMutability": "view",
      "type": "function"
    },
    {
      "inputs": [
        {
          "internalType": "address",
          "name": "_listOwner",
          "type": "address"
        },
        {
          "internalType": "address[]",
          "name": "_accounts",
          "type": "address[]"
        },
        {
          "internalType": "uint256[]",
          "name": "_amounts",
          "type": "uint256[]"
        }
      ],
      "name": "deployPointList",
      "outputs": [
        {
          "internalType": "address",
          "name": "pointList",
          "type": "address"
        }
      ],
      "stateMutability": "payable",
      "type": "function"
    },
    {
      "inputs": [
        {
          "internalType": "address",
          "name": "_newAddress",
          "type": "address"
        }
      ],
      "name": "deprecateFactory",
      "outputs": [],
      "stateMutability": "nonpayable",
      "type": "function"
    },
    {
      "inputs": [
        {
          "internalType": "address",
          "name": "_accessControls",
          "type": "address"
        },
        {
          "internalType": "address",
          "name": "_pointListTemplate",
          "type": "address"
        },
        {
          "internalType": "uint256",
          "name": "_minimumFee",
          "type": "uint256"
        }
      ],
      "name": "initListFactory",
      "outputs": [],
      "stateMutability": "nonpayable",
      "type": "function"
    },
    {
      "inputs": [
        {
          "internalType": "address",
          "name": "",
          "type": "address"
        }
      ],
      "name": "isChild",
      "outputs": [
        {
          "internalType": "bool",
          "name": "",
          "type": "bool"
        }
      ],
      "stateMutability": "view",
      "type": "function"
    },
    {
      "inputs": [
        {
          "internalType": "uint256",
          "name": "",
          "type": "uint256"
        }
      ],
      "name": "lists",
      "outputs": [
        {
          "internalType": "address",
          "name": "",
          "type": "address"
        }
      ],
      "stateMutability": "view",
      "type": "function"
    },
    {
      "inputs": [],
      "name": "minimumFee",
      "outputs": [
        {
          "internalType": "uint256",
          "name": "",
          "type": "uint256"
        }
      ],
      "stateMutability": "view",
      "type": "function"
    },
    {
      "inputs": [],
      "name": "misoDiv",
      "outputs": [
        {
          "internalType": "address payable",
          "name": "",
          "type": "address"
        }
      ],
      "stateMutability": "view",
      "type": "function"
    },
    {
      "inputs": [],
      "name": "newAddress",
      "outputs": [
        {
          "internalType": "address",
          "name": "",
          "type": "address"
        }
      ],
      "stateMutability": "view",
      "type": "function"
    },
    {
      "inputs": [],
      "name": "numberOfChildren",
      "outputs": [
        {
          "internalType": "uint256",
          "name": "",
          "type": "uint256"
        }
      ],
      "stateMutability": "view",
      "type": "function"
    },
    {
      "inputs": [],
      "name": "pointListTemplate",
      "outputs": [
        {
          "internalType": "address",
          "name": "",
          "type": "address"
        }
      ],
      "stateMutability": "view",
      "type": "function"
    },
    {
      "inputs": [
        {
          "internalType": "address payable",
          "name": "_divaddr",
          "type": "address"
        }
      ],
      "name": "setDividends",
      "outputs": [],
      "stateMutability": "nonpayable",
      "type": "function"
    },
    {
      "inputs": [
        {
          "internalType": "uint256",
          "name": "_minimumFee",
          "type": "uint256"
        }
      ],
      "name": "setMinimumFee",
      "outputs": [],
      "stateMutability": "nonpayable",
      "type": "function"
    },
    {
      "inputs": [
        {
          "internalType": "address",
          "name": "_tokenAddress",
          "type": "address"
        },
        {
          "internalType": "uint256",
          "name": "_tokens",
          "type": "uint256"
        }
      ],
      "name": "transferAnyERC20Token",
      "outputs": [
        {
          "internalType": "bool",
          "name": "success",
          "type": "bool"
        }
      ],
      "stateMutability": "nonpayable",
      "type": "function"
    },
    {
      "stateMutability": "payable",
      "type": "receive"
    }
  ],
  "bytecode": "608060405234801561001057600080fd5b50610ec6806100206000396000f3fe6080604052600436106100e15760003560e01c80639e9188ea1161007f578063dc39d06d11610059578063dc39d06d1461035c578063de0946af146103a9578063e9bb4b6b146103dc578063fc91a8971461041f576100eb565b80639e9188ea146102ff578063c9907b0814610332578063ccdb3f4514610347576100eb565b8063534349f5116100bb578063534349f514610296578063726aba7f146102ab578063748365ef146102c057806396102cf4146102d5576100eb565b8063182a7506146100f05780631a7626e71461011c578063424599a314610143576100eb565b366100eb57600080fd5b600080fd5b3480156100fc57600080fd5b5061011a6004803603602081101561011357600080fd5b5035610452565b005b34801561012857600080fd5b50610131610546565b60408051918252519081900360200190f35b61027a6004803603606081101561015957600080fd5b6001600160a01b03823516919081019060408101602082013564010000000081111561018457600080fd5b82018360208201111561019657600080fd5b803590602001918460208302840111640100000000831117156101b857600080fd5b919080806020026020016040519081016040528093929190818152602001838360200280828437600092019190915250929594936020810193503591505064010000000081111561020857600080fd5b82018360208201111561021a57600080fd5b8035906020019184602083028401116401000000008311171561023c57600080fd5b91908080602002602001604051908101604052809392919081815260200183836020028082843760009201919091525092955061054c945050505050565b604080516001600160a01b039092168252519081900360200190f35b3480156102a257600080fd5b506101316108e2565b3480156102b757600080fd5b5061027a6108e8565b3480156102cc57600080fd5b5061027a6108f7565b3480156102e157600080fd5b5061027a600480360360208110156102f857600080fd5b5035610906565b34801561030b57600080fd5b5061011a6004803603602081101561032257600080fd5b50356001600160a01b031661092d565b34801561033e57600080fd5b5061027a610a01565b34801561035357600080fd5b5061027a610a10565b34801561036857600080fd5b506103956004803603604081101561037f57600080fd5b506001600160a01b038135169060200135610a1f565b604080519115158252519081900360200190f35b3480156103b557600080fd5b5061011a600480360360208110156103cc57600080fd5b50356001600160a01b0316610af3565b3480156103e857600080fd5b5061011a600480360360608110156103ff57600080fd5b506001600160a01b03813581169160208101359091169060400135610c19565b34801561042b57600080fd5b506103956004803603602081101561044257600080fd5b50356001600160a01b0316610c9c565b6000546040805163c395fcb360e01b815233600482015290516001600160a01b039092169163c395fcb391602480820192602092909190829003018186803b15801561049d57600080fd5b505afa1580156104b1573d6000803e3d6000fd5b505050506040513d60208110156104c757600080fd5b50516105045760405162461bcd60e51b8152600401808060200182810382526021815260200180610e266021913960400191505060405180910390fd5b600354604080519182526020820183905280517fcc2f49c6214278ae5862935eff953448e8e69118d10abfafaf63ea6aa35255cb9281900390910190a1600355565b60035481565b600060035434101561055d57600080fd5b600154610572906001600160a01b0316610cb1565b835190915015610788576040805163283ba19b60e01b815230600482015290516001600160a01b0383169163283ba19b91602480830192600092919082900301818387803b1580156105c357600080fd5b505af11580156105d7573d6000803e3d6000fd5b50505050806001600160a01b0316639a80c4a184846040518363ffffffff1660e01b8152600401808060200180602001838103835285818151815260200191508051906020019060200280838360005b8381101561063f578181015183820152602001610627565b50505050905001838103825284818151815260200191508051906020019060200280838360005b8381101561067e578181015183820152602001610666565b50505050905001945050505050600060405180830381600087803b1580156106a557600080fd5b505af11580156106b9573d6000803e3d6000fd5b50505050806001600160a01b0316636595171c856040518263ffffffff1660e01b815260040180826001600160a01b03168152602001915050600060405180830381600087803b15801561070c57600080fd5b505af1158015610720573d6000803e3d6000fd5b505060408051630dccfe3160e41b815230600482015290516001600160a01b038516935063dccfe3109250602480830192600092919082900301818387803b15801561076b57600080fd5b505af115801561077f573d6000803e3d6000fd5b505050506107f0565b806001600160a01b031663283ba19b856040518263ffffffff1660e01b815260040180826001600160a01b03168152602001915050600060405180830381600087803b1580156107d757600080fd5b505af11580156107eb573d6000803e3d6000fd5b505050505b6001600160a01b038082166000818152600460209081526040808320805460ff1916600190811790915560058054808301825594527f036b6384b5eca791c62761152d0c79bb0604c104a5fb6f4eb0703f3154bb3db090930180546001600160a01b03191685179055915482519085168152938816908401528051919233927f8a13771d198709940307fb40397206144caf6dfef0f59c2951c91c72e9844454929181900390910190a334156108db576006546040516001600160a01b03909116903480156108fc02916000818181858888f193505050501580156108d9573d6000803e3d6000fd5b505b9392505050565b60055490565b6001546001600160a01b031681565b6000546001600160a01b031681565b6005818154811061091357fe5b6000918252602090912001546001600160a01b0316905081565b6000546040805163c395fcb360e01b815233600482015290516001600160a01b039092169163c395fcb391602480820192602092909190829003018186803b15801561097857600080fd5b505afa15801561098c573d6000803e3d6000fd5b505050506040513d60208110156109a257600080fd5b50516109df5760405162461bcd60e51b8152600401808060200182810382526026815260200180610e6b6026913960400191505060405180910390fd5b600680546001600160a01b0319166001600160a01b0392909216919091179055565b6006546001600160a01b031681565b6002546001600160a01b031681565b600080546040805163c395fcb360e01b815233600482015290516001600160a01b039092169163c395fcb391602480820192602092909190829003018186803b158015610a6b57600080fd5b505afa158015610a7f573d6000803e3d6000fd5b505050506040513d6020811015610a9557600080fd5b5051610ad25760405162461bcd60e51b8152600401808060200182810382526024815260200180610e476024913960400191505060405180910390fd5b600654610aea9084906001600160a01b031684610d03565b50600192915050565b6000546040805163c395fcb360e01b815233600482015290516001600160a01b039092169163c395fcb391602480820192602092909190829003018186803b158015610b3e57600080fd5b505afa158015610b52573d6000803e3d6000fd5b505050506040513d6020811015610b6857600080fd5b5051610ba55760405162461bcd60e51b8152600401808060200182810382526021815260200180610e266021913960400191505060405180910390fd5b6002546001600160a01b031615610bbb57600080fd5b604080516001600160a01b038316815290517f0ac885cfcac9d1450e80f787dbf9546001fb50414106435b10b1d27b448b86689181900360200190a1600280546001600160a01b0319166001600160a01b0392909216919091179055565b600054600160a01b900460ff1615610c3057600080fd5b60008054600180546001600160a01b038681166001600160a01b031992831617909255600385905560ff60a01b1991871692169190911716600160a01b1781556040517fe4bd612963220b47d4b6661bc82c559aaaf0350b0aad4dde4d90ce8b7ea154629190a1505050565b60046020526000908152604090205460ff1681565b6000808260601b9050604051733d602d80600a3d3981f3363d3d373d3d3d363d7360601b81528160148201526e5af43d82803e903d91602b57fd5bf360881b60288201526037816000f0949350505050565b604080516001600160a01b038481166024830152604480830185905283518084039091018152606490920183526020820180516001600160e01b031663a9059cbb60e01b178152925182516000946060949389169392918291908083835b60208310610d805780518252601f199092019160209182019101610d61565b6001836020036101000a0380198251168184511680821785525050505050509050019150506000604051808303816000865af19150503d8060008114610de2576040519150601f19603f3d011682016040523d82523d6000602084013e610de7565b606091505b5091509150818015610e15575080511580610e155750808060200190516020811015610e1257600080fd5b50515b610e1e57600080fd5b505050505056fe4c697374466163746f72793a2053656e646572206d7573742062652061646d696e4c697374466163746f72793a2053656e646572206d757374206265206f70657261746f724d49534f546f6b656e466163746f72793a2053656e646572206d7573742062652041646d696ea2646970667358221220dca990b201fb5e14e1e845b7f969b02febbbee37214a58c41dd5976a0b60506564736f6c634300060c0033",
  "bytecodeSha1": "b8bd5933a7a8fd7eaacae57449cf0a73257b2f3f",
  "compiler": {
    "evm_version": "istanbul",
    "optimizer": {
      "enabled": true,
      "runs": 200
    },
    "version": "0.6.12+commit.27d51765"
  },
  "contractName": "ListFactory",
  "language": "Solidity",
  "natspec": {
    "kind": "dev",
    "methods": {
      "accessControls()": {
        "notice": "Responsible for access rights to the contract."
      },
      "deployPointList(address,address[],uint256[])": {
        "notice": "Deploys new point list.",
        "params": {
          "_accounts": "An array of account addresses.",
          "_amounts": "An array of corresponding point amounts.",
          "_listOwner": "List owner address."
        },
        "returns": {
          "pointList": "Point list address."
        }
      },
      "deprecateFactory(address)": {
        "notice": "Deprecates factory.",
        "params": {
          "_newAddress": "Blank address."
        }
      },
      "initListFactory(address,address,uint256)": {
        "notice": "Initializes point list factory variables.",
        "params": {
          "_accessControls": "Access control contract address.",
          "_minimumFee": "Minimum fee number.",
          "_pointListTemplate": "Point list template address."
        }
      },
      "isChild(address)": {
        "notice": "Tracks if list is made by the factory."
      },
      "lists(uint256)": {
        "notice": "An array of list addresses."
      },
      "minimumFee()": {
        "notice": "Minimum fee number."
      },
      "misoDiv()": {
        "notice": "Any MISO dividends collected are sent here."
      },
      "newAddress()": {
        "notice": "New point list address."
      },
      "numberOfChildren()": {
        "notice": "Gets the number of point lists created by factory.",
        "returns": {
          "_0": "uint Number of point lists."
        }
      },
      "pointListTemplate()": {
        "notice": "Address of the point list template."
      },
      "setDividends(address)": {
        "notice": "Sets dividend address.",
        "params": {
          "_divaddr": "Dividend address."
        }
      },
      "setMinimumFee(uint256)": {
        "notice": "Sets minimum fee.",
        "params": {
          "_minimumFee": "Minimum fee number."
        }
      },
      "transferAnyERC20Token(address,uint256)": {
        "notice": "Funtion for transfering any ERC20 token.",
        "params": {
          "_tokenAddress": "Address to send from.",
          "_tokens": "Number of tokens."
        },
        "returns": {
          "success": "True."
        }
      }
    },
    "version": 1
  },
  "opcodes": "PUSH1 0x80 PUSH1 0x40 MSTORE PUSH1 0x4 CALLDATASIZE LT PUSH2 0xE1 JUMPI PUSH1 0x0 CALLDATALOAD PUSH1 0xE0 SHR DUP1 PUSH4 0x9E9188EA GT PUSH2 0x7F JUMPI DUP1 PUSH4 0xDC39D06D GT PUSH2 0x59 JUMPI DUP1 PUSH4 0xDC39D06D EQ PUSH2 0x35C JUMPI DUP1 PUSH4 0xDE0946AF EQ PUSH2 0x3A9 JUMPI DUP1 PUSH4 0xE9BB4B6B EQ PUSH2 0x3DC JUMPI DUP1 PUSH4 0xFC91A897 EQ PUSH2 0x41F JUMPI PUSH2 0xEB JUMP JUMPDEST DUP1 PUSH4 0x9E9188EA EQ PUSH2 0x2FF JUMPI DUP1 PUSH4 0xC9907B08 EQ PUSH2 0x332 JUMPI DUP1 PUSH4 0xCCDB3F45 EQ PUSH2 0x347 JUMPI PUSH2 0xEB JUMP JUMPDEST DUP1 PUSH4 0x534349F5 GT PUSH2 0xBB JUMPI DUP1 PUSH4 0x534349F5 EQ PUSH2 0x296 JUMPI DUP1 PUSH4 0x726ABA7F EQ PUSH2 0x2AB JUMPI DUP1 PUSH4 0x748365EF EQ PUSH2 0x2C0 JUMPI DUP1 PUSH4 0x96102CF4 EQ PUSH2 0x2D5 JUMPI PUSH2 0xEB JUMP JUMPDEST DUP1 PUSH4 0x182A7506 EQ PUSH2 0xF0 JUMPI DUP1 PUSH4 0x1A7626E7 EQ PUSH2 0x11C JUMPI DUP1 PUSH4 0x424599A3 EQ PUSH2 0x143 JUMPI PUSH2 0xEB JUMP JUMPDEST CALLDATASIZE PUSH2 0xEB JUMPI PUSH1 0x0 DUP1 REVERT JUMPDEST PUSH1 0x0 DUP1 REVERT JUMPDEST CALLVALUE DUP1 ISZERO PUSH2 0xFC JUMPI PUSH1 0x0 DUP1 REVERT JUMPDEST POP PUSH2 0x11A PUSH1 0x4 DUP1 CALLDATASIZE SUB PUSH1 0x20 DUP2 LT ISZERO PUSH2 0x113 JUMPI PUSH1 0x0 DUP1 REVERT JUMPDEST POP CALLDATALOAD PUSH2 0x452 JUMP JUMPDEST STOP JUMPDEST CALLVALUE DUP1 ISZERO PUSH2 0x128 JUMPI PUSH1 0x0 DUP1 REVERT JUMPDEST POP PUSH2 0x131 PUSH2 0x546 JUMP JUMPDEST PUSH1 0x40 DUP1 MLOAD SWAP2 DUP3 MSTORE MLOAD SWAP1 DUP2 SWAP1 SUB PUSH1 0x20 ADD SWAP1 RETURN JUMPDEST PUSH2 0x27A PUSH1 0x4 DUP1 CALLDATASIZE SUB PUSH1 0x60 DUP2 LT ISZERO PUSH2 0x159 JUMPI PUSH1 0x0 DUP1 REVERT JUMPDEST PUSH1 0x1 PUSH1 0x1 PUSH1 0xA0 SHL SUB DUP3 CALLDATALOAD AND SWAP2 SWAP1 DUP2 ADD SWAP1 PUSH1 0x40 DUP2 ADD PUSH1 0x20 DUP3 ADD CALLDATALOAD PUSH5 0x100000000 DUP2 GT ISZERO PUSH2 0x184 JUMPI PUSH1 0x0 DUP1 REVERT JUMPDEST DUP3 ADD DUP4 PUSH1 0x20 DUP3 ADD GT ISZERO PUSH2 0x196 JUMPI PUSH1 0x0 DUP1 REVERT JUMPDEST DUP1 CALLDATALOAD SWAP1 PUSH1 0x20 ADD SWAP2 DUP5 PUSH1 0x20 DUP4 MUL DUP5 ADD GT PUSH5 0x100000000 DUP4 GT OR ISZERO PUSH2 0x1B8 JUMPI PUSH1 0x0 DUP1 REVERT JUMPDEST SWAP2 SWAP1 DUP1 DUP1 PUSH1 0x20 MUL PUSH1 0x20 ADD PUSH1 0x40 MLOAD SWAP1 DUP2 ADD PUSH1 0x40 MSTORE DUP1 SWAP4 SWAP3 SWAP2 SWAP1 DUP2 DUP2 MSTORE PUSH1 0x20 ADD DUP4 DUP4 PUSH1 0x20 MUL DUP1 DUP3 DUP5 CALLDATACOPY PUSH1 0x0 SWAP3 ADD SWAP2 SWAP1 SWAP2 MSTORE POP SWAP3 SWAP6 SWAP5 SWAP4 PUSH1 0x20 DUP2 ADD SWAP4 POP CALLDATALOAD SWAP2 POP POP PUSH5 0x100000000 DUP2 GT ISZERO PUSH2 0x208 JUMPI PUSH1 0x0 DUP1 REVERT JUMPDEST DUP3 ADD DUP4 PUSH1 0x20 DUP3 ADD GT ISZERO PUSH2 0x21A JUMPI PUSH1 0x0 DUP1 REVERT JUMPDEST DUP1 CALLDATALOAD SWAP1 PUSH1 0x20 ADD SWAP2 DUP5 PUSH1 0x20 DUP4 MUL DUP5 ADD GT PUSH5 0x100000000 DUP4 GT OR ISZERO PUSH2 0x23C JUMPI PUSH1 0x0 DUP1 REVERT JUMPDEST SWAP2 SWAP1 DUP1 DUP1 PUSH1 0x20 MUL PUSH1 0x20 ADD PUSH1 0x40 MLOAD SWAP1 DUP2 ADD PUSH1 0x40 MSTORE DUP1 SWAP4 SWAP3 SWAP2 SWAP1 DUP2 DUP2 MSTORE PUSH1 0x20 ADD DUP4 DUP4 PUSH1 0x20 MUL DUP1 DUP3 DUP5 CALLDATACOPY PUSH1 0x0 SWAP3 ADD SWAP2 SWAP1 SWAP2 MSTORE POP SWAP3 SWAP6 POP PUSH2 0x54C SWAP5 POP POP POP POP POP JUMP JUMPDEST PUSH1 0x40 DUP1 MLOAD PUSH1 0x1 PUSH1 0x1 PUSH1 0xA0 SHL SUB SWAP1 SWAP3 AND DUP3 MSTORE MLOAD SWAP1 DUP2 SWAP1 SUB PUSH1 0x20 ADD SWAP1 RETURN JUMPDEST CALLVALUE DUP1 ISZERO PUSH2 0x2A2 JUMPI PUSH1 0x0 DUP1 REVERT JUMPDEST POP PUSH2 0x131 PUSH2 0x8E2 JUMP JUMPDEST CALLVALUE DUP1 ISZERO PUSH2 0x2B7 JUMPI PUSH1 0x0 DUP1 REVERT JUMPDEST POP PUSH2 0x27A PUSH2 0x8E8 JUMP JUMPDEST CALLVALUE DUP1 ISZERO PUSH2 0x2CC JUMPI PUSH1 0x0 DUP1 REVERT JUMPDEST POP PUSH2 0x27A PUSH2 0x8F7 JUMP JUMPDEST CALLVALUE DUP1 ISZERO PUSH2 0x2E1 JUMPI PUSH1 0x0 DUP1 REVERT JUMPDEST POP PUSH2 0x27A PUSH1 0x4 DUP1 CALLDATASIZE SUB PUSH1 0x20 DUP2 LT ISZERO PUSH2 0x2F8 JUMPI PUSH1 0x0 DUP1 REVERT JUMPDEST POP CALLDATALOAD PUSH2 0x906 JUMP JUMPDEST CALLVALUE DUP1 ISZERO PUSH2 0x30B JUMPI PUSH1 0x0 DUP1 REVERT JUMPDEST POP PUSH2 0x11A PUSH1 0x4 DUP1 CALLDATASIZE SUB PUSH1 0x20 DUP2 LT ISZERO PUSH2 0x322 JUMPI PUSH1 0x0 DUP1 REVERT JUMPDEST POP CALLDATALOAD PUSH1 0x1 PUSH1 0x1 PUSH1 0xA0 SHL SUB AND PUSH2 0x92D JUMP JUMPDEST CALLVALUE DUP1 ISZERO PUSH2 0x33E JUMPI PUSH1 0x0 DUP1 REVERT JUMPDEST POP PUSH2 0x27A PUSH2 0xA01 JUMP JUMPDEST CALLVALUE DUP1 ISZERO PUSH2 0x353 JUMPI PUSH1 0x0 DUP1 REVERT JUMPDEST POP PUSH2 0x27A PUSH2 0xA10 JUMP JUMPDEST CALLVALUE DUP1 ISZERO PUSH2 0x368 JUMPI PUSH1 0x0 DUP1 REVERT JUMPDEST POP PUSH2 0x395 PUSH1 0x4 DUP1 CALLDATASIZE SUB PUSH1 0x40 DUP2 LT ISZERO PUSH2 0x37F JUMPI PUSH1 0x0 DUP1 REVERT JUMPDEST POP PUSH1 0x1 PUSH1 0x1 PUSH1 0xA0 SHL SUB DUP2 CALLDATALOAD AND SWAP1 PUSH1 0x20 ADD CALLDATALOAD PUSH2 0xA1F JUMP JUMPDEST PUSH1 0x40 DUP1 MLOAD SWAP2 ISZERO ISZERO DUP3 MSTORE MLOAD SWAP1 DUP2 SWAP1 SUB PUSH1 0x20 ADD SWAP1 RETURN JUMPDEST CALLVALUE DUP1 ISZERO PUSH2 0x3B5 JUMPI PUSH1 0x0 DUP1 REVERT JUMPDEST POP PUSH2 0x11A PUSH1 0x4 DUP1 CALLDATASIZE SUB PUSH1 0x20 DUP2 LT ISZERO PUSH2 0x3CC JUMPI PUSH1 0x0 DUP1 REVERT JUMPDEST POP CALLDATALOAD PUSH1 0x1 PUSH1 0x1 PUSH1 0xA0 SHL SUB AND PUSH2 0xAF3 JUMP JUMPDEST CALLVALUE DUP1 ISZERO PUSH2 0x3E8 JUMPI PUSH1 0x0 DUP1 REVERT JUMPDEST POP PUSH2 0x11A PUSH1 0x4 DUP1 CALLDATASIZE SUB PUSH1 0x60 DUP2 LT ISZERO PUSH2 0x3FF JUMPI PUSH1 0x0 DUP1 REVERT JUMPDEST POP PUSH1 0x1 PUSH1 0x1 PUSH1 0xA0 SHL SUB DUP2 CALLDATALOAD DUP2 AND SWAP2 PUSH1 0x20 DUP2 ADD CALLDATALOAD SWAP1 SWAP2 AND SWAP1 PUSH1 0x40 ADD CALLDATALOAD PUSH2 0xC19 JUMP JUMPDEST CALLVALUE DUP1 ISZERO PUSH2 0x42B JUMPI PUSH1 0x0 DUP1 REVERT JUMPDEST POP PUSH2 0x395 PUSH1 0x4 DUP1 CALLDATASIZE SUB PUSH1 0x20 DUP2 LT ISZERO PUSH2 0x442 JUMPI PUSH1 0x0 DUP1 REVERT JUMPDEST POP CALLDATALOAD PUSH1 0x1 PUSH1 0x1 PUSH1 0xA0 SHL SUB AND PUSH2 0xC9C JUMP JUMPDEST PUSH1 0x0 SLOAD PUSH1 0x40 DUP1 MLOAD PUSH4 0xC395FCB3 PUSH1 0xE0 SHL DUP2 MSTORE CALLER PUSH1 0x4 DUP3 ADD MSTORE SWAP1 MLOAD PUSH1 0x1 PUSH1 0x1 PUSH1 0xA0 SHL SUB SWAP1 SWAP3 AND SWAP2 PUSH4 0xC395FCB3 SWAP2 PUSH1 0x24 DUP1 DUP3 ADD SWAP3 PUSH1 0x20 SWAP3 SWAP1 SWAP2 SWAP1 DUP3 SWAP1 SUB ADD DUP2 DUP7 DUP1 EXTCODESIZE ISZERO DUP1 ISZERO PUSH2 0x49D JUMPI PUSH1 0x0 DUP1 REVERT JUMPDEST POP GAS STATICCALL ISZERO DUP1 ISZERO PUSH2 0x4B1 JUMPI RETURNDATASIZE PUSH1 0x0 DUP1 RETURNDATACOPY RETURNDATASIZE PUSH1 0x0 REVERT JUMPDEST POP POP POP POP PUSH1 0x40 MLOAD RETURNDATASIZE PUSH1 0x20 DUP2 LT ISZERO PUSH2 0x4C7 JUMPI PUSH1 0x0 DUP1 REVERT JUMPDEST POP MLOAD PUSH2 0x504 JUMPI PUSH1 0x40 MLOAD PUSH3 0x461BCD PUSH1 0xE5 SHL DUP2 MSTORE PUSH1 0x4 ADD DUP1 DUP1 PUSH1 0x20 ADD DUP3 DUP2 SUB DUP3 MSTORE PUSH1 0x21 DUP2 MSTORE PUSH1 0x20 ADD DUP1 PUSH2 0xE26 PUSH1 0x21 SWAP2 CODECOPY PUSH1 0x40 ADD SWAP2 POP POP PUSH1 0x40 MLOAD DUP1 SWAP2 SUB SWAP1 REVERT JUMPDEST PUSH1 0x3 SLOAD PUSH1 0x40 DUP1 MLOAD SWAP2 DUP3 MSTORE PUSH1 0x20 DUP3 ADD DUP4 SWAP1 MSTORE DUP1 MLOAD PUSH32 0xCC2F49C6214278AE5862935EFF953448E8E69118D10ABFAFAF63EA6AA35255CB SWAP3 DUP2 SWAP1 SUB SWAP1 SWAP2 ADD SWAP1 LOG1 PUSH1 0x3 SSTORE JUMP JUMPDEST PUSH1 0x3 SLOAD DUP2 JUMP JUMPDEST PUSH1 0x0 PUSH1 0x3 SLOAD CALLVALUE LT ISZERO PUSH2 0x55D JUMPI PUSH1 0x0 DUP1 REVERT JUMPDEST PUSH1 0x1 SLOAD PUSH2 0x572 SWAP1 PUSH1 0x1 PUSH1 0x1 PUSH1 0xA0 SHL SUB AND PUSH2 0xCB1 JUMP JUMPDEST DUP4 MLOAD SWAP1 SWAP2 POP ISZERO PUSH2 0x788 JUMPI PUSH1 0x40 DUP1 MLOAD PUSH4 0x283BA19B PUSH1 0xE0 SHL DUP2 MSTORE ADDRESS PUSH1 0x4 DUP3 ADD MSTORE SWAP1 MLOAD PUSH1 0x1 PUSH1 0x1 PUSH1 0xA0 SHL SUB DUP4 AND SWAP2 PUSH4 0x283BA19B SWAP2 PUSH1 0x24 DUP1 DUP4 ADD SWAP3 PUSH1 0x0 SWAP3 SWAP2 SWAP1 DUP3 SWAP1 SUB ADD DUP2 DUP4 DUP8 DUP1 EXTCODESIZE ISZERO DUP1 ISZERO PUSH2 0x5C3 JUMPI PUSH1 0x0 DUP1 REVERT JUMPDEST POP GAS CALL ISZERO DUP1 ISZERO PUSH2 0x5D7 JUMPI RETURNDATASIZE PUSH1 0x0 DUP1 RETURNDATACOPY RETURNDATASIZE PUSH1 0x0 REVERT JUMPDEST POP POP POP POP DUP1 PUSH1 0x1 PUSH1 0x1 PUSH1 0xA0 SHL SUB AND PUSH4 0x9A80C4A1 DUP5 DUP5 PUSH1 0x40 MLOAD DUP4 PUSH4 0xFFFFFFFF AND PUSH1 0xE0 SHL DUP2 MSTORE PUSH1 0x4 ADD DUP1 DUP1 PUSH1 0x20 ADD DUP1 PUSH1 0x20 ADD DUP4 DUP2 SUB DUP4 MSTORE DUP6 DUP2 DUP2 MLOAD DUP2 MSTORE PUSH1 0x20 ADD SWAP2 POP DUP1 MLOAD SWAP1 PUSH1 0x20 ADD SWAP1 PUSH1 0x20 MUL DUP1 DUP4 DUP4 PUSH1 0x0 JUMPDEST DUP4 DUP2 LT ISZERO PUSH2 0x63F JUMPI DUP2 DUP2 ADD MLOAD DUP4 DUP3 ADD MSTORE PUSH1 0x20 ADD PUSH2 0x627 JUMP JUMPDEST POP POP POP POP SWAP1 POP ADD DUP4 DUP2 SUB DUP3 MSTORE DUP5 DUP2 DUP2 MLOAD DUP2 MSTORE PUSH1 0x20 ADD SWAP2 POP DUP1 MLOAD SWAP1 PUSH1 0x20 ADD SWAP1 PUSH1 0x20 MUL DUP1 DUP4 DUP4 PUSH1 0x0 JUMPDEST DUP4 DUP2 LT ISZERO PUSH2 0x67E JUMPI DUP2 DUP2 ADD MLOAD DUP4 DUP3 ADD MSTORE PUSH1 0x20 ADD PUSH2 0x666 JUMP JUMPDEST POP POP POP POP SWAP1 POP ADD SWAP5 POP POP POP POP POP PUSH1 0x0 PUSH1 0x40 MLOAD DUP1 DUP4 SUB DUP2 PUSH1 0x0 DUP8 DUP1 EXTCODESIZE ISZERO DUP1 ISZERO PUSH2 0x6A5 JUMPI PUSH1 0x0 DUP1 REVERT JUMPDEST POP GAS CALL ISZERO DUP1 ISZERO PUSH2 0x6B9 JUMPI RETURNDATASIZE PUSH1 0x0 DUP1 RETURNDATACOPY RETURNDATASIZE PUSH1 0x0 REVERT JUMPDEST POP POP POP POP DUP1 PUSH1 0x1 PUSH1 0x1 PUSH1 0xA0 SHL SUB AND PUSH4 0x6595171C DUP6 PUSH1 0x40 MLOAD DUP3 PUSH4 0xFFFFFFFF AND PUSH1 0xE0 SHL DUP2 MSTORE PUSH1 0x4 ADD DUP1 DUP3 PUSH1 0x1 PUSH1 0x1 PUSH1 0xA0 SHL SUB AND DUP2 MSTORE PUSH1 0x20 ADD SWAP2 POP POP PUSH1 0x0 PUSH1 0x40 MLOAD DUP1 DUP4 SUB DUP2 PUSH1 0x0 DUP8 DUP1 EXTCODESIZE ISZERO DUP1 ISZERO PUSH2 0x70C JUMPI PUSH1 0x0 DUP1 REVERT JUMPDEST POP GAS CALL ISZERO DUP1 ISZERO PUSH2 0x720 JUMPI RETURNDATASIZE PUSH1 0x0 DUP1 RETURNDATACOPY RETURNDATASIZE PUSH1 0x0 REVERT JUMPDEST POP POP PUSH1 0x40 DUP1 MLOAD PUSH4 0xDCCFE31 PUSH1 0xE4 SHL DUP2 MSTORE ADDRESS PUSH1 0x4 DUP3 ADD MSTORE SWAP1 MLOAD PUSH1 0x1 PUSH1 0x1 PUSH1 0xA0 SHL SUB DUP6 AND SWAP4 POP PUSH4 0xDCCFE310 SWAP3 POP PUSH1 0x24 DUP1 DUP4 ADD SWAP3 PUSH1 0x0 SWAP3 SWAP2 SWAP1 DUP3 SWAP1 SUB ADD DUP2 DUP4 DUP8 DUP1 EXTCODESIZE ISZERO DUP1 ISZERO PUSH2 0x76B JUMPI PUSH1 0x0 DUP1 REVERT JUMPDEST POP GAS CALL ISZERO DUP1 ISZERO PUSH2 0x77F JUMPI RETURNDATASIZE PUSH1 0x0 DUP1 RETURNDATACOPY RETURNDATASIZE PUSH1 0x0 REVERT JUMPDEST POP POP POP POP PUSH2 0x7F0 JUMP JUMPDEST DUP1 PUSH1 0x1 PUSH1 0x1 PUSH1 0xA0 SHL SUB AND PUSH4 0x283BA19B DUP6 PUSH1 0x40 MLOAD DUP3 PUSH4 0xFFFFFFFF AND PUSH1 0xE0 SHL DUP2 MSTORE PUSH1 0x4 ADD DUP1 DUP3 PUSH1 0x1 PUSH1 0x1 PUSH1 0xA0 SHL SUB AND DUP2 MSTORE PUSH1 0x20 ADD SWAP2 POP POP PUSH1 0x0 PUSH1 0x40 MLOAD DUP1 DUP4 SUB DUP2 PUSH1 0x0 DUP8 DUP1 EXTCODESIZE ISZERO DUP1 ISZERO PUSH2 0x7D7 JUMPI PUSH1 0x0 DUP1 REVERT JUMPDEST POP GAS CALL ISZERO DUP1 ISZERO PUSH2 0x7EB JUMPI RETURNDATASIZE PUSH1 0x0 DUP1 RETURNDATACOPY RETURNDATASIZE PUSH1 0x0 REVERT JUMPDEST POP POP POP POP JUMPDEST PUSH1 0x1 PUSH1 0x1 PUSH1 0xA0 SHL SUB DUP1 DUP3 AND PUSH1 0x0 DUP2 DUP2 MSTORE PUSH1 0x4 PUSH1 0x20 SWAP1 DUP2 MSTORE PUSH1 0x40 DUP1 DUP4 KECCAK256 DUP1 SLOAD PUSH1 0xFF NOT AND PUSH1 0x1 SWAP1 DUP2 OR SWAP1 SWAP2 SSTORE PUSH1 0x5 DUP1 SLOAD DUP1 DUP4 ADD DUP3 SSTORE SWAP5 MSTORE PUSH32 0x36B6384B5ECA791C62761152D0C79BB0604C104A5FB6F4EB0703F3154BB3DB0 SWAP1 SWAP4 ADD DUP1 SLOAD PUSH1 0x1 PUSH1 0x1 PUSH1 0xA0 SHL SUB NOT AND DUP6 OR SWAP1 SSTORE SWAP2 SLOAD DUP3 MLOAD SWAP1 DUP6 AND DUP2 MSTORE SWAP4 DUP9 AND SWAP1 DUP5 ADD MSTORE DUP1 MLOAD SWAP2 SWAP3 CALLER SWAP3 PUSH32 0x8A13771D198709940307FB40397206144CAF6DFEF0F59C2951C91C72E9844454 SWAP3 SWAP2 DUP2 SWAP1 SUB SWAP1 SWAP2 ADD SWAP1 LOG3 CALLVALUE ISZERO PUSH2 0x8DB JUMPI PUSH1 0x6 SLOAD PUSH1 0x40 MLOAD PUSH1 0x1 PUSH1 0x1 PUSH1 0xA0 SHL SUB SWAP1 SWAP2 AND SWAP1 CALLVALUE DUP1 ISZERO PUSH2 0x8FC MUL SWAP2 PUSH1 0x0 DUP2 DUP2 DUP2 DUP6 DUP9 DUP9 CALL SWAP4 POP POP POP POP ISZERO DUP1 ISZERO PUSH2 0x8D9 JUMPI RETURNDATASIZE PUSH1 0x0 DUP1 RETURNDATACOPY RETURNDATASIZE PUSH1 0x0 REVERT JUMPDEST POP JUMPDEST SWAP4 SWAP3 POP POP POP JUMP JUMPDEST PUSH1 0x5 SLOAD SWAP1 JUMP JUMPDEST PUSH1 0x1 SLOAD PUSH1 0x1 PUSH1 0x1 PUSH1 0xA0 SHL SUB AND DUP2 JUMP JUMPDEST PUSH1 0x0 SLOAD PUSH1 0x1 PUSH1 0x1 PUSH1 0xA0 SHL SUB AND DUP2 JUMP JUMPDEST PUSH1 0x5 DUP2 DUP2 SLOAD DUP2 LT PUSH2 0x913 JUMPI INVALID JUMPDEST PUSH1 0x0 SWAP2 DUP3 MSTORE PUSH1 0x20 SWAP1 SWAP2 KECCAK256 ADD SLOAD PUSH1 0x1 PUSH1 0x1 PUSH1 0xA0 SHL SUB AND SWAP1 POP DUP2 JUMP JUMPDEST PUSH1 0x0 SLOAD PUSH1 0x40 DUP1 MLOAD PUSH4 0xC395FCB3 PUSH1 0xE0 SHL DUP2 MSTORE CALLER PUSH1 0x4 DUP3 ADD MSTORE SWAP1 MLOAD PUSH1 0x1 PUSH1 0x1 PUSH1 0xA0 SHL SUB SWAP1 SWAP3 AND SWAP2 PUSH4 0xC395FCB3 SWAP2 PUSH1 0x24 DUP1 DUP3 ADD SWAP3 PUSH1 0x20 SWAP3 SWAP1 SWAP2 SWAP1 DUP3 SWAP1 SUB ADD DUP2 DUP7 DUP1 EXTCODESIZE ISZERO DUP1 ISZERO PUSH2 0x978 JUMPI PUSH1 0x0 DUP1 REVERT JUMPDEST POP GAS STATICCALL ISZERO DUP1 ISZERO PUSH2 0x98C JUMPI RETURNDATASIZE PUSH1 0x0 DUP1 RETURNDATACOPY RETURNDATASIZE PUSH1 0x0 REVERT JUMPDEST POP POP POP POP PUSH1 0x40 MLOAD RETURNDATASIZE PUSH1 0x20 DUP2 LT ISZERO PUSH2 0x9A2 JUMPI PUSH1 0x0 DUP1 REVERT JUMPDEST POP MLOAD PUSH2 0x9DF JUMPI PUSH1 0x40 MLOAD PUSH3 0x461BCD PUSH1 0xE5 SHL DUP2 MSTORE PUSH1 0x4 ADD DUP1 DUP1 PUSH1 0x20 ADD DUP3 DUP2 SUB DUP3 MSTORE PUSH1 0x26 DUP2 MSTORE PUSH1 0x20 ADD DUP1 PUSH2 0xE6B PUSH1 0x26 SWAP2 CODECOPY PUSH1 0x40 ADD SWAP2 POP POP PUSH1 0x40 MLOAD DUP1 SWAP2 SUB SWAP1 REVERT JUMPDEST PUSH1 0x6 DUP1 SLOAD PUSH1 0x1 PUSH1 0x1 PUSH1 0xA0 SHL SUB NOT AND PUSH1 0x1 PUSH1 0x1 PUSH1 0xA0 SHL SUB SWAP3 SWAP1 SWAP3 AND SWAP2 SWAP1 SWAP2 OR SWAP1 SSTORE JUMP JUMPDEST PUSH1 0x6 SLOAD PUSH1 0x1 PUSH1 0x1 PUSH1 0xA0 SHL SUB AND DUP2 JUMP JUMPDEST PUSH1 0x2 SLOAD PUSH1 0x1 PUSH1 0x1 PUSH1 0xA0 SHL SUB AND DUP2 JUMP JUMPDEST PUSH1 0x0 DUP1 SLOAD PUSH1 0x40 DUP1 MLOAD PUSH4 0xC395FCB3 PUSH1 0xE0 SHL DUP2 MSTORE CALLER PUSH1 0x4 DUP3 ADD MSTORE SWAP1 MLOAD PUSH1 0x1 PUSH1 0x1 PUSH1 0xA0 SHL SUB SWAP1 SWAP3 AND SWAP2 PUSH4 0xC395FCB3 SWAP2 PUSH1 0x24 DUP1 DUP3 ADD SWAP3 PUSH1 0x20 SWAP3 SWAP1 SWAP2 SWAP1 DUP3 SWAP1 SUB ADD DUP2 DUP7 DUP1 EXTCODESIZE ISZERO DUP1 ISZERO PUSH2 0xA6B JUMPI PUSH1 0x0 DUP1 REVERT JUMPDEST POP GAS STATICCALL ISZERO DUP1 ISZERO PUSH2 0xA7F JUMPI RETURNDATASIZE PUSH1 0x0 DUP1 RETURNDATACOPY RETURNDATASIZE PUSH1 0x0 REVERT JUMPDEST POP POP POP POP PUSH1 0x40 MLOAD RETURNDATASIZE PUSH1 0x20 DUP2 LT ISZERO PUSH2 0xA95 JUMPI PUSH1 0x0 DUP1 REVERT JUMPDEST POP MLOAD PUSH2 0xAD2 JUMPI PUSH1 0x40 MLOAD PUSH3 0x461BCD PUSH1 0xE5 SHL DUP2 MSTORE PUSH1 0x4 ADD DUP1 DUP1 PUSH1 0x20 ADD DUP3 DUP2 SUB DUP3 MSTORE PUSH1 0x24 DUP2 MSTORE PUSH1 0x20 ADD DUP1 PUSH2 0xE47 PUSH1 0x24 SWAP2 CODECOPY PUSH1 0x40 ADD SWAP2 POP POP PUSH1 0x40 MLOAD DUP1 SWAP2 SUB SWAP1 REVERT JUMPDEST PUSH1 0x6 SLOAD PUSH2 0xAEA SWAP1 DUP5 SWAP1 PUSH1 0x1 PUSH1 0x1 PUSH1 0xA0 SHL SUB AND DUP5 PUSH2 0xD03 JUMP JUMPDEST POP PUSH1 0x1 SWAP3 SWAP2 POP POP JUMP JUMPDEST PUSH1 0x0 SLOAD PUSH1 0x40 DUP1 MLOAD PUSH4 0xC395FCB3 PUSH1 0xE0 SHL DUP2 MSTORE CALLER PUSH1 0x4 DUP3 ADD MSTORE SWAP1 MLOAD PUSH1 0x1 PUSH1 0x1 PUSH1 0xA0 SHL SUB SWAP1 SWAP3 AND SWAP2 PUSH4 0xC395FCB3 SWAP2 PUSH1 0x24 DUP1 DUP3 ADD SWAP3 PUSH1 0x20 SWAP3 SWAP1 SWAP2 SWAP1 DUP3 SWAP1 SUB ADD DUP2 DUP7 DUP1 EXTCODESIZE ISZERO DUP1 ISZERO PUSH2 0xB3E JUMPI PUSH1 0x0 DUP1 REVERT JUMPDEST POP GAS STATICCALL ISZERO DUP1 ISZERO PUSH2 0xB52 JUMPI RETURNDATASIZE PUSH1 0x0 DUP1 RETURNDATACOPY RETURNDATASIZE PUSH1 0x0 REVERT JUMPDEST POP POP POP POP PUSH1 0x40 MLOAD RETURNDATASIZE PUSH1 0x20 DUP2 LT ISZERO PUSH2 0xB68 JUMPI PUSH1 0x0 DUP1 REVERT JUMPDEST POP MLOAD PUSH2 0xBA5 JUMPI PUSH1 0x40 MLOAD PUSH3 0x461BCD PUSH1 0xE5 SHL DUP2 MSTORE PUSH1 0x4 ADD DUP1 DUP1 PUSH1 0x20 ADD DUP3 DUP2 SUB DUP3 MSTORE PUSH1 0x21 DUP2 MSTORE PUSH1 0x20 ADD DUP1 PUSH2 0xE26 PUSH1 0x21 SWAP2 CODECOPY PUSH1 0x40 ADD SWAP2 POP POP PUSH1 0x40 MLOAD DUP1 SWAP2 SUB SWAP1 REVERT JUMPDEST PUSH1 0x2 SLOAD PUSH1 0x1 PUSH1 0x1 PUSH1 0xA0 SHL SUB AND ISZERO PUSH2 0xBBB JUMPI PUSH1 0x0 DUP1 REVERT JUMPDEST PUSH1 0x40 DUP1 MLOAD PUSH1 0x1 PUSH1 0x1 PUSH1 0xA0 SHL SUB DUP4 AND DUP2 MSTORE SWAP1 MLOAD PUSH32 0xAC885CFCAC9D1450E80F787DBF9546001FB50414106435B10B1D27B448B8668 SWAP2 DUP2 SWAP1 SUB PUSH1 0x20 ADD SWAP1 LOG1 PUSH1 0x2 DUP1 SLOAD PUSH1 0x1 PUSH1 0x1 PUSH1 0xA0 SHL SUB NOT AND PUSH1 0x1 PUSH1 0x1 PUSH1 0xA0 SHL SUB SWAP3 SWAP1 SWAP3 AND SWAP2 SWAP1 SWAP2 OR SWAP1 SSTORE JUMP JUMPDEST PUSH1 0x0 SLOAD PUSH1 0x1 PUSH1 0xA0 SHL SWAP1 DIV PUSH1 0xFF AND ISZERO PUSH2 0xC30 JUMPI PUSH1 0x0 DUP1 REVERT JUMPDEST PUSH1 0x0 DUP1 SLOAD PUSH1 0x1 DUP1 SLOAD PUSH1 0x1 PUSH1 0x1 PUSH1 0xA0 SHL SUB DUP7 DUP2 AND PUSH1 0x1 PUSH1 0x1 PUSH1 0xA0 SHL SUB NOT SWAP3 DUP4 AND OR SWAP1 SWAP3 SSTORE PUSH1 0x3 DUP6 SWAP1 SSTORE PUSH1 0xFF PUSH1 0xA0 SHL NOT SWAP2 DUP8 AND SWAP3 AND SWAP2 SWAP1 SWAP2 OR AND PUSH1 0x1 PUSH1 0xA0 SHL OR DUP2 SSTORE PUSH1 0x40 MLOAD PUSH32 0xE4BD612963220B47D4B6661BC82C559AAAF0350B0AAD4DDE4D90CE8B7EA15462 SWAP2 SWAP1 LOG1 POP POP POP JUMP JUMPDEST PUSH1 0x4 PUSH1 0x20 MSTORE PUSH1 0x0 SWAP1 DUP2 MSTORE PUSH1 0x40 SWAP1 KECCAK256 SLOAD PUSH1 0xFF AND DUP2 JUMP JUMPDEST PUSH1 0x0 DUP1 DUP3 PUSH1 0x60 SHL SWAP1 POP PUSH1 0x40 MLOAD PUSH20 0x3D602D80600A3D3981F3363D3D373D3D3D363D73 PUSH1 0x60 SHL DUP2 MSTORE DUP2 PUSH1 0x14 DUP3 ADD MSTORE PUSH15 0x5AF43D82803E903D91602B57FD5BF3 PUSH1 0x88 SHL PUSH1 0x28 DUP3 ADD MSTORE PUSH1 0x37 DUP2 PUSH1 0x0 CREATE SWAP5 SWAP4 POP POP POP POP JUMP JUMPDEST PUSH1 0x40 DUP1 MLOAD PUSH1 0x1 PUSH1 0x1 PUSH1 0xA0 SHL SUB DUP5 DUP2 AND PUSH1 0x24 DUP4 ADD MSTORE PUSH1 0x44 DUP1 DUP4 ADD DUP6 SWAP1 MSTORE DUP4 MLOAD DUP1 DUP5 SUB SWAP1 SWAP2 ADD DUP2 MSTORE PUSH1 0x64 SWAP1 SWAP3 ADD DUP4 MSTORE PUSH1 0x20 DUP3 ADD DUP1 MLOAD PUSH1 0x1 PUSH1 0x1 PUSH1 0xE0 SHL SUB AND PUSH4 0xA9059CBB PUSH1 0xE0 SHL OR DUP2 MSTORE SWAP3 MLOAD DUP3 MLOAD PUSH1 0x0 SWAP5 PUSH1 0x60 SWAP5 SWAP4 DUP10 AND SWAP4 SWAP3 SWAP2 DUP3 SWAP2 SWAP1 DUP1 DUP4 DUP4 JUMPDEST PUSH1 0x20 DUP4 LT PUSH2 0xD80 JUMPI DUP1 MLOAD DUP3 MSTORE PUSH1 0x1F NOT SWAP1 SWAP3 ADD SWAP2 PUSH1 0x20 SWAP2 DUP3 ADD SWAP2 ADD PUSH2 0xD61 JUMP JUMPDEST PUSH1 0x1 DUP4 PUSH1 0x20 SUB PUSH2 0x100 EXP SUB DUP1 NOT DUP3 MLOAD AND DUP2 DUP5 MLOAD AND DUP1 DUP3 OR DUP6 MSTORE POP POP POP POP POP POP SWAP1 POP ADD SWAP2 POP POP PUSH1 0x0 PUSH1 0x40 MLOAD DUP1 DUP4 SUB DUP2 PUSH1 0x0 DUP7 GAS CALL SWAP2 POP POP RETURNDATASIZE DUP1 PUSH1 0x0 DUP2 EQ PUSH2 0xDE2 JUMPI PUSH1 0x40 MLOAD SWAP2 POP PUSH1 0x1F NOT PUSH1 0x3F RETURNDATASIZE ADD AND DUP3 ADD PUSH1 0x40 MSTORE RETURNDATASIZE DUP3 MSTORE RETURNDATASIZE PUSH1 0x0 PUSH1 0x20 DUP5 ADD RETURNDATACOPY PUSH2 0xDE7 JUMP JUMPDEST PUSH1 0x60 SWAP2 POP JUMPDEST POP SWAP2 POP SWAP2 POP DUP2 DUP1 ISZERO PUSH2 0xE15 JUMPI POP DUP1 MLOAD ISZERO DUP1 PUSH2 0xE15 JUMPI POP DUP1 DUP1 PUSH1 0x20 ADD SWAP1 MLOAD PUSH1 0x20 DUP2 LT ISZERO PUSH2 0xE12 JUMPI PUSH1 0x0 DUP1 REVERT JUMPDEST POP MLOAD JUMPDEST PUSH2 0xE1E JUMPI PUSH1 0x0 DUP1 REVERT JUMPDEST POP POP POP POP POP JUMP INVALID 0x4C PUSH10 0x7374466163746F72793A KECCAK256 MSTORE8 PUSH6 0x6E646572206D PUSH22 0x73742062652061646D696E4C697374466163746F7279 GASPRICE KECCAK256 MSTORE8 PUSH6 0x6E646572206D PUSH22 0x7374206265206F70657261746F724D49534F546F6B65 PUSH15 0x466163746F72793A2053656E646572 KECCAK256 PUSH14 0x7573742062652041646D696EA264 PUSH10 0x70667358221220DCA990 0xB2 ADD 0xFB 0x5E EQ 0xE1 0xE8 GASLIMIT 0xB7 0xF9 PUSH10 0xB02FEBBBEE37214A58C4 SAR 0xD5 SWAP8 PUSH11 0xB60506564736F6C634300 MOD 0xC STOP CALLER ",
  "sha1": "b60f458fd630eabf0a2b69c7713be8e6df423ac3",
  "source": "pragma solidity 0.6.12;\n\nimport \"../OpenZeppelin/math/SafeMath.sol\";\nimport \"../Utils/Owned.sol\";\nimport \"../Utils/CloneFactory.sol\";\nimport \"../interfaces/IERC20.sol\";\nimport \"../interfaces/IPointList.sol\";\nimport \"../Utils/SafeTransfer.sol\";\nimport \"./MISOAccessControls.sol\";\n\n//----------------------------------------------------------------------------------\n//    I n s t a n t\n//\n//        .:mmm.         .:mmm:.       .ii.  .:SSSSSSSSSSSSS.     .oOOOOOOOOOOOo.  \n//      .mMM'':Mm.     .:MM'':Mm:.     .II:  :SSs..........     .oOO'''''''''''OOo.\n//    .:Mm'   ':Mm.   .:Mm'   'MM:.    .II:  'sSSSSSSSSSSSSS:.  :OO.           .OO:\n//  .'mMm'     ':MM:.:MMm'     ':MM:.  .II:  .:...........:SS.  'OOo:.........:oOO'\n//  'mMm'        ':MMmm'         'mMm:  II:  'sSSSSSSSSSSSSS'     'oOOOOOOOOOOOO'  \n//\n//----------------------------------------------------------------------------------\n//\n// Chef Gonpachi's List Factory\n//\n// A factory for deploying all sorts of list based contracts\n//\n// This program is free software: you can redistribute it and/or modify\n// it under the terms of the GNU General Public License as published by\n// the Free Software Foundation, either version 3 of the License\n//\n// This program is distributed in the hope that it will be useful,\n// but WITHOUT ANY WARRANTY; without even the implied warranty of\n// MERCHANTABILITY or FITNESS FOR A PARTICULAR PURPOSE.  See the\n// GNU General Public License for more details.\n//\n// The above copyright notice and this permission notice shall be included \n// in all copies or substantial portions of the Software.\n//\n// Made for Sushi.com \n// \n// Enjoy. (c) Chef Gonpachi 2021 \n// <https://github.com/chefgonpachi/MISO/>\n//\n// ---------------------------------------------------------------------\n// SPDX-License-Identifier: GPL-3.0                        \n// ---------------------------------------------------------------------\n\n\ncontract ListFactory is CloneFactory, SafeTransfer {\n    using SafeMath for uint;\n\n    /// @notice Responsible for access rights to the contract.\n    MISOAccessControls public accessControls;\n\n    /// @notice Whether market has been initialized or not.\n    bool private initialised;\n\n    /// @notice Address of the point list template.\n    address public pointListTemplate;\n\n    /// @notice New point list address.\n    address public newAddress;\n\n    /// @notice Minimum fee number.\n    uint256 public minimumFee;\n\n    /// @notice Tracks if list is made by the factory.\n    mapping(address => bool) public isChild;\n\n    /// @notice An array of list addresses.\n    address[] public lists;\n\n    /// @notice Any MISO dividends collected are sent here.\n    address payable public misoDiv;\n\n    /// @notice Event emitted when point list is deployed.\n    event PointListDeployed(address indexed operator, address indexed addr, address pointList, address owner);\n\n    /// @notice Event emitted when factory is deprecated.\n    event FactoryDeprecated(address newAddress);\n\n    /// @notice Event emitted when minimum fee is updated.\n    event MinimumFeeUpdated(uint oldFee, uint newFee);\n\n    /// @notice Event emitted when point list factory is initialised.\n    event MisoInitListFactory();\n\n    /**\n     * @notice Initializes point list factory variables.\n     * @param _accessControls Access control contract address.\n     * @param _pointListTemplate Point list template address.\n     * @param _minimumFee Minimum fee number.\n     */\n    function initListFactory(address _accessControls, address _pointListTemplate, uint256 _minimumFee) external  {\n        require(!initialised);\n        accessControls = MISOAccessControls(_accessControls);\n        pointListTemplate = _pointListTemplate;\n        minimumFee = _minimumFee;\n        initialised = true;\n        emit MisoInitListFactory();\n    }\n\n    /**\n     * @notice Gets the number of point lists created by factory.\n     * @return uint Number of point lists.\n     */\n    function numberOfChildren() external view returns (uint) {\n        return lists.length;\n    }\n\n    /**\n     * @notice Deprecates factory.\n     * @param _newAddress Blank address.\n     */\n    function deprecateFactory(address _newAddress) external {\n        require(accessControls.hasAdminRole(msg.sender), \"ListFactory: Sender must be admin\");\n        require(newAddress == address(0));\n        emit FactoryDeprecated(_newAddress);\n        newAddress = _newAddress;\n    }\n\n    /**\n     * @notice Sets minimum fee.\n     * @param _minimumFee Minimum fee number.\n     */\n    function setMinimumFee(uint256 _minimumFee) external {\n        require(accessControls.hasAdminRole(msg.sender), \"ListFactory: Sender must be admin\");\n        emit MinimumFeeUpdated(minimumFee, _minimumFee);\n        minimumFee = _minimumFee;\n    }\n\n    /**\n     * @notice Sets dividend address.\n     * @param _divaddr Dividend address.\n     */\n    function setDividends(address payable _divaddr) external  {\n        require(accessControls.hasAdminRole(msg.sender), \"MISOTokenFactory: Sender must be Admin\");\n        misoDiv = _divaddr;\n    }\n\n    /**\n     * @notice Deploys new point list.\n     * @param _listOwner List owner address.\n     * @param _accounts An array of account addresses.\n     * @param _amounts An array of corresponding point amounts.\n     * @return pointList Point list address.\n     */\n    function deployPointList(\n        address _listOwner,\n        address[] memory _accounts,\n        uint256[] memory _amounts\n    )\n        external payable returns (address pointList)\n    {\n        require(msg.value >= minimumFee);\n        pointList = createClone(pointListTemplate);\n        if (_accounts.length > 0) {\n            IPointList(pointList).initPointList(address(this));\n            IPointList(pointList).setPoints(_accounts, _amounts);\n            MISOAccessControls(pointList).addAdminRole(_listOwner);\n            MISOAccessControls(pointList).removeAdminRole(address(this));\n        } else {\n            IPointList(pointList).initPointList(_listOwner);\n        }\n        isChild[address(pointList)] = true;\n        lists.push(address(pointList));\n        emit PointListDeployed(msg.sender, address(pointList), pointListTemplate, _listOwner);\n        if (msg.value > 0) {\n            misoDiv.transfer(msg.value);\n        }\n    }\n\n    /**\n     * @notice Funtion for transfering any ERC20 token.\n     * @param _tokenAddress Address to send from.\n     * @param _tokens Number of tokens.\n     * @return success True.\n     */\n    function transferAnyERC20Token(address _tokenAddress, uint256 _tokens) external returns (bool success) {\n        require(accessControls.hasAdminRole(msg.sender), \"ListFactory: Sender must be operator\");\n        _safeTransfer(_tokenAddress, misoDiv, _tokens);\n        return true;\n    }\n\n    receive () external payable {\n        revert();\n    }\n}\n",
  "sourcePath": "contracts/Access/ListFactory.sol",
  "type": "contract"
}