{
  "abi": [
    {
      "inputs": [],
      "stateMutability": "nonpayable",
      "type": "constructor"
    },
    {
      "anonymous": false,
      "inputs": [
        {
          "indexed": false,
          "internalType": "address",
          "name": "newAuction",
          "type": "address"
        },
        {
          "indexed": false,
          "internalType": "uint256",
          "name": "templateId",
          "type": "uint256"
        }
      ],
      "name": "AuctionTemplateAdded",
      "type": "event"
    },
    {
      "anonymous": false,
      "inputs": [
        {
          "indexed": false,
          "internalType": "address",
          "name": "auction",
          "type": "address"
        },
        {
          "indexed": false,
          "internalType": "uint256",
          "name": "templateId",
          "type": "uint256"
        }
      ],
      "name": "AuctionTemplateRemoved",
      "type": "event"
    },
    {
      "anonymous": false,
      "inputs": [
        {
          "indexed": true,
          "internalType": "address",
          "name": "owner",
          "type": "address"
        },
        {
          "indexed": true,
          "internalType": "address",
          "name": "addr",
          "type": "address"
        },
        {
          "indexed": false,
          "internalType": "address",
          "name": "marketTemplate",
          "type": "address"
        }
      ],
      "name": "MarketCreated",
      "type": "event"
    },
    {
      "anonymous": false,
      "inputs": [
        {
          "indexed": false,
          "internalType": "address",
          "name": "sender",
          "type": "address"
        }
      ],
      "name": "MisoInitMarket",
      "type": "event"
    },
    {
      "inputs": [],
      "name": "MARKET_MINTER_ROLE",
      "outputs": [
        {
          "internalType": "bytes32",
          "name": "",
          "type": "bytes32"
        }
      ],
      "stateMutability": "view",
      "type": "function"
    },
    {
      "inputs": [],
      "name": "accessControls",
      "outputs": [
        {
          "internalType": "contract MISOAccessControls",
          "name": "",
          "type": "address"
        }
      ],
      "stateMutability": "view",
      "type": "function"
    },
    {
      "inputs": [
        {
          "internalType": "address",
          "name": "_template",
          "type": "address"
        }
      ],
      "name": "addAuctionTemplate",
      "outputs": [],
      "stateMutability": "nonpayable",
      "type": "function"
    },
    {
      "inputs": [
        {
          "internalType": "address",
          "name": "",
          "type": "address"
        }
      ],
      "name": "auctionInfo",
      "outputs": [
        {
          "internalType": "bool",
          "name": "exists",
          "type": "bool"
        },
        {
          "internalType": "uint64",
          "name": "templateId",
          "type": "uint64"
        },
        {
          "internalType": "uint128",
          "name": "index",
          "type": "uint128"
        }
      ],
      "stateMutability": "view",
      "type": "function"
    },
    {
      "inputs": [],
      "name": "auctionTemplateId",
      "outputs": [
        {
          "internalType": "uint256",
          "name": "",
          "type": "uint256"
        }
      ],
      "stateMutability": "view",
      "type": "function"
    },
    {
      "inputs": [
        {
          "internalType": "uint256",
          "name": "",
          "type": "uint256"
        }
      ],
      "name": "auctions",
      "outputs": [
        {
          "internalType": "address",
          "name": "",
          "type": "address"
        }
      ],
      "stateMutability": "view",
      "type": "function"
    },
    {
      "inputs": [],
      "name": "bentoBox",
      "outputs": [
        {
          "internalType": "contract IBentoBoxFactory",
          "name": "",
          "type": "address"
        }
      ],
      "stateMutability": "view",
      "type": "function"
    },
    {
      "inputs": [
        {
          "internalType": "uint256",
          "name": "_templateId",
          "type": "uint256"
        },
        {
          "internalType": "address",
          "name": "_token",
          "type": "address"
        },
        {
          "internalType": "uint256",
          "name": "_tokenSupply",
          "type": "uint256"
        },
        {
          "internalType": "address payable",
          "name": "_integratorFeeAccount",
          "type": "address"
        },
        {
          "internalType": "bytes",
          "name": "_data",
          "type": "bytes"
        }
      ],
      "name": "createMarket",
      "outputs": [
        {
          "internalType": "address",
          "name": "newMarket",
          "type": "address"
        }
      ],
      "stateMutability": "payable",
      "type": "function"
    },
    {
      "inputs": [
        {
          "internalType": "uint256",
          "name": "",
          "type": "uint256"
        }
      ],
      "name": "currentTemplateId",
      "outputs": [
        {
          "internalType": "uint256",
          "name": "",
          "type": "uint256"
        }
      ],
      "stateMutability": "view",
      "type": "function"
    },
    {
      "inputs": [
        {
          "internalType": "uint256",
          "name": "_templateId",
          "type": "uint256"
        },
        {
          "internalType": "address payable",
          "name": "_integratorFeeAccount",
          "type": "address"
        }
      ],
      "name": "deployMarket",
      "outputs": [
        {
          "internalType": "address",
          "name": "newMarket",
          "type": "address"
        }
      ],
      "stateMutability": "payable",
      "type": "function"
    },
    {
      "inputs": [
        {
          "internalType": "uint256",
          "name": "_templateId",
          "type": "uint256"
        }
      ],
      "name": "getAuctionTemplate",
      "outputs": [
        {
          "internalType": "address",
          "name": "",
          "type": "address"
        }
      ],
      "stateMutability": "view",
      "type": "function"
    },
    {
      "inputs": [
        {
          "internalType": "address",
          "name": "_auction",
          "type": "address"
        }
      ],
      "name": "getMarketTemplateId",
      "outputs": [
        {
          "internalType": "uint64",
          "name": "",
          "type": "uint64"
        }
      ],
      "stateMutability": "view",
      "type": "function"
    },
    {
      "inputs": [],
      "name": "getMarkets",
      "outputs": [
        {
          "internalType": "address[]",
          "name": "",
          "type": "address[]"
        }
      ],
      "stateMutability": "view",
      "type": "function"
    },
    {
      "inputs": [
        {
          "internalType": "address",
          "name": "_auctionTemplate",
          "type": "address"
        }
      ],
      "name": "getTemplateId",
      "outputs": [
        {
          "internalType": "uint256",
          "name": "",
          "type": "uint256"
        }
      ],
      "stateMutability": "view",
      "type": "function"
    },
    {
      "inputs": [
        {
          "internalType": "address",
          "name": "_address",
          "type": "address"
        }
      ],
      "name": "hasMarketMinterRole",
      "outputs": [
        {
          "internalType": "bool",
          "name": "",
          "type": "bool"
        }
      ],
      "stateMutability": "view",
      "type": "function"
    },
    {
      "inputs": [
        {
          "internalType": "address",
          "name": "_accessControls",
          "type": "address"
        },
        {
          "internalType": "address",
          "name": "_bentoBox",
          "type": "address"
        },
        {
          "internalType": "address[]",
          "name": "_templates",
          "type": "address[]"
        }
      ],
      "name": "initMISOMarket",
      "outputs": [],
      "stateMutability": "nonpayable",
      "type": "function"
    },
    {
      "inputs": [],
      "name": "locked",
      "outputs": [
        {
          "internalType": "bool",
          "name": "",
          "type": "bool"
        }
      ],
      "stateMutability": "view",
      "type": "function"
    },
    {
      "inputs": [],
      "name": "marketFees",
      "outputs": [
        {
          "internalType": "uint128",
          "name": "minimumFee",
          "type": "uint128"
        },
        {
          "internalType": "uint32",
          "name": "integratorFeePct",
          "type": "uint32"
        }
      ],
      "stateMutability": "view",
      "type": "function"
    },
    {
      "inputs": [],
      "name": "minimumFee",
      "outputs": [
        {
          "internalType": "uint128",
          "name": "",
          "type": "uint128"
        }
      ],
      "stateMutability": "view",
      "type": "function"
    },
    {
      "inputs": [],
      "name": "misoDiv",
      "outputs": [
        {
          "internalType": "address payable",
          "name": "",
          "type": "address"
        }
      ],
      "stateMutability": "view",
      "type": "function"
    },
    {
      "inputs": [],
      "name": "numberOfAuctions",
      "outputs": [
        {
          "internalType": "uint256",
          "name": "",
          "type": "uint256"
        }
      ],
      "stateMutability": "view",
      "type": "function"
    },
    {
      "inputs": [
        {
          "internalType": "uint256",
          "name": "_templateId",
          "type": "uint256"
        }
      ],
      "name": "removeAuctionTemplate",
      "outputs": [],
      "stateMutability": "nonpayable",
      "type": "function"
    },
    {
      "inputs": [
        {
          "internalType": "uint256",
          "name": "_templateType",
          "type": "uint256"
        },
        {
          "internalType": "uint256",
          "name": "_templateId",
          "type": "uint256"
        }
      ],
      "name": "setCurrentTemplateId",
      "outputs": [],
      "stateMutability": "nonpayable",
      "type": "function"
    },
    {
      "inputs": [
        {
          "internalType": "address payable",
          "name": "_divaddr",
          "type": "address"
        }
      ],
      "name": "setDividends",
      "outputs": [],
      "stateMutability": "nonpayable",
      "type": "function"
    },
    {
      "inputs": [
        {
          "internalType": "uint256",
          "name": "_amount",
          "type": "uint256"
        }
      ],
      "name": "setIntegratorFeePct",
      "outputs": [],
      "stateMutability": "nonpayable",
      "type": "function"
    },
    {
      "inputs": [
        {
          "internalType": "bool",
          "name": "_locked",
          "type": "bool"
        }
      ],
      "name": "setLocked",
      "outputs": [],
      "stateMutability": "nonpayable",
      "type": "function"
    },
    {
      "inputs": [
        {
          "internalType": "uint256",
          "name": "_amount",
          "type": "uint256"
        }
      ],
      "name": "setMinimumFee",
      "outputs": [],
      "stateMutability": "nonpayable",
      "type": "function"
    }
  ],
  "bytecode": "608060405234801561001057600080fd5b50612090806100206000396000f3fe60806040526004361061019c5760003560e01c80636b2ace87116100ec578063aa1bd2f61161008a578063c9907b0811610064578063c9907b08146106ed578063cf30901214610702578063d335ebda14610717578063ec2c90161461074a5761019c565b8063aa1bd2f6146105dd578063b034349314610673578063b9551d14146106c35761019c565b80639e5940cc116100c65780639e5940cc1461050a5780639e9188ea1461053a5780639edbd90a1461056d578063a5fd7565146105aa5761019c565b80636b2ace87146104cb5780636c2eefe1146104e0578063748365ef146104f55761019c565b80632ed4f578116101595780634b939ed7116101335780634b939ed71461044d5780634f5f2a451461047757806350d9d4721461048c578063571a26a0146104a15761019c565b80632ed4f578146103a0578063390467b6146103dc5780633f1f44b0146104235761019c565b80630448e51a146101a1578063182a7506146102065780631a7626e714610232578063211e28b614610263578063274a22581461028f57806328e58e4f14610358575b600080fd5b3480156101ad57600080fd5b506101d4600480360360208110156101c457600080fd5b50356001600160a01b03166107af565b60408051931515845267ffffffffffffffff90921660208401526001600160801b031682820152519081900360600190f35b34801561021257600080fd5b506102306004803603602081101561022957600080fd5b50356107e6565b005b34801561023e57600080fd5b506102476108cd565b604080516001600160801b039092168252519081900360200190f35b34801561026f57600080fd5b506102306004803603602081101561028657600080fd5b503515156108dc565b34801561029b57600080fd5b50610230600480360360608110156102b257600080fd5b6001600160a01b0382358116926020810135909116918101906060810160408201356401000000008111156102e657600080fd5b8201836020820111156102f857600080fd5b8035906020019184602083028401116401000000008311171561031a57600080fd5b9190808060200260200160405190810160405280939291908181526020018383602002808284376000920191909152509295506109b7945050505050565b6103846004803603604081101561036e57600080fd5b50803590602001356001600160a01b0316610b10565b604080516001600160a01b039092168252519081900360200190f35b3480156103ac57600080fd5b506103ca600480360360208110156103c357600080fd5b5035610fef565b60408051918252519081900360200190f35b3480156103e857600080fd5b5061040f600480360360208110156103ff57600080fd5b50356001600160a01b0316611001565b604080519115158252519081900360200190f35b34801561042f57600080fd5b506102306004803603602081101561044657600080fd5b50356110a7565b34801561045957600080fd5b506103846004803603602081101561047057600080fd5b50356111cb565b34801561048357600080fd5b506103ca6111e6565b34801561049857600080fd5b506103ca61120a565b3480156104ad57600080fd5b50610384600480360360208110156104c457600080fd5b5035611210565b3480156104d757600080fd5b50610384611237565b3480156104ec57600080fd5b506103ca611246565b34801561050157600080fd5b5061038461124c565b34801561051657600080fd5b506102306004803603604081101561052d57600080fd5b508035906020013561125b565b34801561054657600080fd5b506102306004803603602081101561055d57600080fd5b50356001600160a01b0316611335565b34801561057957600080fd5b50610582611422565b604080516001600160801b03909316835263ffffffff90911660208301528051918290030190f35b3480156105b657600080fd5b50610230600480360360208110156105cd57600080fd5b50356001600160a01b0316611440565b610384600480360360a08110156105f357600080fd5b8135916001600160a01b0360208201358116926040830135926060810135909216919081019060a08101608082013564010000000081111561063457600080fd5b82018360208201111561064657600080fd5b8035906020019184600183028401116401000000008311171561066857600080fd5b50909250905061157c565b34801561067f57600080fd5b506106a66004803603602081101561069657600080fd5b50356001600160a01b0316611782565b6040805167ffffffffffffffff9092168252519081900360200190f35b3480156106cf57600080fd5b50610230600480360360208110156106e657600080fd5b50356117ac565b3480156106f957600080fd5b5061038461194f565b34801561070e57600080fd5b5061040f611963565b34801561072357600080fd5b506103ca6004803603602081101561073a57600080fd5b50356001600160a01b031661196c565b34801561075657600080fd5b5061075f611987565b60408051602080825283518183015283519192839290830191858101910280838360005b8381101561079b578181015183820152602001610783565b505050509050019250505060405180910390f35b60076020526000908152604090205460ff811690610100810467ffffffffffffffff1690600160481b90046001600160801b031683565b6000546040805163c395fcb360e01b815233600482015290516001600160a01b039092169163c395fcb391602480820192602092909190829003018186803b15801561083157600080fd5b505afa158015610845573d6000803e3d6000fd5b505050506040513d602081101561085b57600080fd5b50516108985760405162461bcd60e51b8152600401808060200182810382526023815260200180611eca6023913960400191505060405180910390fd5b6108a1816119e9565b600880546fffffffffffffffffffffffffffffffff19166001600160801b039290921691909117905550565b6008546001600160801b031690565b6000546040805163c395fcb360e01b815233600482015290516001600160a01b039092169163c395fcb391602480820192602092909190829003018186803b15801561092757600080fd5b505afa15801561093b573d6000803e3d6000fd5b505050506040513d602081101561095157600080fd5b50516109a4576040805162461bcd60e51b815260206004820181905260248201527f4d49534f4d61726b65743a2053656e646572206d7573742062652061646d696e604482015290519081900360640190fd5b6009805460ff1916911515919091179055565b600054600160a01b900460ff16156109ce57600080fd5b6001600160a01b038316610a135760405162461bcd60e51b8152600401808060200182810382526034815260200180611f3f6034913960400191505060405180910390fd5b6001600160a01b038216610a585760405162461bcd60e51b815260040180806020018281038252602e815260200180611eed602e913960400191505060405180910390fd5b600080546001600160a01b038086166001600160a01b0319928316178355600380549186169190921617905560028190555b8151811015610ab757610aaf828281518110610aa257fe5b6020026020010151611a4b565b600101610a8a565b506009805460ff191660011790556000805460ff60a01b1916600160a01b1790556040805133815290517f9728848f268715c9f5810670481aba9b347f34c21407e902d679356b7617b6b29181900360200190a1505050565b60095460009060ff1615610c5d576000546040805163c395fcb360e01b815233600482015290516001600160a01b039092169163c395fcb391602480820192602092909190829003018186803b158015610b6957600080fd5b505afa158015610b7d573d6000803e3d6000fd5b505050506040513d6020811015610b9357600080fd5b505180610c1357506000546040805163099db01760e01b815233600482015290516001600160a01b039092169163099db01791602480820192602092909190829003018186803b158015610be657600080fd5b505afa158015610bfa573d6000803e3d6000fd5b505050506040513d6020811015610c1057600080fd5b50515b80610c225750610c2233611001565b610c5d5760405162461bcd60e51b815260040180806020018281038252602b815260200180612030602b913960400191505060405180910390fd5b610c65611e88565b506040805180820182526008546001600160801b038082168352600160801b90910463ffffffff16602080840191909152600087815260049091529290922054815191926001600160a01b039091169116341015610cf45760405162461bcd60e51b81526004018080602001828103825260298152602001806120076029913960400191505060405180910390fd5b6001600160a01b038116610d395760405162461bcd60e51b815260040180806020018281038252602a815260200180611f98602a913960400191505060405180910390fd5b6000346001600160a01b03861615801590610d6757506009546001600160a01b038781166101009092041614155b15610d8a576103e8846020015163ffffffff16820281610d8357fe5b0491508190035b60035460408051631f54245b60e01b81526001600160a01b03868116600483015260006044830181905260606024840152606483018190529251931692631f54245b9260a480840193602093929083900390910190829087803b158015610df057600080fd5b505af1158015610e04573d6000803e3d6000fd5b505050506040513d6020811015610e1a57600080fd5b505160408051606081019091526001815290955060208101610e3b89611c2a565b67ffffffffffffffff168152602001610e586001805490506119e9565b6001600160801b039081169091526001600160a01b038088166000818152600760209081526040808320875181548985015199840151909816600160481b0278ffffffffffffffffffffffffffffffff0000000000000000001967ffffffffffffffff909a166101000268ffffffffffffffff001992151560ff19909a16999099179190911697909717979097169590951790955560018054808201825591527fb10e2d527612073b26eecdfd717e6a320cf44b4afac2b0732d9fcbe2b7fa0cf60180546001600160a01b03191682179055825191871682529151919233927fe63e6130091e2155004c4b5ac35e8fb9be704d6637ff3068a8f710ba36c9f41a9281900390910190a38015610fa7576009546040516101009091046001600160a01b0316906108fc8315029083906000818181858888f19350505050158015610fa5573d6000803e3d6000fd5b505b8115610fe5576040516001600160a01b0387169083156108fc029084906000818181858888f19350505050158015610fe3573d6000803e3d6000fd5b505b5050505092915050565b60066020526000908152604090205481565b6000805460408051632474521560e21b81527f185f85149db0f205130703941d0f9ccd8133e50df5d5080231c7704337aa2c3860048201526001600160a01b038581166024830152915191909216916391d14854916044808301926020929190829003018186803b15801561107557600080fd5b505afa158015611089573d6000803e3d6000fd5b505050506040513d602081101561109f57600080fd5b505192915050565b6000546040805163c395fcb360e01b815233600482015290516001600160a01b039092169163c395fcb391602480820192602092909190829003018186803b1580156110f257600080fd5b505afa158015611106573d6000803e3d6000fd5b505050506040513d602081101561111c57600080fd5b50516111595760405162461bcd60e51b8152600401808060200182810382526023815260200180611eca6023913960400191505060405180910390fd5b6103e881111561119a5760405162461bcd60e51b8152600401808060200182810382526025815260200180611f736025913960400191505060405180910390fd5b6111a381611c89565b6008805463ffffffff92909216600160801b0263ffffffff60801b1990921691909117905550565b6000908152600460205260409020546001600160a01b031690565b7f185f85149db0f205130703941d0f9ccd8133e50df5d5080231c7704337aa2c3881565b60015490565b6001818154811061121d57fe5b6000918252602090912001546001600160a01b0316905081565b6003546001600160a01b031681565b60025481565b6000546001600160a01b031681565b6000546040805163c395fcb360e01b815233600482015290516001600160a01b039092169163c395fcb391602480820192602092909190829003018186803b1580156112a657600080fd5b505afa1580156112ba573d6000803e3d6000fd5b505050506040513d60208110156112d057600080fd5b5051611323576040805162461bcd60e51b815260206004820181905260248201527f4d49534f4d61726b65743a2053656e646572206d7573742062652061646d696e604482015290519081900360640190fd5b60009182526006602052604090912055565b6000546040805163c395fcb360e01b815233600482015290516001600160a01b039092169163c395fcb391602480820192602092909190829003018186803b15801561138057600080fd5b505afa158015611394573d6000803e3d6000fd5b505050506040513d60208110156113aa57600080fd5b50516113e75760405162461bcd60e51b815260040180806020018281038252602a815260200180611ea0602a913960400191505060405180910390fd5b6001600160a01b0381166113fa57600080fd5b600980546001600160a01b0390921661010002610100600160a81b0319909216919091179055565b6008546001600160801b03811690600160801b900463ffffffff1682565b6000546040805163c395fcb360e01b815233600482015290516001600160a01b039092169163c395fcb391602480820192602092909190829003018186803b15801561148b57600080fd5b505afa15801561149f573d6000803e3d6000fd5b505050506040513d60208110156114b557600080fd5b505180611535575060005460408051637e271f0560e11b815233600482015290516001600160a01b039092169163fc4e3e0a91602480820192602092909190829003018186803b15801561150857600080fd5b505afa15801561151c573d6000803e3d6000fd5b505050506040513d602081101561153257600080fd5b50515b6115705760405162461bcd60e51b8152600401808060200182810382526023815260200180611eca6023913960400191505060405180910390fd5b61157981611a4b565b50565b60006115888785610b10565b905084156116535761159b863387611ce4565b856001600160a01b031663095ea7b382876040518363ffffffff1660e01b815260040180836001600160a01b0316815260200182815260200192505050602060405180830381600087803b1580156115f257600080fd5b505af1158015611606573d6000803e3d6000fd5b505050506040513d602081101561161c57600080fd5b5051611653576040805162461bcd60e51b81526020600482015260016024820152603160f81b604482015290519081900360640190fd5b60405163409a9e4760e11b8152602060048201908152602482018490526001600160a01b038316916381353c8e9186918691908190604401848480828437600081840152601f19601f8201169050808301925050509350505050600060405180830381600087803b1580156116c757600080fd5b505af11580156116db573d6000803e3d6000fd5b505050506000851115611778576000866001600160a01b03166370a08231306040518263ffffffff1660e01b815260040180826001600160a01b0316815260200191505060206040518083038186803b15801561173757600080fd5b505afa15801561174b573d6000803e3d6000fd5b505050506040513d602081101561176157600080fd5b50519050801561177657611776873383611e0c565b505b9695505050505050565b6001600160a01b0316600090815260076020526040902054610100900467ffffffffffffffff1690565b6000546040805163c395fcb360e01b815233600482015290516001600160a01b039092169163c395fcb391602480820192602092909190829003018186803b1580156117f757600080fd5b505afa15801561180b573d6000803e3d6000fd5b505050506040513d602081101561182157600080fd5b5051806118a1575060005460408051637e271f0560e11b815233600482015290516001600160a01b039092169163fc4e3e0a91602480820192602092909190829003018186803b15801561187457600080fd5b505afa158015611888573d6000803e3d6000fd5b505050506040513d602081101561189e57600080fd5b50515b6118dc5760405162461bcd60e51b8152600401808060200182810382526023815260200180611eca6023913960400191505060405180910390fd5b600081815260046020908152604080832080546001600160a01b031981169091556001600160a01b03168084526005835281842093909355805183815291820184905280517f9e451d330e5bb7320c38b55046b66305a869486110a27e84e383b9b2a329875b9281900390910190a15050565b60095461010090046001600160a01b031681565b60095460ff1681565b6001600160a01b031660009081526005602052604090205490565b606060018054806020026020016040519081016040528092919081815260200182805480156119df57602002820191906000526020600020905b81546001600160a01b031681526001909101906020018083116119c1575b5050505050905090565b60006001600160801b03821115611a47576040805162461bcd60e51b815260206004820152601c60248201527f426f72696e674d6174683a2075696e74313238204f766572666c6f7700000000604482015290519081900360640190fd5b5090565b6001600160a01b03811660009081526005602052604090205415611aa05760405162461bcd60e51b8152600401808060200182810382526023815260200180611fc26023913960400191505060405180910390fd5b6001600160a01b03811660009081526005602052604090205415611af55760405162461bcd60e51b8152600401808060200182810382526022815260200180611fe56022913960400191505060405180910390fd5b6000816001600160a01b0316631b3e460e6040518163ffffffff1660e01b815260040160206040518083038186803b158015611b3057600080fd5b505afa158015611b44573d6000803e3d6000fd5b505050506040513d6020811015611b5a57600080fd5b5051905080611b9a5760405162461bcd60e51b8152600401808060200182810382526024815260200180611f1b6024913960400191505060405180910390fd5b60028054600101808255600090815260046020908152604080832080546001600160a01b0319166001600160a01b038816908117909155935484845260058352818420819055858452600683529281902083905580519384529083019190915280517f893e8595c407d2a22d29ff3ba939d15ec3966113ce988bd39c68e4b0035040079281900390910190a15050565b600067ffffffffffffffff821115611a47576040805162461bcd60e51b815260206004820152601b60248201527f426f72696e674d6174683a2075696e743634204f766572666c6f770000000000604482015290519081900360640190fd5b600063ffffffff821115611a47576040805162461bcd60e51b815260206004820152601b60248201527f426f72696e674d6174683a2075696e743332204f766572666c6f770000000000604482015290519081900360640190fd5b604080516001600160a01b038481166024830152306044830152606480830185905283518084039091018152608490920183526020820180516001600160e01b03166323b872dd60e01b178152925182516000946060949389169392918291908083835b60208310611d675780518252601f199092019160209182019101611d48565b6001836020036101000a0380198251168184511680821785525050505050509050019150506000604051808303816000865af19150503d8060008114611dc9576040519150601f19603f3d011682016040523d82523d6000602084013e611dce565b606091505b5091509150818015611dfc575080511580611dfc5750808060200190516020811015611df957600080fd5b50515b611e0557600080fd5b5050505050565b604080516001600160a01b038481166024830152604480830185905283518084039091018152606490920183526020820180516001600160e01b031663a9059cbb60e01b1781529251825160009460609493891693929182919080838360208310611d675780518252601f199092019160209182019101611d48565b60408051808201909152600080825260208201529056fe4d49534f4d61726b65742e7365744465763a2053656e646572206d757374206265206f70657261746f724d49534f4d61726b65743a2053656e646572206d757374206265206f70657261746f72696e69744d49534f4d61726b65743a2062656e746f426f782063616e6e6f742062652073657420746f207a65726f4d49534f4d61726b65743a20496e636f72726563742074656d706c61746520636f646520696e69744d49534f4d61726b65743a20616363657373436f6e74726f6c732063616e6e6f742062652073657420746f207a65726f4d49534f4d61726b65743a2050657263656e74616765206973206f7574206f6620313030304d49534f4d61726b65743a2041756374696f6e2074656d706c61746520646f65736e27742065786973744d49534f4d61726b65743a2054656d706c61746520616c7265616479206578697374734d49534f4d61726b65743a2054656d706c61746520616c72656164792061646465644d49534f4d61726b65743a204661696c656420746f207472616e73666572206d696e696d756d4665654d49534f4d61726b65743a2053656e646572206d757374206265206d696e746572206966206c6f636b6564a2646970667358221220fcbaeb467a80b6f81b07a4023aa492c7bcad9b7113dab2add00d99ccaae7cbcc64736f6c634300060c0033",
  "bytecodeSha1": "77cb399675730697481d199fafb86e491663993a",
  "compiler": {
    "evm_version": "istanbul",
    "optimizer": {
      "enabled": true,
      "runs": 200
    },
    "version": "0.6.12+commit.27d51765"
  },
  "contractName": "MISOMarket",
  "language": "Solidity",
  "natspec": {
    "kind": "dev",
    "methods": {
      "accessControls()": {
        "notice": "Responsible for access rights to the contract."
      },
      "addAuctionTemplate(address)": {
        "details": "Should have operator access.",
        "notice": "Function to add an auction template to create through factory.",
        "params": {
          "_template": "Auction template to create an auction."
        }
      },
      "auctionInfo(address)": {
        "notice": "Mapping from auction created through this contract to Auction struct."
      },
      "auctionTemplateId()": {
        "notice": "Template id to track respective auction template."
      },
      "auctions(uint256)": {
        "notice": "Auctions created using factory."
      },
      "createMarket(uint256,address,uint256,address,bytes)": {
        "details": "Initializes auction with the parameters passed.",
        "notice": "Creates a new MISOMarket using _templateId.",
        "params": {
          "_data": "Data to be sent to template on Init.",
          "_integratorFeeAccount": "Address to send refferal bonus, if set.",
          "_templateId": "Id of the auction template to create.",
          "_token": "The token address to be sold.",
          "_tokenSupply": "Amount of tokens to be sold at market."
        },
        "returns": {
          "newMarket": "Market address."
        }
      },
      "deployMarket(uint256,address)": {
        "notice": "Creates a new MISOMarket from template _templateId and transfers fees.",
        "params": {
          "_integratorFeeAccount": "Address to pay the fee to.",
          "_templateId": "Id of the crowdsale template to create."
        },
        "returns": {
          "newMarket": "Market address."
        }
      },
      "getAuctionTemplate(uint256)": {
        "notice": "Get the address based on template ID.",
        "params": {
          "_templateId": "Auction template ID."
        },
        "returns": {
          "_0": "Address of the required template ID."
        }
      },
      "getTemplateId(address)": {
        "notice": "Get the ID based on template address.",
        "params": {
          "_auctionTemplate": "Auction template address."
        },
        "returns": {
          "_0": "ID of the required template address."
        }
      },
      "hasMarketMinterRole(address)": {
        "notice": "Used to check whether an address has the minter role",
        "params": {
          "_address": "EOA or contract being checked"
        },
        "returns": {
          "_0": "bool True if the account has the role or false if it does not"
        }
      },
      "initMISOMarket(address,address,address[])": {
        "details": "Can only be initialized once.",
        "notice": "Initializes the market with a list of auction templates.",
        "params": {
          "_accessControls": "Sets address to get the access controls from.",
          "_templates": "Initial array of MISOMarket templates."
        }
      },
      "locked()": {
        "notice": "Contract locked status. If locked, only minters can deploy"
      },
      "marketFees()": {
        "notice": "Minimum fee to create a farm through the factory."
      },
      "misoDiv()": {
        "notice": "Any donations if set are sent here."
      },
      "numberOfAuctions()": {
        "notice": "Get the total number of auctions in the factory.",
        "returns": {
          "_0": "Auction count."
        }
      },
      "removeAuctionTemplate(uint256)": {
        "details": "Function to remove an auction template.Should have operator access.",
        "params": {
          "_templateId": "Refers to template that is to be deleted."
        }
      },
      "setCurrentTemplateId(uint256,uint256)": {
        "notice": "Sets the current template ID for any type.",
        "params": {
          "_templateId": "The ID of the current template for that type",
          "_templateType": "Type of template."
        }
      },
      "setDividends(address)": {
        "notice": "Sets dividend address.",
        "params": {
          "_divaddr": "Dividend address."
        }
      },
      "setIntegratorFeePct(uint256)": {
        "notice": "Sets integrator fee percentage.",
        "params": {
          "_amount": "Percentage amount."
        }
      },
      "setLocked(bool)": {
        "notice": "Sets the factory to be locked or unlocked.",
        "params": {
          "_locked": "bool."
        }
      },
      "setMinimumFee(uint256)": {
        "notice": "Sets the minimum fee.",
        "params": {
          "_amount": "Fee amount."
        }
      }
    },
    "version": 1
  },
  "opcodes": "PUSH1 0x80 PUSH1 0x40 MSTORE PUSH1 0x4 CALLDATASIZE LT PUSH2 0x19C JUMPI PUSH1 0x0 CALLDATALOAD PUSH1 0xE0 SHR DUP1 PUSH4 0x6B2ACE87 GT PUSH2 0xEC JUMPI DUP1 PUSH4 0xAA1BD2F6 GT PUSH2 0x8A JUMPI DUP1 PUSH4 0xC9907B08 GT PUSH2 0x64 JUMPI DUP1 PUSH4 0xC9907B08 EQ PUSH2 0x6ED JUMPI DUP1 PUSH4 0xCF309012 EQ PUSH2 0x702 JUMPI DUP1 PUSH4 0xD335EBDA EQ PUSH2 0x717 JUMPI DUP1 PUSH4 0xEC2C9016 EQ PUSH2 0x74A JUMPI PUSH2 0x19C JUMP JUMPDEST DUP1 PUSH4 0xAA1BD2F6 EQ PUSH2 0x5DD JUMPI DUP1 PUSH4 0xB0343493 EQ PUSH2 0x673 JUMPI DUP1 PUSH4 0xB9551D14 EQ PUSH2 0x6C3 JUMPI PUSH2 0x19C JUMP JUMPDEST DUP1 PUSH4 0x9E5940CC GT PUSH2 0xC6 JUMPI DUP1 PUSH4 0x9E5940CC EQ PUSH2 0x50A JUMPI DUP1 PUSH4 0x9E9188EA EQ PUSH2 0x53A JUMPI DUP1 PUSH4 0x9EDBD90A EQ PUSH2 0x56D JUMPI DUP1 PUSH4 0xA5FD7565 EQ PUSH2 0x5AA JUMPI PUSH2 0x19C JUMP JUMPDEST DUP1 PUSH4 0x6B2ACE87 EQ PUSH2 0x4CB JUMPI DUP1 PUSH4 0x6C2EEFE1 EQ PUSH2 0x4E0 JUMPI DUP1 PUSH4 0x748365EF EQ PUSH2 0x4F5 JUMPI PUSH2 0x19C JUMP JUMPDEST DUP1 PUSH4 0x2ED4F578 GT PUSH2 0x159 JUMPI DUP1 PUSH4 0x4B939ED7 GT PUSH2 0x133 JUMPI DUP1 PUSH4 0x4B939ED7 EQ PUSH2 0x44D JUMPI DUP1 PUSH4 0x4F5F2A45 EQ PUSH2 0x477 JUMPI DUP1 PUSH4 0x50D9D472 EQ PUSH2 0x48C JUMPI DUP1 PUSH4 0x571A26A0 EQ PUSH2 0x4A1 JUMPI PUSH2 0x19C JUMP JUMPDEST DUP1 PUSH4 0x2ED4F578 EQ PUSH2 0x3A0 JUMPI DUP1 PUSH4 0x390467B6 EQ PUSH2 0x3DC JUMPI DUP1 PUSH4 0x3F1F44B0 EQ PUSH2 0x423 JUMPI PUSH2 0x19C JUMP JUMPDEST DUP1 PUSH4 0x448E51A EQ PUSH2 0x1A1 JUMPI DUP1 PUSH4 0x182A7506 EQ PUSH2 0x206 JUMPI DUP1 PUSH4 0x1A7626E7 EQ PUSH2 0x232 JUMPI DUP1 PUSH4 0x211E28B6 EQ PUSH2 0x263 JUMPI DUP1 PUSH4 0x274A2258 EQ PUSH2 0x28F JUMPI DUP1 PUSH4 0x28E58E4F EQ PUSH2 0x358 JUMPI JUMPDEST PUSH1 0x0 DUP1 REVERT JUMPDEST CALLVALUE DUP1 ISZERO PUSH2 0x1AD JUMPI PUSH1 0x0 DUP1 REVERT JUMPDEST POP PUSH2 0x1D4 PUSH1 0x4 DUP1 CALLDATASIZE SUB PUSH1 0x20 DUP2 LT ISZERO PUSH2 0x1C4 JUMPI PUSH1 0x0 DUP1 REVERT JUMPDEST POP CALLDATALOAD PUSH1 0x1 PUSH1 0x1 PUSH1 0xA0 SHL SUB AND PUSH2 0x7AF JUMP JUMPDEST PUSH1 0x40 DUP1 MLOAD SWAP4 ISZERO ISZERO DUP5 MSTORE PUSH8 0xFFFFFFFFFFFFFFFF SWAP1 SWAP3 AND PUSH1 0x20 DUP5 ADD MSTORE PUSH1 0x1 PUSH1 0x1 PUSH1 0x80 SHL SUB AND DUP3 DUP3 ADD MSTORE MLOAD SWAP1 DUP2 SWAP1 SUB PUSH1 0x60 ADD SWAP1 RETURN JUMPDEST CALLVALUE DUP1 ISZERO PUSH2 0x212 JUMPI PUSH1 0x0 DUP1 REVERT JUMPDEST POP PUSH2 0x230 PUSH1 0x4 DUP1 CALLDATASIZE SUB PUSH1 0x20 DUP2 LT ISZERO PUSH2 0x229 JUMPI PUSH1 0x0 DUP1 REVERT JUMPDEST POP CALLDATALOAD PUSH2 0x7E6 JUMP JUMPDEST STOP JUMPDEST CALLVALUE DUP1 ISZERO PUSH2 0x23E JUMPI PUSH1 0x0 DUP1 REVERT JUMPDEST POP PUSH2 0x247 PUSH2 0x8CD JUMP JUMPDEST PUSH1 0x40 DUP1 MLOAD PUSH1 0x1 PUSH1 0x1 PUSH1 0x80 SHL SUB SWAP1 SWAP3 AND DUP3 MSTORE MLOAD SWAP1 DUP2 SWAP1 SUB PUSH1 0x20 ADD SWAP1 RETURN JUMPDEST CALLVALUE DUP1 ISZERO PUSH2 0x26F JUMPI PUSH1 0x0 DUP1 REVERT JUMPDEST POP PUSH2 0x230 PUSH1 0x4 DUP1 CALLDATASIZE SUB PUSH1 0x20 DUP2 LT ISZERO PUSH2 0x286 JUMPI PUSH1 0x0 DUP1 REVERT JUMPDEST POP CALLDATALOAD ISZERO ISZERO PUSH2 0x8DC JUMP JUMPDEST CALLVALUE DUP1 ISZERO PUSH2 0x29B JUMPI PUSH1 0x0 DUP1 REVERT JUMPDEST POP PUSH2 0x230 PUSH1 0x4 DUP1 CALLDATASIZE SUB PUSH1 0x60 DUP2 LT ISZERO PUSH2 0x2B2 JUMPI PUSH1 0x0 DUP1 REVERT JUMPDEST PUSH1 0x1 PUSH1 0x1 PUSH1 0xA0 SHL SUB DUP3 CALLDATALOAD DUP2 AND SWAP3 PUSH1 0x20 DUP2 ADD CALLDATALOAD SWAP1 SWAP2 AND SWAP2 DUP2 ADD SWAP1 PUSH1 0x60 DUP2 ADD PUSH1 0x40 DUP3 ADD CALLDATALOAD PUSH5 0x100000000 DUP2 GT ISZERO PUSH2 0x2E6 JUMPI PUSH1 0x0 DUP1 REVERT JUMPDEST DUP3 ADD DUP4 PUSH1 0x20 DUP3 ADD GT ISZERO PUSH2 0x2F8 JUMPI PUSH1 0x0 DUP1 REVERT JUMPDEST DUP1 CALLDATALOAD SWAP1 PUSH1 0x20 ADD SWAP2 DUP5 PUSH1 0x20 DUP4 MUL DUP5 ADD GT PUSH5 0x100000000 DUP4 GT OR ISZERO PUSH2 0x31A JUMPI PUSH1 0x0 DUP1 REVERT JUMPDEST SWAP2 SWAP1 DUP1 DUP1 PUSH1 0x20 MUL PUSH1 0x20 ADD PUSH1 0x40 MLOAD SWAP1 DUP2 ADD PUSH1 0x40 MSTORE DUP1 SWAP4 SWAP3 SWAP2 SWAP1 DUP2 DUP2 MSTORE PUSH1 0x20 ADD DUP4 DUP4 PUSH1 0x20 MUL DUP1 DUP3 DUP5 CALLDATACOPY PUSH1 0x0 SWAP3 ADD SWAP2 SWAP1 SWAP2 MSTORE POP SWAP3 SWAP6 POP PUSH2 0x9B7 SWAP5 POP POP POP POP POP JUMP JUMPDEST PUSH2 0x384 PUSH1 0x4 DUP1 CALLDATASIZE SUB PUSH1 0x40 DUP2 LT ISZERO PUSH2 0x36E JUMPI PUSH1 0x0 DUP1 REVERT JUMPDEST POP DUP1 CALLDATALOAD SWAP1 PUSH1 0x20 ADD CALLDATALOAD PUSH1 0x1 PUSH1 0x1 PUSH1 0xA0 SHL SUB AND PUSH2 0xB10 JUMP JUMPDEST PUSH1 0x40 DUP1 MLOAD PUSH1 0x1 PUSH1 0x1 PUSH1 0xA0 SHL SUB SWAP1 SWAP3 AND DUP3 MSTORE MLOAD SWAP1 DUP2 SWAP1 SUB PUSH1 0x20 ADD SWAP1 RETURN JUMPDEST CALLVALUE DUP1 ISZERO PUSH2 0x3AC JUMPI PUSH1 0x0 DUP1 REVERT JUMPDEST POP PUSH2 0x3CA PUSH1 0x4 DUP1 CALLDATASIZE SUB PUSH1 0x20 DUP2 LT ISZERO PUSH2 0x3C3 JUMPI PUSH1 0x0 DUP1 REVERT JUMPDEST POP CALLDATALOAD PUSH2 0xFEF JUMP JUMPDEST PUSH1 0x40 DUP1 MLOAD SWAP2 DUP3 MSTORE MLOAD SWAP1 DUP2 SWAP1 SUB PUSH1 0x20 ADD SWAP1 RETURN JUMPDEST CALLVALUE DUP1 ISZERO PUSH2 0x3E8 JUMPI PUSH1 0x0 DUP1 REVERT JUMPDEST POP PUSH2 0x40F PUSH1 0x4 DUP1 CALLDATASIZE SUB PUSH1 0x20 DUP2 LT ISZERO PUSH2 0x3FF JUMPI PUSH1 0x0 DUP1 REVERT JUMPDEST POP CALLDATALOAD PUSH1 0x1 PUSH1 0x1 PUSH1 0xA0 SHL SUB AND PUSH2 0x1001 JUMP JUMPDEST PUSH1 0x40 DUP1 MLOAD SWAP2 ISZERO ISZERO DUP3 MSTORE MLOAD SWAP1 DUP2 SWAP1 SUB PUSH1 0x20 ADD SWAP1 RETURN JUMPDEST CALLVALUE DUP1 ISZERO PUSH2 0x42F JUMPI PUSH1 0x0 DUP1 REVERT JUMPDEST POP PUSH2 0x230 PUSH1 0x4 DUP1 CALLDATASIZE SUB PUSH1 0x20 DUP2 LT ISZERO PUSH2 0x446 JUMPI PUSH1 0x0 DUP1 REVERT JUMPDEST POP CALLDATALOAD PUSH2 0x10A7 JUMP JUMPDEST CALLVALUE DUP1 ISZERO PUSH2 0x459 JUMPI PUSH1 0x0 DUP1 REVERT JUMPDEST POP PUSH2 0x384 PUSH1 0x4 DUP1 CALLDATASIZE SUB PUSH1 0x20 DUP2 LT ISZERO PUSH2 0x470 JUMPI PUSH1 0x0 DUP1 REVERT JUMPDEST POP CALLDATALOAD PUSH2 0x11CB JUMP JUMPDEST CALLVALUE DUP1 ISZERO PUSH2 0x483 JUMPI PUSH1 0x0 DUP1 REVERT JUMPDEST POP PUSH2 0x3CA PUSH2 0x11E6 JUMP JUMPDEST CALLVALUE DUP1 ISZERO PUSH2 0x498 JUMPI PUSH1 0x0 DUP1 REVERT JUMPDEST POP PUSH2 0x3CA PUSH2 0x120A JUMP JUMPDEST CALLVALUE DUP1 ISZERO PUSH2 0x4AD JUMPI PUSH1 0x0 DUP1 REVERT JUMPDEST POP PUSH2 0x384 PUSH1 0x4 DUP1 CALLDATASIZE SUB PUSH1 0x20 DUP2 LT ISZERO PUSH2 0x4C4 JUMPI PUSH1 0x0 DUP1 REVERT JUMPDEST POP CALLDATALOAD PUSH2 0x1210 JUMP JUMPDEST CALLVALUE DUP1 ISZERO PUSH2 0x4D7 JUMPI PUSH1 0x0 DUP1 REVERT JUMPDEST POP PUSH2 0x384 PUSH2 0x1237 JUMP JUMPDEST CALLVALUE DUP1 ISZERO PUSH2 0x4EC JUMPI PUSH1 0x0 DUP1 REVERT JUMPDEST POP PUSH2 0x3CA PUSH2 0x1246 JUMP JUMPDEST CALLVALUE DUP1 ISZERO PUSH2 0x501 JUMPI PUSH1 0x0 DUP1 REVERT JUMPDEST POP PUSH2 0x384 PUSH2 0x124C JUMP JUMPDEST CALLVALUE DUP1 ISZERO PUSH2 0x516 JUMPI PUSH1 0x0 DUP1 REVERT JUMPDEST POP PUSH2 0x230 PUSH1 0x4 DUP1 CALLDATASIZE SUB PUSH1 0x40 DUP2 LT ISZERO PUSH2 0x52D JUMPI PUSH1 0x0 DUP1 REVERT JUMPDEST POP DUP1 CALLDATALOAD SWAP1 PUSH1 0x20 ADD CALLDATALOAD PUSH2 0x125B JUMP JUMPDEST CALLVALUE DUP1 ISZERO PUSH2 0x546 JUMPI PUSH1 0x0 DUP1 REVERT JUMPDEST POP PUSH2 0x230 PUSH1 0x4 DUP1 CALLDATASIZE SUB PUSH1 0x20 DUP2 LT ISZERO PUSH2 0x55D JUMPI PUSH1 0x0 DUP1 REVERT JUMPDEST POP CALLDATALOAD PUSH1 0x1 PUSH1 0x1 PUSH1 0xA0 SHL SUB AND PUSH2 0x1335 JUMP JUMPDEST CALLVALUE DUP1 ISZERO PUSH2 0x579 JUMPI PUSH1 0x0 DUP1 REVERT JUMPDEST POP PUSH2 0x582 PUSH2 0x1422 JUMP JUMPDEST PUSH1 0x40 DUP1 MLOAD PUSH1 0x1 PUSH1 0x1 PUSH1 0x80 SHL SUB SWAP1 SWAP4 AND DUP4 MSTORE PUSH4 0xFFFFFFFF SWAP1 SWAP2 AND PUSH1 0x20 DUP4 ADD MSTORE DUP1 MLOAD SWAP2 DUP3 SWAP1 SUB ADD SWAP1 RETURN JUMPDEST CALLVALUE DUP1 ISZERO PUSH2 0x5B6 JUMPI PUSH1 0x0 DUP1 REVERT JUMPDEST POP PUSH2 0x230 PUSH1 0x4 DUP1 CALLDATASIZE SUB PUSH1 0x20 DUP2 LT ISZERO PUSH2 0x5CD JUMPI PUSH1 0x0 DUP1 REVERT JUMPDEST POP CALLDATALOAD PUSH1 0x1 PUSH1 0x1 PUSH1 0xA0 SHL SUB AND PUSH2 0x1440 JUMP JUMPDEST PUSH2 0x384 PUSH1 0x4 DUP1 CALLDATASIZE SUB PUSH1 0xA0 DUP2 LT ISZERO PUSH2 0x5F3 JUMPI PUSH1 0x0 DUP1 REVERT JUMPDEST DUP2 CALLDATALOAD SWAP2 PUSH1 0x1 PUSH1 0x1 PUSH1 0xA0 SHL SUB PUSH1 0x20 DUP3 ADD CALLDATALOAD DUP2 AND SWAP3 PUSH1 0x40 DUP4 ADD CALLDATALOAD SWAP3 PUSH1 0x60 DUP2 ADD CALLDATALOAD SWAP1 SWAP3 AND SWAP2 SWAP1 DUP2 ADD SWAP1 PUSH1 0xA0 DUP2 ADD PUSH1 0x80 DUP3 ADD CALLDATALOAD PUSH5 0x100000000 DUP2 GT ISZERO PUSH2 0x634 JUMPI PUSH1 0x0 DUP1 REVERT JUMPDEST DUP3 ADD DUP4 PUSH1 0x20 DUP3 ADD GT ISZERO PUSH2 0x646 JUMPI PUSH1 0x0 DUP1 REVERT JUMPDEST DUP1 CALLDATALOAD SWAP1 PUSH1 0x20 ADD SWAP2 DUP5 PUSH1 0x1 DUP4 MUL DUP5 ADD GT PUSH5 0x100000000 DUP4 GT OR ISZERO PUSH2 0x668 JUMPI PUSH1 0x0 DUP1 REVERT JUMPDEST POP SWAP1 SWAP3 POP SWAP1 POP PUSH2 0x157C JUMP JUMPDEST CALLVALUE DUP1 ISZERO PUSH2 0x67F JUMPI PUSH1 0x0 DUP1 REVERT JUMPDEST POP PUSH2 0x6A6 PUSH1 0x4 DUP1 CALLDATASIZE SUB PUSH1 0x20 DUP2 LT ISZERO PUSH2 0x696 JUMPI PUSH1 0x0 DUP1 REVERT JUMPDEST POP CALLDATALOAD PUSH1 0x1 PUSH1 0x1 PUSH1 0xA0 SHL SUB AND PUSH2 0x1782 JUMP JUMPDEST PUSH1 0x40 DUP1 MLOAD PUSH8 0xFFFFFFFFFFFFFFFF SWAP1 SWAP3 AND DUP3 MSTORE MLOAD SWAP1 DUP2 SWAP1 SUB PUSH1 0x20 ADD SWAP1 RETURN JUMPDEST CALLVALUE DUP1 ISZERO PUSH2 0x6CF JUMPI PUSH1 0x0 DUP1 REVERT JUMPDEST POP PUSH2 0x230 PUSH1 0x4 DUP1 CALLDATASIZE SUB PUSH1 0x20 DUP2 LT ISZERO PUSH2 0x6E6 JUMPI PUSH1 0x0 DUP1 REVERT JUMPDEST POP CALLDATALOAD PUSH2 0x17AC JUMP JUMPDEST CALLVALUE DUP1 ISZERO PUSH2 0x6F9 JUMPI PUSH1 0x0 DUP1 REVERT JUMPDEST POP PUSH2 0x384 PUSH2 0x194F JUMP JUMPDEST CALLVALUE DUP1 ISZERO PUSH2 0x70E JUMPI PUSH1 0x0 DUP1 REVERT JUMPDEST POP PUSH2 0x40F PUSH2 0x1963 JUMP JUMPDEST CALLVALUE DUP1 ISZERO PUSH2 0x723 JUMPI PUSH1 0x0 DUP1 REVERT JUMPDEST POP PUSH2 0x3CA PUSH1 0x4 DUP1 CALLDATASIZE SUB PUSH1 0x20 DUP2 LT ISZERO PUSH2 0x73A JUMPI PUSH1 0x0 DUP1 REVERT JUMPDEST POP CALLDATALOAD PUSH1 0x1 PUSH1 0x1 PUSH1 0xA0 SHL SUB AND PUSH2 0x196C JUMP JUMPDEST CALLVALUE DUP1 ISZERO PUSH2 0x756 JUMPI PUSH1 0x0 DUP1 REVERT JUMPDEST POP PUSH2 0x75F PUSH2 0x1987 JUMP JUMPDEST PUSH1 0x40 DUP1 MLOAD PUSH1 0x20 DUP1 DUP3 MSTORE DUP4 MLOAD DUP2 DUP4 ADD MSTORE DUP4 MLOAD SWAP2 SWAP3 DUP4 SWAP3 SWAP1 DUP4 ADD SWAP2 DUP6 DUP2 ADD SWAP2 MUL DUP1 DUP4 DUP4 PUSH1 0x0 JUMPDEST DUP4 DUP2 LT ISZERO PUSH2 0x79B JUMPI DUP2 DUP2 ADD MLOAD DUP4 DUP3 ADD MSTORE PUSH1 0x20 ADD PUSH2 0x783 JUMP JUMPDEST POP POP POP POP SWAP1 POP ADD SWAP3 POP POP POP PUSH1 0x40 MLOAD DUP1 SWAP2 SUB SWAP1 RETURN JUMPDEST PUSH1 0x7 PUSH1 0x20 MSTORE PUSH1 0x0 SWAP1 DUP2 MSTORE PUSH1 0x40 SWAP1 KECCAK256 SLOAD PUSH1 0xFF DUP2 AND SWAP1 PUSH2 0x100 DUP2 DIV PUSH8 0xFFFFFFFFFFFFFFFF AND SWAP1 PUSH1 0x1 PUSH1 0x48 SHL SWAP1 DIV PUSH1 0x1 PUSH1 0x1 PUSH1 0x80 SHL SUB AND DUP4 JUMP JUMPDEST PUSH1 0x0 SLOAD PUSH1 0x40 DUP1 MLOAD PUSH4 0xC395FCB3 PUSH1 0xE0 SHL DUP2 MSTORE CALLER PUSH1 0x4 DUP3 ADD MSTORE SWAP1 MLOAD PUSH1 0x1 PUSH1 0x1 PUSH1 0xA0 SHL SUB SWAP1 SWAP3 AND SWAP2 PUSH4 0xC395FCB3 SWAP2 PUSH1 0x24 DUP1 DUP3 ADD SWAP3 PUSH1 0x20 SWAP3 SWAP1 SWAP2 SWAP1 DUP3 SWAP1 SUB ADD DUP2 DUP7 DUP1 EXTCODESIZE ISZERO DUP1 ISZERO PUSH2 0x831 JUMPI PUSH1 0x0 DUP1 REVERT JUMPDEST POP GAS STATICCALL ISZERO DUP1 ISZERO PUSH2 0x845 JUMPI RETURNDATASIZE PUSH1 0x0 DUP1 RETURNDATACOPY RETURNDATASIZE PUSH1 0x0 REVERT JUMPDEST POP POP POP POP PUSH1 0x40 MLOAD RETURNDATASIZE PUSH1 0x20 DUP2 LT ISZERO PUSH2 0x85B JUMPI PUSH1 0x0 DUP1 REVERT JUMPDEST POP MLOAD PUSH2 0x898 JUMPI PUSH1 0x40 MLOAD PUSH3 0x461BCD PUSH1 0xE5 SHL DUP2 MSTORE PUSH1 0x4 ADD DUP1 DUP1 PUSH1 0x20 ADD DUP3 DUP2 SUB DUP3 MSTORE PUSH1 0x23 DUP2 MSTORE PUSH1 0x20 ADD DUP1 PUSH2 0x1ECA PUSH1 0x23 SWAP2 CODECOPY PUSH1 0x40 ADD SWAP2 POP POP PUSH1 0x40 MLOAD DUP1 SWAP2 SUB SWAP1 REVERT JUMPDEST PUSH2 0x8A1 DUP2 PUSH2 0x19E9 JUMP JUMPDEST PUSH1 0x8 DUP1 SLOAD PUSH16 0xFFFFFFFFFFFFFFFFFFFFFFFFFFFFFFFF NOT AND PUSH1 0x1 PUSH1 0x1 PUSH1 0x80 SHL SUB SWAP3 SWAP1 SWAP3 AND SWAP2 SWAP1 SWAP2 OR SWAP1 SSTORE POP JUMP JUMPDEST PUSH1 0x8 SLOAD PUSH1 0x1 PUSH1 0x1 PUSH1 0x80 SHL SUB AND SWAP1 JUMP JUMPDEST PUSH1 0x0 SLOAD PUSH1 0x40 DUP1 MLOAD PUSH4 0xC395FCB3 PUSH1 0xE0 SHL DUP2 MSTORE CALLER PUSH1 0x4 DUP3 ADD MSTORE SWAP1 MLOAD PUSH1 0x1 PUSH1 0x1 PUSH1 0xA0 SHL SUB SWAP1 SWAP3 AND SWAP2 PUSH4 0xC395FCB3 SWAP2 PUSH1 0x24 DUP1 DUP3 ADD SWAP3 PUSH1 0x20 SWAP3 SWAP1 SWAP2 SWAP1 DUP3 SWAP1 SUB ADD DUP2 DUP7 DUP1 EXTCODESIZE ISZERO DUP1 ISZERO PUSH2 0x927 JUMPI PUSH1 0x0 DUP1 REVERT JUMPDEST POP GAS STATICCALL ISZERO DUP1 ISZERO PUSH2 0x93B JUMPI RETURNDATASIZE PUSH1 0x0 DUP1 RETURNDATACOPY RETURNDATASIZE PUSH1 0x0 REVERT JUMPDEST POP POP POP POP PUSH1 0x40 MLOAD RETURNDATASIZE PUSH1 0x20 DUP2 LT ISZERO PUSH2 0x951 JUMPI PUSH1 0x0 DUP1 REVERT JUMPDEST POP MLOAD PUSH2 0x9A4 JUMPI PUSH1 0x40 DUP1 MLOAD PUSH3 0x461BCD PUSH1 0xE5 SHL DUP2 MSTORE PUSH1 0x20 PUSH1 0x4 DUP3 ADD DUP2 SWAP1 MSTORE PUSH1 0x24 DUP3 ADD MSTORE PUSH32 0x4D49534F4D61726B65743A2053656E646572206D7573742062652061646D696E PUSH1 0x44 DUP3 ADD MSTORE SWAP1 MLOAD SWAP1 DUP2 SWAP1 SUB PUSH1 0x64 ADD SWAP1 REVERT JUMPDEST PUSH1 0x9 DUP1 SLOAD PUSH1 0xFF NOT AND SWAP2 ISZERO ISZERO SWAP2 SWAP1 SWAP2 OR SWAP1 SSTORE JUMP JUMPDEST PUSH1 0x0 SLOAD PUSH1 0x1 PUSH1 0xA0 SHL SWAP1 DIV PUSH1 0xFF AND ISZERO PUSH2 0x9CE JUMPI PUSH1 0x0 DUP1 REVERT JUMPDEST PUSH1 0x1 PUSH1 0x1 PUSH1 0xA0 SHL SUB DUP4 AND PUSH2 0xA13 JUMPI PUSH1 0x40 MLOAD PUSH3 0x461BCD PUSH1 0xE5 SHL DUP2 MSTORE PUSH1 0x4 ADD DUP1 DUP1 PUSH1 0x20 ADD DUP3 DUP2 SUB DUP3 MSTORE PUSH1 0x34 DUP2 MSTORE PUSH1 0x20 ADD DUP1 PUSH2 0x1F3F PUSH1 0x34 SWAP2 CODECOPY PUSH1 0x40 ADD SWAP2 POP POP PUSH1 0x40 MLOAD DUP1 SWAP2 SUB SWAP1 REVERT JUMPDEST PUSH1 0x1 PUSH1 0x1 PUSH1 0xA0 SHL SUB DUP3 AND PUSH2 0xA58 JUMPI PUSH1 0x40 MLOAD PUSH3 0x461BCD PUSH1 0xE5 SHL DUP2 MSTORE PUSH1 0x4 ADD DUP1 DUP1 PUSH1 0x20 ADD DUP3 DUP2 SUB DUP3 MSTORE PUSH1 0x2E DUP2 MSTORE PUSH1 0x20 ADD DUP1 PUSH2 0x1EED PUSH1 0x2E SWAP2 CODECOPY PUSH1 0x40 ADD SWAP2 POP POP PUSH1 0x40 MLOAD DUP1 SWAP2 SUB SWAP1 REVERT JUMPDEST PUSH1 0x0 DUP1 SLOAD PUSH1 0x1 PUSH1 0x1 PUSH1 0xA0 SHL SUB DUP1 DUP7 AND PUSH1 0x1 PUSH1 0x1 PUSH1 0xA0 SHL SUB NOT SWAP3 DUP4 AND OR DUP4 SSTORE PUSH1 0x3 DUP1 SLOAD SWAP2 DUP7 AND SWAP2 SWAP1 SWAP3 AND OR SWAP1 SSTORE PUSH1 0x2 DUP2 SWAP1 SSTORE JUMPDEST DUP2 MLOAD DUP2 LT ISZERO PUSH2 0xAB7 JUMPI PUSH2 0xAAF DUP3 DUP3 DUP2 MLOAD DUP2 LT PUSH2 0xAA2 JUMPI INVALID JUMPDEST PUSH1 0x20 MUL PUSH1 0x20 ADD ADD MLOAD PUSH2 0x1A4B JUMP JUMPDEST PUSH1 0x1 ADD PUSH2 0xA8A JUMP JUMPDEST POP PUSH1 0x9 DUP1 SLOAD PUSH1 0xFF NOT AND PUSH1 0x1 OR SWAP1 SSTORE PUSH1 0x0 DUP1 SLOAD PUSH1 0xFF PUSH1 0xA0 SHL NOT AND PUSH1 0x1 PUSH1 0xA0 SHL OR SWAP1 SSTORE PUSH1 0x40 DUP1 MLOAD CALLER DUP2 MSTORE SWAP1 MLOAD PUSH32 0x9728848F268715C9F5810670481ABA9B347F34C21407E902D679356B7617B6B2 SWAP2 DUP2 SWAP1 SUB PUSH1 0x20 ADD SWAP1 LOG1 POP POP POP JUMP JUMPDEST PUSH1 0x9 SLOAD PUSH1 0x0 SWAP1 PUSH1 0xFF AND ISZERO PUSH2 0xC5D JUMPI PUSH1 0x0 SLOAD PUSH1 0x40 DUP1 MLOAD PUSH4 0xC395FCB3 PUSH1 0xE0 SHL DUP2 MSTORE CALLER PUSH1 0x4 DUP3 ADD MSTORE SWAP1 MLOAD PUSH1 0x1 PUSH1 0x1 PUSH1 0xA0 SHL SUB SWAP1 SWAP3 AND SWAP2 PUSH4 0xC395FCB3 SWAP2 PUSH1 0x24 DUP1 DUP3 ADD SWAP3 PUSH1 0x20 SWAP3 SWAP1 SWAP2 SWAP1 DUP3 SWAP1 SUB ADD DUP2 DUP7 DUP1 EXTCODESIZE ISZERO DUP1 ISZERO PUSH2 0xB69 JUMPI PUSH1 0x0 DUP1 REVERT JUMPDEST POP GAS STATICCALL ISZERO DUP1 ISZERO PUSH2 0xB7D JUMPI RETURNDATASIZE PUSH1 0x0 DUP1 RETURNDATACOPY RETURNDATASIZE PUSH1 0x0 REVERT JUMPDEST POP POP POP POP PUSH1 0x40 MLOAD RETURNDATASIZE PUSH1 0x20 DUP2 LT ISZERO PUSH2 0xB93 JUMPI PUSH1 0x0 DUP1 REVERT JUMPDEST POP MLOAD DUP1 PUSH2 0xC13 JUMPI POP PUSH1 0x0 SLOAD PUSH1 0x40 DUP1 MLOAD PUSH4 0x99DB017 PUSH1 0xE0 SHL DUP2 MSTORE CALLER PUSH1 0x4 DUP3 ADD MSTORE SWAP1 MLOAD PUSH1 0x1 PUSH1 0x1 PUSH1 0xA0 SHL SUB SWAP1 SWAP3 AND SWAP2 PUSH4 0x99DB017 SWAP2 PUSH1 0x24 DUP1 DUP3 ADD SWAP3 PUSH1 0x20 SWAP3 SWAP1 SWAP2 SWAP1 DUP3 SWAP1 SUB ADD DUP2 DUP7 DUP1 EXTCODESIZE ISZERO DUP1 ISZERO PUSH2 0xBE6 JUMPI PUSH1 0x0 DUP1 REVERT JUMPDEST POP GAS STATICCALL ISZERO DUP1 ISZERO PUSH2 0xBFA JUMPI RETURNDATASIZE PUSH1 0x0 DUP1 RETURNDATACOPY RETURNDATASIZE PUSH1 0x0 REVERT JUMPDEST POP POP POP POP PUSH1 0x40 MLOAD RETURNDATASIZE PUSH1 0x20 DUP2 LT ISZERO PUSH2 0xC10 JUMPI PUSH1 0x0 DUP1 REVERT JUMPDEST POP MLOAD JUMPDEST DUP1 PUSH2 0xC22 JUMPI POP PUSH2 0xC22 CALLER PUSH2 0x1001 JUMP JUMPDEST PUSH2 0xC5D JUMPI PUSH1 0x40 MLOAD PUSH3 0x461BCD PUSH1 0xE5 SHL DUP2 MSTORE PUSH1 0x4 ADD DUP1 DUP1 PUSH1 0x20 ADD DUP3 DUP2 SUB DUP3 MSTORE PUSH1 0x2B DUP2 MSTORE PUSH1 0x20 ADD DUP1 PUSH2 0x2030 PUSH1 0x2B SWAP2 CODECOPY PUSH1 0x40 ADD SWAP2 POP POP PUSH1 0x40 MLOAD DUP1 SWAP2 SUB SWAP1 REVERT JUMPDEST PUSH2 0xC65 PUSH2 0x1E88 JUMP JUMPDEST POP PUSH1 0x40 DUP1 MLOAD DUP1 DUP3 ADD DUP3 MSTORE PUSH1 0x8 SLOAD PUSH1 0x1 PUSH1 0x1 PUSH1 0x80 SHL SUB DUP1 DUP3 AND DUP4 MSTORE PUSH1 0x1 PUSH1 0x80 SHL SWAP1 SWAP2 DIV PUSH4 0xFFFFFFFF AND PUSH1 0x20 DUP1 DUP5 ADD SWAP2 SWAP1 SWAP2 MSTORE PUSH1 0x0 DUP8 DUP2 MSTORE PUSH1 0x4 SWAP1 SWAP2 MSTORE SWAP3 SWAP1 SWAP3 KECCAK256 SLOAD DUP2 MLOAD SWAP2 SWAP3 PUSH1 0x1 PUSH1 0x1 PUSH1 0xA0 SHL SUB SWAP1 SWAP2 AND SWAP2 AND CALLVALUE LT ISZERO PUSH2 0xCF4 JUMPI PUSH1 0x40 MLOAD PUSH3 0x461BCD PUSH1 0xE5 SHL DUP2 MSTORE PUSH1 0x4 ADD DUP1 DUP1 PUSH1 0x20 ADD DUP3 DUP2 SUB DUP3 MSTORE PUSH1 0x29 DUP2 MSTORE PUSH1 0x20 ADD DUP1 PUSH2 0x2007 PUSH1 0x29 SWAP2 CODECOPY PUSH1 0x40 ADD SWAP2 POP POP PUSH1 0x40 MLOAD DUP1 SWAP2 SUB SWAP1 REVERT JUMPDEST PUSH1 0x1 PUSH1 0x1 PUSH1 0xA0 SHL SUB DUP2 AND PUSH2 0xD39 JUMPI PUSH1 0x40 MLOAD PUSH3 0x461BCD PUSH1 0xE5 SHL DUP2 MSTORE PUSH1 0x4 ADD DUP1 DUP1 PUSH1 0x20 ADD DUP3 DUP2 SUB DUP3 MSTORE PUSH1 0x2A DUP2 MSTORE PUSH1 0x20 ADD DUP1 PUSH2 0x1F98 PUSH1 0x2A SWAP2 CODECOPY PUSH1 0x40 ADD SWAP2 POP POP PUSH1 0x40 MLOAD DUP1 SWAP2 SUB SWAP1 REVERT JUMPDEST PUSH1 0x0 CALLVALUE PUSH1 0x1 PUSH1 0x1 PUSH1 0xA0 SHL SUB DUP7 AND ISZERO DUP1 ISZERO SWAP1 PUSH2 0xD67 JUMPI POP PUSH1 0x9 SLOAD PUSH1 0x1 PUSH1 0x1 PUSH1 0xA0 SHL SUB DUP8 DUP2 AND PUSH2 0x100 SWAP1 SWAP3 DIV AND EQ ISZERO JUMPDEST ISZERO PUSH2 0xD8A JUMPI PUSH2 0x3E8 DUP5 PUSH1 0x20 ADD MLOAD PUSH4 0xFFFFFFFF AND DUP3 MUL DUP2 PUSH2 0xD83 JUMPI INVALID JUMPDEST DIV SWAP2 POP DUP2 SWAP1 SUB JUMPDEST PUSH1 0x3 SLOAD PUSH1 0x40 DUP1 MLOAD PUSH4 0x1F54245B PUSH1 0xE0 SHL DUP2 MSTORE PUSH1 0x1 PUSH1 0x1 PUSH1 0xA0 SHL SUB DUP7 DUP2 AND PUSH1 0x4 DUP4 ADD MSTORE PUSH1 0x0 PUSH1 0x44 DUP4 ADD DUP2 SWAP1 MSTORE PUSH1 0x60 PUSH1 0x24 DUP5 ADD MSTORE PUSH1 0x64 DUP4 ADD DUP2 SWAP1 MSTORE SWAP3 MLOAD SWAP4 AND SWAP3 PUSH4 0x1F54245B SWAP3 PUSH1 0xA4 DUP1 DUP5 ADD SWAP4 PUSH1 0x20 SWAP4 SWAP3 SWAP1 DUP4 SWAP1 SUB SWAP1 SWAP2 ADD SWAP1 DUP3 SWAP1 DUP8 DUP1 EXTCODESIZE ISZERO DUP1 ISZERO PUSH2 0xDF0 JUMPI PUSH1 0x0 DUP1 REVERT JUMPDEST POP GAS CALL ISZERO DUP1 ISZERO PUSH2 0xE04 JUMPI RETURNDATASIZE PUSH1 0x0 DUP1 RETURNDATACOPY RETURNDATASIZE PUSH1 0x0 REVERT JUMPDEST POP POP POP POP PUSH1 0x40 MLOAD RETURNDATASIZE PUSH1 0x20 DUP2 LT ISZERO PUSH2 0xE1A JUMPI PUSH1 0x0 DUP1 REVERT JUMPDEST POP MLOAD PUSH1 0x40 DUP1 MLOAD PUSH1 0x60 DUP2 ADD SWAP1 SWAP2 MSTORE PUSH1 0x1 DUP2 MSTORE SWAP1 SWAP6 POP PUSH1 0x20 DUP2 ADD PUSH2 0xE3B DUP10 PUSH2 0x1C2A JUMP JUMPDEST PUSH8 0xFFFFFFFFFFFFFFFF AND DUP2 MSTORE PUSH1 0x20 ADD PUSH2 0xE58 PUSH1 0x1 DUP1 SLOAD SWAP1 POP PUSH2 0x19E9 JUMP JUMPDEST PUSH1 0x1 PUSH1 0x1 PUSH1 0x80 SHL SUB SWAP1 DUP2 AND SWAP1 SWAP2 MSTORE PUSH1 0x1 PUSH1 0x1 PUSH1 0xA0 SHL SUB DUP1 DUP9 AND PUSH1 0x0 DUP2 DUP2 MSTORE PUSH1 0x7 PUSH1 0x20 SWAP1 DUP2 MSTORE PUSH1 0x40 DUP1 DUP4 KECCAK256 DUP8 MLOAD DUP2 SLOAD DUP10 DUP6 ADD MLOAD SWAP10 DUP5 ADD MLOAD SWAP1 SWAP9 AND PUSH1 0x1 PUSH1 0x48 SHL MUL PUSH25 0xFFFFFFFFFFFFFFFFFFFFFFFFFFFFFFFF000000000000000000 NOT PUSH8 0xFFFFFFFFFFFFFFFF SWAP1 SWAP11 AND PUSH2 0x100 MUL PUSH9 0xFFFFFFFFFFFFFFFF00 NOT SWAP3 ISZERO ISZERO PUSH1 0xFF NOT SWAP1 SWAP11 AND SWAP10 SWAP1 SWAP10 OR SWAP2 SWAP1 SWAP2 AND SWAP8 SWAP1 SWAP8 OR SWAP8 SWAP1 SWAP8 AND SWAP6 SWAP1 SWAP6 OR SWAP1 SWAP6 SSTORE PUSH1 0x1 DUP1 SLOAD DUP1 DUP3 ADD DUP3 SSTORE SWAP2 MSTORE PUSH32 0xB10E2D527612073B26EECDFD717E6A320CF44B4AFAC2B0732D9FCBE2B7FA0CF6 ADD DUP1 SLOAD PUSH1 0x1 PUSH1 0x1 PUSH1 0xA0 SHL SUB NOT AND DUP3 OR SWAP1 SSTORE DUP3 MLOAD SWAP2 DUP8 AND DUP3 MSTORE SWAP2 MLOAD SWAP2 SWAP3 CALLER SWAP3 PUSH32 0xE63E6130091E2155004C4B5AC35E8FB9BE704D6637FF3068A8F710BA36C9F41A SWAP3 DUP2 SWAP1 SUB SWAP1 SWAP2 ADD SWAP1 LOG3 DUP1 ISZERO PUSH2 0xFA7 JUMPI PUSH1 0x9 SLOAD PUSH1 0x40 MLOAD PUSH2 0x100 SWAP1 SWAP2 DIV PUSH1 0x1 PUSH1 0x1 PUSH1 0xA0 SHL SUB AND SWAP1 PUSH2 0x8FC DUP4 ISZERO MUL SWAP1 DUP4 SWAP1 PUSH1 0x0 DUP2 DUP2 DUP2 DUP6 DUP9 DUP9 CALL SWAP4 POP POP POP POP ISZERO DUP1 ISZERO PUSH2 0xFA5 JUMPI RETURNDATASIZE PUSH1 0x0 DUP1 RETURNDATACOPY RETURNDATASIZE PUSH1 0x0 REVERT JUMPDEST POP JUMPDEST DUP2 ISZERO PUSH2 0xFE5 JUMPI PUSH1 0x40 MLOAD PUSH1 0x1 PUSH1 0x1 PUSH1 0xA0 SHL SUB DUP8 AND SWAP1 DUP4 ISZERO PUSH2 0x8FC MUL SWAP1 DUP5 SWAP1 PUSH1 0x0 DUP2 DUP2 DUP2 DUP6 DUP9 DUP9 CALL SWAP4 POP POP POP POP ISZERO DUP1 ISZERO PUSH2 0xFE3 JUMPI RETURNDATASIZE PUSH1 0x0 DUP1 RETURNDATACOPY RETURNDATASIZE PUSH1 0x0 REVERT JUMPDEST POP JUMPDEST POP POP POP POP SWAP3 SWAP2 POP POP JUMP JUMPDEST PUSH1 0x6 PUSH1 0x20 MSTORE PUSH1 0x0 SWAP1 DUP2 MSTORE PUSH1 0x40 SWAP1 KECCAK256 SLOAD DUP2 JUMP JUMPDEST PUSH1 0x0 DUP1 SLOAD PUSH1 0x40 DUP1 MLOAD PUSH4 0x24745215 PUSH1 0xE2 SHL DUP2 MSTORE PUSH32 0x185F85149DB0F205130703941D0F9CCD8133E50DF5D5080231C7704337AA2C38 PUSH1 0x4 DUP3 ADD MSTORE PUSH1 0x1 PUSH1 0x1 PUSH1 0xA0 SHL SUB DUP6 DUP2 AND PUSH1 0x24 DUP4 ADD MSTORE SWAP2 MLOAD SWAP2 SWAP1 SWAP3 AND SWAP2 PUSH4 0x91D14854 SWAP2 PUSH1 0x44 DUP1 DUP4 ADD SWAP3 PUSH1 0x20 SWAP3 SWAP2 SWAP1 DUP3 SWAP1 SUB ADD DUP2 DUP7 DUP1 EXTCODESIZE ISZERO DUP1 ISZERO PUSH2 0x1075 JUMPI PUSH1 0x0 DUP1 REVERT JUMPDEST POP GAS STATICCALL ISZERO DUP1 ISZERO PUSH2 0x1089 JUMPI RETURNDATASIZE PUSH1 0x0 DUP1 RETURNDATACOPY RETURNDATASIZE PUSH1 0x0 REVERT JUMPDEST POP POP POP POP PUSH1 0x40 MLOAD RETURNDATASIZE PUSH1 0x20 DUP2 LT ISZERO PUSH2 0x109F JUMPI PUSH1 0x0 DUP1 REVERT JUMPDEST POP MLOAD SWAP3 SWAP2 POP POP JUMP JUMPDEST PUSH1 0x0 SLOAD PUSH1 0x40 DUP1 MLOAD PUSH4 0xC395FCB3 PUSH1 0xE0 SHL DUP2 MSTORE CALLER PUSH1 0x4 DUP3 ADD MSTORE SWAP1 MLOAD PUSH1 0x1 PUSH1 0x1 PUSH1 0xA0 SHL SUB SWAP1 SWAP3 AND SWAP2 PUSH4 0xC395FCB3 SWAP2 PUSH1 0x24 DUP1 DUP3 ADD SWAP3 PUSH1 0x20 SWAP3 SWAP1 SWAP2 SWAP1 DUP3 SWAP1 SUB ADD DUP2 DUP7 DUP1 EXTCODESIZE ISZERO DUP1 ISZERO PUSH2 0x10F2 JUMPI PUSH1 0x0 DUP1 REVERT JUMPDEST POP GAS STATICCALL ISZERO DUP1 ISZERO PUSH2 0x1106 JUMPI RETURNDATASIZE PUSH1 0x0 DUP1 RETURNDATACOPY RETURNDATASIZE PUSH1 0x0 REVERT JUMPDEST POP POP POP POP PUSH1 0x40 MLOAD RETURNDATASIZE PUSH1 0x20 DUP2 LT ISZERO PUSH2 0x111C JUMPI PUSH1 0x0 DUP1 REVERT JUMPDEST POP MLOAD PUSH2 0x1159 JUMPI PUSH1 0x40 MLOAD PUSH3 0x461BCD PUSH1 0xE5 SHL DUP2 MSTORE PUSH1 0x4 ADD DUP1 DUP1 PUSH1 0x20 ADD DUP3 DUP2 SUB DUP3 MSTORE PUSH1 0x23 DUP2 MSTORE PUSH1 0x20 ADD DUP1 PUSH2 0x1ECA PUSH1 0x23 SWAP2 CODECOPY PUSH1 0x40 ADD SWAP2 POP POP PUSH1 0x40 MLOAD DUP1 SWAP2 SUB SWAP1 REVERT JUMPDEST PUSH2 0x3E8 DUP2 GT ISZERO PUSH2 0x119A JUMPI PUSH1 0x40 MLOAD PUSH3 0x461BCD PUSH1 0xE5 SHL DUP2 MSTORE PUSH1 0x4 ADD DUP1 DUP1 PUSH1 0x20 ADD DUP3 DUP2 SUB DUP3 MSTORE PUSH1 0x25 DUP2 MSTORE PUSH1 0x20 ADD DUP1 PUSH2 0x1F73 PUSH1 0x25 SWAP2 CODECOPY PUSH1 0x40 ADD SWAP2 POP POP PUSH1 0x40 MLOAD DUP1 SWAP2 SUB SWAP1 REVERT JUMPDEST PUSH2 0x11A3 DUP2 PUSH2 0x1C89 JUMP JUMPDEST PUSH1 0x8 DUP1 SLOAD PUSH4 0xFFFFFFFF SWAP3 SWAP1 SWAP3 AND PUSH1 0x1 PUSH1 0x80 SHL MUL PUSH4 0xFFFFFFFF PUSH1 0x80 SHL NOT SWAP1 SWAP3 AND SWAP2 SWAP1 SWAP2 OR SWAP1 SSTORE POP JUMP JUMPDEST PUSH1 0x0 SWAP1 DUP2 MSTORE PUSH1 0x4 PUSH1 0x20 MSTORE PUSH1 0x40 SWAP1 KECCAK256 SLOAD PUSH1 0x1 PUSH1 0x1 PUSH1 0xA0 SHL SUB AND SWAP1 JUMP JUMPDEST PUSH32 0x185F85149DB0F205130703941D0F9CCD8133E50DF5D5080231C7704337AA2C38 DUP2 JUMP JUMPDEST PUSH1 0x1 SLOAD SWAP1 JUMP JUMPDEST PUSH1 0x1 DUP2 DUP2 SLOAD DUP2 LT PUSH2 0x121D JUMPI INVALID JUMPDEST PUSH1 0x0 SWAP2 DUP3 MSTORE PUSH1 0x20 SWAP1 SWAP2 KECCAK256 ADD SLOAD PUSH1 0x1 PUSH1 0x1 PUSH1 0xA0 SHL SUB AND SWAP1 POP DUP2 JUMP JUMPDEST PUSH1 0x3 SLOAD PUSH1 0x1 PUSH1 0x1 PUSH1 0xA0 SHL SUB AND DUP2 JUMP JUMPDEST PUSH1 0x2 SLOAD DUP2 JUMP JUMPDEST PUSH1 0x0 SLOAD PUSH1 0x1 PUSH1 0x1 PUSH1 0xA0 SHL SUB AND DUP2 JUMP JUMPDEST PUSH1 0x0 SLOAD PUSH1 0x40 DUP1 MLOAD PUSH4 0xC395FCB3 PUSH1 0xE0 SHL DUP2 MSTORE CALLER PUSH1 0x4 DUP3 ADD MSTORE SWAP1 MLOAD PUSH1 0x1 PUSH1 0x1 PUSH1 0xA0 SHL SUB SWAP1 SWAP3 AND SWAP2 PUSH4 0xC395FCB3 SWAP2 PUSH1 0x24 DUP1 DUP3 ADD SWAP3 PUSH1 0x20 SWAP3 SWAP1 SWAP2 SWAP1 DUP3 SWAP1 SUB ADD DUP2 DUP7 DUP1 EXTCODESIZE ISZERO DUP1 ISZERO PUSH2 0x12A6 JUMPI PUSH1 0x0 DUP1 REVERT JUMPDEST POP GAS STATICCALL ISZERO DUP1 ISZERO PUSH2 0x12BA JUMPI RETURNDATASIZE PUSH1 0x0 DUP1 RETURNDATACOPY RETURNDATASIZE PUSH1 0x0 REVERT JUMPDEST POP POP POP POP PUSH1 0x40 MLOAD RETURNDATASIZE PUSH1 0x20 DUP2 LT ISZERO PUSH2 0x12D0 JUMPI PUSH1 0x0 DUP1 REVERT JUMPDEST POP MLOAD PUSH2 0x1323 JUMPI PUSH1 0x40 DUP1 MLOAD PUSH3 0x461BCD PUSH1 0xE5 SHL DUP2 MSTORE PUSH1 0x20 PUSH1 0x4 DUP3 ADD DUP2 SWAP1 MSTORE PUSH1 0x24 DUP3 ADD MSTORE PUSH32 0x4D49534F4D61726B65743A2053656E646572206D7573742062652061646D696E PUSH1 0x44 DUP3 ADD MSTORE SWAP1 MLOAD SWAP1 DUP2 SWAP1 SUB PUSH1 0x64 ADD SWAP1 REVERT JUMPDEST PUSH1 0x0 SWAP2 DUP3 MSTORE PUSH1 0x6 PUSH1 0x20 MSTORE PUSH1 0x40 SWAP1 SWAP2 KECCAK256 SSTORE JUMP JUMPDEST PUSH1 0x0 SLOAD PUSH1 0x40 DUP1 MLOAD PUSH4 0xC395FCB3 PUSH1 0xE0 SHL DUP2 MSTORE CALLER PUSH1 0x4 DUP3 ADD MSTORE SWAP1 MLOAD PUSH1 0x1 PUSH1 0x1 PUSH1 0xA0 SHL SUB SWAP1 SWAP3 AND SWAP2 PUSH4 0xC395FCB3 SWAP2 PUSH1 0x24 DUP1 DUP3 ADD SWAP3 PUSH1 0x20 SWAP3 SWAP1 SWAP2 SWAP1 DUP3 SWAP1 SUB ADD DUP2 DUP7 DUP1 EXTCODESIZE ISZERO DUP1 ISZERO PUSH2 0x1380 JUMPI PUSH1 0x0 DUP1 REVERT JUMPDEST POP GAS STATICCALL ISZERO DUP1 ISZERO PUSH2 0x1394 JUMPI RETURNDATASIZE PUSH1 0x0 DUP1 RETURNDATACOPY RETURNDATASIZE PUSH1 0x0 REVERT JUMPDEST POP POP POP POP PUSH1 0x40 MLOAD RETURNDATASIZE PUSH1 0x20 DUP2 LT ISZERO PUSH2 0x13AA JUMPI PUSH1 0x0 DUP1 REVERT JUMPDEST POP MLOAD PUSH2 0x13E7 JUMPI PUSH1 0x40 MLOAD PUSH3 0x461BCD PUSH1 0xE5 SHL DUP2 MSTORE PUSH1 0x4 ADD DUP1 DUP1 PUSH1 0x20 ADD DUP3 DUP2 SUB DUP3 MSTORE PUSH1 0x2A DUP2 MSTORE PUSH1 0x20 ADD DUP1 PUSH2 0x1EA0 PUSH1 0x2A SWAP2 CODECOPY PUSH1 0x40 ADD SWAP2 POP POP PUSH1 0x40 MLOAD DUP1 SWAP2 SUB SWAP1 REVERT JUMPDEST PUSH1 0x1 PUSH1 0x1 PUSH1 0xA0 SHL SUB DUP2 AND PUSH2 0x13FA JUMPI PUSH1 0x0 DUP1 REVERT JUMPDEST PUSH1 0x9 DUP1 SLOAD PUSH1 0x1 PUSH1 0x1 PUSH1 0xA0 SHL SUB SWAP1 SWAP3 AND PUSH2 0x100 MUL PUSH2 0x100 PUSH1 0x1 PUSH1 0xA8 SHL SUB NOT SWAP1 SWAP3 AND SWAP2 SWAP1 SWAP2 OR SWAP1 SSTORE JUMP JUMPDEST PUSH1 0x8 SLOAD PUSH1 0x1 PUSH1 0x1 PUSH1 0x80 SHL SUB DUP2 AND SWAP1 PUSH1 0x1 PUSH1 0x80 SHL SWAP1 DIV PUSH4 0xFFFFFFFF AND DUP3 JUMP JUMPDEST PUSH1 0x0 SLOAD PUSH1 0x40 DUP1 MLOAD PUSH4 0xC395FCB3 PUSH1 0xE0 SHL DUP2 MSTORE CALLER PUSH1 0x4 DUP3 ADD MSTORE SWAP1 MLOAD PUSH1 0x1 PUSH1 0x1 PUSH1 0xA0 SHL SUB SWAP1 SWAP3 AND SWAP2 PUSH4 0xC395FCB3 SWAP2 PUSH1 0x24 DUP1 DUP3 ADD SWAP3 PUSH1 0x20 SWAP3 SWAP1 SWAP2 SWAP1 DUP3 SWAP1 SUB ADD DUP2 DUP7 DUP1 EXTCODESIZE ISZERO DUP1 ISZERO PUSH2 0x148B JUMPI PUSH1 0x0 DUP1 REVERT JUMPDEST POP GAS STATICCALL ISZERO DUP1 ISZERO PUSH2 0x149F JUMPI RETURNDATASIZE PUSH1 0x0 DUP1 RETURNDATACOPY RETURNDATASIZE PUSH1 0x0 REVERT JUMPDEST POP POP POP POP PUSH1 0x40 MLOAD RETURNDATASIZE PUSH1 0x20 DUP2 LT ISZERO PUSH2 0x14B5 JUMPI PUSH1 0x0 DUP1 REVERT JUMPDEST POP MLOAD DUP1 PUSH2 0x1535 JUMPI POP PUSH1 0x0 SLOAD PUSH1 0x40 DUP1 MLOAD PUSH4 0x7E271F05 PUSH1 0xE1 SHL DUP2 MSTORE CALLER PUSH1 0x4 DUP3 ADD MSTORE SWAP1 MLOAD PUSH1 0x1 PUSH1 0x1 PUSH1 0xA0 SHL SUB SWAP1 SWAP3 AND SWAP2 PUSH4 0xFC4E3E0A SWAP2 PUSH1 0x24 DUP1 DUP3 ADD SWAP3 PUSH1 0x20 SWAP3 SWAP1 SWAP2 SWAP1 DUP3 SWAP1 SUB ADD DUP2 DUP7 DUP1 EXTCODESIZE ISZERO DUP1 ISZERO PUSH2 0x1508 JUMPI PUSH1 0x0 DUP1 REVERT JUMPDEST POP GAS STATICCALL ISZERO DUP1 ISZERO PUSH2 0x151C JUMPI RETURNDATASIZE PUSH1 0x0 DUP1 RETURNDATACOPY RETURNDATASIZE PUSH1 0x0 REVERT JUMPDEST POP POP POP POP PUSH1 0x40 MLOAD RETURNDATASIZE PUSH1 0x20 DUP2 LT ISZERO PUSH2 0x1532 JUMPI PUSH1 0x0 DUP1 REVERT JUMPDEST POP MLOAD JUMPDEST PUSH2 0x1570 JUMPI PUSH1 0x40 MLOAD PUSH3 0x461BCD PUSH1 0xE5 SHL DUP2 MSTORE PUSH1 0x4 ADD DUP1 DUP1 PUSH1 0x20 ADD DUP3 DUP2 SUB DUP3 MSTORE PUSH1 0x23 DUP2 MSTORE PUSH1 0x20 ADD DUP1 PUSH2 0x1ECA PUSH1 0x23 SWAP2 CODECOPY PUSH1 0x40 ADD SWAP2 POP POP PUSH1 0x40 MLOAD DUP1 SWAP2 SUB SWAP1 REVERT JUMPDEST PUSH2 0x1579 DUP2 PUSH2 0x1A4B JUMP JUMPDEST POP JUMP JUMPDEST PUSH1 0x0 PUSH2 0x1588 DUP8 DUP6 PUSH2 0xB10 JUMP JUMPDEST SWAP1 POP DUP5 ISZERO PUSH2 0x1653 JUMPI PUSH2 0x159B DUP7 CALLER DUP8 PUSH2 0x1CE4 JUMP JUMPDEST DUP6 PUSH1 0x1 PUSH1 0x1 PUSH1 0xA0 SHL SUB AND PUSH4 0x95EA7B3 DUP3 DUP8 PUSH1 0x40 MLOAD DUP4 PUSH4 0xFFFFFFFF AND PUSH1 0xE0 SHL DUP2 MSTORE PUSH1 0x4 ADD DUP1 DUP4 PUSH1 0x1 PUSH1 0x1 PUSH1 0xA0 SHL SUB AND DUP2 MSTORE PUSH1 0x20 ADD DUP3 DUP2 MSTORE PUSH1 0x20 ADD SWAP3 POP POP POP PUSH1 0x20 PUSH1 0x40 MLOAD DUP1 DUP4 SUB DUP2 PUSH1 0x0 DUP8 DUP1 EXTCODESIZE ISZERO DUP1 ISZERO PUSH2 0x15F2 JUMPI PUSH1 0x0 DUP1 REVERT JUMPDEST POP GAS CALL ISZERO DUP1 ISZERO PUSH2 0x1606 JUMPI RETURNDATASIZE PUSH1 0x0 DUP1 RETURNDATACOPY RETURNDATASIZE PUSH1 0x0 REVERT JUMPDEST POP POP POP POP PUSH1 0x40 MLOAD RETURNDATASIZE PUSH1 0x20 DUP2 LT ISZERO PUSH2 0x161C JUMPI PUSH1 0x0 DUP1 REVERT JUMPDEST POP MLOAD PUSH2 0x1653 JUMPI PUSH1 0x40 DUP1 MLOAD PUSH3 0x461BCD PUSH1 0xE5 SHL DUP2 MSTORE PUSH1 0x20 PUSH1 0x4 DUP3 ADD MSTORE PUSH1 0x1 PUSH1 0x24 DUP3 ADD MSTORE PUSH1 0x31 PUSH1 0xF8 SHL PUSH1 0x44 DUP3 ADD MSTORE SWAP1 MLOAD SWAP1 DUP2 SWAP1 SUB PUSH1 0x64 ADD SWAP1 REVERT JUMPDEST PUSH1 0x40 MLOAD PUSH4 0x409A9E47 PUSH1 0xE1 SHL DUP2 MSTORE PUSH1 0x20 PUSH1 0x4 DUP3 ADD SWAP1 DUP2 MSTORE PUSH1 0x24 DUP3 ADD DUP5 SWAP1 MSTORE PUSH1 0x1 PUSH1 0x1 PUSH1 0xA0 SHL SUB DUP4 AND SWAP2 PUSH4 0x81353C8E SWAP2 DUP7 SWAP2 DUP7 SWAP2 SWAP1 DUP2 SWAP1 PUSH1 0x44 ADD DUP5 DUP5 DUP1 DUP3 DUP5 CALLDATACOPY PUSH1 0x0 DUP2 DUP5 ADD MSTORE PUSH1 0x1F NOT PUSH1 0x1F DUP3 ADD AND SWAP1 POP DUP1 DUP4 ADD SWAP3 POP POP POP SWAP4 POP POP POP POP PUSH1 0x0 PUSH1 0x40 MLOAD DUP1 DUP4 SUB DUP2 PUSH1 0x0 DUP8 DUP1 EXTCODESIZE ISZERO DUP1 ISZERO PUSH2 0x16C7 JUMPI PUSH1 0x0 DUP1 REVERT JUMPDEST POP GAS CALL ISZERO DUP1 ISZERO PUSH2 0x16DB JUMPI RETURNDATASIZE PUSH1 0x0 DUP1 RETURNDATACOPY RETURNDATASIZE PUSH1 0x0 REVERT JUMPDEST POP POP POP POP PUSH1 0x0 DUP6 GT ISZERO PUSH2 0x1778 JUMPI PUSH1 0x0 DUP7 PUSH1 0x1 PUSH1 0x1 PUSH1 0xA0 SHL SUB AND PUSH4 0x70A08231 ADDRESS PUSH1 0x40 MLOAD DUP3 PUSH4 0xFFFFFFFF AND PUSH1 0xE0 SHL DUP2 MSTORE PUSH1 0x4 ADD DUP1 DUP3 PUSH1 0x1 PUSH1 0x1 PUSH1 0xA0 SHL SUB AND DUP2 MSTORE PUSH1 0x20 ADD SWAP2 POP POP PUSH1 0x20 PUSH1 0x40 MLOAD DUP1 DUP4 SUB DUP2 DUP7 DUP1 EXTCODESIZE ISZERO DUP1 ISZERO PUSH2 0x1737 JUMPI PUSH1 0x0 DUP1 REVERT JUMPDEST POP GAS STATICCALL ISZERO DUP1 ISZERO PUSH2 0x174B JUMPI RETURNDATASIZE PUSH1 0x0 DUP1 RETURNDATACOPY RETURNDATASIZE PUSH1 0x0 REVERT JUMPDEST POP POP POP POP PUSH1 0x40 MLOAD RETURNDATASIZE PUSH1 0x20 DUP2 LT ISZERO PUSH2 0x1761 JUMPI PUSH1 0x0 DUP1 REVERT JUMPDEST POP MLOAD SWAP1 POP DUP1 ISZERO PUSH2 0x1776 JUMPI PUSH2 0x1776 DUP8 CALLER DUP4 PUSH2 0x1E0C JUMP JUMPDEST POP JUMPDEST SWAP7 SWAP6 POP POP POP POP POP POP JUMP JUMPDEST PUSH1 0x1 PUSH1 0x1 PUSH1 0xA0 SHL SUB AND PUSH1 0x0 SWAP1 DUP2 MSTORE PUSH1 0x7 PUSH1 0x20 MSTORE PUSH1 0x40 SWAP1 KECCAK256 SLOAD PUSH2 0x100 SWAP1 DIV PUSH8 0xFFFFFFFFFFFFFFFF AND SWAP1 JUMP JUMPDEST PUSH1 0x0 SLOAD PUSH1 0x40 DUP1 MLOAD PUSH4 0xC395FCB3 PUSH1 0xE0 SHL DUP2 MSTORE CALLER PUSH1 0x4 DUP3 ADD MSTORE SWAP1 MLOAD PUSH1 0x1 PUSH1 0x1 PUSH1 0xA0 SHL SUB SWAP1 SWAP3 AND SWAP2 PUSH4 0xC395FCB3 SWAP2 PUSH1 0x24 DUP1 DUP3 ADD SWAP3 PUSH1 0x20 SWAP3 SWAP1 SWAP2 SWAP1 DUP3 SWAP1 SUB ADD DUP2 DUP7 DUP1 EXTCODESIZE ISZERO DUP1 ISZERO PUSH2 0x17F7 JUMPI PUSH1 0x0 DUP1 REVERT JUMPDEST POP GAS STATICCALL ISZERO DUP1 ISZERO PUSH2 0x180B JUMPI RETURNDATASIZE PUSH1 0x0 DUP1 RETURNDATACOPY RETURNDATASIZE PUSH1 0x0 REVERT JUMPDEST POP POP POP POP PUSH1 0x40 MLOAD RETURNDATASIZE PUSH1 0x20 DUP2 LT ISZERO PUSH2 0x1821 JUMPI PUSH1 0x0 DUP1 REVERT JUMPDEST POP MLOAD DUP1 PUSH2 0x18A1 JUMPI POP PUSH1 0x0 SLOAD PUSH1 0x40 DUP1 MLOAD PUSH4 0x7E271F05 PUSH1 0xE1 SHL DUP2 MSTORE CALLER PUSH1 0x4 DUP3 ADD MSTORE SWAP1 MLOAD PUSH1 0x1 PUSH1 0x1 PUSH1 0xA0 SHL SUB SWAP1 SWAP3 AND SWAP2 PUSH4 0xFC4E3E0A SWAP2 PUSH1 0x24 DUP1 DUP3 ADD SWAP3 PUSH1 0x20 SWAP3 SWAP1 SWAP2 SWAP1 DUP3 SWAP1 SUB ADD DUP2 DUP7 DUP1 EXTCODESIZE ISZERO DUP1 ISZERO PUSH2 0x1874 JUMPI PUSH1 0x0 DUP1 REVERT JUMPDEST POP GAS STATICCALL ISZERO DUP1 ISZERO PUSH2 0x1888 JUMPI RETURNDATASIZE PUSH1 0x0 DUP1 RETURNDATACOPY RETURNDATASIZE PUSH1 0x0 REVERT JUMPDEST POP POP POP POP PUSH1 0x40 MLOAD RETURNDATASIZE PUSH1 0x20 DUP2 LT ISZERO PUSH2 0x189E JUMPI PUSH1 0x0 DUP1 REVERT JUMPDEST POP MLOAD JUMPDEST PUSH2 0x18DC JUMPI PUSH1 0x40 MLOAD PUSH3 0x461BCD PUSH1 0xE5 SHL DUP2 MSTORE PUSH1 0x4 ADD DUP1 DUP1 PUSH1 0x20 ADD DUP3 DUP2 SUB DUP3 MSTORE PUSH1 0x23 DUP2 MSTORE PUSH1 0x20 ADD DUP1 PUSH2 0x1ECA PUSH1 0x23 SWAP2 CODECOPY PUSH1 0x40 ADD SWAP2 POP POP PUSH1 0x40 MLOAD DUP1 SWAP2 SUB SWAP1 REVERT JUMPDEST PUSH1 0x0 DUP2 DUP2 MSTORE PUSH1 0x4 PUSH1 0x20 SWAP1 DUP2 MSTORE PUSH1 0x40 DUP1 DUP4 KECCAK256 DUP1 SLOAD PUSH1 0x1 PUSH1 0x1 PUSH1 0xA0 SHL SUB NOT DUP2 AND SWAP1 SWAP2 SSTORE PUSH1 0x1 PUSH1 0x1 PUSH1 0xA0 SHL SUB AND DUP1 DUP5 MSTORE PUSH1 0x5 DUP4 MSTORE DUP2 DUP5 KECCAK256 SWAP4 SWAP1 SWAP4 SSTORE DUP1 MLOAD DUP4 DUP2 MSTORE SWAP2 DUP3 ADD DUP5 SWAP1 MSTORE DUP1 MLOAD PUSH32 0x9E451D330E5BB7320C38B55046B66305A869486110A27E84E383B9B2A329875B SWAP3 DUP2 SWAP1 SUB SWAP1 SWAP2 ADD SWAP1 LOG1 POP POP JUMP JUMPDEST PUSH1 0x9 SLOAD PUSH2 0x100 SWAP1 DIV PUSH1 0x1 PUSH1 0x1 PUSH1 0xA0 SHL SUB AND DUP2 JUMP JUMPDEST PUSH1 0x9 SLOAD PUSH1 0xFF AND DUP2 JUMP JUMPDEST PUSH1 0x1 PUSH1 0x1 PUSH1 0xA0 SHL SUB AND PUSH1 0x0 SWAP1 DUP2 MSTORE PUSH1 0x5 PUSH1 0x20 MSTORE PUSH1 0x40 SWAP1 KECCAK256 SLOAD SWAP1 JUMP JUMPDEST PUSH1 0x60 PUSH1 0x1 DUP1 SLOAD DUP1 PUSH1 0x20 MUL PUSH1 0x20 ADD PUSH1 0x40 MLOAD SWAP1 DUP2 ADD PUSH1 0x40 MSTORE DUP1 SWAP3 SWAP2 SWAP1 DUP2 DUP2 MSTORE PUSH1 0x20 ADD DUP3 DUP1 SLOAD DUP1 ISZERO PUSH2 0x19DF JUMPI PUSH1 0x20 MUL DUP3 ADD SWAP2 SWAP1 PUSH1 0x0 MSTORE PUSH1 0x20 PUSH1 0x0 KECCAK256 SWAP1 JUMPDEST DUP2 SLOAD PUSH1 0x1 PUSH1 0x1 PUSH1 0xA0 SHL SUB AND DUP2 MSTORE PUSH1 0x1 SWAP1 SWAP2 ADD SWAP1 PUSH1 0x20 ADD DUP1 DUP4 GT PUSH2 0x19C1 JUMPI JUMPDEST POP POP POP POP POP SWAP1 POP SWAP1 JUMP JUMPDEST PUSH1 0x0 PUSH1 0x1 PUSH1 0x1 PUSH1 0x80 SHL SUB DUP3 GT ISZERO PUSH2 0x1A47 JUMPI PUSH1 0x40 DUP1 MLOAD PUSH3 0x461BCD PUSH1 0xE5 SHL DUP2 MSTORE PUSH1 0x20 PUSH1 0x4 DUP3 ADD MSTORE PUSH1 0x1C PUSH1 0x24 DUP3 ADD MSTORE PUSH32 0x426F72696E674D6174683A2075696E74313238204F766572666C6F7700000000 PUSH1 0x44 DUP3 ADD MSTORE SWAP1 MLOAD SWAP1 DUP2 SWAP1 SUB PUSH1 0x64 ADD SWAP1 REVERT JUMPDEST POP SWAP1 JUMP JUMPDEST PUSH1 0x1 PUSH1 0x1 PUSH1 0xA0 SHL SUB DUP2 AND PUSH1 0x0 SWAP1 DUP2 MSTORE PUSH1 0x5 PUSH1 0x20 MSTORE PUSH1 0x40 SWAP1 KECCAK256 SLOAD ISZERO PUSH2 0x1AA0 JUMPI PUSH1 0x40 MLOAD PUSH3 0x461BCD PUSH1 0xE5 SHL DUP2 MSTORE PUSH1 0x4 ADD DUP1 DUP1 PUSH1 0x20 ADD DUP3 DUP2 SUB DUP3 MSTORE PUSH1 0x23 DUP2 MSTORE PUSH1 0x20 ADD DUP1 PUSH2 0x1FC2 PUSH1 0x23 SWAP2 CODECOPY PUSH1 0x40 ADD SWAP2 POP POP PUSH1 0x40 MLOAD DUP1 SWAP2 SUB SWAP1 REVERT JUMPDEST PUSH1 0x1 PUSH1 0x1 PUSH1 0xA0 SHL SUB DUP2 AND PUSH1 0x0 SWAP1 DUP2 MSTORE PUSH1 0x5 PUSH1 0x20 MSTORE PUSH1 0x40 SWAP1 KECCAK256 SLOAD ISZERO PUSH2 0x1AF5 JUMPI PUSH1 0x40 MLOAD PUSH3 0x461BCD PUSH1 0xE5 SHL DUP2 MSTORE PUSH1 0x4 ADD DUP1 DUP1 PUSH1 0x20 ADD DUP3 DUP2 SUB DUP3 MSTORE PUSH1 0x22 DUP2 MSTORE PUSH1 0x20 ADD DUP1 PUSH2 0x1FE5 PUSH1 0x22 SWAP2 CODECOPY PUSH1 0x40 ADD SWAP2 POP POP PUSH1 0x40 MLOAD DUP1 SWAP2 SUB SWAP1 REVERT JUMPDEST PUSH1 0x0 DUP2 PUSH1 0x1 PUSH1 0x1 PUSH1 0xA0 SHL SUB AND PUSH4 0x1B3E460E PUSH1 0x40 MLOAD DUP2 PUSH4 0xFFFFFFFF AND PUSH1 0xE0 SHL DUP2 MSTORE PUSH1 0x4 ADD PUSH1 0x20 PUSH1 0x40 MLOAD DUP1 DUP4 SUB DUP2 DUP7 DUP1 EXTCODESIZE ISZERO DUP1 ISZERO PUSH2 0x1B30 JUMPI PUSH1 0x0 DUP1 REVERT JUMPDEST POP GAS STATICCALL ISZERO DUP1 ISZERO PUSH2 0x1B44 JUMPI RETURNDATASIZE PUSH1 0x0 DUP1 RETURNDATACOPY RETURNDATASIZE PUSH1 0x0 REVERT JUMPDEST POP POP POP POP PUSH1 0x40 MLOAD RETURNDATASIZE PUSH1 0x20 DUP2 LT ISZERO PUSH2 0x1B5A JUMPI PUSH1 0x0 DUP1 REVERT JUMPDEST POP MLOAD SWAP1 POP DUP1 PUSH2 0x1B9A JUMPI PUSH1 0x40 MLOAD PUSH3 0x461BCD PUSH1 0xE5 SHL DUP2 MSTORE PUSH1 0x4 ADD DUP1 DUP1 PUSH1 0x20 ADD DUP3 DUP2 SUB DUP3 MSTORE PUSH1 0x24 DUP2 MSTORE PUSH1 0x20 ADD DUP1 PUSH2 0x1F1B PUSH1 0x24 SWAP2 CODECOPY PUSH1 0x40 ADD SWAP2 POP POP PUSH1 0x40 MLOAD DUP1 SWAP2 SUB SWAP1 REVERT JUMPDEST PUSH1 0x2 DUP1 SLOAD PUSH1 0x1 ADD DUP1 DUP3 SSTORE PUSH1 0x0 SWAP1 DUP2 MSTORE PUSH1 0x4 PUSH1 0x20 SWAP1 DUP2 MSTORE PUSH1 0x40 DUP1 DUP4 KECCAK256 DUP1 SLOAD PUSH1 0x1 PUSH1 0x1 PUSH1 0xA0 SHL SUB NOT AND PUSH1 0x1 PUSH1 0x1 PUSH1 0xA0 SHL SUB DUP9 AND SWAP1 DUP2 OR SWAP1 SWAP2 SSTORE SWAP4 SLOAD DUP5 DUP5 MSTORE PUSH1 0x5 DUP4 MSTORE DUP2 DUP5 KECCAK256 DUP2 SWAP1 SSTORE DUP6 DUP5 MSTORE PUSH1 0x6 DUP4 MSTORE SWAP3 DUP2 SWAP1 KECCAK256 DUP4 SWAP1 SSTORE DUP1 MLOAD SWAP4 DUP5 MSTORE SWAP1 DUP4 ADD SWAP2 SWAP1 SWAP2 MSTORE DUP1 MLOAD PUSH32 0x893E8595C407D2A22D29FF3BA939D15EC3966113CE988BD39C68E4B003504007 SWAP3 DUP2 SWAP1 SUB SWAP1 SWAP2 ADD SWAP1 LOG1 POP POP JUMP JUMPDEST PUSH1 0x0 PUSH8 0xFFFFFFFFFFFFFFFF DUP3 GT ISZERO PUSH2 0x1A47 JUMPI PUSH1 0x40 DUP1 MLOAD PUSH3 0x461BCD PUSH1 0xE5 SHL DUP2 MSTORE PUSH1 0x20 PUSH1 0x4 DUP3 ADD MSTORE PUSH1 0x1B PUSH1 0x24 DUP3 ADD MSTORE PUSH32 0x426F72696E674D6174683A2075696E743634204F766572666C6F770000000000 PUSH1 0x44 DUP3 ADD MSTORE SWAP1 MLOAD SWAP1 DUP2 SWAP1 SUB PUSH1 0x64 ADD SWAP1 REVERT JUMPDEST PUSH1 0x0 PUSH4 0xFFFFFFFF DUP3 GT ISZERO PUSH2 0x1A47 JUMPI PUSH1 0x40 DUP1 MLOAD PUSH3 0x461BCD PUSH1 0xE5 SHL DUP2 MSTORE PUSH1 0x20 PUSH1 0x4 DUP3 ADD MSTORE PUSH1 0x1B PUSH1 0x24 DUP3 ADD MSTORE PUSH32 0x426F72696E674D6174683A2075696E743332204F766572666C6F770000000000 PUSH1 0x44 DUP3 ADD MSTORE SWAP1 MLOAD SWAP1 DUP2 SWAP1 SUB PUSH1 0x64 ADD SWAP1 REVERT JUMPDEST PUSH1 0x40 DUP1 MLOAD PUSH1 0x1 PUSH1 0x1 PUSH1 0xA0 SHL SUB DUP5 DUP2 AND PUSH1 0x24 DUP4 ADD MSTORE ADDRESS PUSH1 0x44 DUP4 ADD MSTORE PUSH1 0x64 DUP1 DUP4 ADD DUP6 SWAP1 MSTORE DUP4 MLOAD DUP1 DUP5 SUB SWAP1 SWAP2 ADD DUP2 MSTORE PUSH1 0x84 SWAP1 SWAP3 ADD DUP4 MSTORE PUSH1 0x20 DUP3 ADD DUP1 MLOAD PUSH1 0x1 PUSH1 0x1 PUSH1 0xE0 SHL SUB AND PUSH4 0x23B872DD PUSH1 0xE0 SHL OR DUP2 MSTORE SWAP3 MLOAD DUP3 MLOAD PUSH1 0x0 SWAP5 PUSH1 0x60 SWAP5 SWAP4 DUP10 AND SWAP4 SWAP3 SWAP2 DUP3 SWAP2 SWAP1 DUP1 DUP4 DUP4 JUMPDEST PUSH1 0x20 DUP4 LT PUSH2 0x1D67 JUMPI DUP1 MLOAD DUP3 MSTORE PUSH1 0x1F NOT SWAP1 SWAP3 ADD SWAP2 PUSH1 0x20 SWAP2 DUP3 ADD SWAP2 ADD PUSH2 0x1D48 JUMP JUMPDEST PUSH1 0x1 DUP4 PUSH1 0x20 SUB PUSH2 0x100 EXP SUB DUP1 NOT DUP3 MLOAD AND DUP2 DUP5 MLOAD AND DUP1 DUP3 OR DUP6 MSTORE POP POP POP POP POP POP SWAP1 POP ADD SWAP2 POP POP PUSH1 0x0 PUSH1 0x40 MLOAD DUP1 DUP4 SUB DUP2 PUSH1 0x0 DUP7 GAS CALL SWAP2 POP POP RETURNDATASIZE DUP1 PUSH1 0x0 DUP2 EQ PUSH2 0x1DC9 JUMPI PUSH1 0x40 MLOAD SWAP2 POP PUSH1 0x1F NOT PUSH1 0x3F RETURNDATASIZE ADD AND DUP3 ADD PUSH1 0x40 MSTORE RETURNDATASIZE DUP3 MSTORE RETURNDATASIZE PUSH1 0x0 PUSH1 0x20 DUP5 ADD RETURNDATACOPY PUSH2 0x1DCE JUMP JUMPDEST PUSH1 0x60 SWAP2 POP JUMPDEST POP SWAP2 POP SWAP2 POP DUP2 DUP1 ISZERO PUSH2 0x1DFC JUMPI POP DUP1 MLOAD ISZERO DUP1 PUSH2 0x1DFC JUMPI POP DUP1 DUP1 PUSH1 0x20 ADD SWAP1 MLOAD PUSH1 0x20 DUP2 LT ISZERO PUSH2 0x1DF9 JUMPI PUSH1 0x0 DUP1 REVERT JUMPDEST POP MLOAD JUMPDEST PUSH2 0x1E05 JUMPI PUSH1 0x0 DUP1 REVERT JUMPDEST POP POP POP POP POP JUMP JUMPDEST PUSH1 0x40 DUP1 MLOAD PUSH1 0x1 PUSH1 0x1 PUSH1 0xA0 SHL SUB DUP5 DUP2 AND PUSH1 0x24 DUP4 ADD MSTORE PUSH1 0x44 DUP1 DUP4 ADD DUP6 SWAP1 MSTORE DUP4 MLOAD DUP1 DUP5 SUB SWAP1 SWAP2 ADD DUP2 MSTORE PUSH1 0x64 SWAP1 SWAP3 ADD DUP4 MSTORE PUSH1 0x20 DUP3 ADD DUP1 MLOAD PUSH1 0x1 PUSH1 0x1 PUSH1 0xE0 SHL SUB AND PUSH4 0xA9059CBB PUSH1 0xE0 SHL OR DUP2 MSTORE SWAP3 MLOAD DUP3 MLOAD PUSH1 0x0 SWAP5 PUSH1 0x60 SWAP5 SWAP4 DUP10 AND SWAP4 SWAP3 SWAP2 DUP3 SWAP2 SWAP1 DUP1 DUP4 DUP4 PUSH1 0x20 DUP4 LT PUSH2 0x1D67 JUMPI DUP1 MLOAD DUP3 MSTORE PUSH1 0x1F NOT SWAP1 SWAP3 ADD SWAP2 PUSH1 0x20 SWAP2 DUP3 ADD SWAP2 ADD PUSH2 0x1D48 JUMP JUMPDEST PUSH1 0x40 DUP1 MLOAD DUP1 DUP3 ADD SWAP1 SWAP2 MSTORE PUSH1 0x0 DUP1 DUP3 MSTORE PUSH1 0x20 DUP3 ADD MSTORE SWAP1 JUMP INVALID 0x4D 0x49 MSTORE8 0x4F 0x4D PUSH2 0x726B PUSH6 0x742E73657444 PUSH6 0x763A2053656E PUSH5 0x6572206D75 PUSH20 0x74206265206F70657261746F724D49534F4D6172 PUSH12 0x65743A2053656E646572206D PUSH22 0x7374206265206F70657261746F72696E69744D49534F 0x4D PUSH2 0x726B PUSH6 0x743A2062656E PUSH21 0x6F426F782063616E6E6F742062652073657420746F KECCAK256 PUSH27 0x65726F4D49534F4D61726B65743A20496E636F7272656374207465 PUSH14 0x706C61746520636F646520696E69 PUSH21 0x4D49534F4D61726B65743A20616363657373436F6E PUSH21 0x726F6C732063616E6E6F742062652073657420746F KECCAK256 PUSH27 0x65726F4D49534F4D61726B65743A2050657263656E746167652069 PUSH20 0x206F7574206F6620313030304D49534F4D61726B PUSH6 0x743A20417563 PUSH21 0x696F6E2074656D706C61746520646F65736E277420 PUSH6 0x786973744D49 MSTORE8 0x4F 0x4D PUSH2 0x726B PUSH6 0x743A2054656D PUSH17 0x6C61746520616C72656164792065786973 PUSH21 0x734D49534F4D61726B65743A2054656D706C617465 KECCAK256 PUSH2 0x6C72 PUSH6 0x616479206164 PUSH5 0x65644D4953 0x4F 0x4D PUSH2 0x726B PUSH6 0x743A20466169 PUSH13 0x656420746F207472616E736665 PUSH19 0x206D696E696D756D4665654D49534F4D61726B PUSH6 0x743A2053656E PUSH5 0x6572206D75 PUSH20 0x74206265206D696E746572206966206C6F636B65 PUSH5 0xA264697066 PUSH20 0x58221220FCBAEB467A80B6F81B07A4023AA492C7 0xBC 0xAD SWAP12 PUSH18 0x13DAB2ADD00D99CCAAE7CBCC64736F6C6343 STOP MOD 0xC STOP CALLER ",
  "sha1": "a48048baf4c16cc53acaa17353b27081b07d839a",
  "source": "pragma solidity 0.6.12;\n\n//----------------------------------------------------------------------------------\n//    I n s t a n t\n//\n//        .:mmm.         .:mmm:.       .ii.  .:SSSSSSSSSSSSS.     .oOOOOOOOOOOOo.  \n//      .mMM'':Mm.     .:MM'':Mm:.     .II:  :SSs..........     .oOO'''''''''''OOo.\n//    .:Mm'   ':Mm.   .:Mm'   'MM:.    .II:  'sSSSSSSSSSSSSS:.  :OO.           .OO:\n//  .'mMm'     ':MM:.:MMm'     ':MM:.  .II:  .:...........:SS.  'OOo:.........:oOO'\n//  'mMm'        ':MMmm'         'mMm:  II:  'sSSSSSSSSSSSSS'     'oOOOOOOOOOOOO'  \n//\n//----------------------------------------------------------------------------------\n//\n// Chef Gonpachi's MISO Marketplace\n//\n// A factory to conveniently deploy your own source code verified auctions\n//\n// Inspired by Bokky's EtherVendingMachince.io\n// https://github.com/bokkypoobah/FixedSupplyTokenFactory\n// \n// This program is free software: you can redistribute it and/or modify\n// it under the terms of the GNU General Public License as published by\n// the Free Software Foundation, either version 3 of the License\n//\n// This program is distributed in the hope that it will be useful,\n// but WITHOUT ANY WARRANTY; without even the implied warranty of\n// MERCHANTABILITY or FITNESS FOR A PARTICULAR PURPOSE.  See the\n// GNU General Public License for more details.\n//\n// The above copyright notice and this permission notice shall be included \n// in all copies or substantial portions of the Software.\n//\n// Made for Sushi.com \n// \n// Enjoy. (c) Chef Gonpachi 2021 \n// <https://github.com/chefgonpachi/MISO/>\n//\n// ---------------------------------------------------------------------\n// SPDX-License-Identifier: GPL-3.0                        \n// ---------------------------------------------------------------------\n\nimport \"./Access/MISOAccessControls.sol\";\nimport \"./Utils/BoringMath.sol\";\nimport \"./Utils/SafeTransfer.sol\";\nimport \"./interfaces/IMisoMarket.sol\";\nimport \"./interfaces/IERC20.sol\";\nimport \"./interfaces/IBentoBoxFactory.sol\";\n\n\ncontract MISOMarket is SafeTransfer {\n\n    using BoringMath for uint256;\n    using BoringMath128 for uint128;\n    using BoringMath64 for uint64;\n\n    /// @notice Responsible for access rights to the contract.\n    MISOAccessControls public accessControls;\n    bytes32 public constant MARKET_MINTER_ROLE = keccak256(\"MARKET_MINTER_ROLE\");\n\n    /// @notice Whether market has been initialized or not.\n    bool private initialised;\n\n    /// @notice Struct to track Auction template.\n    struct Auction {\n        bool exists;\n        uint64 templateId;\n        uint128 index;\n    }\n\n    /// @notice Auctions created using factory.\n    address[] public auctions;\n\n    /// @notice Template id to track respective auction template.\n    uint256 public auctionTemplateId;\n\n    IBentoBoxFactory public bentoBox;\n\n    /// @notice Mapping from market template id to market template address.\n    mapping(uint256 => address) private auctionTemplates;\n\n    /// @notice Mapping from market template address to market template id.\n    mapping(address => uint256) private auctionTemplateToId;\n\n    // /// @notice mapping from template type to template id\n    mapping(uint256 => uint256) public currentTemplateId;\n\n    /// @notice Mapping from auction created through this contract to Auction struct.\n    mapping(address => Auction) public auctionInfo;\n\n    /// @notice Struct to define fees.\n    struct MarketFees {\n        uint128 minimumFee;\n        uint32 integratorFeePct;\n    }\n\n    /// @notice Minimum fee to create a farm through the factory.\n    MarketFees public marketFees;\n\n    /// @notice Contract locked status. If locked, only minters can deploy\n    bool public locked;\n\n    ///@notice Any donations if set are sent here.\n    address payable public misoDiv;\n\n    ///@notice Event emitted when first initializing the Market factory.\n    event MisoInitMarket(address sender);\n\n    /// @notice Event emitted when template is added to factory.\n    event AuctionTemplateAdded(address newAuction, uint256 templateId);\n\n    /// @notice Event emitted when auction template is removed.\n    event AuctionTemplateRemoved(address auction, uint256 templateId);\n\n    /// @notice Event emitted when auction is created using template id.\n    event MarketCreated(address indexed owner, address indexed addr, address marketTemplate);\n\n    constructor() public {\n    }\n\n    /**\n     * @notice Initializes the market with a list of auction templates.\n     * @dev Can only be initialized once.\n     * @param _accessControls Sets address to get the access controls from.\n     * @param _templates Initial array of MISOMarket templates.\n     */\n    function initMISOMarket(address _accessControls, address _bentoBox, address[] memory _templates) external {\n        require(!initialised);\n        require(_accessControls != address(0), \"initMISOMarket: accessControls cannot be set to zero\");\n        require(_bentoBox != address(0), \"initMISOMarket: bentoBox cannot be set to zero\");\n\n        accessControls = MISOAccessControls(_accessControls);\n        bentoBox = IBentoBoxFactory(_bentoBox);\n\n        auctionTemplateId = 0;\n        for(uint i = 0; i < _templates.length; i++) {\n            _addAuctionTemplate(_templates[i]);\n        }\n        locked = true;\n        initialised = true;\n        emit MisoInitMarket(msg.sender);\n    }\n\n    /**\n     * @notice Sets the minimum fee.\n     * @param _amount Fee amount.\n     */\n    function setMinimumFee(uint256 _amount) external {\n        require(\n            accessControls.hasAdminRole(msg.sender),\n            \"MISOMarket: Sender must be operator\"\n        );\n        marketFees.minimumFee = BoringMath.to128(_amount);\n    }\n\n    /**\n     * @notice Sets the factory to be locked or unlocked.\n     * @param _locked bool.\n     */\n    function setLocked(bool _locked) external {\n        require(\n            accessControls.hasAdminRole(msg.sender),\n            \"MISOMarket: Sender must be admin\"\n        );\n        locked = _locked;\n    }\n\n\n    /**\n     * @notice Sets integrator fee percentage.\n     * @param _amount Percentage amount.\n     */\n    function setIntegratorFeePct(uint256 _amount) external {\n        require(\n            accessControls.hasAdminRole(msg.sender),\n            \"MISOMarket: Sender must be operator\"\n        );\n        /// @dev this is out of 1000, ie 25% = 250\n        require(_amount <= 1000, \"MISOMarket: Percentage is out of 1000\");\n        marketFees.integratorFeePct = BoringMath.to32(_amount);\n    }\n\n    /**\n     * @notice Sets dividend address.\n     * @param _divaddr Dividend address.\n     */\n    function setDividends(address payable _divaddr) external {\n        require(accessControls.hasAdminRole(msg.sender), \"MISOMarket.setDev: Sender must be operator\");\n        require(_divaddr != address(0));\n        misoDiv = _divaddr;\n    }\n\n    /**\n     * @notice Sets the current template ID for any type.\n     * @param _templateType Type of template.\n     * @param _templateId The ID of the current template for that type\n     */\n    function setCurrentTemplateId(uint256 _templateType, uint256 _templateId) external {\n        require(\n            accessControls.hasAdminRole(msg.sender),\n            \"MISOMarket: Sender must be admin\"\n        );\n        currentTemplateId[_templateType] = _templateId;\n    }\n\n\n    /**\n     * @notice Used to check whether an address has the minter role\n     * @param _address EOA or contract being checked\n     * @return bool True if the account has the role or false if it does not\n     */\n    function hasMarketMinterRole(address _address) public view returns (bool) {\n        return accessControls.hasRole(MARKET_MINTER_ROLE, _address);\n    }\n\n\n    /**\n     * @notice Creates a new MISOMarket from template _templateId and transfers fees.\n     * @param _templateId Id of the crowdsale template to create.\n     * @param _integratorFeeAccount Address to pay the fee to.\n     * @return newMarket Market address.\n     */\n    function deployMarket(\n        uint256 _templateId,\n        address payable _integratorFeeAccount\n    )\n        public payable returns (address newMarket)\n    {\n        /// @dev If the contract is locked, only admin and minters can deploy. \n        if (locked) {\n            require(accessControls.hasAdminRole(msg.sender) \n                    || accessControls.hasMinterRole(msg.sender)\n                    || hasMarketMinterRole(msg.sender),\n                \"MISOMarket: Sender must be minter if locked\"\n            );\n        }\n\n        MarketFees memory _marketFees = marketFees;\n        address auctionTemplate = auctionTemplates[_templateId];\n        require(msg.value >= uint256(_marketFees.minimumFee), \"MISOMarket: Failed to transfer minimumFee\");\n        require(auctionTemplate != address(0), \"MISOMarket: Auction template doesn't exist\");\n        uint256 integratorFee = 0;\n        uint256 misoFee = msg.value;\n        if (_integratorFeeAccount != address(0) && _integratorFeeAccount != misoDiv) {\n            integratorFee = misoFee * uint256(_marketFees.integratorFeePct) / 1000;\n            misoFee = misoFee - integratorFee;\n        }\n\n        /// @dev Deploy using the BentoBox factory. \n        newMarket = bentoBox.deploy(auctionTemplate, \"\", false);\n        auctionInfo[address(newMarket)] = Auction(true, BoringMath.to64(_templateId), BoringMath.to128(auctions.length));\n        auctions.push(address(newMarket));\n        emit MarketCreated(msg.sender, address(newMarket), auctionTemplate);\n        if (misoFee > 0) {\n            misoDiv.transfer(misoFee);\n        }\n        if (integratorFee > 0) {\n            _integratorFeeAccount.transfer(integratorFee);\n        }\n    }\n\n    /**\n     * @notice Creates a new MISOMarket using _templateId.\n     * @dev Initializes auction with the parameters passed.\n     * @param _templateId Id of the auction template to create.\n     * @param _token The token address to be sold.\n     * @param _tokenSupply Amount of tokens to be sold at market.\n     * @param _integratorFeeAccount Address to send refferal bonus, if set.\n     * @param _data Data to be sent to template on Init.\n     * @return newMarket Market address.\n     */\n    function createMarket(\n        uint256 _templateId,\n        address _token,\n        uint256 _tokenSupply,\n        address payable _integratorFeeAccount,\n        bytes calldata _data\n    )\n        external payable returns (address newMarket)\n    {\n        newMarket = deployMarket(_templateId, _integratorFeeAccount);\n        if (_tokenSupply > 0) {\n            _safeTransferFrom(_token, msg.sender, _tokenSupply);\n            require(IERC20(_token).approve(newMarket, _tokenSupply), \"1\");\n        }\n        IMisoMarket(newMarket).initMarket(_data);\n\n        if (_tokenSupply > 0) {\n            uint256 remainingBalance = IERC20(_token).balanceOf(address(this));\n            if (remainingBalance > 0) {\n                _safeTransfer(_token, msg.sender, remainingBalance);\n            }\n        }\n        return newMarket;\n    }\n\n    /**\n     * @notice Function to add an auction template to create through factory.\n     * @dev Should have operator access.\n     * @param _template Auction template to create an auction.\n     */\n    function addAuctionTemplate(address _template) external {\n        require(\n            accessControls.hasAdminRole(msg.sender) ||\n            accessControls.hasOperatorRole(msg.sender),\n            \"MISOMarket: Sender must be operator\"\n        );\n        _addAuctionTemplate(_template);    \n    }\n\n    /**\n     * @dev Function to remove an auction template.\n     * @dev Should have operator access.\n     * @param _templateId Refers to template that is to be deleted.\n     */\n    function removeAuctionTemplate(uint256 _templateId) external {\n        require(\n            accessControls.hasAdminRole(msg.sender) ||\n            accessControls.hasOperatorRole(msg.sender),\n            \"MISOMarket: Sender must be operator\"\n        );\n        address template = auctionTemplates[_templateId];\n        auctionTemplates[_templateId] = address(0);\n        delete auctionTemplateToId[template];\n        emit AuctionTemplateRemoved(template, _templateId);\n    }\n\n    /**\n     * @notice Function to add an auction template to create through factory.\n     * @param _template Auction template address to create an auction.\n     */\n    function _addAuctionTemplate(address _template) internal {\n        require(\n            auctionTemplateToId[_template] == 0,\n            \"MISOMarket: Template already exists\"\n        );\n        require(auctionTemplateToId[_template] == 0, \"MISOMarket: Template already added\");\n        uint256 templateType = IMisoMarket(_template).marketTemplate();\n        require(templateType > 0, \"MISOMarket: Incorrect template code \");\n        auctionTemplateId++;\n\n        auctionTemplates[auctionTemplateId] = _template;\n        auctionTemplateToId[_template] = auctionTemplateId;\n        currentTemplateId[templateType] = auctionTemplateId;\n        emit AuctionTemplateAdded(_template, auctionTemplateId);\n    }\n\n    /**\n     * @notice Get the address based on template ID.\n     * @param _templateId Auction template ID.\n     * @return Address of the required template ID.\n     */\n    function getAuctionTemplate(uint256 _templateId) external view returns (address) {\n        return auctionTemplates[_templateId];\n    }\n\n    /**\n     * @notice Get the ID based on template address.\n     * @param _auctionTemplate Auction template address.\n     * @return ID of the required template address.\n     */\n    function getTemplateId(address _auctionTemplate) external view returns (uint256) {\n        return auctionTemplateToId[_auctionTemplate];\n    }\n\n    /**\n     * @notice Get the total number of auctions in the factory.\n     * @return Auction count.\n     */\n    function numberOfAuctions() external view returns (uint) {\n        return auctions.length;\n    }\n\n    function minimumFee() external view returns(uint128) {\n        return marketFees.minimumFee;\n    }\n\n    function getMarkets() external view returns(address[] memory) {\n        return auctions;\n    }\n\n    function getMarketTemplateId(address _auction) external view returns(uint64) {\n        return auctionInfo[_auction].templateId;\n    }\n}\n",
  "sourcePath": "contracts/MISOMarket.sol",
  "type": "contract"
}